{
  "_format": "hh-sol-artifact-1",
  "contractName": "WrappedTokenMock",
  "sourceName": "contracts/lop/mocks/WrappedTokenMock.sol",
  "abi": [
    {
      "inputs": [
        {
          "internalType": "string",
          "name": "name",
          "type": "string"
        },
        {
          "internalType": "string",
          "name": "symbol",
          "type": "string"
        }
      ],
      "stateMutability": "nonpayable",
      "type": "constructor"
    },
    {
      "inputs": [],
      "name": "ECDSAInvalidSignature",
      "type": "error"
    },
    {
      "inputs": [
        {
          "internalType": "uint256",
          "name": "length",
          "type": "uint256"
        }
      ],
      "name": "ECDSAInvalidSignatureLength",
      "type": "error"
    },
    {
      "inputs": [
        {
          "internalType": "bytes32",
          "name": "s",
          "type": "bytes32"
        }
      ],
      "name": "ECDSAInvalidSignatureS",
      "type": "error"
    },
    {
      "inputs": [
        {
          "internalType": "address",
          "name": "spender",
          "type": "address"
        },
        {
          "internalType": "uint256",
          "name": "allowance",
          "type": "uint256"
        },
        {
          "internalType": "uint256",
          "name": "needed",
          "type": "uint256"
        }
      ],
      "name": "ERC20InsufficientAllowance",
      "type": "error"
    },
    {
      "inputs": [
        {
          "internalType": "address",
          "name": "sender",
          "type": "address"
        },
        {
          "internalType": "uint256",
          "name": "balance",
          "type": "uint256"
        },
        {
          "internalType": "uint256",
          "name": "needed",
          "type": "uint256"
        }
      ],
      "name": "ERC20InsufficientBalance",
      "type": "error"
    },
    {
      "inputs": [
        {
          "internalType": "address",
          "name": "approver",
          "type": "address"
        }
      ],
      "name": "ERC20InvalidApprover",
      "type": "error"
    },
    {
      "inputs": [
        {
          "internalType": "address",
          "name": "receiver",
          "type": "address"
        }
      ],
      "name": "ERC20InvalidReceiver",
      "type": "error"
    },
    {
      "inputs": [
        {
          "internalType": "address",
          "name": "sender",
          "type": "address"
        }
      ],
      "name": "ERC20InvalidSender",
      "type": "error"
    },
    {
      "inputs": [
        {
          "internalType": "address",
          "name": "spender",
          "type": "address"
        }
      ],
      "name": "ERC20InvalidSpender",
      "type": "error"
    },
    {
      "inputs": [
        {
          "internalType": "uint256",
          "name": "deadline",
          "type": "uint256"
        }
      ],
      "name": "ERC2612ExpiredSignature",
      "type": "error"
    },
    {
      "inputs": [
        {
          "internalType": "address",
          "name": "signer",
          "type": "address"
        },
        {
          "internalType": "address",
          "name": "owner",
          "type": "address"
        }
      ],
      "name": "ERC2612InvalidSigner",
      "type": "error"
    },
    {
      "inputs": [
        {
          "internalType": "address",
          "name": "account",
          "type": "address"
        },
        {
          "internalType": "uint256",
          "name": "currentNonce",
          "type": "uint256"
        }
      ],
      "name": "InvalidAccountNonce",
      "type": "error"
    },
    {
      "inputs": [],
      "name": "InvalidShortString",
      "type": "error"
    },
    {
      "inputs": [],
      "name": "NotEnoughBalance",
      "type": "error"
    },
    {
      "inputs": [
        {
          "internalType": "address",
          "name": "owner",
          "type": "address"
        }
      ],
      "name": "OwnableInvalidOwner",
      "type": "error"
    },
    {
      "inputs": [
        {
          "internalType": "address",
          "name": "account",
          "type": "address"
        }
      ],
      "name": "OwnableUnauthorizedAccount",
      "type": "error"
    },
    {
      "inputs": [
        {
          "internalType": "string",
          "name": "str",
          "type": "string"
        }
      ],
      "name": "StringTooLong",
      "type": "error"
    },
    {
      "anonymous": false,
      "inputs": [
        {
          "indexed": true,
          "internalType": "address",
          "name": "owner",
          "type": "address"
        },
        {
          "indexed": true,
          "internalType": "address",
          "name": "spender",
          "type": "address"
        },
        {
          "indexed": false,
          "internalType": "uint256",
          "name": "value",
          "type": "uint256"
        }
      ],
      "name": "Approval",
      "type": "event"
    },
    {
      "anonymous": false,
      "inputs": [
        {
          "indexed": true,
          "internalType": "address",
          "name": "dst",
          "type": "address"
        },
        {
          "indexed": false,
          "internalType": "uint256",
          "name": "wad",
          "type": "uint256"
        }
      ],
      "name": "Deposit",
      "type": "event"
    },
    {
      "anonymous": false,
      "inputs": [],
      "name": "EIP712DomainChanged",
      "type": "event"
    },
    {
      "anonymous": false,
      "inputs": [
        {
          "indexed": true,
          "internalType": "address",
          "name": "previousOwner",
          "type": "address"
        },
        {
          "indexed": true,
          "internalType": "address",
          "name": "newOwner",
          "type": "address"
        }
      ],
      "name": "OwnershipTransferred",
      "type": "event"
    },
    {
      "anonymous": false,
      "inputs": [
        {
          "indexed": true,
          "internalType": "address",
          "name": "from",
          "type": "address"
        },
        {
          "indexed": true,
          "internalType": "address",
          "name": "to",
          "type": "address"
        },
        {
          "indexed": false,
          "internalType": "uint256",
          "name": "value",
          "type": "uint256"
        }
      ],
      "name": "Transfer",
      "type": "event"
    },
    {
      "anonymous": false,
      "inputs": [
        {
          "indexed": true,
          "internalType": "address",
          "name": "src",
          "type": "address"
        },
        {
          "indexed": false,
          "internalType": "uint256",
          "name": "wad",
          "type": "uint256"
        }
      ],
      "name": "Withdrawal",
      "type": "event"
    },
    {
      "inputs": [],
      "name": "DOMAIN_SEPARATOR",
      "outputs": [
        {
          "internalType": "bytes32",
          "name": "",
          "type": "bytes32"
        }
      ],
      "stateMutability": "view",
      "type": "function"
    },
    {
      "inputs": [
        {
          "internalType": "address",
          "name": "owner",
          "type": "address"
        },
        {
          "internalType": "address",
          "name": "spender",
          "type": "address"
        }
      ],
      "name": "allowance",
      "outputs": [
        {
          "internalType": "uint256",
          "name": "",
          "type": "uint256"
        }
      ],
      "stateMutability": "view",
      "type": "function"
    },
    {
      "inputs": [
        {
          "internalType": "address",
          "name": "spender",
          "type": "address"
        },
        {
          "internalType": "uint256",
          "name": "value",
          "type": "uint256"
        }
      ],
      "name": "approve",
      "outputs": [
        {
          "internalType": "bool",
          "name": "",
          "type": "bool"
        }
      ],
      "stateMutability": "nonpayable",
      "type": "function"
    },
    {
      "inputs": [
        {
          "internalType": "address",
          "name": "account",
          "type": "address"
        }
      ],
      "name": "balanceOf",
      "outputs": [
        {
          "internalType": "uint256",
          "name": "",
          "type": "uint256"
        }
      ],
      "stateMutability": "view",
      "type": "function"
    },
    {
      "inputs": [],
      "name": "decimals",
      "outputs": [
        {
          "internalType": "uint8",
          "name": "",
          "type": "uint8"
        }
      ],
      "stateMutability": "view",
      "type": "function"
    },
    {
      "inputs": [],
      "name": "deposit",
      "outputs": [],
      "stateMutability": "payable",
      "type": "function"
    },
    {
      "inputs": [],
      "name": "eip712Domain",
      "outputs": [
        {
          "internalType": "bytes1",
          "name": "fields",
          "type": "bytes1"
        },
        {
          "internalType": "string",
          "name": "name",
          "type": "string"
        },
        {
          "internalType": "string",
          "name": "version",
          "type": "string"
        },
        {
          "internalType": "uint256",
          "name": "chainId",
          "type": "uint256"
        },
        {
          "internalType": "address",
          "name": "verifyingContract",
          "type": "address"
        },
        {
          "internalType": "bytes32",
          "name": "salt",
          "type": "bytes32"
        },
        {
          "internalType": "uint256[]",
          "name": "extensions",
          "type": "uint256[]"
        }
      ],
      "stateMutability": "view",
      "type": "function"
    },
    {
      "inputs": [],
      "name": "getChainId",
      "outputs": [
        {
          "internalType": "uint256",
          "name": "",
          "type": "uint256"
        }
      ],
      "stateMutability": "view",
      "type": "function"
    },
    {
      "inputs": [],
      "name": "name",
      "outputs": [
        {
          "internalType": "string",
          "name": "",
          "type": "string"
        }
      ],
      "stateMutability": "view",
      "type": "function"
    },
    {
      "inputs": [
        {
          "internalType": "address",
          "name": "owner",
          "type": "address"
        }
      ],
      "name": "nonces",
      "outputs": [
        {
          "internalType": "uint256",
          "name": "",
          "type": "uint256"
        }
      ],
      "stateMutability": "view",
      "type": "function"
    },
    {
      "inputs": [],
      "name": "owner",
      "outputs": [
        {
          "internalType": "address",
          "name": "",
          "type": "address"
        }
      ],
      "stateMutability": "view",
      "type": "function"
    },
    {
      "inputs": [
        {
          "internalType": "address",
          "name": "owner",
          "type": "address"
        },
        {
          "internalType": "address",
          "name": "spender",
          "type": "address"
        },
        {
          "internalType": "uint256",
          "name": "value",
          "type": "uint256"
        },
        {
          "internalType": "uint256",
          "name": "deadline",
          "type": "uint256"
        },
        {
          "internalType": "uint8",
          "name": "v",
          "type": "uint8"
        },
        {
          "internalType": "bytes32",
          "name": "r",
          "type": "bytes32"
        },
        {
          "internalType": "bytes32",
          "name": "s",
          "type": "bytes32"
        }
      ],
      "name": "permit",
      "outputs": [],
      "stateMutability": "nonpayable",
      "type": "function"
    },
    {
      "inputs": [],
      "name": "renounceOwnership",
      "outputs": [],
      "stateMutability": "nonpayable",
      "type": "function"
    },
    {
      "inputs": [],
      "name": "symbol",
      "outputs": [
        {
          "internalType": "string",
          "name": "",
          "type": "string"
        }
      ],
      "stateMutability": "view",
      "type": "function"
    },
    {
      "inputs": [],
      "name": "totalSupply",
      "outputs": [
        {
          "internalType": "uint256",
          "name": "",
          "type": "uint256"
        }
      ],
      "stateMutability": "view",
      "type": "function"
    },
    {
      "inputs": [
        {
          "internalType": "address",
          "name": "to",
          "type": "address"
        },
        {
          "internalType": "uint256",
          "name": "value",
          "type": "uint256"
        }
      ],
      "name": "transfer",
      "outputs": [
        {
          "internalType": "bool",
          "name": "",
          "type": "bool"
        }
      ],
      "stateMutability": "nonpayable",
      "type": "function"
    },
    {
      "inputs": [
        {
          "internalType": "address",
          "name": "from",
          "type": "address"
        },
        {
          "internalType": "address",
          "name": "to",
          "type": "address"
        },
        {
          "internalType": "uint256",
          "name": "value",
          "type": "uint256"
        }
      ],
      "name": "transferFrom",
      "outputs": [
        {
          "internalType": "bool",
          "name": "",
          "type": "bool"
        }
      ],
      "stateMutability": "nonpayable",
      "type": "function"
    },
    {
      "inputs": [
        {
          "internalType": "address",
          "name": "newOwner",
          "type": "address"
        }
      ],
      "name": "transferOwnership",
      "outputs": [],
      "stateMutability": "nonpayable",
      "type": "function"
    },
    {
      "inputs": [
        {
          "internalType": "uint256",
          "name": "wad",
          "type": "uint256"
        }
      ],
      "name": "withdraw",
      "outputs": [],
      "stateMutability": "nonpayable",
      "type": "function"
    },
    {
      "stateMutability": "payable",
      "type": "receive"
    }
  ],
  "bytecode": "0x61016060408181523462000483576200204f803803809162000022828662000488565b84398201918181840312620004835780516001600160401b03939084811162000483578162000053918401620004d1565b916020918282015186811162000483576200006f9201620004d1565b93835191848301838110838211176200038e57855260019283815281810193603160f81b855285518481116200038e5760038054918383811c9316801562000478575b868410146200046257601f9283811162000417575b508086848211600114620003b057600091620003a4575b5060001982841b1c191690841b1781555b8951918683116200038e5760049a8b548581811c9116801562000383575b888210146200036e5782811162000323575b5086918411600114620002b857938394918492600095620002ac575b50501b92600019911b1c19161787555b62000156856200052c565b936101209485526200016882620006d1565b95610140968752838151910120918260e05251902096610100978089524660a0528751938401927f8b73c3c69bb8fe3d512ecc4cf759cc79239f7b179b0ffacaa9a75d522b39400f84528885015260608401524660808401523060a084015260a0835260c083019383851090851117620002975750828652815190206080523060c05233156200028057505060088054336001600160a01b0319821681179092559351936001600160a01b03167f8be0079c531659141344cd1fd0a4f28419497f9722a3daafe3b4186f6b6457e0600080a361182693846200082985396080518461125e015260a0518461132a015260c0518461122f015260e051846112ad015251836112d301525182610692015251816106bc0152f35b631e4fbdf760e01b8252600060c490910152602490fd5b604190634e487b7160e01b6000525260246000fd5b0151935038806200013b565b9190601f198416928c60005284886000209460005b8a898383106200030b5750505010620002f0575b50505050811b0187556200014b565b01519060f884600019921b161c1916905538808080620002e1565b868601518955909701969485019488935001620002cd565b8c600052876000208380870160051c8201928a881062000364575b0160051c019086905b828110620003575750506200011f565b6000815501869062000347565b925081926200033e565b60228d634e487b7160e01b6000525260246000fd5b90607f16906200010d565b634e487b7160e01b600052604160045260246000fd5b905089015138620000de565b60008481528881208794509190601f198416908a8e5b838310620003ff575050508311620003e6575b5050811b018155620000ef565b8b015160001983861b60f8161c191690553880620003d9565b840151855589969094019392830192018a8e620003c6565b82600052866000208480840160051c82019289851062000458575b0160051c019085905b8281106200044b575050620000c7565b600081550185906200043b565b9250819262000432565b634e487b7160e01b600052602260045260246000fd5b92607f1692620000b2565b600080fd5b601f909101601f19168101906001600160401b038211908210176200038e57604052565b60005b838110620004c05750506000910152565b8181015183820152602001620004af565b81601f82011215620004835780516001600160401b0381116200038e576040519262000508601f8301601f19166020018562000488565b818452602082840101116200048357620005299160208085019101620004ac565b90565b80516020919082811015620005ac575090601f8251116200056a57808251920151908083106200055b57501790565b82600019910360031b1b161790565b6044906200059e9260405193849263305a27a960e01b845280600485015282519283918260248701528686019101620004ac565b601f01601f19168101030190fd5b6001600160401b0381116200038e576005928354926001938481811c91168015620006c6575b838210146200046257601f81116200068f575b5081601f841160011462000625575092829391839260009462000619575b50501b916000199060031b1c191617905560ff90565b01519250388062000603565b919083601f1981168760005284600020946000905b888383106200067457505050106200065a575b505050811b01905560ff90565b015160001960f88460031b161c191690553880806200064d565b8587015188559096019594850194879350908101906200063a565b8560005284601f846000209201871c820191601f8601881c015b828110620006b9575050620005e5565b60008155018590620006a9565b90607f1690620005d2565b805160209081811015620006fe5750601f8251116200056a57808251920151908083106200055b57501790565b906001600160401b0382116200038e57600654926001938481811c911680156200081d575b838210146200046257601f8111620007e3575b5081601f84116001146200077757509282939183926000946200076b575b50501b916000199060031b1c19161760065560ff90565b01519250388062000754565b919083601f198116600660005284600020946000905b88838310620007c85750505010620007ae575b505050811b0160065560ff90565b015160001960f88460031b161c19169055388080620007a0565b8587015188559096019594850194879350908101906200078d565b600660005284601f84600020920160051c820191601f860160051c015b8281106200081057505062000736565b6000815501859062000800565b90607f16906200072356fe60806040818152600480361015610029575b505050361561001f57600080fd5b610027611022565b005b600092833560e01c90816306fdde0314610d8657508063095ea7b314610d3e57806318160ddd14610d0157806323b872dd14610b7b5780632e1a7d4d146109e5578063313ce567146109ab5780633408e470146109725780633644e5151461093057806370a08231146108cf578063715018a6146108315780637ecebe00146107cf57806384b0196e1461065d5780638da5cb5b1461060a57806395d89b41146104df578063a9059cbb14610490578063d0e30db01461045b578063d505accf14610262578063dd62ed3e146101ea5763f2fde38b0361001157346101e65760207ffffffffffffffffffffffffffffffffffffffffffffffffffffffffffffffffc3601126101e65761013a610ef8565b90610143611350565b73ffffffffffffffffffffffffffffffffffffffff8092169283156101b7575050600854827fffffffffffffffffffffffff0000000000000000000000000000000000000000821617600855167f8be0079c531659141344cd1fd0a4f28419497f9722a3daafe3b4186f6b6457e08380a380f35b908460249251917f1e4fbdf7000000000000000000000000000000000000000000000000000000008352820152fd5b8280fd5b50503461025e57807ffffffffffffffffffffffffffffffffffffffffffffffffffffffffffffffffc36011261025e5780602092610226610ef8565b61022e610f20565b73ffffffffffffffffffffffffffffffffffffffff91821683526001865283832091168252845220549051908152f35b5080fd5b5082903461025e5760e07ffffffffffffffffffffffffffffffffffffffffffffffffffffffffffffffffc36011261025e5761029c610ef8565b6102a4610f20565b906044359260643560843560ff81168103610457578142116104285773ffffffffffffffffffffffffffffffffffffffff90818516928389526007602052898920908154916001830190558a519060208201927f6e71edae12b1b97f4d1f60370fef10105fa2faae0126114a169c64845d6126c98452868d840152858a1660608401528a608084015260a083015260c082015260c0815260e0810181811067ffffffffffffffff8211176103fc578b525190206103b1916103a891610367611218565b908c51917f190100000000000000000000000000000000000000000000000000000000000083526002830152602282015260c43591604260a435922061166c565b90929192611709565b168181036103c857866103c58787876113a1565b80f35b604493508751927f4b800e460000000000000000000000000000000000000000000000000000000084528301526024820152fd5b60248b6041897f4e487b7100000000000000000000000000000000000000000000000000000000835252fd5b602483838a51917f62791302000000000000000000000000000000000000000000000000000000008352820152fd5b8680fd5b83807ffffffffffffffffffffffffffffffffffffffffffffffffffffffffffffffffc36011261048d576103c5611022565b80fd5b50503461025e57807ffffffffffffffffffffffffffffffffffffffffffffffffffffffffffffffffc36011261025e576020906104d86104ce610ef8565b6024359033611108565b5160018152f35b5090346101e657827ffffffffffffffffffffffffffffffffffffffffffffffffffffffffffffffffc3601126101e657805183819490845461052081610f43565b91828552602096600192886001821691826000146105c2575050600114610567575b858861056389610554848a0385610fe1565b51928284938452830190610e9a565b0390f35b815286935091907f8a35acfbc15ff81a39ae7d344fd709f28e8600b4aa8c65c6b64bfe7fe36bd19b5b8284106105aa575050508201018161055461056338610542565b8054848a018601528895508794909301928101610590565b7fffffffffffffffffffffffffffffffffffffffffffffffffffffffffffffff00168882015294151560051b8701909401945085935061055492506105639150389050610542565b50503461025e57817ffffffffffffffffffffffffffffffffffffffffffffffffffffffffffffffffc36011261025e5760209073ffffffffffffffffffffffffffffffffffffffff600854169051908152f35b5090346101e657827ffffffffffffffffffffffffffffffffffffffffffffffffffffffffffffffffc3601126101e6576106b67f0000000000000000000000000000000000000000000000000000000000000000611471565b926106e07f00000000000000000000000000000000000000000000000000000000000000006115ac565b90825192602092602085019585871067ffffffffffffffff8811176107a3575092602061075983889661074c998b9996528686528151998a997f0f000000000000000000000000000000000000000000000000000000000000008b5260e0868c015260e08b0190610e9a565b91898303908a0152610e9a565b924660608801523060808801528460a088015286840360c088015251928381520193925b82811061078c57505050500390f35b83518552869550938101939281019260010161077d565b8360416024927f4e487b7100000000000000000000000000000000000000000000000000000000835252fd5b50503461025e5760207ffffffffffffffffffffffffffffffffffffffffffffffffffffffffffffffffc36011261025e578060209273ffffffffffffffffffffffffffffffffffffffff610821610ef8565b1681526007845220549051908152f35b833461048d57807ffffffffffffffffffffffffffffffffffffffffffffffffffffffffffffffffc36011261048d57610868611350565b8073ffffffffffffffffffffffffffffffffffffffff6008547fffffffffffffffffffffffff00000000000000000000000000000000000000008116600855167f8be0079c531659141344cd1fd0a4f28419497f9722a3daafe3b4186f6b6457e08280a380f35b50503461025e5760207ffffffffffffffffffffffffffffffffffffffffffffffffffffffffffffffffc36011261025e578060209273ffffffffffffffffffffffffffffffffffffffff610921610ef8565b16815280845220549051908152f35b50503461025e57817ffffffffffffffffffffffffffffffffffffffffffffffffffffffffffffffffc36011261025e5760209061096b611218565b9051908152f35b50503461025e57817ffffffffffffffffffffffffffffffffffffffffffffffffffffffffffffffffc36011261025e5760209051468152f35b50503461025e57817ffffffffffffffffffffffffffffffffffffffffffffffffffffffffffffffffc36011261025e576020905160128152f35b50346101e6576020807ffffffffffffffffffffffffffffffffffffffffffffffffffffffffffffffffc360112610b7757813591338552848252828486205410610b50573315610b21573385528482528385205490838210610add57508290338652858352038385205581600254036002558383518381527fddf252ad1be2c89b69c2b068fc378daa952ba7f163c4a11628f55a4df523b3ef833392a38380838015610ad3575b8280929181923390f115610ac7577f7fcf532c15f0a6db0bd6d0e038bea71d30d808c7d98cb3bf7268a95bf5081b659192519283523392a280f35b505051903d90823e3d90fd5b6108fc9150610a8c565b84517fe450d38c0000000000000000000000000000000000000000000000000000000081523391810191825260208201929092526040810184905281906060010390fd5b602490858551917f96c6fd1e000000000000000000000000000000000000000000000000000000008352820152fd5b83517fad3a8b9e000000000000000000000000000000000000000000000000000000008152fd5b8380fd5b50823461048d5760607ffffffffffffffffffffffffffffffffffffffffffffffffffffffffffffffffc36011261048d57610bb4610ef8565b610bbc610f20565b916044359373ffffffffffffffffffffffffffffffffffffffff8316808352600160205286832033845260205286832054917fffffffffffffffffffffffffffffffffffffffffffffffffffffffffffffffff8310610c24575b6020886104d8898989611108565b868310610cbc578115610c8d573315610c5e575082526001602090815286832033845281529186902090859003905582906104d887610c16565b602490848951917f94280d62000000000000000000000000000000000000000000000000000000008352820152fd5b602490848951917fe602df05000000000000000000000000000000000000000000000000000000008352820152fd5b87517ffb8f41b2000000000000000000000000000000000000000000000000000000008152339181019182526020820193909352604081018790528291506060010390fd5b50503461025e57817ffffffffffffffffffffffffffffffffffffffffffffffffffffffffffffffffc36011261025e576020906002549051908152f35b50503461025e57807ffffffffffffffffffffffffffffffffffffffffffffffffffffffffffffffffc36011261025e576020906104d8610d7c610ef8565b60243590336113a1565b84843461025e57817ffffffffffffffffffffffffffffffffffffffffffffffffffffffffffffffffc36011261025e578282600354610dc481610f43565b9081845260209560019187600182169182600014610e55575050600114610df9575b5050506105639291610554910385610fe1565b9190869350600383527fc2575a0e9e593c00f959f8c92f12db2869c3395a3b0502d05e2516446f71f85b5b828410610e3d5750505082010181610554610563610de6565b8054848a018601528895508794909301928101610e24565b7fffffffffffffffffffffffffffffffffffffffffffffffffffffffffffffff00168782015293151560051b8601909301935084925061055491506105639050610de6565b919082519283825260005b848110610ee45750507fffffffffffffffffffffffffffffffffffffffffffffffffffffffffffffffe0601f8460006020809697860101520116010190565b602081830181015184830182015201610ea5565b6004359073ffffffffffffffffffffffffffffffffffffffff82168203610f1b57565b600080fd5b6024359073ffffffffffffffffffffffffffffffffffffffff82168203610f1b57565b90600182811c92168015610f8c575b6020831014610f5d57565b7f4e487b7100000000000000000000000000000000000000000000000000000000600052602260045260246000fd5b91607f1691610f52565b6040810190811067ffffffffffffffff821117610fb257604052565b7f4e487b7100000000000000000000000000000000000000000000000000000000600052604160045260246000fd5b90601f7fffffffffffffffffffffffffffffffffffffffffffffffffffffffffffffffe0910116810190811067ffffffffffffffff821117610fb257604052565b33156110d7576002543481018091116110a857600255336000526000602052604060002034815401905560405134815260007fddf252ad1be2c89b69c2b068fc378daa952ba7f163c4a11628f55a4df523b3ef60203393a36040513481527fe1fffcc4923d04b559f4d29a8bfc6cda04eb5b0d3c460751c2402c5c5cc9109c60203392a2565b7f4e487b7100000000000000000000000000000000000000000000000000000000600052601160045260246000fd5b60246040517fec442f0500000000000000000000000000000000000000000000000000000000815260006004820152fd5b9173ffffffffffffffffffffffffffffffffffffffff8084169283156111e757169283156110d7576000908382528160205260408220549083821061118f575091604082827fddf252ad1be2c89b69c2b068fc378daa952ba7f163c4a11628f55a4df523b3ef958760209652828652038282205586815220818154019055604051908152a3565b6040517fe450d38c00000000000000000000000000000000000000000000000000000000815273ffffffffffffffffffffffffffffffffffffffff919091166004820152602481019190915260448101839052606490fd5b60246040517f96c6fd1e00000000000000000000000000000000000000000000000000000000815260006004820152fd5b73ffffffffffffffffffffffffffffffffffffffff7f000000000000000000000000000000000000000000000000000000000000000016301480611327575b15611280577f000000000000000000000000000000000000000000000000000000000000000090565b60405160208101907f8b73c3c69bb8fe3d512ecc4cf759cc79239f7b179b0ffacaa9a75d522b39400f82527f000000000000000000000000000000000000000000000000000000000000000060408201527f000000000000000000000000000000000000000000000000000000000000000060608201524660808201523060a082015260a0815260c0810181811067ffffffffffffffff821117610fb25760405251902090565b507f00000000000000000000000000000000000000000000000000000000000000004614611257565b73ffffffffffffffffffffffffffffffffffffffff60085416330361137157565b60246040517f118cdaa7000000000000000000000000000000000000000000000000000000008152336004820152fd5b73ffffffffffffffffffffffffffffffffffffffff809116918215611440571691821561140f5760207f8c5be1e5ebec7d5bd14f71427d1e84f3dd0314c0f7b2291e5b200ac8c7c3b925918360005260018252604060002085600052825280604060002055604051908152a3565b60246040517f94280d6200000000000000000000000000000000000000000000000000000000815260006004820152fd5b60246040517fe602df0500000000000000000000000000000000000000000000000000000000815260006004820152fd5b60ff81146114c75760ff811690601f821161149d576040519161149383610f96565b8252602082015290565b60046040517fb3512b0c000000000000000000000000000000000000000000000000000000008152fd5b506040516005548160006114da83610f43565b808352926020906001908181169081156115695750600114611508575b505061150592500382610fe1565b90565b91509260056000527f036b6384b5eca791c62761152d0c79bb0604c104a5fb6f4eb0703f3154bb3db0936000925b828410611551575061150594505050810160200138806114f7565b85548785018301529485019486945092810192611536565b9050602093506115059592507fffffffffffffffffffffffffffffffffffffffffffffffffffffffffffffff0091501682840152151560051b82010138806114f7565b60ff81146115ce5760ff811690601f821161149d576040519161149383610f96565b506040516006548160006115e183610f43565b80835292602090600190818116908115611569575060011461160b57505061150592500382610fe1565b91509260066000527ff652222313e28459528d920b65115c16c04f3efc82aaedc97be59f3f377c0d3f936000925b828410611654575061150594505050810160200138806114f7565b85548785018301529485019486945092810192611639565b91907f7fffffffffffffffffffffffffffffff5d576e7357a4501ddfe92f46681b20a084116116fd57926020929160ff608095604051948552168484015260408301526060820152600092839182805260015afa156116f157805173ffffffffffffffffffffffffffffffffffffffff8116156116e857918190565b50809160019190565b604051903d90823e3d90fd5b50505060009160039190565b60048110156117c1578061171b575050565b6001810361174d5760046040517ff645eedf000000000000000000000000000000000000000000000000000000008152fd5b6002810361178657602482604051907ffce698f70000000000000000000000000000000000000000000000000000000082526004820152fd5b6003146117905750565b602490604051907fd78bce0c0000000000000000000000000000000000000000000000000000000082526004820152fd5b7f4e487b7100000000000000000000000000000000000000000000000000000000600052602160045260246000fdfea26469706673582212209578dd240707c97814ef3f9a7c59e2edd2f1314abc13e8169bb351c9f05a0c0064736f6c63430008170033",
  "linkReferences": {},
  "deployedLinkReferences": {}
}