{
  "_format": "hh-sol-artifact-1",
  "contractName": "ChainlinkCalculator",
  "sourceName": "contracts/lop/extensions/ChainlinkCalculator.sol",
  "abi": [
    {
      "inputs": [],
      "name": "DifferentOracleDecimals",
      "type": "error"
    },
    {
      "inputs": [
        {
          "internalType": "int256",
          "name": "value",
          "type": "int256"
        }
      ],
      "name": "SafeCastOverflowedIntToUint",
      "type": "error"
    },
    {
      "inputs": [],
      "name": "StaleOraclePrice",
      "type": "error"
    },
    {
      "inputs": [
        {
          "internalType": "contract AggregatorV3Interface",
          "name": "oracle1",
          "type": "address"
        },
        {
          "internalType": "contract AggregatorV3Interface",
          "name": "oracle2",
          "type": "address"
        },
        {
          "internalType": "int256",
          "name": "decimalsScale",
          "type": "int256"
        },
        {
          "internalType": "uint256",
          "name": "amount",
          "type": "uint256"
        }
      ],
      "name": "doublePrice",
      "outputs": [
        {
          "internalType": "uint256",
          "name": "result",
          "type": "uint256"
        }
      ],
      "stateMutability": "view",
      "type": "function"
    },
    {
      "inputs": [
        {
          "components": [
            {
              "internalType": "uint256",
              "name": "salt",
              "type": "uint256"
            },
            {
              "internalType": "Address",
              "name": "maker",
              "type": "uint256"
            },
            {
              "internalType": "Address",
              "name": "receiver",
              "type": "uint256"
            },
            {
              "internalType": "Address",
              "name": "makerAsset",
              "type": "uint256"
            },
            {
              "internalType": "Address",
              "name": "takerAsset",
              "type": "uint256"
            },
            {
              "internalType": "uint256",
              "name": "makingAmount",
              "type": "uint256"
            },
            {
              "internalType": "uint256",
              "name": "takingAmount",
              "type": "uint256"
            },
            {
              "internalType": "MakerTraits",
              "name": "makerTraits",
              "type": "uint256"
            }
          ],
          "internalType": "struct IOrderMixin.Order",
          "name": "",
          "type": "tuple"
        },
        {
          "internalType": "bytes",
          "name": "",
          "type": "bytes"
        },
        {
          "internalType": "bytes32",
          "name": "",
          "type": "bytes32"
        },
        {
          "internalType": "address",
          "name": "",
          "type": "address"
        },
        {
          "internalType": "uint256",
          "name": "takingAmount",
          "type": "uint256"
        },
        {
          "internalType": "uint256",
          "name": "",
          "type": "uint256"
        },
        {
          "internalType": "bytes",
          "name": "extraData",
          "type": "bytes"
        }
      ],
      "name": "getMakingAmount",
      "outputs": [
        {
          "internalType": "uint256",
          "name": "",
          "type": "uint256"
        }
      ],
      "stateMutability": "view",
      "type": "function"
    },
    {
      "inputs": [
        {
          "components": [
            {
              "internalType": "uint256",
              "name": "salt",
              "type": "uint256"
            },
            {
              "internalType": "Address",
              "name": "maker",
              "type": "uint256"
            },
            {
              "internalType": "Address",
              "name": "receiver",
              "type": "uint256"
            },
            {
              "internalType": "Address",
              "name": "makerAsset",
              "type": "uint256"
            },
            {
              "internalType": "Address",
              "name": "takerAsset",
              "type": "uint256"
            },
            {
              "internalType": "uint256",
              "name": "makingAmount",
              "type": "uint256"
            },
            {
              "internalType": "uint256",
              "name": "takingAmount",
              "type": "uint256"
            },
            {
              "internalType": "MakerTraits",
              "name": "makerTraits",
              "type": "uint256"
            }
          ],
          "internalType": "struct IOrderMixin.Order",
          "name": "",
          "type": "tuple"
        },
        {
          "internalType": "bytes",
          "name": "",
          "type": "bytes"
        },
        {
          "internalType": "bytes32",
          "name": "",
          "type": "bytes32"
        },
        {
          "internalType": "address",
          "name": "",
          "type": "address"
        },
        {
          "internalType": "uint256",
          "name": "makingAmount",
          "type": "uint256"
        },
        {
          "internalType": "uint256",
          "name": "",
          "type": "uint256"
        },
        {
          "internalType": "bytes",
          "name": "extraData",
          "type": "bytes"
        }
      ],
      "name": "getTakingAmount",
      "outputs": [
        {
          "internalType": "uint256",
          "name": "",
          "type": "uint256"
        }
      ],
      "stateMutability": "view",
      "type": "function"
    }
  ],
  "bytecode": "0x608080604052346100165761098a908161001c8239f35b600080fdfe6080604052600436101561001257600080fd5b6000803560e01c9081631d9671c314610040578163d137823914610045575063d7ff8a801461004057600080fd5b6100f2565b346100bc5760807ffffffffffffffffffffffffffffffffffffffffffffffffffffffffffffffffc3601126100bc5760043573ffffffffffffffffffffffffffffffffffffffff9182821682036100bc5760243592831683036100bc5760206100b460643560443586866105b4565b604051908152f35b80fd5b9181601f840112156100ed5782359167ffffffffffffffff83116100ed57602083818601950101116100ed57565b600080fd5b346100ed577ffffffffffffffffffffffffffffffffffffffffffffffffffffffffffffffffc36016101c081126100ed57610100136100ed5767ffffffffffffffff610104358181116100ed5761014d9036906004016100bf565b50506101443573ffffffffffffffffffffffffffffffffffffffff8116036100ed576101a4359081116100ed576100b461018d60209236906004016100bf565b90610164356102f8565b90601f7fffffffffffffffffffffffffffffffffffffffffffffffffffffffffffffffe0910116810190811067ffffffffffffffff8211176101d857604052565b7f4e487b7100000000000000000000000000000000000000000000000000000000600052604160045260246000fd5b519069ffffffffffffffffffff821682036100ed57565b908160a09103126100ed5761023281610207565b91602082015191604081015191610250608060608401519301610207565b90565b8181029291811591840414171561026657565b7f4e487b7100000000000000000000000000000000000000000000000000000000600052601160045260246000fd5b908160209103126100ed575160ff811681036100ed5790565b60ff16604d811161026657600a0a90565b81156102c9570490565b7f4e487b7100000000000000000000000000000000000000000000000000000000600052601260045260246000fd5b9091806001116100ed5782357f4000000000000000000000000000000000000000000000000000000000000000808216036103845750806015116100ed57806029116100ed57806049116100ed576069116100ed5781610364610380926049633b9aca00950135610253565b906029810135906001601582013560601c91013560601c6105b4565b0490565b92816015939293116100ed57600181013560601c926035116100ed5760150135906040918251947ffeaf968c00000000000000000000000000000000000000000000000000000000865260a086600481885afa801561059b57600096600091610563575b50613840810180911161026657421161053a577f8000000000000000000000000000000000000000000000000000000000000000908116036104d457610432600492602092610253565b938351928380927f313ce5670000000000000000000000000000000000000000000000000000000082525afa9182156104ca575061048f61038093610489633b9aca0096946104959460009161049b575b506102ae565b90610253565b91610918565b906102bf565b6104bd915060203d6020116104c3575b6104b58183610197565b810190610295565b38610483565b503d6104ab565b513d6000823e3d90fd5b600492939461048961048f6020946104eb94610253565b938351928380927f313ce5670000000000000000000000000000000000000000000000000000000082525afa9182156104ca57509161049561038092633b9aca009460009161049b57506102ae565b600484517fa887f2d8000000000000000000000000000000000000000000000000000000008152fd5b905061058891965060a03d60a011610594575b6105808183610197565b81019061021e565b509792505095386103e8565b503d610576565b84513d6000823e3d90fd5b604d811161026657600a0a90565b9273ffffffffffffffffffffffffffffffffffffffff8094169360409182517f313ce5670000000000000000000000000000000000000000000000000000000092838252602090600496828489818d5afa93841561090d576000946108ee575b501693855190815281818881885afa9182156108e3579160ff929183926000926108c6575b50501691160361089e5782519485917ffeaf968c0000000000000000000000000000000000000000000000000000000097888452838760a0998a935afa9283156108935760009060009461086e575b506138409384810180911161084057421161081857906104896106aa92610918565b9060008113156107915786916104896106c56106ca93610918565b6105a6565b965b8585518095819382525afa9182156107865760009560009361075d575b5050810180911161072f5742116107095750509061049561025092610918565b517fa887f2d8000000000000000000000000000000000000000000000000000000008152fd5b6011837f4e487b71000000000000000000000000000000000000000000000000000000006000525260246000fd5b80919296506107789350903d10610594576105808183610197565b5095925050939038806106e9565b83513d6000823e3d90fd5b600081989298126107a5575b5085906106cc565b7f800000000000000000000000000000000000000000000000000000000000000081989298146107ea5786916104956106c56107e393600003610918565b969061079d565b6011867f4e487b71000000000000000000000000000000000000000000000000000000006000525260246000fd5b8686517fa887f2d8000000000000000000000000000000000000000000000000000000008152fd5b6011887f4e487b71000000000000000000000000000000000000000000000000000000006000525260246000fd5b9050610888919350873d8911610594576105808183610197565b509492505038610688565b85513d6000823e3d90fd5b5050517f274cd55d000000000000000000000000000000000000000000000000000000008152fd5b6108dc9250803d106104c3576104b58183610197565b3880610639565b86513d6000823e3d90fd5b610906919450833d85116104c3576104b58183610197565b9238610614565b87513d6000823e3d90fd5b600081126109235790565b602490604051907fa8ce44320000000000000000000000000000000000000000000000000000000082526004820152fdfea2646970667358221220deed56bc7378c58dc17f4ff33daf7b77b7cd815325acc17f40da9bc1c3dca9ba64736f6c63430008170033",
  "linkReferences": {},
  "deployedLinkReferences": {}
}