{
  "_format": "hh-sol-artifact-1",
  "contractName": "PriorityFeeLimiter",
  "sourceName": "contracts/lop/extensions/PrioirityFeeLimiter.sol",
  "abi": [
    {
      "inputs": [],
      "name": "isPriorityFeeValid",
      "outputs": [
        {
          "internalType": "bool",
          "name": "",
          "type": "bool"
        }
      ],
      "stateMutability": "view",
      "type": "function"
    }
  ],
  "bytecode": "0x608080604052346100155760de908161001b8239f35b600080fdfe6080806040526004361015601257600080fd5b600090813560e01c630202470814602857600080fd5b34606357817ffffffffffffffffffffffffffffffffffffffffffffffffffffffffffffffffc360112606357602090605d6067565b15158152f35b5080fd5b483a03640277cf2a0048106000146085576064604648029102111590565b64183cd7f100481015609b57489060011b111590565b606460414802910211159056fea2646970667358221220fed510b81c844e26fca77297ac43cca2d78ac0c192a7faf96f694316bc1caea264736f6c63430008170033",
  "linkReferences": {},
  "deployedLinkReferences": {}
}