{
  "_format": "hh-sol-artifact-1",
  "contractName": "ApprovalPreInteraction",
  "sourceName": "contracts/lop/extensions/ApprovalPreInteraction.sol",
  "abi": [
    {
      "inputs": [
        {
          "internalType": "address",
          "name": "_immutableOwner",
          "type": "address"
        },
        {
          "internalType": "address",
          "name": "_maker",
          "type": "address"
        }
      ],
      "stateMutability": "nonpayable",
      "type": "constructor"
    },
    {
      "inputs": [],
      "name": "IOAccessDenied",
      "type": "error"
    },
    {
      "inputs": [],
      "name": "UnathorizedMaker",
      "type": "error"
    },
    {
      "inputs": [],
      "name": "IMMUTABLE_OWNER",
      "outputs": [
        {
          "internalType": "address",
          "name": "",
          "type": "address"
        }
      ],
      "stateMutability": "view",
      "type": "function"
    },
    {
      "inputs": [
        {
          "internalType": "bytes32",
          "name": "orderHash",
          "type": "bytes32"
        },
        {
          "internalType": "bytes",
          "name": "signature",
          "type": "bytes"
        }
      ],
      "name": "isValidSignature",
      "outputs": [
        {
          "internalType": "bytes4",
          "name": "",
          "type": "bytes4"
        }
      ],
      "stateMutability": "view",
      "type": "function"
    },
    {
      "inputs": [
        {
          "components": [
            {
              "internalType": "uint256",
              "name": "salt",
              "type": "uint256"
            },
            {
              "internalType": "Address",
              "name": "maker",
              "type": "uint256"
            },
            {
              "internalType": "Address",
              "name": "receiver",
              "type": "uint256"
            },
            {
              "internalType": "Address",
              "name": "makerAsset",
              "type": "uint256"
            },
            {
              "internalType": "Address",
              "name": "takerAsset",
              "type": "uint256"
            },
            {
              "internalType": "uint256",
              "name": "makingAmount",
              "type": "uint256"
            },
            {
              "internalType": "uint256",
              "name": "takingAmount",
              "type": "uint256"
            },
            {
              "internalType": "MakerTraits",
              "name": "makerTraits",
              "type": "uint256"
            }
          ],
          "internalType": "struct IOrderMixin.Order",
          "name": "order",
          "type": "tuple"
        },
        {
          "internalType": "bytes",
          "name": "",
          "type": "bytes"
        },
        {
          "internalType": "bytes32",
          "name": "",
          "type": "bytes32"
        },
        {
          "internalType": "address",
          "name": "",
          "type": "address"
        },
        {
          "internalType": "uint256",
          "name": "makingAmount",
          "type": "uint256"
        },
        {
          "internalType": "uint256",
          "name": "",
          "type": "uint256"
        },
        {
          "internalType": "uint256",
          "name": "",
          "type": "uint256"
        },
        {
          "internalType": "bytes",
          "name": "",
          "type": "bytes"
        }
      ],
      "name": "preInteraction",
      "outputs": [],
      "stateMutability": "nonpayable",
      "type": "function"
    }
  ],
  "bytecode": "0x60c03461008057601f61068338819003918201601f19168301916001600160401b0383118484101761008557808492604094855283398101031261008057610052602061004b8361009b565b920161009b565b9060805260a0526040516105d390816100b08239608051818181608f01526101e1015260a0518161039b0152f35b600080fd5b634e487b7160e01b600052604160045260246000fd5b51906001600160a01b03821682036100805756fe608060408181526004918236101561001657600080fd5b600092833560e01c9182630986bdd514610141575081631626ba7e146100b7575063f3d1372f1461004657600080fd5b346100b357817ffffffffffffffffffffffffffffffffffffffffffffffffffffffffffffffffc3601126100b3576020905173ffffffffffffffffffffffffffffffffffffffff7f0000000000000000000000000000000000000000000000000000000000000000168152f35b5080fd5b82843461013e57817ffffffffffffffffffffffffffffffffffffffffffffffffffffffffffffffffc36011261013e576024359067ffffffffffffffff821161013e575061013660209361012f7fffffffff000000000000000000000000000000000000000000000000000000009336908301610360565b9135610393565b915191168152f35b80fd5b84828534610358577ffffffffffffffffffffffffffffffffffffffffffffffffffffffffffffffffc36016101e0811261035c57610100136103585767ffffffffffffffff90610104358281116103545761019f9036908501610360565b5050610144359473ffffffffffffffffffffffffffffffffffffffff9586811603610354576101c435838111610350576101dc9036908601610360565b5050857f0000000000000000000000000000000000000000000000000000000000000000163303610329575030856024351603610301576020849560448351809781937f095ea7b30000000000000000000000000000000000000000000000000000000083523389840152610164356024840152606435165af180156102f757610264578480f35b6020923d6020116102ef575b601f84017fffffffffffffffffffffffffffffffffffffffffffffffffffffffffffffffe0168501928311858410176102c35750526020908201829003126100b357518015150361013e57818080808480f35b8560416024927f4e487b7100000000000000000000000000000000000000000000000000000000835252fd5b3d9350610270565b81513d87823e3d90fd5b9050517fda30ae4b000000000000000000000000000000000000000000000000000000008152fd5b807f497131ed00000000000000000000000000000000000000000000000000000000859252fd5b8580fd5b8480fd5b8280fd5b8380fd5b9181601f8401121561038e5782359167ffffffffffffffff831161038e576020838186019501011161038e57565b600080fd5b906103bf92917f000000000000000000000000000000000000000000000000000000000000000061040c565b156103e8577f1626ba7e0000000000000000000000000000000000000000000000000000000090565b7fffffffff0000000000000000000000000000000000000000000000000000000090565b90919273ffffffffffffffffffffffffffffffffffffffff9182811692831561059257604093848414918215610587575b826104b5575b50506104ab576020928260009384978351937f1626ba7e0000000000000000000000000000000000000000000000000000000098898652600486015260248501528160448501526064840137606401915afa61049d575090565b600051143d60201416919050565b5050505050600190565b90915060008551858060411461056f5760401461052a575080805b6104df575b5016143880610443565b817f7fffffffffffffffffffffffffffffff5d576e7357a4501ddfe92f46681b20a1606083015110610512575b506104d5565b6080828a6020945282805260015afa5051388161050c565b807f7fffffffffffffffffffffffffffffffffffffffffffffffffffffffffffffff60208b01358060ff1c601b01602084015260208c8b8501371660608201526104d0565b5086890135821a602082015280878a818301376104d0565b60418514925061043d565b50505050505060009056fea26469706673582212206c9f1e9511930444403b1fcc5ec96c2b75c8d53a5a31433a9d4796665af9a3f864736f6c63430008170033",
  "linkReferences": {},
  "deployedLinkReferences": {}
}