{
  "_format": "hh-sol-artifact-1",
  "contractName": "Permit2WitnessProxy",
  "sourceName": "contracts/lop/extensions/Permit2WitnessProxy.sol",
  "abi": [
    {
      "inputs": [
        {
          "internalType": "address",
          "name": "_immutableOwner",
          "type": "address"
        }
      ],
      "stateMutability": "nonpayable",
      "type": "constructor"
    },
    {
      "inputs": [],
      "name": "IOAccessDenied",
      "type": "error"
    },
    {
      "inputs": [],
      "name": "Permit2WitnessProxyBadSelector",
      "type": "error"
    },
    {
      "inputs": [],
      "name": "IMMUTABLE_OWNER",
      "outputs": [
        {
          "internalType": "address",
          "name": "",
          "type": "address"
        }
      ],
      "stateMutability": "view",
      "type": "function"
    },
    {
      "inputs": [
        {
          "internalType": "address",
          "name": "from",
          "type": "address"
        },
        {
          "internalType": "address",
          "name": "to",
          "type": "address"
        },
        {
          "internalType": "uint256",
          "name": "amount",
          "type": "uint256"
        },
        {
          "components": [
            {
              "components": [
                {
                  "internalType": "address",
                  "name": "token",
                  "type": "address"
                },
                {
                  "internalType": "uint256",
                  "name": "amount",
                  "type": "uint256"
                }
              ],
              "internalType": "struct IPermit2WitnessTransferFrom.TokenPermissions",
              "name": "permitted",
              "type": "tuple"
            },
            {
              "internalType": "uint256",
              "name": "nonce",
              "type": "uint256"
            },
            {
              "internalType": "uint256",
              "name": "deadline",
              "type": "uint256"
            }
          ],
          "internalType": "struct IPermit2WitnessTransferFrom.PermitTransferFrom",
          "name": "permit",
          "type": "tuple"
        },
        {
          "internalType": "bytes32",
          "name": "witness",
          "type": "bytes32"
        },
        {
          "internalType": "bytes",
          "name": "sig",
          "type": "bytes"
        }
      ],
      "name": "func_801zDya",
      "outputs": [],
      "stateMutability": "nonpayable",
      "type": "function"
    }
  ],
  "bytecode": "0x60a03461007057601f61058638819003918201601f19168301916001600160401b038311848410176100755780849260209460405283398101031261007057516001600160a01b0381168103610070576080526040516104fa908161008c8239608051818181608101526101a30152f35b600080fd5b634e487b7160e01b600052604160045260246000fdfe608080604052600436101561001357600080fd5b600090813560e01c90816323b872dd146100a8575063f3d1372f1461003757600080fd5b346100a557807ffffffffffffffffffffffffffffffffffffffffffffffffffffffffffffffffc3601126100a557602060405173ffffffffffffffffffffffffffffffffffffffff7f0000000000000000000000000000000000000000000000000000000000000000168152f35b80fd5b9050346104c0576101207ffffffffffffffffffffffffffffffffffffffffffffffffffffffffffffffffc3601126104c0576004359073ffffffffffffffffffffffffffffffffffffffff821682036104bc5760243573ffffffffffffffffffffffffffffffffffffffff81168091036104b85760807fffffffffffffffffffffffffffffffffffffffffffffffffffffffffffffff9c3601126104b8576101049167ffffffffffffffff83351161045f57366023843501121561045f5767ffffffffffffffff8335600401351161045f57366024843560040135853501011161045f5773ffffffffffffffffffffffffffffffffffffffff7f00000000000000000000000000000000000000000000000000000000000000001633036104905750604051906040820182811067ffffffffffffffff8211176104635760405281526044356020820152604051906080820182811067ffffffffffffffff82111761046357604052605382527f5769746e657373207769746e65737329546f6b656e5065726d697373696f6e7360208301527f286164647265737320746f6b656e2c75696e7432353620616d6f756e7429576960408301527f746e65737328627974657333322073616c74290000000000000000000000000060608301526e22d473030f116ddee9f6b43ac78ba33b1561045f57604051937f137c29fe00000000000000000000000000000000000000000000000000000000855260643573ffffffffffffffffffffffffffffffffffffffff8116810361045b57859391602088969473ffffffffffffffffffffffffffffffffffffffff8094166004880152608435602488015260a435604488015260c4356064880152838151166084880152015160a48601521660c484015260e43560e48401526101408284015280519081610144850152845b82811061043f5750508290601f61016491868382860101527fffffffffffffffffffffffffffffffffffffffffffffffffffffffffffffffe091829101168301916101608484030161012485015284356004013590830152601f6101849480356004013560248235018786013735600401358381018601889052011601030181836e22d473030f116ddee9f6b43ac78ba35af18015610434576103f2575080f35b67ffffffffffffffff81116104075760405280f35b6024827f4e487b710000000000000000000000000000000000000000000000000000000081526041600452fd5b6040513d84823e3d90fd5b6020818301810151610164898401015288965087955001610351565b8680fd5b8480fd5b6024867f4e487b710000000000000000000000000000000000000000000000000000000081526041600452fd5b807f497131ed0000000000000000000000000000000000000000000000000000000060049252fd5b8380fd5b8280fd5b5080fdfea26469706673582212209047c96894d869a464b16d1a20202ab40c5b6d803187680e96ca8344428ef7b464736f6c63430008170033",
  "linkReferences": {},
  "deployedLinkReferences": {}
}