{
  "_format": "hh-sol-artifact-1",
  "contractName": "EscrowSrc",
  "sourceName": "contracts/escrow/EscrowFactory.sol",
  "abi": [
    {
      "inputs": [
        {
          "internalType": "uint32",
          "name": "rescueDelay",
          "type": "uint32"
        }
      ],
      "stateMutability": "nonpayable",
      "type": "constructor"
    },
    {
      "inputs": [],
      "name": "InvalidCaller",
      "type": "error"
    },
    {
      "inputs": [],
      "name": "InvalidImmutables",
      "type": "error"
    },
    {
      "inputs": [],
      "name": "InvalidSecret",
      "type": "error"
    },
    {
      "inputs": [],
      "name": "InvalidTime",
      "type": "error"
    },
    {
      "inputs": [],
      "name": "NativeTokenSendingFailure",
      "type": "error"
    },
    {
      "inputs": [],
      "name": "SafeTransferFailed",
      "type": "error"
    },
    {
      "anonymous": false,
      "inputs": [],
      "name": "EscrowCancelled",
      "type": "event"
    },
    {
      "anonymous": false,
      "inputs": [
        {
          "indexed": false,
          "internalType": "address",
          "name": "token",
          "type": "address"
        },
        {
          "indexed": false,
          "internalType": "uint256",
          "name": "amount",
          "type": "uint256"
        }
      ],
      "name": "FundsRescued",
      "type": "event"
    },
    {
      "anonymous": false,
      "inputs": [
        {
          "indexed": false,
          "internalType": "bytes32",
          "name": "secret",
          "type": "bytes32"
        }
      ],
      "name": "Withdrawal",
      "type": "event"
    },
    {
      "inputs": [],
      "name": "FACTORY",
      "outputs": [
        {
          "internalType": "address",
          "name": "",
          "type": "address"
        }
      ],
      "stateMutability": "view",
      "type": "function"
    },
    {
      "inputs": [],
      "name": "PROXY_BYTECODE_HASH",
      "outputs": [
        {
          "internalType": "bytes32",
          "name": "",
          "type": "bytes32"
        }
      ],
      "stateMutability": "view",
      "type": "function"
    },
    {
      "inputs": [],
      "name": "RESCUE_DELAY",
      "outputs": [
        {
          "internalType": "uint256",
          "name": "",
          "type": "uint256"
        }
      ],
      "stateMutability": "view",
      "type": "function"
    },
    {
      "inputs": [
        {
          "components": [
            {
              "internalType": "bytes32",
              "name": "orderHash",
              "type": "bytes32"
            },
            {
              "internalType": "bytes32",
              "name": "hashlock",
              "type": "bytes32"
            },
            {
              "internalType": "Address",
              "name": "maker",
              "type": "uint256"
            },
            {
              "internalType": "Address",
              "name": "taker",
              "type": "uint256"
            },
            {
              "internalType": "Address",
              "name": "token",
              "type": "uint256"
            },
            {
              "internalType": "uint256",
              "name": "amount",
              "type": "uint256"
            },
            {
              "internalType": "uint256",
              "name": "safetyDeposit",
              "type": "uint256"
            },
            {
              "internalType": "Timelocks",
              "name": "timelocks",
              "type": "uint256"
            }
          ],
          "internalType": "struct IBaseEscrow.Immutables",
          "name": "immutables",
          "type": "tuple"
        }
      ],
      "name": "cancel",
      "outputs": [],
      "stateMutability": "nonpayable",
      "type": "function"
    },
    {
      "inputs": [
        {
          "components": [
            {
              "internalType": "bytes32",
              "name": "orderHash",
              "type": "bytes32"
            },
            {
              "internalType": "bytes32",
              "name": "hashlock",
              "type": "bytes32"
            },
            {
              "internalType": "Address",
              "name": "maker",
              "type": "uint256"
            },
            {
              "internalType": "Address",
              "name": "taker",
              "type": "uint256"
            },
            {
              "internalType": "Address",
              "name": "token",
              "type": "uint256"
            },
            {
              "internalType": "uint256",
              "name": "amount",
              "type": "uint256"
            },
            {
              "internalType": "uint256",
              "name": "safetyDeposit",
              "type": "uint256"
            },
            {
              "internalType": "Timelocks",
              "name": "timelocks",
              "type": "uint256"
            }
          ],
          "internalType": "struct IBaseEscrow.Immutables",
          "name": "immutables",
          "type": "tuple"
        }
      ],
      "name": "publicCancel",
      "outputs": [],
      "stateMutability": "nonpayable",
      "type": "function"
    },
    {
      "inputs": [
        {
          "internalType": "bytes32",
          "name": "secret",
          "type": "bytes32"
        },
        {
          "components": [
            {
              "internalType": "bytes32",
              "name": "orderHash",
              "type": "bytes32"
            },
            {
              "internalType": "bytes32",
              "name": "hashlock",
              "type": "bytes32"
            },
            {
              "internalType": "Address",
              "name": "maker",
              "type": "uint256"
            },
            {
              "internalType": "Address",
              "name": "taker",
              "type": "uint256"
            },
            {
              "internalType": "Address",
              "name": "token",
              "type": "uint256"
            },
            {
              "internalType": "uint256",
              "name": "amount",
              "type": "uint256"
            },
            {
              "internalType": "uint256",
              "name": "safetyDeposit",
              "type": "uint256"
            },
            {
              "internalType": "Timelocks",
              "name": "timelocks",
              "type": "uint256"
            }
          ],
          "internalType": "struct IBaseEscrow.Immutables",
          "name": "immutables",
          "type": "tuple"
        }
      ],
      "name": "publicWithdraw",
      "outputs": [],
      "stateMutability": "nonpayable",
      "type": "function"
    },
    {
      "inputs": [
        {
          "internalType": "address",
          "name": "token",
          "type": "address"
        },
        {
          "internalType": "uint256",
          "name": "amount",
          "type": "uint256"
        },
        {
          "components": [
            {
              "internalType": "bytes32",
              "name": "orderHash",
              "type": "bytes32"
            },
            {
              "internalType": "bytes32",
              "name": "hashlock",
              "type": "bytes32"
            },
            {
              "internalType": "Address",
              "name": "maker",
              "type": "uint256"
            },
            {
              "internalType": "Address",
              "name": "taker",
              "type": "uint256"
            },
            {
              "internalType": "Address",
              "name": "token",
              "type": "uint256"
            },
            {
              "internalType": "uint256",
              "name": "amount",
              "type": "uint256"
            },
            {
              "internalType": "uint256",
              "name": "safetyDeposit",
              "type": "uint256"
            },
            {
              "internalType": "Timelocks",
              "name": "timelocks",
              "type": "uint256"
            }
          ],
          "internalType": "struct IBaseEscrow.Immutables",
          "name": "immutables",
          "type": "tuple"
        }
      ],
      "name": "rescueFunds",
      "outputs": [],
      "stateMutability": "nonpayable",
      "type": "function"
    },
    {
      "inputs": [
        {
          "internalType": "bytes32",
          "name": "secret",
          "type": "bytes32"
        },
        {
          "components": [
            {
              "internalType": "bytes32",
              "name": "orderHash",
              "type": "bytes32"
            },
            {
              "internalType": "bytes32",
              "name": "hashlock",
              "type": "bytes32"
            },
            {
              "internalType": "Address",
              "name": "maker",
              "type": "uint256"
            },
            {
              "internalType": "Address",
              "name": "taker",
              "type": "uint256"
            },
            {
              "internalType": "Address",
              "name": "token",
              "type": "uint256"
            },
            {
              "internalType": "uint256",
              "name": "amount",
              "type": "uint256"
            },
            {
              "internalType": "uint256",
              "name": "safetyDeposit",
              "type": "uint256"
            },
            {
              "internalType": "Timelocks",
              "name": "timelocks",
              "type": "uint256"
            }
          ],
          "internalType": "struct IBaseEscrow.Immutables",
          "name": "immutables",
          "type": "tuple"
        }
      ],
      "name": "withdraw",
      "outputs": [],
      "stateMutability": "nonpayable",
      "type": "function"
    },
    {
      "inputs": [
        {
          "internalType": "bytes32",
          "name": "secret",
          "type": "bytes32"
        },
        {
          "internalType": "address",
          "name": "target",
          "type": "address"
        },
        {
          "components": [
            {
              "internalType": "bytes32",
              "name": "orderHash",
              "type": "bytes32"
            },
            {
              "internalType": "bytes32",
              "name": "hashlock",
              "type": "bytes32"
            },
            {
              "internalType": "Address",
              "name": "maker",
              "type": "uint256"
            },
            {
              "internalType": "Address",
              "name": "taker",
              "type": "uint256"
            },
            {
              "internalType": "Address",
              "name": "token",
              "type": "uint256"
            },
            {
              "internalType": "uint256",
              "name": "amount",
              "type": "uint256"
            },
            {
              "internalType": "uint256",
              "name": "safetyDeposit",
              "type": "uint256"
            },
            {
              "internalType": "Timelocks",
              "name": "timelocks",
              "type": "uint256"
            }
          ],
          "internalType": "struct IBaseEscrow.Immutables",
          "name": "immutables",
          "type": "tuple"
        }
      ],
      "name": "withdrawTo",
      "outputs": [],
      "stateMutability": "nonpayable",
      "type": "function"
    }
  ],
  "bytecode": "0x60e0346100ed57601f610e0a38819003918201601f19168301916001600160401b038311848410176100f2578084926020946040528339810103126100ed575163ffffffff81168091036100ed573360a0526080526e5af43d82803e903d91602b57fd5bf360205230601152763d602d80600a3d3981f3363d3d373d3d3d363d730000003060881c17600052603760092060c052604051610d019081610109823960805181818160be01526104f9015260a05181818161066e015281816109cd01528181610a7e0152610b04015260c0518181816105ff015281816109a201528181610a530152610ad90152f35b600080fd5b634e487b7160e01b600052604160045260246000fdfe608060408181526004918236101561001657600080fd5b60009260e08435811c9283630af97558146107795750826323305703146106925782632dd310001461062257826334862b6a146105c85782634649088b1461045a5782636c10c0c8146102a457826390d3252f146101f5578263daff233e146100e557505063f56cd69c1461008a57600080fd5b346100e157817ffffffffffffffffffffffffffffffffffffffffffffffffffffffffffffffffc3601126100e157602090517f00000000000000000000000000000000000000000000000000000000000000008152f35b5080fd5b90929150346101f1576101007ffffffffffffffffffffffffffffffffffffffffffffffffffffffffffffffffc3601126101f15763ffffffff60e43580921c9160601c1681018091116101c557421061019f5782610141610a27565b61016c73ffffffffffffffffffffffffffffffffffffffff60a4359080604435169060843516610b34565b61017860c43533610bce565b7f6e3be9294e58d10b9c8053cfd5e09871b67e442fe394d6b0870d336b9df984a98180a180f35b517f6f7eac26000000000000000000000000000000000000000000000000000000008152fd5b6024846011857f4e487b7100000000000000000000000000000000000000000000000000000000835252fd5b8380fd5b509050346102a0576101007ffffffffffffffffffffffffffffffffffffffffffffffffffffffffffffffffc3601126102a05773ffffffffffffffffffffffffffffffffffffffff918260643516330361027a5761025460e435610916565b421061019f578361016c84610267610a27565b60a4359080604435169060843516610b34565b517f48f5c3ed000000000000000000000000000000000000000000000000000000008152fd5b8280fd5b848285346102a0576101407ffffffffffffffffffffffffffffffffffffffffffffffffffffffffffffffffc3601126102a05781359160243573ffffffffffffffffffffffffffffffffffffffff918282168203610456576101007fffffffffffffffffffffffffffffffffffffffffffffffffffffffffffffffbc360112610456578260a43516330361042f576101243561033f8161095f565b42106104075761034e90610916565b4210156103e05761035d610976565b84865260208620606435036103b95750916103a47f0ce781a18c10c8289803c7c4cfd532d797113c4b41c9701ffad7d0a632ac555b949260209460e4359160c43516610b34565b6103b16101043533610bce565b51908152a180f35b83517fabab6bd7000000000000000000000000000000000000000000000000000000008152fd5b83517f6f7eac26000000000000000000000000000000000000000000000000000000008152fd5b5083517f6f7eac26000000000000000000000000000000000000000000000000000000008152fd5b83517f48f5c3ed000000000000000000000000000000000000000000000000000000008152fd5b8580fd5b838591346102a0576101407ffffffffffffffffffffffffffffffffffffffffffffffffffffffffffffffffc3601126102a05783359073ffffffffffffffffffffffffffffffffffffffff908183168093036105c457602435916101007fffffffffffffffffffffffffffffffffffffffffffffffffffffffffffffffbc3601126104565760a43516330361059c576104f1610976565b61012435901c7f0000000000000000000000000000000000000000000000000000000000000000014210610574577fc4474c2790e13695f6d2b6f1d8e164290b55370f87a542fd7711abe0a1bf40ac9394508115600014610564576105568133610bce565b82519182526020820152a180f35b61056f813384610b34565b610556565b8483517f6f7eac26000000000000000000000000000000000000000000000000000000008152fd5b8584517f48f5c3ed000000000000000000000000000000000000000000000000000000008152fd5b8480fd5b505050346100e157817ffffffffffffffffffffffffffffffffffffffffffffffffffffffffffffffffc3601126100e157602090517f00000000000000000000000000000000000000000000000000000000000000008152f35b505050346100e157817ffffffffffffffffffffffffffffffffffffffffffffffffffffffffffffffffc3601126100e1576020905173ffffffffffffffffffffffffffffffffffffffff7f0000000000000000000000000000000000000000000000000000000000000000168152f35b90929150346101f1576106a4366108b2565b91909373ffffffffffffffffffffffffffffffffffffffff91826060850135163303610751578301356106d68161095f565b4210610407576106e590610916565b4210156103e0576106f583610aae565b848652602086206020840135036103b95750916103b160c08361074960209660a07f0ce781a18c10c8289803c7c4cfd532d797113c4b41c9701ffad7d0a632ac555b99970135903390608085013516610b34565b013533610bce565b5083517f48f5c3ed000000000000000000000000000000000000000000000000000000008152fd5b93925090346105c45761078b366108b2565b9290948184013580921c63ffffffff8360201c16810180911161088657421061085f57506107b890610916565b4210156108385773ffffffffffffffffffffffffffffffffffffffff906107de83610aae565b848652602086206020840135036103b95750916103b160c08361074960209660a07f0ce781a18c10c8289803c7c4cfd532d797113c4b41c9701ffad7d0a632ac555b99970135908060608501351690608085013516610b34565b82517f6f7eac26000000000000000000000000000000000000000000000000000000008152fd5b90507f6f7eac26000000000000000000000000000000000000000000000000000000008152fd5b6024886011867f4e487b7100000000000000000000000000000000000000000000000000000000835252fd5b906101207ffffffffffffffffffffffffffffffffffffffffffffffffffffffffffffffffc830112610911576101007fffffffffffffffffffffffffffffffffffffffffffffffffffffffffffffffdc60043593011261091157602490565b600080fd5b63ffffffff8160e01c9160401c1681018091116109305790565b7f4e487b7100000000000000000000000000000000000000000000000000000000600052601160045260246000fd5b63ffffffff8160e01c911681018091116109305790565b73ffffffffffffffffffffffffffffffffffffffff6055600b60405161010090816044823720604051907f0000000000000000000000000000000000000000000000000000000000000000604083015260208201527f000000000000000000000000000000000000000000000000000000000000000081520160ff8153201630036109fd57565b60046040517fa269484a000000000000000000000000000000000000000000000000000000008152fd5b73ffffffffffffffffffffffffffffffffffffffff6055600b60405161010090816004823720604051907f0000000000000000000000000000000000000000000000000000000000000000604083015260208201527f000000000000000000000000000000000000000000000000000000000000000081520160ff8153201630036109fd57565b6055600b73ffffffffffffffffffffffffffffffffffffffff926040516101008092823720604051907f0000000000000000000000000000000000000000000000000000000000000000604083015260208201527f000000000000000000000000000000000000000000000000000000000000000081520160ff8153201630036109fd57565b916044602092600092604051917fa9059cbb0000000000000000000000000000000000000000000000000000000083526004830152602482015282855af19081610bab575b5015610b8157565b60046040517ffb7f5079000000000000000000000000000000000000000000000000000000008152fd5b90503d15610bc65750600160005114601f3d11165b38610b79565b3b1515610bc0565b60008080809481945af1903d15610cc55767ffffffffffffffff903d828111610c985760405192601f82017fffffffffffffffffffffffffffffffffffffffffffffffffffffffffffffffe0908116603f0116840190811184821017610c6b57604052825260203d92013e5b15610c4157565b60046040517f8a0332d5000000000000000000000000000000000000000000000000000000008152fd5b6024837f4e487b710000000000000000000000000000000000000000000000000000000081526041600452fd5b6024827f4e487b710000000000000000000000000000000000000000000000000000000081526041600452fd5b50610c3a56fea26469706673582212205de98340a55562d97fa0fa479d70183ffd893bc618f5d3b0d8aaa9f73c56b74764736f6c63430008170033",
  "linkReferences": {},
  "deployedLinkReferences": {}
}