{
  "_format": "hh-sol-artifact-1",
  "contractName": "EscrowFactory",
  "sourceName": "contracts/escrow/EscrowFactory.sol",
  "abi": [
    {
      "inputs": [
        {
          "internalType": "address",
          "name": "limitOrderProtocol",
          "type": "address"
        },
        {
          "internalType": "contract IERC20",
          "name": "feeToken",
          "type": "address"
        },
        {
          "internalType": "contract IERC20",
          "name": "accessToken",
          "type": "address"
        },
        {
          "internalType": "address",
          "name": "owner",
          "type": "address"
        },
        {
          "internalType": "uint32",
          "name": "rescueDelaySrc",
          "type": "uint32"
        },
        {
          "internalType": "uint32",
          "name": "rescueDelayDst",
          "type": "uint32"
        }
      ],
      "stateMutability": "nonpayable",
      "type": "constructor"
    },
    {
      "inputs": [],
      "name": "AccessDenied",
      "type": "error"
    },
    {
      "inputs": [],
      "name": "FailedDeployment",
      "type": "error"
    },
    {
      "inputs": [
        {
          "internalType": "uint256",
          "name": "balance",
          "type": "uint256"
        },
        {
          "internalType": "uint256",
          "name": "needed",
          "type": "uint256"
        }
      ],
      "name": "InsufficientBalance",
      "type": "error"
    },
    {
      "inputs": [],
      "name": "InsufficientEscrowBalance",
      "type": "error"
    },
    {
      "inputs": [],
      "name": "InvalidCreationTime",
      "type": "error"
    },
    {
      "inputs": [],
      "name": "InvalidPartialFill",
      "type": "error"
    },
    {
      "inputs": [],
      "name": "InvalidProof",
      "type": "error"
    },
    {
      "inputs": [],
      "name": "InvalidSecretsAmount",
      "type": "error"
    },
    {
      "inputs": [],
      "name": "NotEnoughCredit",
      "type": "error"
    },
    {
      "inputs": [],
      "name": "OnlyFeeBankAccess",
      "type": "error"
    },
    {
      "inputs": [],
      "name": "OnlyLimitOrderProtocol",
      "type": "error"
    },
    {
      "inputs": [],
      "name": "ResolverCanNotFillOrder",
      "type": "error"
    },
    {
      "inputs": [],
      "name": "SafeTransferFromFailed",
      "type": "error"
    },
    {
      "anonymous": false,
      "inputs": [
        {
          "indexed": false,
          "internalType": "address",
          "name": "escrow",
          "type": "address"
        },
        {
          "indexed": false,
          "internalType": "bytes32",
          "name": "hashlock",
          "type": "bytes32"
        },
        {
          "indexed": false,
          "internalType": "Address",
          "name": "taker",
          "type": "uint256"
        }
      ],
      "name": "DstEscrowCreated",
      "type": "event"
    },
    {
      "anonymous": false,
      "inputs": [
        {
          "components": [
            {
              "internalType": "bytes32",
              "name": "orderHash",
              "type": "bytes32"
            },
            {
              "internalType": "bytes32",
              "name": "hashlock",
              "type": "bytes32"
            },
            {
              "internalType": "Address",
              "name": "maker",
              "type": "uint256"
            },
            {
              "internalType": "Address",
              "name": "taker",
              "type": "uint256"
            },
            {
              "internalType": "Address",
              "name": "token",
              "type": "uint256"
            },
            {
              "internalType": "uint256",
              "name": "amount",
              "type": "uint256"
            },
            {
              "internalType": "uint256",
              "name": "safetyDeposit",
              "type": "uint256"
            },
            {
              "internalType": "Timelocks",
              "name": "timelocks",
              "type": "uint256"
            }
          ],
          "indexed": false,
          "internalType": "struct IBaseEscrow.Immutables",
          "name": "srcImmutables",
          "type": "tuple"
        },
        {
          "components": [
            {
              "internalType": "Address",
              "name": "maker",
              "type": "uint256"
            },
            {
              "internalType": "uint256",
              "name": "amount",
              "type": "uint256"
            },
            {
              "internalType": "Address",
              "name": "token",
              "type": "uint256"
            },
            {
              "internalType": "uint256",
              "name": "safetyDeposit",
              "type": "uint256"
            },
            {
              "internalType": "uint256",
              "name": "chainId",
              "type": "uint256"
            }
          ],
          "indexed": false,
          "internalType": "struct IEscrowFactory.DstImmutablesComplement",
          "name": "dstImmutablesComplement",
          "type": "tuple"
        }
      ],
      "name": "SrcEscrowCreated",
      "type": "event"
    },
    {
      "inputs": [],
      "name": "ESCROW_DST_IMPLEMENTATION",
      "outputs": [
        {
          "internalType": "address",
          "name": "",
          "type": "address"
        }
      ],
      "stateMutability": "view",
      "type": "function"
    },
    {
      "inputs": [],
      "name": "ESCROW_SRC_IMPLEMENTATION",
      "outputs": [
        {
          "internalType": "address",
          "name": "",
          "type": "address"
        }
      ],
      "stateMutability": "view",
      "type": "function"
    },
    {
      "inputs": [],
      "name": "FEE_BANK",
      "outputs": [
        {
          "internalType": "contract IFeeBank",
          "name": "",
          "type": "address"
        }
      ],
      "stateMutability": "view",
      "type": "function"
    },
    {
      "inputs": [
        {
          "components": [
            {
              "internalType": "bytes32",
              "name": "orderHash",
              "type": "bytes32"
            },
            {
              "internalType": "bytes32",
              "name": "hashlock",
              "type": "bytes32"
            },
            {
              "internalType": "Address",
              "name": "maker",
              "type": "uint256"
            },
            {
              "internalType": "Address",
              "name": "taker",
              "type": "uint256"
            },
            {
              "internalType": "Address",
              "name": "token",
              "type": "uint256"
            },
            {
              "internalType": "uint256",
              "name": "amount",
              "type": "uint256"
            },
            {
              "internalType": "uint256",
              "name": "safetyDeposit",
              "type": "uint256"
            },
            {
              "internalType": "Timelocks",
              "name": "timelocks",
              "type": "uint256"
            }
          ],
          "internalType": "struct IBaseEscrow.Immutables",
          "name": "immutables",
          "type": "tuple"
        }
      ],
      "name": "addressOfEscrowDst",
      "outputs": [
        {
          "internalType": "address",
          "name": "",
          "type": "address"
        }
      ],
      "stateMutability": "view",
      "type": "function"
    },
    {
      "inputs": [
        {
          "components": [
            {
              "internalType": "bytes32",
              "name": "orderHash",
              "type": "bytes32"
            },
            {
              "internalType": "bytes32",
              "name": "hashlock",
              "type": "bytes32"
            },
            {
              "internalType": "Address",
              "name": "maker",
              "type": "uint256"
            },
            {
              "internalType": "Address",
              "name": "taker",
              "type": "uint256"
            },
            {
              "internalType": "Address",
              "name": "token",
              "type": "uint256"
            },
            {
              "internalType": "uint256",
              "name": "amount",
              "type": "uint256"
            },
            {
              "internalType": "uint256",
              "name": "safetyDeposit",
              "type": "uint256"
            },
            {
              "internalType": "Timelocks",
              "name": "timelocks",
              "type": "uint256"
            }
          ],
          "internalType": "struct IBaseEscrow.Immutables",
          "name": "immutables",
          "type": "tuple"
        }
      ],
      "name": "addressOfEscrowSrc",
      "outputs": [
        {
          "internalType": "address",
          "name": "",
          "type": "address"
        }
      ],
      "stateMutability": "view",
      "type": "function"
    },
    {
      "inputs": [
        {
          "internalType": "address",
          "name": "account",
          "type": "address"
        }
      ],
      "name": "availableCredit",
      "outputs": [
        {
          "internalType": "uint256",
          "name": "",
          "type": "uint256"
        }
      ],
      "stateMutability": "view",
      "type": "function"
    },
    {
      "inputs": [
        {
          "components": [
            {
              "internalType": "bytes32",
              "name": "orderHash",
              "type": "bytes32"
            },
            {
              "internalType": "bytes32",
              "name": "hashlock",
              "type": "bytes32"
            },
            {
              "internalType": "Address",
              "name": "maker",
              "type": "uint256"
            },
            {
              "internalType": "Address",
              "name": "taker",
              "type": "uint256"
            },
            {
              "internalType": "Address",
              "name": "token",
              "type": "uint256"
            },
            {
              "internalType": "uint256",
              "name": "amount",
              "type": "uint256"
            },
            {
              "internalType": "uint256",
              "name": "safetyDeposit",
              "type": "uint256"
            },
            {
              "internalType": "Timelocks",
              "name": "timelocks",
              "type": "uint256"
            }
          ],
          "internalType": "struct IBaseEscrow.Immutables",
          "name": "dstImmutables",
          "type": "tuple"
        },
        {
          "internalType": "uint256",
          "name": "srcCancellationTimestamp",
          "type": "uint256"
        }
      ],
      "name": "createDstEscrow",
      "outputs": [],
      "stateMutability": "payable",
      "type": "function"
    },
    {
      "inputs": [
        {
          "internalType": "address",
          "name": "account",
          "type": "address"
        },
        {
          "internalType": "uint256",
          "name": "amount",
          "type": "uint256"
        }
      ],
      "name": "decreaseAvailableCredit",
      "outputs": [
        {
          "internalType": "uint256",
          "name": "allowance",
          "type": "uint256"
        }
      ],
      "stateMutability": "nonpayable",
      "type": "function"
    },
    {
      "inputs": [
        {
          "components": [
            {
              "internalType": "uint256",
              "name": "salt",
              "type": "uint256"
            },
            {
              "internalType": "Address",
              "name": "maker",
              "type": "uint256"
            },
            {
              "internalType": "Address",
              "name": "receiver",
              "type": "uint256"
            },
            {
              "internalType": "Address",
              "name": "makerAsset",
              "type": "uint256"
            },
            {
              "internalType": "Address",
              "name": "takerAsset",
              "type": "uint256"
            },
            {
              "internalType": "uint256",
              "name": "makingAmount",
              "type": "uint256"
            },
            {
              "internalType": "uint256",
              "name": "takingAmount",
              "type": "uint256"
            },
            {
              "internalType": "MakerTraits",
              "name": "makerTraits",
              "type": "uint256"
            }
          ],
          "internalType": "struct IOrderMixin.Order",
          "name": "order",
          "type": "tuple"
        },
        {
          "internalType": "bytes",
          "name": "",
          "type": "bytes"
        },
        {
          "internalType": "bytes32",
          "name": "",
          "type": "bytes32"
        },
        {
          "internalType": "address",
          "name": "",
          "type": "address"
        },
        {
          "internalType": "uint256",
          "name": "takingAmount",
          "type": "uint256"
        },
        {
          "internalType": "uint256",
          "name": "",
          "type": "uint256"
        },
        {
          "internalType": "bytes",
          "name": "extraData",
          "type": "bytes"
        }
      ],
      "name": "getMakingAmount",
      "outputs": [
        {
          "internalType": "uint256",
          "name": "",
          "type": "uint256"
        }
      ],
      "stateMutability": "view",
      "type": "function"
    },
    {
      "inputs": [
        {
          "components": [
            {
              "internalType": "uint256",
              "name": "salt",
              "type": "uint256"
            },
            {
              "internalType": "Address",
              "name": "maker",
              "type": "uint256"
            },
            {
              "internalType": "Address",
              "name": "receiver",
              "type": "uint256"
            },
            {
              "internalType": "Address",
              "name": "makerAsset",
              "type": "uint256"
            },
            {
              "internalType": "Address",
              "name": "takerAsset",
              "type": "uint256"
            },
            {
              "internalType": "uint256",
              "name": "makingAmount",
              "type": "uint256"
            },
            {
              "internalType": "uint256",
              "name": "takingAmount",
              "type": "uint256"
            },
            {
              "internalType": "MakerTraits",
              "name": "makerTraits",
              "type": "uint256"
            }
          ],
          "internalType": "struct IOrderMixin.Order",
          "name": "order",
          "type": "tuple"
        },
        {
          "internalType": "bytes",
          "name": "",
          "type": "bytes"
        },
        {
          "internalType": "bytes32",
          "name": "",
          "type": "bytes32"
        },
        {
          "internalType": "address",
          "name": "",
          "type": "address"
        },
        {
          "internalType": "uint256",
          "name": "makingAmount",
          "type": "uint256"
        },
        {
          "internalType": "uint256",
          "name": "",
          "type": "uint256"
        },
        {
          "internalType": "bytes",
          "name": "extraData",
          "type": "bytes"
        }
      ],
      "name": "getTakingAmount",
      "outputs": [
        {
          "internalType": "uint256",
          "name": "",
          "type": "uint256"
        }
      ],
      "stateMutability": "view",
      "type": "function"
    },
    {
      "inputs": [
        {
          "internalType": "address",
          "name": "account",
          "type": "address"
        },
        {
          "internalType": "uint256",
          "name": "amount",
          "type": "uint256"
        }
      ],
      "name": "increaseAvailableCredit",
      "outputs": [
        {
          "internalType": "uint256",
          "name": "allowance",
          "type": "uint256"
        }
      ],
      "stateMutability": "nonpayable",
      "type": "function"
    },
    {
      "inputs": [
        {
          "internalType": "bytes32",
          "name": "key",
          "type": "bytes32"
        }
      ],
      "name": "lastValidated",
      "outputs": [
        {
          "internalType": "uint256",
          "name": "index",
          "type": "uint256"
        },
        {
          "internalType": "bytes32",
          "name": "leaf",
          "type": "bytes32"
        }
      ],
      "stateMutability": "view",
      "type": "function"
    },
    {
      "inputs": [
        {
          "components": [
            {
              "internalType": "uint256",
              "name": "salt",
              "type": "uint256"
            },
            {
              "internalType": "Address",
              "name": "maker",
              "type": "uint256"
            },
            {
              "internalType": "Address",
              "name": "receiver",
              "type": "uint256"
            },
            {
              "internalType": "Address",
              "name": "makerAsset",
              "type": "uint256"
            },
            {
              "internalType": "Address",
              "name": "takerAsset",
              "type": "uint256"
            },
            {
              "internalType": "uint256",
              "name": "makingAmount",
              "type": "uint256"
            },
            {
              "internalType": "uint256",
              "name": "takingAmount",
              "type": "uint256"
            },
            {
              "internalType": "MakerTraits",
              "name": "makerTraits",
              "type": "uint256"
            }
          ],
          "internalType": "struct IOrderMixin.Order",
          "name": "order",
          "type": "tuple"
        },
        {
          "internalType": "bytes",
          "name": "extension",
          "type": "bytes"
        },
        {
          "internalType": "bytes32",
          "name": "orderHash",
          "type": "bytes32"
        },
        {
          "internalType": "address",
          "name": "taker",
          "type": "address"
        },
        {
          "internalType": "uint256",
          "name": "makingAmount",
          "type": "uint256"
        },
        {
          "internalType": "uint256",
          "name": "takingAmount",
          "type": "uint256"
        },
        {
          "internalType": "uint256",
          "name": "remainingMakingAmount",
          "type": "uint256"
        },
        {
          "internalType": "bytes",
          "name": "extraData",
          "type": "bytes"
        }
      ],
      "name": "postInteraction",
      "outputs": [],
      "stateMutability": "nonpayable",
      "type": "function"
    },
    {
      "inputs": [
        {
          "components": [
            {
              "internalType": "uint256",
              "name": "salt",
              "type": "uint256"
            },
            {
              "internalType": "Address",
              "name": "maker",
              "type": "uint256"
            },
            {
              "internalType": "Address",
              "name": "receiver",
              "type": "uint256"
            },
            {
              "internalType": "Address",
              "name": "makerAsset",
              "type": "uint256"
            },
            {
              "internalType": "Address",
              "name": "takerAsset",
              "type": "uint256"
            },
            {
              "internalType": "uint256",
              "name": "makingAmount",
              "type": "uint256"
            },
            {
              "internalType": "uint256",
              "name": "takingAmount",
              "type": "uint256"
            },
            {
              "internalType": "MakerTraits",
              "name": "makerTraits",
              "type": "uint256"
            }
          ],
          "internalType": "struct IOrderMixin.Order",
          "name": "order",
          "type": "tuple"
        },
        {
          "internalType": "bytes",
          "name": "extension",
          "type": "bytes"
        },
        {
          "internalType": "bytes32",
          "name": "orderHash",
          "type": "bytes32"
        },
        {
          "internalType": "address",
          "name": "taker",
          "type": "address"
        },
        {
          "internalType": "uint256",
          "name": "makingAmount",
          "type": "uint256"
        },
        {
          "internalType": "uint256",
          "name": "takingAmount",
          "type": "uint256"
        },
        {
          "internalType": "uint256",
          "name": "remainingMakingAmount",
          "type": "uint256"
        },
        {
          "internalType": "bytes",
          "name": "extraData",
          "type": "bytes"
        }
      ],
      "name": "preInteraction",
      "outputs": [],
      "stateMutability": "nonpayable",
      "type": "function"
    },
    {
      "inputs": [
        {
          "components": [
            {
              "internalType": "uint256",
              "name": "salt",
              "type": "uint256"
            },
            {
              "internalType": "Address",
              "name": "maker",
              "type": "uint256"
            },
            {
              "internalType": "Address",
              "name": "receiver",
              "type": "uint256"
            },
            {
              "internalType": "Address",
              "name": "makerAsset",
              "type": "uint256"
            },
            {
              "internalType": "Address",
              "name": "takerAsset",
              "type": "uint256"
            },
            {
              "internalType": "uint256",
              "name": "makingAmount",
              "type": "uint256"
            },
            {
              "internalType": "uint256",
              "name": "takingAmount",
              "type": "uint256"
            },
            {
              "internalType": "MakerTraits",
              "name": "makerTraits",
              "type": "uint256"
            }
          ],
          "internalType": "struct IOrderMixin.Order",
          "name": "",
          "type": "tuple"
        },
        {
          "internalType": "bytes",
          "name": "extension",
          "type": "bytes"
        },
        {
          "internalType": "bytes32",
          "name": "orderHash",
          "type": "bytes32"
        },
        {
          "internalType": "address",
          "name": "",
          "type": "address"
        },
        {
          "internalType": "uint256",
          "name": "",
          "type": "uint256"
        },
        {
          "internalType": "uint256",
          "name": "",
          "type": "uint256"
        },
        {
          "internalType": "uint256",
          "name": "",
          "type": "uint256"
        },
        {
          "internalType": "bytes",
          "name": "extraData",
          "type": "bytes"
        }
      ],
      "name": "takerInteraction",
      "outputs": [],
      "stateMutability": "nonpayable",
      "type": "function"
    }
  ],
  "bytecode": "0x61018034620002c4576001600160401b03601f62004f6438819003918201601f19168401919083831185841017620002ae578160c09286926040958652833981010312620002c4576200005283620002c9565b6200006060208501620002c9565b926200006e838601620002c9565b906200007d60608701620002c9565b926200009a60a06200009260808a01620002de565b9801620002de565b928160805285516112939788820198828a10868b1117620002ae576200238283393089526001600160a01b0390811660208a0152958616878901526000978190036060019088f08015620002a457851660a05260c05260e0528351610e0a8082019082821084831117620002865760209183916200415a833963ffffffff809a16815203019086f09586156200029a578361010097168752845192610b45808501938585109085111762000286579160209391859362003615853916815203019084f09283156200027b5750806101209316835262000202620001b982865116763d602d80600a3d3981f3363d3d373d3d3d363d73000000906e5af43d82803e903d91602b57fd5bf36020528060115260881c17600052603760092090565b91610140928352845116763d602d80600a3d3981f3363d3d373d3d3d363d73000000906e5af43d82803e903d91602b57fd5bf36020528060115260881c17600052603760092090565b9161016092835251926120919485620002f18639608051858181610b400152611872015260a0518581816109bf0152818161172c01526117c2015260c051856115b3015260e0518561065a015251848181610a86015261109401525183818161024e01526106080152518261010e015251816105970152f35b8251903d90823e3d90fd5b634e487b7160e01b88526041600452602488fd5b84513d87823e3d90fd5b86513d89823e3d90fd5b634e487b7160e01b600052604160045260246000fd5b600080fd5b51906001600160a01b0382168203620002c457565b519063ffffffff82168203620002c45756fe60a080604052600436101561001357600080fd5b60006080526080513560e01c9081630986bdd514611843575080631d9671c3146117e65780632ce26aeb146117765780633ee5ef1f146116dc578063462ebde214610b125780635886216f14610aaa5780637040f17314610a3a57806385eda2de1461096f578063acf4ce5c1461091a578063adf38ba11461062c578063ba551177146105bc578063be58e91c14610553578063d7ff8a8014610473578063dea024e4146101575763fb6bd47e146100ca57600080fd5b3461015157610100807ffffffffffffffffffffffffffffffffffffffffffffffffffffffffffffffffc3601126101515761013360209160405181600482372030907f000000000000000000000000000000000000000000000000000000000000000090611f06565b73ffffffffffffffffffffffffffffffffffffffff60405191168152f35b60805180fd5b7ffffffffffffffffffffffffffffffffffffffffffffffffffffffffffffffffc3601610120811261015157610100809112610151576084359073ffffffffffffffffffffffffffffffffffffffff8083168015929160c4358085610461575b340361043757604051936101ca85611ae7565b600435855260243594856020820152604435604082015260643597886060830152608082015260a081019260a435845260c08201524260e01b7bffffffffffffffffffffffffffffffffffffffffffffffffffffffff60e43516178060e0830152610246610104359163ffffffff8160c01c169060e01c611ab1565b1161040d57207f00000000000000000000000000000000000000000000000000000000000000003447106103d657763d602d80600a3d3981f3363d3d373d3d3d363d73000000906e5af43d82803e903d91602b57fd5bf36020528060115260881c176000526037600934f59182169485156103ac57156102fe575b7fc30e111dcc74fddc2c3a4d98ffb97adec4485c0a687946bf5b22c2a99c7ff96d606086888760405192835260208301526040820152a160805180f35b516040517f23b872dd0000000000000000000000000000000000000000000000000000000081523360048201526024810192909252604482015260805192939260209160649082855af19081610388575b501561035e57908380806102c1565b60046040517ff4059071000000000000000000000000000000000000000000000000000000008152fd5b90503d156103a4575060016080515114601f3d11165b8461034f565b3b151561039e565b60046040517fb06ebf3d000000000000000000000000000000000000000000000000000000008152fd5b604447604051907fcf4791810000000000000000000000000000000000000000000000000000000082526004820152346024820152fd5b60046040517ff4840e96000000000000000000000000000000000000000000000000000000008152fd5b60046040517f34f5151d000000000000000000000000000000000000000000000000000000008152fd5b61046e9060a43590611ab1565b6101b7565b3461015157610493610484366119c9565b95509350509495935050611b7e565b60c08301359162989680918201908183116105225760a0916104b491611a6f565b930135818102918183041490151715610522576104d2818484611c47565b9080156104f1576020936104e99309151590611ab1565b604051908152f35b7f4e487b71000000000000000000000000000000000000000000000000000000006080515260126004526024608051fd5b7f4e487b71000000000000000000000000000000000000000000000000000000006080515260116004526024608051fd5b3461015157610100807ffffffffffffffffffffffffffffffffffffffffffffffffffffffffffffffffc3601126101515761013360209160405181600482372030907f000000000000000000000000000000000000000000000000000000000000000090611f06565b34610151576080517ffffffffffffffffffffffffffffffffffffffffffffffffffffffffffffffffc36011261015157602060405173ffffffffffffffffffffffffffffffffffffffff7f0000000000000000000000000000000000000000000000000000000000000000168152f35b346101515761063a3661191c565b50975050505050919073ffffffffffffffffffffffffffffffffffffffff7f00000000000000000000000000000000000000000000000000000000000000001633036108f05761068991611e84565b907fffffffffffffffffffffffffffffffffffffffffffffffffffffffffffffff607dffffffffffffffffffffffffffffffffffffffffffffffffffffffffffff92839201013516604051926020936107468161071a85888301958690603e927fffffffffffffffffffffffffffffffffffffffffffffffffffffffffffff000091835260101b1660208201520190565b037fffffffffffffffffffffffffffffffffffffffffffffffffffffffffffffffe08101835282611b04565b5190209084357fffffffffffffffffffffffffffffffffffffffffffffffffffffffffffffffe1863603018112156101515767ffffffffffffffff939086018035858111610151576005918160051b360388820113610151576040888a013599013596604051898101917fffffffffffffffff0000000000000000000000000000000000000000000000008c60c01b168352896028830152602882526060820190828210908211176108c1576040959493955251902092608051925b82841061087d5750505050160361085357600184018094116105225760019283916040519561083087611acb565b865281860193845260805152526040608051209251835551910155608051608051f35b60046040517f09bde339000000000000000000000000000000000000000000000000000000008152fd5b92939192909184821b83018a013590818110156108ad5760805152895260016040608051205b9401929190610802565b9060805152895260016040608051206108a3565b7f4e487b7100000000000000000000000000000000000000000000000000000000600052604160045260246000fd5b60046040517f4ca88867000000000000000000000000000000000000000000000000000000008152fd5b346101515760207ffffffffffffffffffffffffffffffffffffffffffffffffffffffffffffffffc36011261015157600435608051526001602052604080608051206001815491015482519182526020820152f35b346101515760407ffffffffffffffffffffffffffffffffffffffffffffffffffffffffffffffffc360112610151576109a66118f9565b73ffffffffffffffffffffffffffffffffffffffff90817f0000000000000000000000000000000000000000000000000000000000000000163303610a105716608051526080516020526020604060805120610a056024358254611abe565b809155604051908152f35b60046040517fa4544199000000000000000000000000000000000000000000000000000000008152fd5b34610151576080517ffffffffffffffffffffffffffffffffffffffffffffffffffffffffffffffffc36011261015157602060405173ffffffffffffffffffffffffffffffffffffffff7f0000000000000000000000000000000000000000000000000000000000000000168152f35b346101515760207ffffffffffffffffffffffffffffffffffffffffffffffffffffffffffffffffc3601126101515773ffffffffffffffffffffffffffffffffffffffff610af66118f9565b1660805152608051602052602060406080512054604051908152f35b3461015157610b203661191c565b94919293979095989673ffffffffffffffffffffffffffffffffffffffff7f00000000000000000000000000000000000000000000000000000000000000001633036116b257857fffffffffffffffffffffffffffffffffffffffffffffffffffffffffffffff60810111610522577fffffffffffffffffffffffffffffffffffffffffffffffffffffffffffffff60860190877fffffffffffffffffffffffffffffffffffffffffffffffffffffffffffffff5f88018310610522577f010000000000000000000000000000000000000000000000000000000000000080610c4e7fffffffffffffffffffffffffffffffffffffffffffffffffffffffffffffff5f8b017fffffffffffffffffffffffffffffffffffffffffffffffffffffffffffffff608c018d611f3c565b351614610ca07fffffffffffffffffffffffffffffffffffffffffffffffffffffffffffffff5f8a017fffffffffffffffffffffffffffffffffffffffffffffffffffffffffffffff608b018c611f3c565b608051903560fb1c918061161e575b85600411610151577ffffffffffffffffffffffffffffffffffffffffffffffffffffffffffffffffc8601600c84021161015157610cfa8884600c810260048801883560e01c611f77565b1561147e575b505060147ffffffffffffffffffffffffffffffffffffffffffffffffffffffffffffffffc600c830286030111611201575b505050508585017fffffffffffffffffffffffffffffffffffffffffffffffffffffffffffffff6001905060e08701357f400000000000000000000000000000000000000000000000000000000000000016156111e457358060f01c600281106111ba5760408051602081018c815260109490941b7fffffffffffffffffffffffffffffffffffffffffffffffffffffffffffff00001691810191909152610e1f9290610de281605e810161071a565b519020608051526001602052604060805120906020604051610e0381611acb565b6001845494858352015491829101529460a08a0135908b611dce565b156111905773ffffffffffffffffffffffffffffffffffffffff915b60405198610e488a611ae7565b8952602089015260208601356040890152166060870152606084013560808701528460a08701527fffffffffffffffffffffffffffffffffffffffffffffffffffffffffffffffc0828401013560801c60c08701524260e01b7bffffffffffffffffffffffffffffffffffffffffffffffffffffffff7fffffffffffffffffffffffffffffffffffffffffffffffffffffffffffffffe08486010135161760e087015260408401356080515073ffffffffffffffffffffffffffffffffffffffff81161560001461118a57506020840135905b604051938460a081011067ffffffffffffffff60a0870111176108c1577f0e534c62f0afd2fa0f0fa71198e8aa2d549f24daf2bb47de0d5486c7ce9288ca936101a09360a08701604052865260208601928352604086017fffffffffffffffffffffffffffffffffffffffffffffffffffffffffffffffa0828401013581527fffffffffffffffffffffffffffffffffffffffffffffffffffffffffffffff8060608801926fffffffffffffffffffffffffffffffff7fffffffffffffffffffffffffffffffffffffffffffffffffffffffffffffffc0828701013516845260808901940101358352604051938a51855260208b0151602086015260408b0151604086015260608b0151606086015260808b0151608086015260a08b015160a086015260c08b015160c086015260e08b015160e086015261010097518886015251610120850152516101408401525161016083015251610180820152a18320763d602d80600a3d3981f3363d3d373d3d3d363d730000007f00000000000000000000000000000000000000000000000000000000000000006e5af43d82803e903d91602b57fd5bf36020528060115260881c17600052603760096000f59273ffffffffffffffffffffffffffffffffffffffff8416156103ac5760c0843191015111928315611112575b5050506104375760805180f35b60209293507f70a08231000000000000000000000000000000000000000000000000000000006080515260045260246080519173ffffffffffffffffffffffffffffffffffffffff6060608051920135165afa60805151901560203d101761117d5710818080611105565b6040513d608051823e3d90fd5b90610f1b565b60046040517feab3a174000000000000000000000000000000000000000000000000000000008152fd5b60046040517f10d629d3000000000000000000000000000000000000000000000000000000008152fd5b73ffffffffffffffffffffffffffffffffffffffff925035610e3b565b7fffffffffffffffffffffffffffffffffffffffff000000000000000000000000600c82028381016004013582811694929160149088037ffffffffffffffffffffffffffffffffffffffffffffffffffffffffffffffffc0110611461575b5050600c820285037ffffffffffffffffffffffffffffffffffffffffffffffffffffffffffffffffb8101907ffffffffffffffffffffffffffffffffffffffffffffffffffffffffffffffffc01811161052257601411610151578260601c3b15610151576113f98e60e0938f8f946018916113606040519c8d9b8c9a8b9a7f462ebde2000000000000000000000000000000000000000000000000000000008c52803560048d0152602081013560248d0152604081013560448d0152606081013560648d0152608081013560848d015260a081013560a48d015260c081013560c48d0152013560e48b01526101e06101048b01526101e48a019161201c565b9461012488015273ffffffffffffffffffffffffffffffffffffffff8d166101448801526101648701528d6101848701528c6101a48701527ffffffffffffffffffffffffffffffffffffffffffffffffffffffffffffffffc868503016101c4870152600c7fffffffffffffffffffffffffffffffffffffffffffffffffffffffffffffffe76080519b8286029003019302010161201c565b03916080519060601c5af1801561117d57611418575b80808080610d32565b67ffffffffffffffff8111611430576040528861140f565b7f4e487b71000000000000000000000000000000000000000000000000000000006080515260416004526024608051fd5b600c8402870360140360040160031b82901b161692508e80611260565b42843560e01c118015611553575b6115295761149b575b80610d00565b80156114955773ffffffffffffffffffffffffffffffffffffffff871660805152608051602052604060805120548181106114ff5773ffffffffffffffffffffffffffffffffffffffff88166080515260805160205203604060805120558d611495565b60046040517fa7fd3792000000000000000000000000000000000000000000000000000000008152fd5b60046040517ff25114a6000000000000000000000000000000000000000000000000000000008152fd5b506040517f70a0823100000000000000000000000000000000000000000000000000000000815273ffffffffffffffffffffffffffffffffffffffff8916600482015260208160248173ffffffffffffffffffffffffffffffffffffffff7f0000000000000000000000000000000000000000000000000000000000000000165afa90811561117d57608051916115ec575b501561148c565b90506020813d602011611616575b8161160760209383611b04565b810103126101515751386115e5565b3d91506115fa565b94505090507fffffffffffffffffffffffffffffffffffffffffffffffffffffffffffffff60880160041161015157883560e01c66038d7ea4c680009080828102048214811517156105225761167e8d6116839360a08f01359302611a6f565b611b45565b9060048a01917fffffffffffffffffffffffffffffffffffffffffffffffffffffffffffffff5c8a0194610caf565b60046040517fd25aa106000000000000000000000000000000000000000000000000000000008152fd5b346101515760407ffffffffffffffffffffffffffffffffffffffffffffffffffffffffffffffffc360112610151576117136118f9565b73ffffffffffffffffffffffffffffffffffffffff90817f0000000000000000000000000000000000000000000000000000000000000000163303610a105716608051526080516020526020604060805120602435815401809155604051908152f35b34610151576080517ffffffffffffffffffffffffffffffffffffffffffffffffffffffffffffffffc36011261015157602060405173ffffffffffffffffffffffffffffffffffffffff7f0000000000000000000000000000000000000000000000000000000000000000168152f35b34610151576118056117f7366119c9565b955093505095935050611b7e565b906298968091828402938085048414901517156105225782018092116105225760209260a061183b6104e99460c0850135611a6f565b920135611c47565b34610151576118513661191c565b5050505050505050505073ffffffffffffffffffffffffffffffffffffffff7f000000000000000000000000000000000000000000000000000000000000000016330361189e5760805180f35b807fd25aa1060000000000000000000000000000000000000000000000000000000060049252fd5b9181601f840112156118f45782359167ffffffffffffffff83116118f457602083818601950101116118f457565b600080fd5b6004359073ffffffffffffffffffffffffffffffffffffffff821682036118f457565b7ffffffffffffffffffffffffffffffffffffffffffffffffffffffffffffffffc81016101e081126118f457610100136118f45760049167ffffffffffffffff610104358181116118f45783611974916004016118c6565b9390939261012435926101443573ffffffffffffffffffffffffffffffffffffffff811681036118f45792610164359261018435926101a435926101c4359182116118f4576119c5916004016118c6565b9091565b907ffffffffffffffffffffffffffffffffffffffffffffffffffffffffffffffffc82016101c081126118f457610100136118f45760049167ffffffffffffffff90610104358281116118f45781611a23916004016118c6565b9390939261012435926101443573ffffffffffffffffffffffffffffffffffffffff811681036118f45792610164359261018435926101a4359182116118f4576119c5916004016118c6565b81810292918115918404141715611a8257565b7f4e487b7100000000000000000000000000000000000000000000000000000000600052601160045260246000fd5b91908201809211611a8257565b91908203918211611a8257565b6040810190811067ffffffffffffffff8211176108c157604052565b610100810190811067ffffffffffffffff8211176108c157604052565b90601f7fffffffffffffffffffffffffffffffffffffffffffffffffffffffffffffffe0910116810190811067ffffffffffffffff8211176108c157604052565b8115611b4f570490565b7f4e487b7100000000000000000000000000000000000000000000000000000000600052601260045260246000fd5b90806003116118f457813560e81c816007116118f457600383013560e01c9080158015611c3f575b15611c285750506000915b81600b116118f457600781013560e01c82600e116118f457826011116118f4577fffffffffffffffffffffffffffffffffffffffffffffffffffffffffffffffef611c159301916011810191600b600e83013560e81c92013560e81c810190611d0b565b81811115611c21570390565b5050600090565b620f424091611c38914802611b45565b0491611bb1565b508115611ba6565b91818302917fffffffffffffffffffffffffffffffffffffffffffffffffffffffffffffffff81850993838086109503948086039514611cfb5784831115611cdb579082910981600003821680920460028082600302188083028203028083028203028083028203028083028203028083028203028092029003029360018380600003040190848311900302920304170290565b82611cf45760125b634e487b716000526020526024601cfd5b6011611ce3565b505090611d089250611b45565b90565b9091939281421115600014611d21575050505090565b8293949192421015611dc457849291925b611d485750611d08935082039142900302611b45565b906003908582116118f457823560e81c906005928784116118f45784013560f01c81019485421115611da5575050907ffffffffffffffffffffffffffffffffffffffffffffffffffffffffffffffffb9193920194019384611d32565b925093611d089650809550849193500393429003029142030201611b45565b5050505050600090565b929190611de484611ddf8385611abe565b611ab1565b907fffffffffffffffffffffffffffffffffffffffffffffffffffffffffffffffff91828101908111611a82578361167e86611e1f93611a6f565b948103611e39575050505060028101809111611a82571490565b808303611e54575b5050505060018101809111611a82571490565b611e5e9083611abe565b908101908111611a8257611e759261167e91611a6f565b8114611c215738808080611e41565b91909160208310611efd578035907fffffffffffffffffffffffffffffffffffffffffffffffffffffffffffffffe063ffffffff8360c01c169260e01c94018411611ed3578101602001920390565b7f9605a0100000000000000000000000000000000000000000000000000000000060005260046000fd5b50600091508190565b60559173ffffffffffffffffffffffffffffffffffffffff93600b92604051926040840152602083015281520160ff8153201690565b90821015611f48570190565b7f4e487b7100000000000000000000000000000000000000000000000000000000600052603260045260246000fd5b9192909369ffffffffffffffffffff16926000925b828410611f9e57505050505050600090565b600a908282116118f457600c918383116118f45787013560f01c0195803560b01c8603611fd15750505050505042101590565b95929394954284116120105701949360010192917ffffffffffffffffffffffffffffffffffffffffffffffffffffffffffffffff49190910190611f8c565b50505050505050600090565b601f82602094937fffffffffffffffffffffffffffffffffffffffffffffffffffffffffffffffe093818652868601376000858286010152011601019056fea26469706673582212202f17ae91968c2de07c002c6e349fcfe48881d1d9887927d72c71d0f9e7cdbc8964736f6c6343000817003360c03461013257601f61129338819003918201601f19168301916001600160401b03831184841017610137578084926060946040528339810103126101325780516001600160a01b0380821682036101325760208301519281841690818503610132576040015182811680910361013257801561011957600080546001600160a01b03198116831782556040519416907f8be0079c531659141344cd1fd0a4f28419497f9722a3daafe3b4186f6b6457e09080a31561010a575060a052608052604051611145908161014e82396080518181816102f90152818161091e01528181610dea0152610e75015260a0518181816102c60152818161071301528181610d8c0152610f4e0152f35b63d92e233d60e01b8152600490fd5b604051631e4fbdf760e01b815260006004820152602490fd5b600080fd5b634e487b7160e01b600052604160045260246000fdfe6040608081526004908136101561001557600080fd5b600091823560e01c8063205c2878146108785780632e1a7d4d146108395780632f4f21e2146107f257806332d323a5146107885780635886216f1461068c578063715018a6146105f057806378e3214f1461044e5780638da5cb5b146103f957806397a2cb6414610232578063b6b55f25146101f3578063bfe917341461018a5763f2fde38b146100a557600080fd5b346101865760207ffffffffffffffffffffffffffffffffffffffffffffffffffffffffffffffffc360112610186576100dc6108bf565b906100e5611024565b73ffffffffffffffffffffffffffffffffffffffff8092169283156101575750508254827fffffffffffffffffffffffff00000000000000000000000000000000000000008216178455167f8be0079c531659141344cd1fd0a4f28419497f9722a3daafe3b4186f6b6457e08380a380f35b908460249251917f1e4fbdf7000000000000000000000000000000000000000000000000000000008352820152fd5b8280fd5b5091346101f057817ffffffffffffffffffffffffffffffffffffffffffffffffffffffffffffffffc3601126101f0576024359067ffffffffffffffff82116101f057506020926101e16101e992369083016108e7565b913533610915565b9051908152f35b80fd5b5091346101f05760207ffffffffffffffffffffffffffffffffffffffffffffffffffffffffffffffffc3601126101f057506101e96020923533610e50565b50903461018657602092837ffffffffffffffffffffffffffffffffffffffffffffffffffffffffffffffffc3601126101f057823567ffffffffffffffff80821161018657366023830112156101865781850135908111610186576024943660248360051b850101116103f5579492916102aa611024565b8295839473ffffffffffffffffffffffffffffffffffffffff807f000000000000000000000000000000000000000000000000000000000000000016935b858810610323578a8a8a61031d82337f0000000000000000000000000000000000000000000000000000000000000000611075565b51908152f35b9091929394959698838a60051b830101358381168091036103f15790818c928a5260018084528b8b2054908c51947f5886216f000000000000000000000000000000000000000000000000000000008652838a8701528589818d5afa9283156103e7578f908d946103ab575b600196508d5252818c8c205503019901969594939291906102e8565b94958092939450813d83116103e0575b6103c58183610cda565b810103126103dc57908e600195949392519361038f565b8b80fd5b503d6103bb565b8d513d8e823e3d90fd5b8880fd5b8380fd5b50503461044a57817ffffffffffffffffffffffffffffffffffffffffffffffffffffffffffffffffc36011261044a5773ffffffffffffffffffffffffffffffffffffffff60209254169051908152f35b5080fd5b50903461018657807ffffffffffffffffffffffffffffffffffffffffffffffffffffffffffffffffc36011261018657813573ffffffffffffffffffffffffffffffffffffffff8116908181036105ec57602435916104ab611024565b826104b4578580f35b80159081156105ce575b50156105ba575080471061059357838080809333611388f13d1561058e573d67ffffffffffffffff81116105625782519061052160207fffffffffffffffffffffffffffffffffffffffffffffffffffffffffffffffe0601f8401160183610cda565b81528460203d92013e5b1561053c5750505b38808080808580f35b517fb12d13eb000000000000000000000000000000000000000000000000000000008152fd5b6024856041867f4e487b7100000000000000000000000000000000000000000000000000000000835252fd5b61052b565b50517ff4d678b8000000000000000000000000000000000000000000000000000000008152fd5b9091506105c992503390611075565b610533565b73eeeeeeeeeeeeeeeeeeeeeeeeeeeeeeeeeeeeeeee915014386104be565b8480fd5b83346101f057807ffffffffffffffffffffffffffffffffffffffffffffffffffffffffffffffffc3601126101f057610627611024565b8073ffffffffffffffffffffffffffffffffffffffff81547fffffffffffffffffffffffff000000000000000000000000000000000000000081168355167f8be0079c531659141344cd1fd0a4f28419497f9722a3daafe3b4186f6b6457e08280a380f35b5091903461044a57602092837ffffffffffffffffffffffffffffffffffffffffffffffffffffffffffffffffc36011261018657836106c96108bf565b602473ffffffffffffffffffffffffffffffffffffffff9182865195869485937f5886216f00000000000000000000000000000000000000000000000000000000855216908301527f0000000000000000000000000000000000000000000000000000000000000000165afa92831561077d57809361074b575b505051908152f35b909192508382813d8311610776575b6107648183610cda565b810103126101f0575051903880610743565b503d61075a565b8251903d90823e3d90fd5b50346101865760607ffffffffffffffffffffffffffffffffffffffffffffffffffffffffffffffffc360112610186576107c06108bf565b926044359067ffffffffffffffff82116101f05750926107e86101e9926020953691016108e7565b9160243590610915565b50503461044a57807ffffffffffffffffffffffffffffffffffffffffffffffffffffffffffffffffc36011261044a576020906101e96108306108bf565b60243590610e50565b5091346101f05760207ffffffffffffffffffffffffffffffffffffffffffffffffffffffffffffffffc3601126101f057506101e96020923533610d4a565b50503461044a57807ffffffffffffffffffffffffffffffffffffffffffffffffffffffffffffffffc36011261044a576020906101e96108b66108bf565b60243590610d4a565b6004359073ffffffffffffffffffffffffffffffffffffffff821682036108e257565b600080fd5b9181601f840112156108e25782359167ffffffffffffffff83116108e257602083818601950101116108e257565b604051909391927f0000000000000000000000000000000000000000000000000000000000000000919083600060648214610c22575093600094918286959493604814610b60578060e014610b27578061010014610aec5780606014610a1657610160146109cc578185926004927f9fd5a6cf0000000000000000000000000000000000000000000000000000000086528386013701925af15b156109c0576109bd91610e50565b90565b6040513d6000823e3d90fd5b610164935061016091507f2b67b5700000000000000000000000000000000000000000000000000000000083526004830137826e22d473030f116ddee9f6b43ac78ba35af16109af565b5060209150604090610164947f2b67b570000000000000000000000000000000000000000000000000000000008552336004860152602485015260148160508601377fffffffffffffffffffffffffffffffffffffffffffffffffffffffffffffffff65ffffffffffff9080601484013560e01c0182166064870152601883013560e01c60848701523060a4870152601c83013560e01c011660c485015261010060e4850152816101048501528280820161012486013701610144830137826e22d473030f116ddee9f6b43ac78ba35af16109af565b5084915092610100610104947f8fcbaf0c00000000000000000000000000000000000000000000000000000000855260048501375af16109af565b508491509260e060e4947fd505accf00000000000000000000000000000000000000000000000000000000855260048501375af16109af565b50849150927f7fffffffffffffffffffffffffffffffffffffffffffffffffffffffffffffff610104947f8fcbaf0c00000000000000000000000000000000000000000000000000000000855233600486015230602486015260206008602883013592803560e01c60448901527fffffffffffffffffffffffffffffffffffffffffffffffffffffffffffffffff600482013560e01c016064890152600160848901528360ff1c601b0160a48901520160c48701371660e48401525af16109af565b945050908380937f7fffffffffffffffffffffffffffffffffffffffffffffffffffffffffffffff60e4947fd505accf00000000000000000000000000000000000000000000000000000000855233600486015230602486015260206024604483013592828160448a01377fffffffffffffffffffffffffffffffffffffffffffffffffffffffffffffffff8382013560e01c0160648901528360ff1c601b0160848901520160a48701371660c48401525af16109af565b90601f7fffffffffffffffffffffffffffffffffffffffffffffffffffffffffffffffe0910116810190811067ffffffffffffffff821117610d1b57604052565b7f4e487b7100000000000000000000000000000000000000000000000000000000600052604160045260246000fd5b6040517f85eda2de00000000000000000000000000000000000000000000000000000000815233600482015260248101839052600093929091602083604481887f000000000000000000000000000000000000000000000000000000000000000073ffffffffffffffffffffffffffffffffffffffff165af1928315610e45578593610e10575b506040610e0e93953381526001602052208281540390557f0000000000000000000000000000000000000000000000000000000000000000611075565b565b92506020833d602011610e3d575b81610e2b60209383610cda565b810103126105ec579151916040610dd1565b3d9150610e1e565b6040513d87823e3d90fd5b73ffffffffffffffffffffffffffffffffffffffff91828216908115610ffa576064937f00000000000000000000000000000000000000000000000000000000000000006000604051907f23b872dd000000000000000000000000000000000000000000000000000000008252336004830152306024830152846044830152602097889282855af19081610fd7575b5015610fad576000928352600185526040808420805484019055517f3ee5ef1f00000000000000000000000000000000000000000000000000000000815273ffffffffffffffffffffffffffffffffffffffff94909416600485015260248401919091528391839160449183917f0000000000000000000000000000000000000000000000000000000000000000165af19182156109c057600092610f8357505090565b90809250813d8311610fa6575b610f9a8183610cda565b810103126108e2575190565b503d610f90565b60046040517ff4059071000000000000000000000000000000000000000000000000000000008152fd5b90503d15610ff25750600160005114601f3d11165b38610edf565b3b1515610fec565b60046040517fd92e233d000000000000000000000000000000000000000000000000000000008152fd5b73ffffffffffffffffffffffffffffffffffffffff60005416330361104557565b60246040517f118cdaa7000000000000000000000000000000000000000000000000000000008152336004820152fd5b916044602092600092604051917fa9059cbb0000000000000000000000000000000000000000000000000000000083526004830152602482015282855af190816110ec575b50156110c257565b60046040517ffb7f5079000000000000000000000000000000000000000000000000000000008152fd5b90503d156111075750600160005114601f3d11165b386110ba565b3b151561110156fea2646970667358221220552a3a83b37e5067be598c508f5e5724e322070b2fbdd787200276b277eaf18c64736f6c6343000817003360e0346100ed57601f610b4538819003918201601f19168301916001600160401b038311848410176100f2578084926020946040528339810103126100ed575163ffffffff81168091036100ed573360a0526080526e5af43d82803e903d91602b57fd5bf360205230601152763d602d80600a3d3981f3363d3d373d3d3d363d730000003060881c17600052603760092060c052604051610a3c9081610109823960805181818160a80152610366015260a05181818161016101528181610330015281816104ee01526106c0015260c051818181610137015281816103060152818161047f01526106960152f35b600080fd5b634e487b7160e01b600052604160045260246000fdfe608060408181526004918236101561001657600080fd5b60009260e08435811c9283630af97558146105a15750826323305703146105125782632dd31000146104a257826334862b6a146104485782634649088b146102625750816390d3252f146100cf575063f56cd69c1461007457600080fd5b346100cb57817ffffffffffffffffffffffffffffffffffffffffffffffffffffffffffffffffc3601126100cb57602090517f00000000000000000000000000000000000000000000000000000000000000008152f35b5080fd5b8383346100cb57610100807ffffffffffffffffffffffffffffffffffffffffffffffffffffffffffffffffc36011261025e5773ffffffffffffffffffffffffffffffffffffffff91826064351691823303610236576055600b85928451818a8237208451907f00000000000000000000000000000000000000000000000000000000000000008683015260208201527f000000000000000000000000000000000000000000000000000000000000000081520160ff81532016300361020e5761019a60e435610816565b42106101e65750906101b39160a43591608435166108f7565b6101bf60c43533610929565b7f6e3be9294e58d10b9c8053cfd5e09871b67e442fe394d6b0870d336b9df984a98180a180f35b8490517f6f7eac26000000000000000000000000000000000000000000000000000000008152fd5b8490517fa269484a000000000000000000000000000000000000000000000000000000008152fd5b8582517f48f5c3ed000000000000000000000000000000000000000000000000000000008152fd5b8280fd5b8385913461025e576101407ffffffffffffffffffffffffffffffffffffffffffffffffffffffffffffffffc36011261025e5783359373ffffffffffffffffffffffffffffffffffffffff90818616928387036104445760243592610100807fffffffffffffffffffffffffffffffffffffffffffffffffffffffffffffffbc360112610440578160a43516330361041857600b60559188518160448237208851907f00000000000000000000000000000000000000000000000000000000000000008a83015260208201527f000000000000000000000000000000000000000000000000000000000000000081520160ff8153201630036103f05761012435901c7f00000000000000000000000000000000000000000000000000000000000000000142106103c957506103bb817fc4474c2790e13695f6d2b6f1d8e164290b55370f87a542fd7711abe0a1bf40ac959633906108f7565b82519182526020820152a180f35b83517f6f7eac26000000000000000000000000000000000000000000000000000000008152fd5b5083517fa269484a000000000000000000000000000000000000000000000000000000008152fd5b8387517f48f5c3ed000000000000000000000000000000000000000000000000000000008152fd5b8780fd5b8580fd5b505050346100cb57817ffffffffffffffffffffffffffffffffffffffffffffffffffffffffffffffffc3601126100cb57602090517f00000000000000000000000000000000000000000000000000000000000000008152f35b505050346100cb57817ffffffffffffffffffffffffffffffffffffffffffffffffffffffffffffffffc3601126100cb576020905173ffffffffffffffffffffffffffffffffffffffff7f0000000000000000000000000000000000000000000000000000000000000000168152f35b8385913461025e5761052336610606565b92909173ffffffffffffffffffffffffffffffffffffffff60608501351633036102365763ffffffff8185013580921c9160801c1681018091116105755742106101e65750906105729161066a565b80f35b6024856011887f4e487b7100000000000000000000000000000000000000000000000000000000835252fd5b85913461025e576105b136610606565b92909163ffffffff8185013580921c9160a01c1681018091116105755742106105df5750906105729161066a565b807f6f7eac2600000000000000000000000000000000000000000000000000000000869252fd5b906101207ffffffffffffffffffffffffffffffffffffffffffffffffffffffffffffffffc830112610665576101007fffffffffffffffffffffffffffffffffffffffffffffffffffffffffffffffdc60043593011261066557602490565b600080fd5b9061067860e0820135610816565b4210156107ec576040906055600b83516101009081858237208451907f00000000000000000000000000000000000000000000000000000000000000008683015260208201527f000000000000000000000000000000000000000000000000000000000000000081520160ff81532073ffffffffffffffffffffffffffffffffffffffff90811630036107c3576000908482526020822060208401350361079a5760c083602095938361077d9460807f0ce781a18c10c8289803c7c4cfd532d797113c4b41c9701ffad7d0a632ac555b9a9801351690868401351690801560001461078457508180809260a0860135905af15061077361085f565b505b013533610929565b51908152a1565b90610795925060a08401359161096c565b610775565b600484517fabab6bd7000000000000000000000000000000000000000000000000000000008152fd5b600483517fa269484a000000000000000000000000000000000000000000000000000000008152fd5b60046040517f6f7eac26000000000000000000000000000000000000000000000000000000008152fd5b63ffffffff8160e01c9160c01c1681018091116108305790565b7f4e487b7100000000000000000000000000000000000000000000000000000000600052601160045260246000fd5b3d156108f25767ffffffffffffffff903d8281116108c35760405192601f82017fffffffffffffffffffffffffffffffffffffffffffffffffffffffffffffffe0908116603f01168401908111848210176108c35760405282523d6000602084013e565b7f4e487b7100000000000000000000000000000000000000000000000000000000600052604160045260246000fd5b606090565b73ffffffffffffffffffffffffffffffffffffffff169190826109205761091e9250610929565b565b61091e9261096c565b600080809381935af161093a61085f565b501561094257565b60046040517f8a0332d5000000000000000000000000000000000000000000000000000000008152fd5b916044602092600092604051917fa9059cbb0000000000000000000000000000000000000000000000000000000083526004830152602482015282855af190816109e3575b50156109b957565b60046040517ffb7f5079000000000000000000000000000000000000000000000000000000008152fd5b90503d156109fe5750600160005114601f3d11165b386109b1565b3b15156109f856fea26469706673582212201c4d019757ef2af9a0c9244570f1ac8b0712f3879d83227aa766537895b8446164736f6c6343000817003360e0346100ed57601f610e0a38819003918201601f19168301916001600160401b038311848410176100f2578084926020946040528339810103126100ed575163ffffffff81168091036100ed573360a0526080526e5af43d82803e903d91602b57fd5bf360205230601152763d602d80600a3d3981f3363d3d373d3d3d363d730000003060881c17600052603760092060c052604051610d019081610109823960805181818160be01526104f9015260a05181818161066e015281816109cd01528181610a7e0152610b04015260c0518181816105ff015281816109a201528181610a530152610ad90152f35b600080fd5b634e487b7160e01b600052604160045260246000fdfe608060408181526004918236101561001657600080fd5b60009260e08435811c9283630af97558146107795750826323305703146106925782632dd310001461062257826334862b6a146105c85782634649088b1461045a5782636c10c0c8146102a457826390d3252f146101f5578263daff233e146100e557505063f56cd69c1461008a57600080fd5b346100e157817ffffffffffffffffffffffffffffffffffffffffffffffffffffffffffffffffc3601126100e157602090517f00000000000000000000000000000000000000000000000000000000000000008152f35b5080fd5b90929150346101f1576101007ffffffffffffffffffffffffffffffffffffffffffffffffffffffffffffffffc3601126101f15763ffffffff60e43580921c9160601c1681018091116101c557421061019f5782610141610a27565b61016c73ffffffffffffffffffffffffffffffffffffffff60a4359080604435169060843516610b34565b61017860c43533610bce565b7f6e3be9294e58d10b9c8053cfd5e09871b67e442fe394d6b0870d336b9df984a98180a180f35b517f6f7eac26000000000000000000000000000000000000000000000000000000008152fd5b6024846011857f4e487b7100000000000000000000000000000000000000000000000000000000835252fd5b8380fd5b509050346102a0576101007ffffffffffffffffffffffffffffffffffffffffffffffffffffffffffffffffc3601126102a05773ffffffffffffffffffffffffffffffffffffffff918260643516330361027a5761025460e435610916565b421061019f578361016c84610267610a27565b60a4359080604435169060843516610b34565b517f48f5c3ed000000000000000000000000000000000000000000000000000000008152fd5b8280fd5b848285346102a0576101407ffffffffffffffffffffffffffffffffffffffffffffffffffffffffffffffffc3601126102a05781359160243573ffffffffffffffffffffffffffffffffffffffff918282168203610456576101007fffffffffffffffffffffffffffffffffffffffffffffffffffffffffffffffbc360112610456578260a43516330361042f576101243561033f8161095f565b42106104075761034e90610916565b4210156103e05761035d610976565b84865260208620606435036103b95750916103a47f0ce781a18c10c8289803c7c4cfd532d797113c4b41c9701ffad7d0a632ac555b949260209460e4359160c43516610b34565b6103b16101043533610bce565b51908152a180f35b83517fabab6bd7000000000000000000000000000000000000000000000000000000008152fd5b83517f6f7eac26000000000000000000000000000000000000000000000000000000008152fd5b5083517f6f7eac26000000000000000000000000000000000000000000000000000000008152fd5b83517f48f5c3ed000000000000000000000000000000000000000000000000000000008152fd5b8580fd5b838591346102a0576101407ffffffffffffffffffffffffffffffffffffffffffffffffffffffffffffffffc3601126102a05783359073ffffffffffffffffffffffffffffffffffffffff908183168093036105c457602435916101007fffffffffffffffffffffffffffffffffffffffffffffffffffffffffffffffbc3601126104565760a43516330361059c576104f1610976565b61012435901c7f0000000000000000000000000000000000000000000000000000000000000000014210610574577fc4474c2790e13695f6d2b6f1d8e164290b55370f87a542fd7711abe0a1bf40ac9394508115600014610564576105568133610bce565b82519182526020820152a180f35b61056f813384610b34565b610556565b8483517f6f7eac26000000000000000000000000000000000000000000000000000000008152fd5b8584517f48f5c3ed000000000000000000000000000000000000000000000000000000008152fd5b8480fd5b505050346100e157817ffffffffffffffffffffffffffffffffffffffffffffffffffffffffffffffffc3601126100e157602090517f00000000000000000000000000000000000000000000000000000000000000008152f35b505050346100e157817ffffffffffffffffffffffffffffffffffffffffffffffffffffffffffffffffc3601126100e1576020905173ffffffffffffffffffffffffffffffffffffffff7f0000000000000000000000000000000000000000000000000000000000000000168152f35b90929150346101f1576106a4366108b2565b91909373ffffffffffffffffffffffffffffffffffffffff91826060850135163303610751578301356106d68161095f565b4210610407576106e590610916565b4210156103e0576106f583610aae565b848652602086206020840135036103b95750916103b160c08361074960209660a07f0ce781a18c10c8289803c7c4cfd532d797113c4b41c9701ffad7d0a632ac555b99970135903390608085013516610b34565b013533610bce565b5083517f48f5c3ed000000000000000000000000000000000000000000000000000000008152fd5b93925090346105c45761078b366108b2565b9290948184013580921c63ffffffff8360201c16810180911161088657421061085f57506107b890610916565b4210156108385773ffffffffffffffffffffffffffffffffffffffff906107de83610aae565b848652602086206020840135036103b95750916103b160c08361074960209660a07f0ce781a18c10c8289803c7c4cfd532d797113c4b41c9701ffad7d0a632ac555b99970135908060608501351690608085013516610b34565b82517f6f7eac26000000000000000000000000000000000000000000000000000000008152fd5b90507f6f7eac26000000000000000000000000000000000000000000000000000000008152fd5b6024886011867f4e487b7100000000000000000000000000000000000000000000000000000000835252fd5b906101207ffffffffffffffffffffffffffffffffffffffffffffffffffffffffffffffffc830112610911576101007fffffffffffffffffffffffffffffffffffffffffffffffffffffffffffffffdc60043593011261091157602490565b600080fd5b63ffffffff8160e01c9160401c1681018091116109305790565b7f4e487b7100000000000000000000000000000000000000000000000000000000600052601160045260246000fd5b63ffffffff8160e01c911681018091116109305790565b73ffffffffffffffffffffffffffffffffffffffff6055600b60405161010090816044823720604051907f0000000000000000000000000000000000000000000000000000000000000000604083015260208201527f000000000000000000000000000000000000000000000000000000000000000081520160ff8153201630036109fd57565b60046040517fa269484a000000000000000000000000000000000000000000000000000000008152fd5b73ffffffffffffffffffffffffffffffffffffffff6055600b60405161010090816004823720604051907f0000000000000000000000000000000000000000000000000000000000000000604083015260208201527f000000000000000000000000000000000000000000000000000000000000000081520160ff8153201630036109fd57565b6055600b73ffffffffffffffffffffffffffffffffffffffff926040516101008092823720604051907f0000000000000000000000000000000000000000000000000000000000000000604083015260208201527f000000000000000000000000000000000000000000000000000000000000000081520160ff8153201630036109fd57565b916044602092600092604051917fa9059cbb0000000000000000000000000000000000000000000000000000000083526004830152602482015282855af19081610bab575b5015610b8157565b60046040517ffb7f5079000000000000000000000000000000000000000000000000000000008152fd5b90503d15610bc65750600160005114601f3d11165b38610b79565b3b1515610bc0565b60008080809481945af1903d15610cc55767ffffffffffffffff903d828111610c985760405192601f82017fffffffffffffffffffffffffffffffffffffffffffffffffffffffffffffffe0908116603f0116840190811184821017610c6b57604052825260203d92013e5b15610c4157565b60046040517f8a0332d5000000000000000000000000000000000000000000000000000000008152fd5b6024837f4e487b710000000000000000000000000000000000000000000000000000000081526041600452fd5b6024827f4e487b710000000000000000000000000000000000000000000000000000000081526041600452fd5b50610c3a56fea26469706673582212205de98340a55562d97fa0fa479d70183ffd893bc618f5d3b0d8aaa9f73c56b74764736f6c63430008170033",
  "linkReferences": {},
  "deployedLinkReferences": {}
}