{
  "_format": "hh-sol-artifact-1",
  "contractName": "EscrowDst",
  "sourceName": "contracts/escrow/EscrowFactory.sol",
  "abi": [
    {
      "inputs": [
        {
          "internalType": "uint32",
          "name": "rescueDelay",
          "type": "uint32"
        }
      ],
      "stateMutability": "nonpayable",
      "type": "constructor"
    },
    {
      "inputs": [],
      "name": "InvalidCaller",
      "type": "error"
    },
    {
      "inputs": [],
      "name": "InvalidImmutables",
      "type": "error"
    },
    {
      "inputs": [],
      "name": "InvalidSecret",
      "type": "error"
    },
    {
      "inputs": [],
      "name": "InvalidTime",
      "type": "error"
    },
    {
      "inputs": [],
      "name": "NativeTokenSendingFailure",
      "type": "error"
    },
    {
      "inputs": [],
      "name": "SafeTransferFailed",
      "type": "error"
    },
    {
      "anonymous": false,
      "inputs": [],
      "name": "EscrowCancelled",
      "type": "event"
    },
    {
      "anonymous": false,
      "inputs": [
        {
          "indexed": false,
          "internalType": "address",
          "name": "token",
          "type": "address"
        },
        {
          "indexed": false,
          "internalType": "uint256",
          "name": "amount",
          "type": "uint256"
        }
      ],
      "name": "FundsRescued",
      "type": "event"
    },
    {
      "anonymous": false,
      "inputs": [
        {
          "indexed": false,
          "internalType": "bytes32",
          "name": "secret",
          "type": "bytes32"
        }
      ],
      "name": "Withdrawal",
      "type": "event"
    },
    {
      "inputs": [],
      "name": "FACTORY",
      "outputs": [
        {
          "internalType": "address",
          "name": "",
          "type": "address"
        }
      ],
      "stateMutability": "view",
      "type": "function"
    },
    {
      "inputs": [],
      "name": "PROXY_BYTECODE_HASH",
      "outputs": [
        {
          "internalType": "bytes32",
          "name": "",
          "type": "bytes32"
        }
      ],
      "stateMutability": "view",
      "type": "function"
    },
    {
      "inputs": [],
      "name": "RESCUE_DELAY",
      "outputs": [
        {
          "internalType": "uint256",
          "name": "",
          "type": "uint256"
        }
      ],
      "stateMutability": "view",
      "type": "function"
    },
    {
      "inputs": [
        {
          "components": [
            {
              "internalType": "bytes32",
              "name": "orderHash",
              "type": "bytes32"
            },
            {
              "internalType": "bytes32",
              "name": "hashlock",
              "type": "bytes32"
            },
            {
              "internalType": "Address",
              "name": "maker",
              "type": "uint256"
            },
            {
              "internalType": "Address",
              "name": "taker",
              "type": "uint256"
            },
            {
              "internalType": "Address",
              "name": "token",
              "type": "uint256"
            },
            {
              "internalType": "uint256",
              "name": "amount",
              "type": "uint256"
            },
            {
              "internalType": "uint256",
              "name": "safetyDeposit",
              "type": "uint256"
            },
            {
              "internalType": "Timelocks",
              "name": "timelocks",
              "type": "uint256"
            }
          ],
          "internalType": "struct IBaseEscrow.Immutables",
          "name": "immutables",
          "type": "tuple"
        }
      ],
      "name": "cancel",
      "outputs": [],
      "stateMutability": "nonpayable",
      "type": "function"
    },
    {
      "inputs": [
        {
          "internalType": "bytes32",
          "name": "secret",
          "type": "bytes32"
        },
        {
          "components": [
            {
              "internalType": "bytes32",
              "name": "orderHash",
              "type": "bytes32"
            },
            {
              "internalType": "bytes32",
              "name": "hashlock",
              "type": "bytes32"
            },
            {
              "internalType": "Address",
              "name": "maker",
              "type": "uint256"
            },
            {
              "internalType": "Address",
              "name": "taker",
              "type": "uint256"
            },
            {
              "internalType": "Address",
              "name": "token",
              "type": "uint256"
            },
            {
              "internalType": "uint256",
              "name": "amount",
              "type": "uint256"
            },
            {
              "internalType": "uint256",
              "name": "safetyDeposit",
              "type": "uint256"
            },
            {
              "internalType": "Timelocks",
              "name": "timelocks",
              "type": "uint256"
            }
          ],
          "internalType": "struct IBaseEscrow.Immutables",
          "name": "immutables",
          "type": "tuple"
        }
      ],
      "name": "publicWithdraw",
      "outputs": [],
      "stateMutability": "nonpayable",
      "type": "function"
    },
    {
      "inputs": [
        {
          "internalType": "address",
          "name": "token",
          "type": "address"
        },
        {
          "internalType": "uint256",
          "name": "amount",
          "type": "uint256"
        },
        {
          "components": [
            {
              "internalType": "bytes32",
              "name": "orderHash",
              "type": "bytes32"
            },
            {
              "internalType": "bytes32",
              "name": "hashlock",
              "type": "bytes32"
            },
            {
              "internalType": "Address",
              "name": "maker",
              "type": "uint256"
            },
            {
              "internalType": "Address",
              "name": "taker",
              "type": "uint256"
            },
            {
              "internalType": "Address",
              "name": "token",
              "type": "uint256"
            },
            {
              "internalType": "uint256",
              "name": "amount",
              "type": "uint256"
            },
            {
              "internalType": "uint256",
              "name": "safetyDeposit",
              "type": "uint256"
            },
            {
              "internalType": "Timelocks",
              "name": "timelocks",
              "type": "uint256"
            }
          ],
          "internalType": "struct IBaseEscrow.Immutables",
          "name": "immutables",
          "type": "tuple"
        }
      ],
      "name": "rescueFunds",
      "outputs": [],
      "stateMutability": "nonpayable",
      "type": "function"
    },
    {
      "inputs": [
        {
          "internalType": "bytes32",
          "name": "secret",
          "type": "bytes32"
        },
        {
          "components": [
            {
              "internalType": "bytes32",
              "name": "orderHash",
              "type": "bytes32"
            },
            {
              "internalType": "bytes32",
              "name": "hashlock",
              "type": "bytes32"
            },
            {
              "internalType": "Address",
              "name": "maker",
              "type": "uint256"
            },
            {
              "internalType": "Address",
              "name": "taker",
              "type": "uint256"
            },
            {
              "internalType": "Address",
              "name": "token",
              "type": "uint256"
            },
            {
              "internalType": "uint256",
              "name": "amount",
              "type": "uint256"
            },
            {
              "internalType": "uint256",
              "name": "safetyDeposit",
              "type": "uint256"
            },
            {
              "internalType": "Timelocks",
              "name": "timelocks",
              "type": "uint256"
            }
          ],
          "internalType": "struct IBaseEscrow.Immutables",
          "name": "immutables",
          "type": "tuple"
        }
      ],
      "name": "withdraw",
      "outputs": [],
      "stateMutability": "nonpayable",
      "type": "function"
    }
  ],
  "bytecode": "0x60e0346100ed57601f610b4538819003918201601f19168301916001600160401b038311848410176100f2578084926020946040528339810103126100ed575163ffffffff81168091036100ed573360a0526080526e5af43d82803e903d91602b57fd5bf360205230601152763d602d80600a3d3981f3363d3d373d3d3d363d730000003060881c17600052603760092060c052604051610a3c9081610109823960805181818160a80152610366015260a05181818161016101528181610330015281816104ee01526106c0015260c051818181610137015281816103060152818161047f01526106960152f35b600080fd5b634e487b7160e01b600052604160045260246000fdfe608060408181526004918236101561001657600080fd5b60009260e08435811c9283630af97558146105a15750826323305703146105125782632dd31000146104a257826334862b6a146104485782634649088b146102625750816390d3252f146100cf575063f56cd69c1461007457600080fd5b346100cb57817ffffffffffffffffffffffffffffffffffffffffffffffffffffffffffffffffc3601126100cb57602090517f00000000000000000000000000000000000000000000000000000000000000008152f35b5080fd5b8383346100cb57610100807ffffffffffffffffffffffffffffffffffffffffffffffffffffffffffffffffc36011261025e5773ffffffffffffffffffffffffffffffffffffffff91826064351691823303610236576055600b85928451818a8237208451907f00000000000000000000000000000000000000000000000000000000000000008683015260208201527f000000000000000000000000000000000000000000000000000000000000000081520160ff81532016300361020e5761019a60e435610816565b42106101e65750906101b39160a43591608435166108f7565b6101bf60c43533610929565b7f6e3be9294e58d10b9c8053cfd5e09871b67e442fe394d6b0870d336b9df984a98180a180f35b8490517f6f7eac26000000000000000000000000000000000000000000000000000000008152fd5b8490517fa269484a000000000000000000000000000000000000000000000000000000008152fd5b8582517f48f5c3ed000000000000000000000000000000000000000000000000000000008152fd5b8280fd5b8385913461025e576101407ffffffffffffffffffffffffffffffffffffffffffffffffffffffffffffffffc36011261025e5783359373ffffffffffffffffffffffffffffffffffffffff90818616928387036104445760243592610100807fffffffffffffffffffffffffffffffffffffffffffffffffffffffffffffffbc360112610440578160a43516330361041857600b60559188518160448237208851907f00000000000000000000000000000000000000000000000000000000000000008a83015260208201527f000000000000000000000000000000000000000000000000000000000000000081520160ff8153201630036103f05761012435901c7f00000000000000000000000000000000000000000000000000000000000000000142106103c957506103bb817fc4474c2790e13695f6d2b6f1d8e164290b55370f87a542fd7711abe0a1bf40ac959633906108f7565b82519182526020820152a180f35b83517f6f7eac26000000000000000000000000000000000000000000000000000000008152fd5b5083517fa269484a000000000000000000000000000000000000000000000000000000008152fd5b8387517f48f5c3ed000000000000000000000000000000000000000000000000000000008152fd5b8780fd5b8580fd5b505050346100cb57817ffffffffffffffffffffffffffffffffffffffffffffffffffffffffffffffffc3601126100cb57602090517f00000000000000000000000000000000000000000000000000000000000000008152f35b505050346100cb57817ffffffffffffffffffffffffffffffffffffffffffffffffffffffffffffffffc3601126100cb576020905173ffffffffffffffffffffffffffffffffffffffff7f0000000000000000000000000000000000000000000000000000000000000000168152f35b8385913461025e5761052336610606565b92909173ffffffffffffffffffffffffffffffffffffffff60608501351633036102365763ffffffff8185013580921c9160801c1681018091116105755742106101e65750906105729161066a565b80f35b6024856011887f4e487b7100000000000000000000000000000000000000000000000000000000835252fd5b85913461025e576105b136610606565b92909163ffffffff8185013580921c9160a01c1681018091116105755742106105df5750906105729161066a565b807f6f7eac2600000000000000000000000000000000000000000000000000000000869252fd5b906101207ffffffffffffffffffffffffffffffffffffffffffffffffffffffffffffffffc830112610665576101007fffffffffffffffffffffffffffffffffffffffffffffffffffffffffffffffdc60043593011261066557602490565b600080fd5b9061067860e0820135610816565b4210156107ec576040906055600b83516101009081858237208451907f00000000000000000000000000000000000000000000000000000000000000008683015260208201527f000000000000000000000000000000000000000000000000000000000000000081520160ff81532073ffffffffffffffffffffffffffffffffffffffff90811630036107c3576000908482526020822060208401350361079a5760c083602095938361077d9460807f0ce781a18c10c8289803c7c4cfd532d797113c4b41c9701ffad7d0a632ac555b9a9801351690868401351690801560001461078457508180809260a0860135905af15061077361085f565b505b013533610929565b51908152a1565b90610795925060a08401359161096c565b610775565b600484517fabab6bd7000000000000000000000000000000000000000000000000000000008152fd5b600483517fa269484a000000000000000000000000000000000000000000000000000000008152fd5b60046040517f6f7eac26000000000000000000000000000000000000000000000000000000008152fd5b63ffffffff8160e01c9160c01c1681018091116108305790565b7f4e487b7100000000000000000000000000000000000000000000000000000000600052601160045260246000fd5b3d156108f25767ffffffffffffffff903d8281116108c35760405192601f82017fffffffffffffffffffffffffffffffffffffffffffffffffffffffffffffffe0908116603f01168401908111848210176108c35760405282523d6000602084013e565b7f4e487b7100000000000000000000000000000000000000000000000000000000600052604160045260246000fd5b606090565b73ffffffffffffffffffffffffffffffffffffffff169190826109205761091e9250610929565b565b61091e9261096c565b600080809381935af161093a61085f565b501561094257565b60046040517f8a0332d5000000000000000000000000000000000000000000000000000000008152fd5b916044602092600092604051917fa9059cbb0000000000000000000000000000000000000000000000000000000083526004830152602482015282855af190816109e3575b50156109b957565b60046040517ffb7f5079000000000000000000000000000000000000000000000000000000008152fd5b90503d156109fe5750600160005114601f3d11165b386109b1565b3b15156109f856fea26469706673582212201c4d019757ef2af9a0c9244570f1ac8b0712f3879d83227aa766537895b8446164736f6c63430008170033",
  "linkReferences": {},
  "deployedLinkReferences": {}
}