{
  "_format": "hh-sol-artifact-1",
  "contractName": "MerkleStorageInvalidator",
  "sourceName": "contracts/escrow/EscrowFactory.sol",
  "abi": [
    {
      "inputs": [
        {
          "internalType": "address",
          "name": "limitOrderProtocol",
          "type": "address"
        }
      ],
      "stateMutability": "nonpayable",
      "type": "constructor"
    },
    {
      "inputs": [],
      "name": "AccessDenied",
      "type": "error"
    },
    {
      "inputs": [],
      "name": "InvalidProof",
      "type": "error"
    },
    {
      "inputs": [
        {
          "internalType": "bytes32",
          "name": "key",
          "type": "bytes32"
        }
      ],
      "name": "lastValidated",
      "outputs": [
        {
          "internalType": "uint256",
          "name": "index",
          "type": "uint256"
        },
        {
          "internalType": "bytes32",
          "name": "leaf",
          "type": "bytes32"
        }
      ],
      "stateMutability": "view",
      "type": "function"
    },
    {
      "inputs": [
        {
          "components": [
            {
              "internalType": "uint256",
              "name": "salt",
              "type": "uint256"
            },
            {
              "internalType": "Address",
              "name": "maker",
              "type": "uint256"
            },
            {
              "internalType": "Address",
              "name": "receiver",
              "type": "uint256"
            },
            {
              "internalType": "Address",
              "name": "makerAsset",
              "type": "uint256"
            },
            {
              "internalType": "Address",
              "name": "takerAsset",
              "type": "uint256"
            },
            {
              "internalType": "uint256",
              "name": "makingAmount",
              "type": "uint256"
            },
            {
              "internalType": "uint256",
              "name": "takingAmount",
              "type": "uint256"
            },
            {
              "internalType": "MakerTraits",
              "name": "makerTraits",
              "type": "uint256"
            }
          ],
          "internalType": "struct IOrderMixin.Order",
          "name": "",
          "type": "tuple"
        },
        {
          "internalType": "bytes",
          "name": "extension",
          "type": "bytes"
        },
        {
          "internalType": "bytes32",
          "name": "orderHash",
          "type": "bytes32"
        },
        {
          "internalType": "address",
          "name": "",
          "type": "address"
        },
        {
          "internalType": "uint256",
          "name": "",
          "type": "uint256"
        },
        {
          "internalType": "uint256",
          "name": "",
          "type": "uint256"
        },
        {
          "internalType": "uint256",
          "name": "",
          "type": "uint256"
        },
        {
          "internalType": "bytes",
          "name": "extraData",
          "type": "bytes"
        }
      ],
      "name": "takerInteraction",
      "outputs": [],
      "stateMutability": "nonpayable",
      "type": "function"
    }
  ],
  "bytecode": "0x60a03461006957601f61058e38819003918201601f19168301916001600160401b0383118484101761006e5780849260209460405283398101031261006957516001600160a01b038116810361006957608052604051610509908161008582396080518160d50152f35b600080fd5b634e487b7160e01b600052604160045260246000fdfe60806040908082526004918236101561001757600080fd5b600091823560e01c908163acf4ce5c14610384575063adf38ba11461003b57600080fd5b3461037c577ffffffffffffffffffffffffffffffffffffffffffffffffffffffffffffffffc36016101e08112610380576101001361037c5767ffffffffffffffff90610104358281116103785761009690369086016103d3565b73ffffffffffffffffffffffffffffffffffffffff92916101443584811603610374576101c435858111610370576100d190369089016103d3565b50937f0000000000000000000000000000000000000000000000000000000000000000163303610348577fffffffffffffffffffffffffffffffffffffffffffffffffffffffffffffff609161012691610451565b010135917dffffffffffffffffffffffffffffffffffffffffffffffffffffffffffff92825191602092838101906101243582527fffffffffffffffffffffffffffffffffffffffffffffffffffffffffffff00008460101b1686820152603e815261019181610406565b5190209181357fffffffffffffffffffffffffffffffffffffffffffffffffffffffffffffffe18336030181121561034457820195863591888311610340576005928060051b3603878a011361033c578a908888870135960135998951898101907fffffffffffffffff0000000000000000000000000000000000000000000000008960c01b1682528c60288201526028815261022d81610406565b519020958a845b8486106103055750505050505081169116036102dd57600181018091116102b15783519586850190811187821017610285578452855281850193845285528490528320915182555160019091015580f35b60248860418b7f4e487b7100000000000000000000000000000000000000000000000000000000835252fd5b60248760118a7f4e487b7100000000000000000000000000000000000000000000000000000000835252fd5b8784517f09bde339000000000000000000000000000000000000000000000000000000008152fd5b85988c849596976001951b87010135908181106000146103315782528c52205b96019291908a8e610234565b9082528c5220610325565b8a80fd5b8980fd5b8880fd5b8683517f4ca88867000000000000000000000000000000000000000000000000000000008152fd5b8680fd5b8580fd5b8380fd5b5080fd5b8280fd5b905082843461037c5760207ffffffffffffffffffffffffffffffffffffffffffffffffffffffffffffffffc36011261037c579083913581528060205220600181549101549082526020820152f35b9181601f840112156104015782359167ffffffffffffffff8311610401576020838186019501011161040157565b600080fd5b6060810190811067ffffffffffffffff82111761042257604052565b7f4e487b7100000000000000000000000000000000000000000000000000000000600052604160045260246000fd5b919091602083106104ca578035907fffffffffffffffffffffffffffffffffffffffffffffffffffffffffffffffe063ffffffff8360c01c169260e01c940184116104a0578101602001920390565b7f9605a0100000000000000000000000000000000000000000000000000000000060005260046000fd5b5060009150819056fea26469706673582212208deb4f84672a58d3350ac3738d63e3e7db0034718d78dd88d6b5f847d332f9a864736f6c63430008170033",
  "linkReferences": {},
  "deployedLinkReferences": {}
}