{
  "_format": "hh-sol-artifact-1",
  "contractName": "ETHOrders",
  "sourceName": "contracts/lop/extensions/ETHOrders.sol",
  "abi": [
    {
      "inputs": [
        {
          "internalType": "contract IWETH",
          "name": "weth",
          "type": "address"
        },
        {
          "internalType": "address",
          "name": "limitOrderProtocol",
          "type": "address"
        },
        {
          "internalType": "contract IERC20",
          "name": "accessToken",
          "type": "address"
        }
      ],
      "stateMutability": "nonpayable",
      "type": "constructor"
    },
    {
      "inputs": [],
      "name": "AccessDenied",
      "type": "error"
    },
    {
      "inputs": [],
      "name": "CancelOrderByResolverIsForbidden",
      "type": "error"
    },
    {
      "inputs": [],
      "name": "EthDepositRejected",
      "type": "error"
    },
    {
      "inputs": [],
      "name": "ExistingOrder",
      "type": "error"
    },
    {
      "inputs": [],
      "name": "InvalidOrder",
      "type": "error"
    },
    {
      "inputs": [],
      "name": "NotEnoughBalance",
      "type": "error"
    },
    {
      "inputs": [],
      "name": "OrderNotExpired",
      "type": "error"
    },
    {
      "inputs": [],
      "name": "RewardIsTooBig",
      "type": "error"
    },
    {
      "anonymous": false,
      "inputs": [
        {
          "indexed": false,
          "internalType": "bytes32",
          "name": "orderHash",
          "type": "bytes32"
        },
        {
          "indexed": false,
          "internalType": "uint256",
          "name": "amount",
          "type": "uint256"
        }
      ],
      "name": "ETHDeposited",
      "type": "event"
    },
    {
      "anonymous": false,
      "inputs": [
        {
          "indexed": false,
          "internalType": "bytes32",
          "name": "orderHash",
          "type": "bytes32"
        },
        {
          "indexed": false,
          "internalType": "uint256",
          "name": "amount",
          "type": "uint256"
        }
      ],
      "name": "ETHOrderCancelled",
      "type": "event"
    },
    {
      "anonymous": false,
      "inputs": [
        {
          "indexed": false,
          "internalType": "bytes32",
          "name": "orderHash",
          "type": "bytes32"
        },
        {
          "indexed": false,
          "internalType": "uint256",
          "name": "amount",
          "type": "uint256"
        },
        {
          "indexed": false,
          "internalType": "uint256",
          "name": "reward",
          "type": "uint256"
        }
      ],
      "name": "ETHOrderCancelledByThirdParty",
      "type": "event"
    },
    {
      "inputs": [
        {
          "internalType": "MakerTraits",
          "name": "makerTraits",
          "type": "uint256"
        },
        {
          "internalType": "bytes32",
          "name": "orderHash",
          "type": "bytes32"
        }
      ],
      "name": "cancelOrder",
      "outputs": [],
      "stateMutability": "nonpayable",
      "type": "function"
    },
    {
      "inputs": [
        {
          "internalType": "MakerTraits",
          "name": "makerTraits",
          "type": "uint256"
        },
        {
          "internalType": "bytes32",
          "name": "orderHash",
          "type": "bytes32"
        }
      ],
      "name": "cancelOrderByResolver",
      "outputs": [],
      "stateMutability": "nonpayable",
      "type": "function"
    },
    {
      "inputs": [
        {
          "components": [
            {
              "internalType": "uint256",
              "name": "salt",
              "type": "uint256"
            },
            {
              "internalType": "Address",
              "name": "maker",
              "type": "uint256"
            },
            {
              "internalType": "Address",
              "name": "receiver",
              "type": "uint256"
            },
            {
              "internalType": "Address",
              "name": "makerAsset",
              "type": "uint256"
            },
            {
              "internalType": "Address",
              "name": "takerAsset",
              "type": "uint256"
            },
            {
              "internalType": "uint256",
              "name": "makingAmount",
              "type": "uint256"
            },
            {
              "internalType": "uint256",
              "name": "takingAmount",
              "type": "uint256"
            },
            {
              "internalType": "MakerTraits",
              "name": "makerTraits",
              "type": "uint256"
            }
          ],
          "internalType": "struct IOrderMixin.Order",
          "name": "order",
          "type": "tuple"
        },
        {
          "internalType": "bytes",
          "name": "extension",
          "type": "bytes"
        },
        {
          "internalType": "uint16",
          "name": "maximumPremium",
          "type": "uint16"
        },
        {
          "internalType": "uint32",
          "name": "auctionDuration",
          "type": "uint32"
        }
      ],
      "name": "ethOrderDeposit",
      "outputs": [
        {
          "internalType": "bytes32",
          "name": "orderHash",
          "type": "bytes32"
        }
      ],
      "stateMutability": "payable",
      "type": "function"
    },
    {
      "inputs": [
        {
          "internalType": "bytes32[]",
          "name": "orderHashes",
          "type": "bytes32[]"
        }
      ],
      "name": "ethOrdersBatch",
      "outputs": [
        {
          "components": [
            {
              "internalType": "address",
              "name": "maker",
              "type": "address"
            },
            {
              "internalType": "uint96",
              "name": "balance",
              "type": "uint96"
            },
            {
              "internalType": "uint16",
              "name": "maximumPremium",
              "type": "uint16"
            },
            {
              "internalType": "uint32",
              "name": "auctionDuration",
              "type": "uint32"
            }
          ],
          "internalType": "struct ETHOrders.ETHOrder[]",
          "name": "ethOrders",
          "type": "tuple[]"
        }
      ],
      "stateMutability": "view",
      "type": "function"
    },
    {
      "inputs": [
        {
          "internalType": "bytes32",
          "name": "orderHash",
          "type": "bytes32"
        },
        {
          "internalType": "bytes",
          "name": "signature",
          "type": "bytes"
        }
      ],
      "name": "isValidSignature",
      "outputs": [
        {
          "internalType": "bytes4",
          "name": "",
          "type": "bytes4"
        }
      ],
      "stateMutability": "view",
      "type": "function"
    },
    {
      "inputs": [
        {
          "internalType": "bytes32",
          "name": "orderHash",
          "type": "bytes32"
        }
      ],
      "name": "ordersMakersBalances",
      "outputs": [
        {
          "internalType": "address",
          "name": "maker",
          "type": "address"
        },
        {
          "internalType": "uint96",
          "name": "balance",
          "type": "uint96"
        },
        {
          "internalType": "uint16",
          "name": "maximumPremium",
          "type": "uint16"
        },
        {
          "internalType": "uint32",
          "name": "auctionDuration",
          "type": "uint32"
        }
      ],
      "stateMutability": "view",
      "type": "function"
    },
    {
      "inputs": [
        {
          "components": [
            {
              "internalType": "uint256",
              "name": "salt",
              "type": "uint256"
            },
            {
              "internalType": "Address",
              "name": "maker",
              "type": "uint256"
            },
            {
              "internalType": "Address",
              "name": "receiver",
              "type": "uint256"
            },
            {
              "internalType": "Address",
              "name": "makerAsset",
              "type": "uint256"
            },
            {
              "internalType": "Address",
              "name": "takerAsset",
              "type": "uint256"
            },
            {
              "internalType": "uint256",
              "name": "makingAmount",
              "type": "uint256"
            },
            {
              "internalType": "uint256",
              "name": "takingAmount",
              "type": "uint256"
            },
            {
              "internalType": "MakerTraits",
              "name": "makerTraits",
              "type": "uint256"
            }
          ],
          "internalType": "struct IOrderMixin.Order",
          "name": "",
          "type": "tuple"
        },
        {
          "internalType": "bytes",
          "name": "",
          "type": "bytes"
        },
        {
          "internalType": "bytes32",
          "name": "orderHash",
          "type": "bytes32"
        },
        {
          "internalType": "address",
          "name": "",
          "type": "address"
        },
        {
          "internalType": "uint256",
          "name": "makingAmount",
          "type": "uint256"
        },
        {
          "internalType": "uint256",
          "name": "",
          "type": "uint256"
        },
        {
          "internalType": "uint256",
          "name": "",
          "type": "uint256"
        },
        {
          "internalType": "bytes",
          "name": "",
          "type": "bytes"
        }
      ],
      "name": "postInteraction",
      "outputs": [],
      "stateMutability": "nonpayable",
      "type": "function"
    },
    {
      "stateMutability": "payable",
      "type": "receive"
    }
  ],
  "bytecode": "0x610100806040523462000155576060816200171080380380916200002482856200015a565b833981010312620001555780516001600160a01b038082169291838103620001555760208301519082821693848303620001555760400151928316830362000155578460805260c05260a05260e0526040519063095ea7b360e01b825260048201526000196024820152602081604481600080965af180156200014a5762000104575b60405161157b9081620001958239608051816035015260a0518181816101190152818161036d015281816105770152610c16015260c0518181816101c501528181610683015281816106b70152610d4c015260e051816104cf0152f35b6020813d60201162000141575b8162000120602093836200015a565b810103126200013d5751801515036200013a5780620000a7565b80fd5b5080fd5b3d915062000111565b6040513d84823e3d90fd5b600080fd5b601f909101601f19168101906001600160401b038211908210176200017e57604052565b634e487b7160e01b600052604160045260246000fdfe6080604081815260049182361015610083575b50361561001e57600080fd5b73ffffffffffffffffffffffffffffffffffffffff7f000000000000000000000000000000000000000000000000000000000000000016330361005d57005b517f1b10b0f9000000000000000000000000000000000000000000000000000000008152fd5b600090813560e01c90816310cab65f14610a87575080631626ba7e14610a015780631ae773731461080857806320d0fbee14610471578063462ebde2146102c8578063880d9bda146102445763b68fb0200361001257919034610240576100e936610f4c565b908185528460205273ffffffffffffffffffffffffffffffffffffffff93848487205416330361021957908591857f00000000000000000000000000000000000000000000000000000000000000001691823b1561020b576044849283885195869485937fb68fb0200000000000000000000000000000000000000000000000000000000085528401528860248401525af1801561020f576101f7575b5092817f397f19dc09129d410bbc6c72733c013795df7df235e104118bd69cbfd7bfad509452846020528285208054918260a01c921690556101e933827f0000000000000000000000000000000000000000000000000000000000000000611440565b82519182526020820152a180f35b61020090610fcb565b61020b578338610186565b8380fd5b84513d84823e3d90fd5b83517faf610693000000000000000000000000000000000000000000000000000000008152fd5b8280fd5b5091346102405760207ffffffffffffffffffffffffffffffffffffffffffffffffffffffffffffffffc360112610240578160809363ffffffff92358152806020522091600183549301549080519373ffffffffffffffffffffffffffffffffffffffff8116855260a01c602085015261ffff82169084015260101c166060820152f35b50903461046d577ffffffffffffffffffffffffffffffffffffffffffffffffffffffffffffffffc36016101e08112610240576101001361046d5767ffffffffffffffff906101043582811161020b576103259036908601610f19565b50506101243573ffffffffffffffffffffffffffffffffffffffff61014435818116036104695761016435936101c435908111610465576103699036908801610f19565b50507f000000000000000000000000000000000000000000000000000000000000000016330361043d5780845283602052828285205460a01c10610415576104129394506bffffffffffffffffffffffff91829186528560205285209216825460a01c031673ffffffffffffffffffffffffffffffffffffffff7fffffffffffffffffffffffff000000000000000000000000000000000000000083549260a01b169116179055565b80f35b8482517fad3a8b9e000000000000000000000000000000000000000000000000000000008152fd5b8482517f4ca88867000000000000000000000000000000000000000000000000000000008152fd5b8580fd5b8480fd5b5080fd5b5091346102405761048136610f4c565b929073ffffffffffffffffffffffffffffffffffffffff928251917f70a0823100000000000000000000000000000000000000000000000000000000835233828401526020928381602481897f0000000000000000000000000000000000000000000000000000000000000000165afa9081156107fe5788916107cd575b50156107a55764ffffffffff8160501c16908115158061079c575b15610774578688528784528488209185519161053583610f80565b8354936001898616918286528886019660a01c8752015461ffff9163ffffffff8a870192848116845260101c1660608701521561074c575116156107245789887f00000000000000000000000000000000000000000000000000000000000000001691823b1561046d5760448b91838b5195869485937fb68fb0200000000000000000000000000000000000000000000000000000000085528c85015260248401525af1801561071a57610707575b506175306105f56103e892846113ca565b820148020204956bffffffffffffffffffffffff938484511688116106e057509183918795936060987fe01427a86d75c55186c27ab04be40d64e36a9377dca115ce92c5a5122b8a384e9a989684511691898d528c8752878d20818154169055816106b0575b818303610679575b505050505116908251948552840152820152a180f35b6106a793511691037f0000000000000000000000000000000000000000000000000000000000000000611440565b38808681610663565b6106db33837f0000000000000000000000000000000000000000000000000000000000000000611440565b61065b565b86517faa4d3d4e000000000000000000000000000000000000000000000000000000008152fd5b61071390999199610fcb565b97386105e4565b87513d8c823e3d90fd5b8487517ff839fd70000000000000000000000000000000000000000000000000000000008152fd5b8689517faf610693000000000000000000000000000000000000000000000000000000008152fd5b8285517f796c85f3000000000000000000000000000000000000000000000000000000008152fd5b5042821061051a565b5082517f4ca88867000000000000000000000000000000000000000000000000000000008152fd5b90508381813d83116107f7575b6107e48183610fdf565b810103126107f35751386104ff565b8780fd5b503d6107da565b85513d8a823e3d90fd5b50823461046d57602091827ffffffffffffffffffffffffffffffffffffffffffffffffffffffffffffffffc3601126109fe5781359167ffffffffffffffff9081841161024057366023850112156102405783013590811161046d5760246005933660248460051b8301011161020b576108818361109d565b9461088e88519687610fdf565b8386527fffffffffffffffffffffffffffffffffffffffffffffffffffffffffffffffe06108bb8561109d565b0187865b8281106109d257505050845b84811061095b575050505050835192808401908085528351809252808686019401925b8281106108fb5785850386f35b8351805173ffffffffffffffffffffffffffffffffffffffff168652808301516bffffffffffffffffffffffff16868401528781015161ffff168887015260609081015163ffffffff1690860152608090940193928101926001016108ee565b8084600192841b85010135875286895289872063ffffffff838c519261098084610f80565b805473ffffffffffffffffffffffffffffffffffffffff8116855260a01c8d850152015461ffff81168d84015260101c1660608201526109c0828a6110b5565b526109cb81896110b5565b50016108cb565b8a516109dd81610f80565b8881528883820152888c82015288606082015282828b0101520188906108bf565b80fd5b50346109fe57817ffffffffffffffffffffffffffffffffffffffffffffffffffffffffffffffffc3601126109fe576024359067ffffffffffffffff82116109fe5750610a7f602093610a787fffffffff000000000000000000000000000000000000000000000000000000009336908301610f19565b9135611020565b915191168152f35b929190507ffffffffffffffffffffffffffffffffffffffffffffffffffffffffffffffffc3601610160811261046d57610100136109fe5761010493843567ffffffffffffffff811161024057610ae19036908301610f19565b959094610124359161ffff9081841680940361046557610144359263ffffffff8416809403610f155760e435907f0800000000000000000000000000000000000000000000000000000000000000821615610eee5750610b418a8a6110f8565b9015610ee857506024359873ffffffffffffffffffffffffffffffffffffffff9a8b8b16308103610eb9576044359c94939291908d8616908115610ee157505b8533911603610eb95760a43591348303610e915790610b9f916114c3565b6014811491821592610e3a575b5050610e125789519b8c9b7f802b2ef1000000000000000000000000000000000000000000000000000000008d528c8a803591015260248d015260448c015260643560648c015260843560848c015260a48b015260c43560c48b015260e48a01526020998a9181847f0000000000000000000000000000000000000000000000000000000000000000165afa978815610e08578698610dd9575b50878652858952808787205416610db1579185949291600189610ceb8c8b8a99978a6bffffffffffffffffffffffff93835196610c8288610f80565b3388523486168289019081529488019b8c52606088019a8b528252528d8b209451915173ffffffffffffffffffffffffffffffffffffffff9190921616911660a01b7fffffffffffffffffffffffff000000000000000000000000000000000000000016178255565b019251167fffffffffffffffffffffffffffffffffffffffffffffffffffff00000000000065ffffffff00008454935160101b169216171790557fd0e30db000000000000000000000000000000000000000000000000000000000825281347f00000000000000000000000000000000000000000000000000000000000000005af115610da657507f60ce4f4b6bd3ed41b0d13b82f0db1e0fa45c1316d7e982ae5e02d683e929d7cb8180518481523486820152a151908152f35b9051903d90823e3d90fd5b8487517f608d41ea000000000000000000000000000000000000000000000000000000008152fd5b9097508881813d8311610e01575b610df18183610fdf565b8101031261046557519638610c46565b503d610de7565b87513d88823e3d90fd5b878a517faf610693000000000000000000000000000000000000000000000000000000008152fd5b7fffffffffffffffffffffffffffffffffffffffff0000000000000000000000009250358281169160148110610e7c575b505060601c30141590503880610bac565b8391925060140360031b1b1616803880610e6b565b898c517faf610693000000000000000000000000000000000000000000000000000000008152fd5b888b517f4ca88867000000000000000000000000000000000000000000000000000000008152fd5b9050610b81565b87528587fd5b807faf61069300000000000000000000000000000000000000000000000000000000889252fd5b8680fd5b9181601f84011215610f475782359167ffffffffffffffff8311610f475760208381860195010111610f4757565b600080fd5b7ffffffffffffffffffffffffffffffffffffffffffffffffffffffffffffffffc6040910112610f47576004359060243590565b6080810190811067ffffffffffffffff821117610f9c57604052565b7f4e487b7100000000000000000000000000000000000000000000000000000000600052604160045260246000fd5b67ffffffffffffffff8111610f9c57604052565b90601f7fffffffffffffffffffffffffffffffffffffffffffffffffffffffffffffffe0910116810190811067ffffffffffffffff821117610f9c57604052565b90611050929180600052600060205273ffffffffffffffffffffffffffffffffffffffff60406000205416611239565b15611079577f1626ba7e0000000000000000000000000000000000000000000000000000000090565b7fffffffff0000000000000000000000000000000000000000000000000000000090565b67ffffffffffffffff8111610f9c5760051b60200190565b80518210156110c95760209160051b010190565b7f4e487b7100000000000000000000000000000000000000000000000000000000600052603260045260246000fd5b9060e4357f0200000000000000000000000000000000000000000000000000000000000000161561120b5780156111e25767ffffffffffffffff8111610f9c576040519061116e60207fffffffffffffffffffffffffffffffffffffffffffffffffffffffffffffffe0601f8401160183610fdf565b80825260208201923682820111610f47578160009260209286378301015273ffffffffffffffffffffffffffffffffffffffff918291519020169060043516036111bb575b600190600090565b6000907fdc11ee6b0000000000000000000000000000000000000000000000000000000090565b50506000907fb2d25e490000000000000000000000000000000000000000000000000000000090565b9050156111b3576000907f74896a7b0000000000000000000000000000000000000000000000000000000090565b90919273ffffffffffffffffffffffffffffffffffffffff918281169283156113bf576040938484149182156113b4575b826112e2575b50506112d8576020928260009384978351937f1626ba7e0000000000000000000000000000000000000000000000000000000098898652600486015260248501528160448501526064840137606401915afa6112ca575090565b600051143d60201416919050565b5050505050600190565b90915060008551858060411461139c57604014611357575080805b61130c575b5016143880611270565b817f7fffffffffffffffffffffffffffffff5d576e7357a4501ddfe92f46681b20a160608301511061133f575b50611302565b6080828a6020945282805260015afa50513881611339565b807f7fffffffffffffffffffffffffffffffffffffffffffffffffffffffffffffff60208b01358060ff1c601b01602084015260208c8b8501371660608201526112fd565b5086890135821a602082015280878a818301376112fd565b60418514925061126a565b505050505050600090565b908042111561143957420363ffffffff606083015116918282101561142b576040015161ffff160281156113fc570490565b7f4e487b7100000000000000000000000000000000000000000000000000000000600052601260045260246000fd5b6040015161ffff1692915050565b5050600090565b9160249260008094818080947f2e1a7d4d000000000000000000000000000000000000000000000000000000008252876004525af1156114b8573073ffffffffffffffffffffffffffffffffffffffff82160361149c57505050565b8280809381935af1156114ac5750565b604051903d90823e3d90fd5b6040513d84823e3d90fd5b9190916020831061153c578035907fffffffffffffffffffffffffffffffffffffffffffffffffffffffffffffffe063ffffffff8360c01c169260e01c94018411611512578101602001920390565b7f9605a0100000000000000000000000000000000000000000000000000000000060005260046000fd5b5060009150819056fea26469706673582212207e9836743114774c6628334d7d12942ff36309b6c9862c4af081d18348d8251664736f6c63430008170033",
  "linkReferences": {},
  "deployedLinkReferences": {}
}