{
  "_format": "hh-sol-artifact-1",
  "contractName": "ModuleManager",
  "sourceName": "@gnosis.pm/safe-contracts/contracts/base/ModuleManager.sol",
  "abi": [
    {
      "anonymous": false,
      "inputs": [
        {
          "indexed": false,
          "internalType": "address",
          "name": "module",
          "type": "address"
        }
      ],
      "name": "DisabledModule",
      "type": "event"
    },
    {
      "anonymous": false,
      "inputs": [
        {
          "indexed": false,
          "internalType": "address",
          "name": "module",
          "type": "address"
        }
      ],
      "name": "EnabledModule",
      "type": "event"
    },
    {
      "anonymous": false,
      "inputs": [
        {
          "indexed": true,
          "internalType": "address",
          "name": "module",
          "type": "address"
        }
      ],
      "name": "ExecutionFromModuleFailure",
      "type": "event"
    },
    {
      "anonymous": false,
      "inputs": [
        {
          "indexed": true,
          "internalType": "address",
          "name": "module",
          "type": "address"
        }
      ],
      "name": "ExecutionFromModuleSuccess",
      "type": "event"
    },
    {
      "inputs": [
        {
          "internalType": "address",
          "name": "prevModule",
          "type": "address"
        },
        {
          "internalType": "address",
          "name": "module",
          "type": "address"
        }
      ],
      "name": "disableModule",
      "outputs": [],
      "stateMutability": "nonpayable",
      "type": "function"
    },
    {
      "inputs": [
        {
          "internalType": "address",
          "name": "module",
          "type": "address"
        }
      ],
      "name": "enableModule",
      "outputs": [],
      "stateMutability": "nonpayable",
      "type": "function"
    },
    {
      "inputs": [
        {
          "internalType": "address",
          "name": "to",
          "type": "address"
        },
        {
          "internalType": "uint256",
          "name": "value",
          "type": "uint256"
        },
        {
          "internalType": "bytes",
          "name": "data",
          "type": "bytes"
        },
        {
          "internalType": "enum Enum.Operation",
          "name": "operation",
          "type": "uint8"
        }
      ],
      "name": "execTransactionFromModule",
      "outputs": [
        {
          "internalType": "bool",
          "name": "success",
          "type": "bool"
        }
      ],
      "stateMutability": "nonpayable",
      "type": "function"
    },
    {
      "inputs": [
        {
          "internalType": "address",
          "name": "to",
          "type": "address"
        },
        {
          "internalType": "uint256",
          "name": "value",
          "type": "uint256"
        },
        {
          "internalType": "bytes",
          "name": "data",
          "type": "bytes"
        },
        {
          "internalType": "enum Enum.Operation",
          "name": "operation",
          "type": "uint8"
        }
      ],
      "name": "execTransactionFromModuleReturnData",
      "outputs": [
        {
          "internalType": "bool",
          "name": "success",
          "type": "bool"
        },
        {
          "internalType": "bytes",
          "name": "returnData",
          "type": "bytes"
        }
      ],
      "stateMutability": "nonpayable",
      "type": "function"
    },
    {
      "inputs": [
        {
          "internalType": "address",
          "name": "start",
          "type": "address"
        },
        {
          "internalType": "uint256",
          "name": "pageSize",
          "type": "uint256"
        }
      ],
      "name": "getModulesPaginated",
      "outputs": [
        {
          "internalType": "address[]",
          "name": "array",
          "type": "address[]"
        },
        {
          "internalType": "address",
          "name": "next",
          "type": "address"
        }
      ],
      "stateMutability": "view",
      "type": "function"
    },
    {
      "inputs": [
        {
          "internalType": "address",
          "name": "module",
          "type": "address"
        }
      ],
      "name": "isModuleEnabled",
      "outputs": [
        {
          "internalType": "bool",
          "name": "",
          "type": "bool"
        }
      ],
      "stateMutability": "view",
      "type": "function"
    }
  ],
  "bytecode": "0x6080806040523461001657610c36908161001c8239f35b600080fdfe6080604052600436101561001257600080fd5b6000803560e01c9081632d9ad53d1461007a57508063468721a7146100755780635229073f14610070578063610b59251461006b578063cc2f8452146100665763e009cfde1461006157600080fd5b610755565b6105e8565b610353565b6102b3565b61028d565b346100f95760207ffffffffffffffffffffffffffffffffffffffffffffffffffffffffffffffffc3601126100f95773ffffffffffffffffffffffffffffffffffffffff806100c76100fc565b1691826001141592836100e1575b83151560805260206080f35b604092935081528060205220541615158180806100d5565b80fd5b6004359073ffffffffffffffffffffffffffffffffffffffff8216820361011f57565b600080fd5b6024359073ffffffffffffffffffffffffffffffffffffffff8216820361011f57565b7f4e487b7100000000000000000000000000000000000000000000000000000000600052604160045260246000fd5b907fffffffffffffffffffffffffffffffffffffffffffffffffffffffffffffffe0601f604051930116820182811067ffffffffffffffff8211176101ba57604052565b610147565b60643590600282101561011f57565b60807ffffffffffffffffffffffffffffffffffffffffffffffffffffffffffffffffc82011261011f576102006100fc565b916024359167ffffffffffffffff60443581811161011f578260238201121561011f5780600401359182116101ba5761026060207fffffffffffffffffffffffffffffffffffffffffffffffffffffffffffffffe0601f85011601610176565b928284526024838301011161011f578160009260246020930183860137830101529061028a6101bf565b90565b3461011f5760206102a96102a0366101ce565b9291909161091d565b6040519015158152f35b3461011f576102c46102a0366101ce565b60405160209160203d8301016040523d82523d6000602084013e604051928391151582526040602083015282519283604084015260005b84811061033c575050507fffffffffffffffffffffffffffffffffffffffffffffffffffffffffffffffe0601f836000606080968601015201168101030190f35b8181018301518682016060015285935082016102fb565b3461011f5760207ffffffffffffffffffffffffffffffffffffffffffffffffffffffffffffffffc36011261011f5761038a6100fc565b610392610b99565b73ffffffffffffffffffffffffffffffffffffffff80821680151580610569575b6103bc90610a1e565b60005260006020526040600020541661050b57600160009081526020527fecdf3a3effea5783a3c4c2140e677577666428d44ed9d474a0b3a4c9943f844090610506906104ab6104417fada5013122d395ba3c54772283fb069b10426056ef8ca54750cb9bb552a59e7d5b5473ffffffffffffffffffffffffffffffffffffffff1690565b61046b8373ffffffffffffffffffffffffffffffffffffffff166000526000602052604060002090565b9073ffffffffffffffffffffffffffffffffffffffff167fffffffffffffffffffffffff0000000000000000000000000000000000000000825416179055565b600160009081526020526104df817fada5013122d395ba3c54772283fb069b10426056ef8ca54750cb9bb552a59e7d61046b565b60405173ffffffffffffffffffffffffffffffffffffffff90911681529081906020820190565b0390a1005b60646040517f08c379a000000000000000000000000000000000000000000000000000000000815260206004820152600560248201527f47533130320000000000000000000000000000000000000000000000000000006044820152fd5b5060018114156103b3565b909291926040820190604083528051809252606083019160208092019160005b8281106105be575050505073ffffffffffffffffffffffffffffffffffffffff6020919416910152565b835173ffffffffffffffffffffffffffffffffffffffff1685529381019392810192600101610594565b3461011f5760407ffffffffffffffffffffffffffffffffffffffffffffffffffffffffffffffffc36011261011f5761061f6100fc565b6024359061063461062f83610a83565b610176565b8281527fffffffffffffffffffffffffffffffffffffffffffffffffffffffffffffffe061066184610a83565b0136602083013760009273ffffffffffffffffffffffffffffffffffffffff8093168452836020526106ab6040852073ffffffffffffffffffffffffffffffffffffffff90541690565b8381168015159081610749575b5080610740575b156107295761071d610427826106f7610723946106dc8a89610a9b565b9073ffffffffffffffffffffffffffffffffffffffff169052565b73ffffffffffffffffffffffffffffffffffffffff166000526000602052604060002090565b94610ade565b936106ab565b8285815261073c60405192839283610574565b0390f35b508185106106bf565b600191501415386106b8565b3461011f5760407ffffffffffffffffffffffffffffffffffffffffffffffffffffffffffffffffc36011261011f5761078c6100fc565b610794610124565b9061079d610b99565b73ffffffffffffffffffffffffffffffffffffffff8083169081151580610912575b6107c890610a1e565b808316600052600060205260406000205416036108b4578161085f6105069261046b6108386104277faab4fa2b463f581b2b32cb3b7e3b704b9ce37cc209b5fb4d77e593ace40542769773ffffffffffffffffffffffffffffffffffffffff166000526000602052604060002090565b9173ffffffffffffffffffffffffffffffffffffffff166000526000602052604060002090565b6104df61088c8273ffffffffffffffffffffffffffffffffffffffff166000526000602052604060002090565b7fffffffffffffffffffffffff00000000000000000000000000000000000000008154169055565b60646040517f08c379a000000000000000000000000000000000000000000000000000000000815260206004820152600560248201527f47533130330000000000000000000000000000000000000000000000000000006044820152fd5b5060018214156107bf565b919290926001331415806109f1575b156109935761093c935a93610b3a565b90811561096b57337f6895c13664aa4f67288b25d7a21d7aaa34916e355fb9b6fae0a139a9085becb8600080a2565b337facd2c8702804128fdb0db2bb49f6d127dd0181c13fd45dbfe16de0930e2bd375600080a2565b60646040517f08c379a000000000000000000000000000000000000000000000000000000000815260206004820152600560248201527f47533130340000000000000000000000000000000000000000000000000000006044820152fd5b5033600052600060205273ffffffffffffffffffffffffffffffffffffffff60406000205416151561092c565b15610a2557565b60646040517f08c379a000000000000000000000000000000000000000000000000000000000815260206004820152600560248201527f47533130310000000000000000000000000000000000000000000000000000006044820152fd5b67ffffffffffffffff81116101ba5760051b60200190565b8051821015610aaf5760209160051b010190565b7f4e487b7100000000000000000000000000000000000000000000000000000000600052603260045260246000fd5b7fffffffffffffffffffffffffffffffffffffffffffffffffffffffffffffffff8114610b0b5760010190565b7f4e487b7100000000000000000000000000000000000000000000000000000000600052601160045260246000fd5b9390936002841015610b6a576000948594600103610b5e575060208351930191f490565b9060208451940192f190565b7f4e487b7100000000000000000000000000000000000000000000000000000000600052602160045260246000fd5b303303610ba257565b60646040517f08c379a000000000000000000000000000000000000000000000000000000000815260206004820152600560248201527f47533033310000000000000000000000000000000000000000000000000000006044820152fdfea2646970667358221220edf70af6bf9f31bfd5cc1f68ee79c67a4c825ce2939b877c7e8efc094209c11664736f6c63430008170033",
  "linkReferences": {},
  "deployedLinkReferences": {}
}