{
  "_format": "hh-sol-artifact-1",
  "contractName": "ERC721Proxy",
  "sourceName": "contracts/lop/extensions/ERC721Proxy.sol",
  "abi": [
    {
      "inputs": [
        {
          "internalType": "address",
          "name": "_immutableOwner",
          "type": "address"
        }
      ],
      "stateMutability": "nonpayable",
      "type": "constructor"
    },
    {
      "inputs": [],
      "name": "ERC721ProxyBadSelector",
      "type": "error"
    },
    {
      "inputs": [],
      "name": "IOAccessDenied",
      "type": "error"
    },
    {
      "inputs": [],
      "name": "IMMUTABLE_OWNER",
      "outputs": [
        {
          "internalType": "address",
          "name": "",
          "type": "address"
        }
      ],
      "stateMutability": "view",
      "type": "function"
    },
    {
      "inputs": [
        {
          "internalType": "address",
          "name": "from",
          "type": "address"
        },
        {
          "internalType": "address",
          "name": "to",
          "type": "address"
        },
        {
          "internalType": "uint256",
          "name": "",
          "type": "uint256"
        },
        {
          "internalType": "uint256",
          "name": "tokenId",
          "type": "uint256"
        },
        {
          "internalType": "contract IERC721",
          "name": "token",
          "type": "address"
        }
      ],
      "name": "func_60iHVgK",
      "outputs": [],
      "stateMutability": "nonpayable",
      "type": "function"
    }
  ],
  "bytecode": "0x60a03461007057601f6102e738819003918201601f19168301916001600160401b038311848410176100755780849260209460405283398101031261007057516001600160a01b03811681036100705760805260405161025b908161008c82396080518181816081015261011b0152f35b600080fd5b634e487b7160e01b600052604160045260246000fdfe608080604052600436101561001357600080fd5b600090813560e01c90816323b872dd146100a8575063f3d1372f1461003757600080fd5b346100a557807ffffffffffffffffffffffffffffffffffffffffffffffffffffffffffffffffc3601126100a557602060405173ffffffffffffffffffffffffffffffffffffffff7f0000000000000000000000000000000000000000000000000000000000000000168152f35b80fd5b9050346102215760a07ffffffffffffffffffffffffffffffffffffffffffffffffffffffffffffffffc360112610221576004359073ffffffffffffffffffffffffffffffffffffffff9182811680910361021d57602435918383168093036102195760843593808516809503610215577f00000000000000000000000000000000000000000000000000000000000000001633036101ed5750908391833b156101e9576064908360405195869485937f23b872dd00000000000000000000000000000000000000000000000000000000855260048501526024840152833560448401525af180156101de5761019c575080f35b67ffffffffffffffff81116101b15760405280f35b6024827f4e487b710000000000000000000000000000000000000000000000000000000081526041600452fd5b6040513d84823e3d90fd5b8280fd5b807f497131ed0000000000000000000000000000000000000000000000000000000060049252fd5b8580fd5b8480fd5b8380fd5b5080fdfea26469706673582212204359ac9678fb8fa81167bd205c8c930ba83d172c6b2881d34e4af2fcc7fdc9ab64736f6c63430008170033",
  "linkReferences": {},
  "deployedLinkReferences": {}
}