{
  "_format": "hh-sol-artifact-1",
  "contractName": "MakerContract",
  "sourceName": "contracts/lop/mocks/MakerContract.sol",
  "abi": [
    {
      "inputs": [
        {
          "internalType": "address",
          "name": "_protocol",
          "type": "address"
        },
        {
          "internalType": "contract IERC20",
          "name": "_token0",
          "type": "address"
        },
        {
          "internalType": "contract IERC20",
          "name": "_token1",
          "type": "address"
        },
        {
          "internalType": "uint256",
          "name": "_fee",
          "type": "uint256"
        },
        {
          "internalType": "string",
          "name": "name",
          "type": "string"
        },
        {
          "internalType": "string",
          "name": "symbol",
          "type": "string"
        }
      ],
      "stateMutability": "nonpayable",
      "type": "constructor"
    },
    {
      "inputs": [],
      "name": "BadPrice",
      "type": "error"
    },
    {
      "inputs": [
        {
          "internalType": "address",
          "name": "spender",
          "type": "address"
        },
        {
          "internalType": "uint256",
          "name": "allowance",
          "type": "uint256"
        },
        {
          "internalType": "uint256",
          "name": "needed",
          "type": "uint256"
        }
      ],
      "name": "ERC20InsufficientAllowance",
      "type": "error"
    },
    {
      "inputs": [
        {
          "internalType": "address",
          "name": "sender",
          "type": "address"
        },
        {
          "internalType": "uint256",
          "name": "balance",
          "type": "uint256"
        },
        {
          "internalType": "uint256",
          "name": "needed",
          "type": "uint256"
        }
      ],
      "name": "ERC20InsufficientBalance",
      "type": "error"
    },
    {
      "inputs": [
        {
          "internalType": "address",
          "name": "approver",
          "type": "address"
        }
      ],
      "name": "ERC20InvalidApprover",
      "type": "error"
    },
    {
      "inputs": [
        {
          "internalType": "address",
          "name": "receiver",
          "type": "address"
        }
      ],
      "name": "ERC20InvalidReceiver",
      "type": "error"
    },
    {
      "inputs": [
        {
          "internalType": "address",
          "name": "sender",
          "type": "address"
        }
      ],
      "name": "ERC20InvalidSender",
      "type": "error"
    },
    {
      "inputs": [
        {
          "internalType": "address",
          "name": "spender",
          "type": "address"
        }
      ],
      "name": "ERC20InvalidSpender",
      "type": "error"
    },
    {
      "inputs": [],
      "name": "MalformedSignature",
      "type": "error"
    },
    {
      "inputs": [],
      "name": "NotAllowedToken",
      "type": "error"
    },
    {
      "inputs": [],
      "name": "SafeTransferFailed",
      "type": "error"
    },
    {
      "inputs": [],
      "name": "SafeTransferFromFailed",
      "type": "error"
    },
    {
      "anonymous": false,
      "inputs": [
        {
          "indexed": true,
          "internalType": "address",
          "name": "owner",
          "type": "address"
        },
        {
          "indexed": true,
          "internalType": "address",
          "name": "spender",
          "type": "address"
        },
        {
          "indexed": false,
          "internalType": "uint256",
          "name": "value",
          "type": "uint256"
        }
      ],
      "name": "Approval",
      "type": "event"
    },
    {
      "anonymous": false,
      "inputs": [
        {
          "indexed": true,
          "internalType": "address",
          "name": "from",
          "type": "address"
        },
        {
          "indexed": true,
          "internalType": "address",
          "name": "to",
          "type": "address"
        },
        {
          "indexed": false,
          "internalType": "uint256",
          "name": "value",
          "type": "uint256"
        }
      ],
      "name": "Transfer",
      "type": "event"
    },
    {
      "inputs": [],
      "name": "FEE",
      "outputs": [
        {
          "internalType": "uint256",
          "name": "",
          "type": "uint256"
        }
      ],
      "stateMutability": "view",
      "type": "function"
    },
    {
      "inputs": [],
      "name": "FEE2",
      "outputs": [
        {
          "internalType": "uint256",
          "name": "",
          "type": "uint256"
        }
      ],
      "stateMutability": "view",
      "type": "function"
    },
    {
      "inputs": [],
      "name": "PROTOCOL",
      "outputs": [
        {
          "internalType": "address",
          "name": "",
          "type": "address"
        }
      ],
      "stateMutability": "view",
      "type": "function"
    },
    {
      "inputs": [],
      "name": "TOKEN0",
      "outputs": [
        {
          "internalType": "contract IERC20",
          "name": "",
          "type": "address"
        }
      ],
      "stateMutability": "view",
      "type": "function"
    },
    {
      "inputs": [],
      "name": "TOKEN1",
      "outputs": [
        {
          "internalType": "contract IERC20",
          "name": "",
          "type": "address"
        }
      ],
      "stateMutability": "view",
      "type": "function"
    },
    {
      "inputs": [
        {
          "internalType": "address",
          "name": "owner",
          "type": "address"
        },
        {
          "internalType": "address",
          "name": "spender",
          "type": "address"
        }
      ],
      "name": "allowance",
      "outputs": [
        {
          "internalType": "uint256",
          "name": "",
          "type": "uint256"
        }
      ],
      "stateMutability": "view",
      "type": "function"
    },
    {
      "inputs": [
        {
          "internalType": "address",
          "name": "spender",
          "type": "address"
        },
        {
          "internalType": "uint256",
          "name": "value",
          "type": "uint256"
        }
      ],
      "name": "approve",
      "outputs": [
        {
          "internalType": "bool",
          "name": "",
          "type": "bool"
        }
      ],
      "stateMutability": "nonpayable",
      "type": "function"
    },
    {
      "inputs": [
        {
          "internalType": "address",
          "name": "account",
          "type": "address"
        }
      ],
      "name": "balanceOf",
      "outputs": [
        {
          "internalType": "uint256",
          "name": "",
          "type": "uint256"
        }
      ],
      "stateMutability": "view",
      "type": "function"
    },
    {
      "inputs": [],
      "name": "decimals",
      "outputs": [
        {
          "internalType": "uint8",
          "name": "",
          "type": "uint8"
        }
      ],
      "stateMutability": "pure",
      "type": "function"
    },
    {
      "inputs": [
        {
          "internalType": "contract IERC20",
          "name": "token",
          "type": "address"
        },
        {
          "internalType": "uint256",
          "name": "amount",
          "type": "uint256"
        }
      ],
      "name": "deposit",
      "outputs": [],
      "stateMutability": "nonpayable",
      "type": "function"
    },
    {
      "inputs": [
        {
          "internalType": "contract IERC20",
          "name": "token",
          "type": "address"
        },
        {
          "internalType": "uint256",
          "name": "amount",
          "type": "uint256"
        },
        {
          "internalType": "address",
          "name": "to",
          "type": "address"
        }
      ],
      "name": "depositFor",
      "outputs": [],
      "stateMutability": "nonpayable",
      "type": "function"
    },
    {
      "inputs": [
        {
          "internalType": "bytes32",
          "name": "hash",
          "type": "bytes32"
        },
        {
          "internalType": "bytes",
          "name": "signature",
          "type": "bytes"
        }
      ],
      "name": "isValidSignature",
      "outputs": [
        {
          "internalType": "bytes4",
          "name": "",
          "type": "bytes4"
        }
      ],
      "stateMutability": "view",
      "type": "function"
    },
    {
      "inputs": [],
      "name": "name",
      "outputs": [
        {
          "internalType": "string",
          "name": "",
          "type": "string"
        }
      ],
      "stateMutability": "view",
      "type": "function"
    },
    {
      "inputs": [],
      "name": "symbol",
      "outputs": [
        {
          "internalType": "string",
          "name": "",
          "type": "string"
        }
      ],
      "stateMutability": "view",
      "type": "function"
    },
    {
      "inputs": [],
      "name": "totalSupply",
      "outputs": [
        {
          "internalType": "uint256",
          "name": "",
          "type": "uint256"
        }
      ],
      "stateMutability": "view",
      "type": "function"
    },
    {
      "inputs": [
        {
          "internalType": "address",
          "name": "to",
          "type": "address"
        },
        {
          "internalType": "uint256",
          "name": "value",
          "type": "uint256"
        }
      ],
      "name": "transfer",
      "outputs": [
        {
          "internalType": "bool",
          "name": "",
          "type": "bool"
        }
      ],
      "stateMutability": "nonpayable",
      "type": "function"
    },
    {
      "inputs": [
        {
          "internalType": "address",
          "name": "from",
          "type": "address"
        },
        {
          "internalType": "address",
          "name": "to",
          "type": "address"
        },
        {
          "internalType": "uint256",
          "name": "value",
          "type": "uint256"
        }
      ],
      "name": "transferFrom",
      "outputs": [
        {
          "internalType": "bool",
          "name": "",
          "type": "bool"
        }
      ],
      "stateMutability": "nonpayable",
      "type": "function"
    },
    {
      "inputs": [
        {
          "internalType": "contract IERC20",
          "name": "token",
          "type": "address"
        },
        {
          "internalType": "uint256",
          "name": "amount",
          "type": "uint256"
        }
      ],
      "name": "withdraw",
      "outputs": [],
      "stateMutability": "nonpayable",
      "type": "function"
    },
    {
      "inputs": [
        {
          "internalType": "contract IERC20",
          "name": "token",
          "type": "address"
        },
        {
          "internalType": "uint256",
          "name": "amount",
          "type": "uint256"
        },
        {
          "internalType": "address",
          "name": "to",
          "type": "address"
        }
      ],
      "name": "withdrawFor",
      "outputs": [],
      "stateMutability": "nonpayable",
      "type": "function"
    }
  ],
  "bytecode": "0x6101e06040818152346200061f5762001cb4803803809162000022828662000640565b843982019160c0818403126200061f578051916001600160a01b03808416918285036200061f576020906200005982860162000664565b916200006782870162000664565b6060870151608088015190979196916001600160401b03918281116200061f578b6200009591830162000679565b9160a0820151918183116200061f57600d60fa1b9c8693620000b8920162000679565b928651620000c68162000624565b601a81527f31696e6368204c696d6974204f726465722050726f746f636f6c00000000000084820152875190620000fd8262000624565b6001948286809452019e8f528781519101209d208c610120528d60c0528060e0524660a0528751907f8b73c3c69bb8fe3d512ecc4cf759cc79239f7b179b0ffacaa9a75d522b39400f9e8f898401528983015260608201524660808201528560a082015260a0815260c08101818110848211176200051f5788528681519101206080526101009c8d528051908282116200051f576003918254918583811c9316801562000614575b89841014620005fe578190601f93848111620005a8575b508990848311600114620005415760009262000535575b505060001982851b1c191690851b1782555b84519283116200051f5760049485548581811c9116801562000514575b89821014620004ff57828111620004b4575b508791841160011462000449579383949184926000956200043d575b50501b92600019911b1c19161781555b61014098895261016094808652610180968888526101a0988a8a52671bc16d674ec800009a808c029b8c0481036200042857670de0b6b3a76400009081018091116200042857801562000413576101c09b048b5286519263095ea7b360e01b9384815286868201528781604481600088811997886024850152165af18015620004085792600092604495928a989795620003e6575b508a51988997889687528601526024850152165af18015620003db57620003a6575b505051946115aa96876200070a883960805187611396015260a05187611370015260c051876113e5015260e0518761140b015251866113c20152610120518661144c0152518561047101525184818161060d015281816108bf01528181610f6f01526111b001525183818161055901528181610a9a01528181610ae901528181611168015261134501525182818161025b01526109e40152518181816101780152818161101201526111ed0152f35b81620003ca92903d10620003d3575b620003c1818362000640565b810190620006ef565b503880620002f7565b503d620003b5565b83513d6000823e3d90fd5b6200040090893d8b11620003d357620003c1818362000640565b5038620002d5565b89513d6000823e3d90fd5b601285634e487b7160e01b6000525260246000fd5b601185634e487b7160e01b6000525260246000fd5b01519350388062000230565b9190601f198416928660005284896000209460005b8b898383106200049c575050501062000481575b50505050811b01815562000240565b01519060f884600019921b161c191690553880808062000472565b8686015189559097019694850194889350016200045e565b86600052886000208380870160051c8201928b8810620004f5575b0160051c019086905b828110620004e857505062000214565b60008155018690620004d8565b92508192620004cf565b602287634e487b7160e01b6000525260246000fd5b90607f169062000202565b634e487b7160e01b600052604160045260246000fd5b015190503880620001d3565b90879350601f19831691866000528b6000209260005b8d82821062000591575050841162000578575b505050811b018255620001e5565b015160001983871b60f8161c191690553880806200056a565b8385015186558b9790950194938401930162000557565b90915084600052896000208480850160051c8201928c8610620005f4575b918991869594930160051c01915b828110620005e4575050620001bc565b60008155859450899101620005d4565b92508192620005c6565b634e487b7160e01b600052602260045260246000fd5b92607f1692620001a5565b600080fd5b604081019081106001600160401b038211176200051f57604052565b601f909101601f19168101906001600160401b038211908210176200051f57604052565b51906001600160a01b03821682036200061f57565b919080601f840112156200061f5782516001600160401b0381116200051f5760209060405192620006b483601f19601f850116018562000640565b8184528282870101116200061f5760005b818110620006db57508260009394955001015290565b8581018301518482018401528201620006c5565b908160209103126200061f575180151581036200061f579056fe608060408181526004918236101561001657600080fd5b600092833560e01c91826306fdde0314610c4557508163095ea7b314610b405781631626ba7e1461082f57816318160ddd146107f257816323b872dd1461066b578163313ce56714610631578163443ec74d146105c257816347e7ef241461057d5781635ee04d781461050e5781636766efbe146104f657816370a082311461049557816391b9b8271461042657816395d89b41146102cc57508063a9059cbb1461027e578063c57981b514610226578063c8820f6c1461020e578063dd62ed3e1461019b578063ebffa67b146101435763f3fef3a3146100f657600080fd5b3461013f577ffffffffffffffffffffffffffffffffffffffffffffffffffffffffffffffffc36011261013c5761013961012e610df5565b339060243590610f51565b80f35b80fd5b5080fd5b503461013f57817ffffffffffffffffffffffffffffffffffffffffffffffffffffffffffffffffc36011261013f57602090517f00000000000000000000000000000000000000000000000000000000000000008152f35b503461013f57807ffffffffffffffffffffffffffffffffffffffffffffffffffffffffffffffffc36011261013f57806020926101d6610df5565b6101de610e1d565b73ffffffffffffffffffffffffffffffffffffffff91821683526001865283832091168252845220549051908152f35b823461013c5761013961022036610e40565b91611193565b503461013f57817ffffffffffffffffffffffffffffffffffffffffffffffffffffffffffffffffc36011261013f57602090517f00000000000000000000000000000000000000000000000000000000000000008152f35b503461013f57807ffffffffffffffffffffffffffffffffffffffffffffffffffffffffffffffffc36011261013f576020906102c56102bb610df5565b6024359033611495565b5160018152f35b83833461013f57817ffffffffffffffffffffffffffffffffffffffffffffffffffffffffffffffffc36011261013f5780519180938054916001908360011c926001851694851561041c575b60209586861081146103f0578589529081156103ae5750600114610356575b6103528787610348828c0383610e9f565b5191829182610d8f565b0390f35b81529295507f8a35acfbc15ff81a39ae7d344fd709f28e8600b4aa8c65c6b64bfe7fe36bd19b5b82841061039b57505050826103529461034892820101948680610337565b805486850188015292860192810161037d565b7fffffffffffffffffffffffffffffffffffffffffffffffffffffffffffffff00168887015250505050151560051b8301019250610348826103528680610337565b6024846022857f4e487b7100000000000000000000000000000000000000000000000000000000835252fd5b93607f1693610318565b50503461013f57817ffffffffffffffffffffffffffffffffffffffffffffffffffffffffffffffffc36011261013f576020905173ffffffffffffffffffffffffffffffffffffffff7f0000000000000000000000000000000000000000000000000000000000000000168152f35b50503461013f5760207ffffffffffffffffffffffffffffffffffffffffffffffffffffffffffffffffc36011261013f578060209273ffffffffffffffffffffffffffffffffffffffff6104e7610df5565b16815280845220549051908152f35b833461013c5761013961050836610e40565b91610f51565b50503461013f57817ffffffffffffffffffffffffffffffffffffffffffffffffffffffffffffffffc36011261013f576020905173ffffffffffffffffffffffffffffffffffffffff7f0000000000000000000000000000000000000000000000000000000000000000168152f35b50503461013f577ffffffffffffffffffffffffffffffffffffffffffffffffffffffffffffffffc36011261013c576101396105b7610df5565b339060243590611193565b50503461013f57817ffffffffffffffffffffffffffffffffffffffffffffffffffffffffffffffffc36011261013f576020905173ffffffffffffffffffffffffffffffffffffffff7f0000000000000000000000000000000000000000000000000000000000000000168152f35b50503461013f57817ffffffffffffffffffffffffffffffffffffffffffffffffffffffffffffffffc36011261013f576020905160068152f35b9050823461013c5760607ffffffffffffffffffffffffffffffffffffffffffffffffffffffffffffffffc36011261013c576106a5610df5565b6106ad610e1d565b916044359373ffffffffffffffffffffffffffffffffffffffff8316808352600160205286832033845260205286832054917fffffffffffffffffffffffffffffffffffffffffffffffffffffffffffffffff8310610715575b6020886102c5898989611495565b8683106107ad57811561077e57331561074f575082526001602090815286832033845281529186902090859003905582906102c587610707565b602490848951917f94280d62000000000000000000000000000000000000000000000000000000008352820152fd5b602490848951917fe602df05000000000000000000000000000000000000000000000000000000008352820152fd5b87517ffb8f41b2000000000000000000000000000000000000000000000000000000008152339181019182526020820193909352604081018790528291506060010390fd5b50503461013f57817ffffffffffffffffffffffffffffffffffffffffffffffffffffffffffffffffc36011261013f576020906002549051908152f35b82843461013c57817ffffffffffffffffffffffffffffffffffffffffffffffffffffffffffffffffc36011261013c5767ffffffffffffffff602435818111610b3c5736602382011215610b3c5780850135918211610b3c573660248383010111610b3c57610100809203610b135773ffffffffffffffffffffffffffffffffffffffff928360848301351693807f00000000000000000000000000000000000000000000000000000000000000001680861495861596610ae0575b86610a92575b5050508315610a61575b83156109dc575b50821561095f575b505061093957602090517f1626ba7e000000000000000000000000000000000000000000000000000000008152f35b517ffd1ee349000000000000000000000000000000000000000000000000000000008152fd5b61012091925061096d61136d565b9260248551927f3af21ec5a20011b88d3b7b4ed7c806cef05a5980cf34974bcd53566a131f7e4c8452016020830137208251917f19010000000000000000000000000000000000000000000000000000000000008352600283015260228201526042833591201415838061090a565b909250610a0d7f000000000000000000000000000000000000000000000000000000000000000060c4850135610f0f565b670de0b6b3a764000060e485013581810293918115918504141715610a355750119185610902565b806011887f4e487b71000000000000000000000000000000000000000000000000000000006024945252fd5b6101048201357f020000000000000000000000000000000000000000000000000000000000000016151593506108fb565b9091809396507f0000000000000000000000000000000000000000000000000000000000000000161491821592610acf575b5050928680806108f1565b60a484013516141590508680610ac4565b60a485013583167f00000000000000000000000000000000000000000000000000000000000000008416141596506108eb565b505050517f55a1e16e000000000000000000000000000000000000000000000000000000008152fd5b8280fd5b905034610b3c57817ffffffffffffffffffffffffffffffffffffffffffffffffffffffffffffffffc360112610b3c57610b78610df5565b602435903315610c165773ffffffffffffffffffffffffffffffffffffffff16918215610be757508083602095338152600187528181208582528752205582519081527f8c5be1e5ebec7d5bd14f71427d1e84f3dd0314c0f7b2291e5b200ac8c7c3b925843392a35160018152f35b602490858551917f94280d62000000000000000000000000000000000000000000000000000000008352820152fd5b602483868651917fe602df05000000000000000000000000000000000000000000000000000000008352820152fd5b92915034610d8b57837ffffffffffffffffffffffffffffffffffffffffffffffffffffffffffffffffc360112610d8b57600354600181811c9186908281168015610d81575b6020958686108214610d555750848852908115610d155750600114610cbc575b6103528686610348828b0383610e9f565b929550600383527fc2575a0e9e593c00f959f8c92f12db2869c3395a3b0502d05e2516446f71f85b5b828410610d02575050508261035294610348928201019438610cab565b8054868501880152928601928101610ce5565b7fffffffffffffffffffffffffffffffffffffffffffffffffffffffffffffff001687860152505050151560051b83010192506103488261035238610cab565b8360226024927f4e487b7100000000000000000000000000000000000000000000000000000000835252fd5b93607f1693610c8b565b8380fd5b60208082528251818301819052939260005b858110610de1575050507fffffffffffffffffffffffffffffffffffffffffffffffffffffffffffffffe0601f8460006040809697860101520116010190565b818101830151848201604001528201610da1565b6004359073ffffffffffffffffffffffffffffffffffffffff82168203610e1857565b600080fd5b6024359073ffffffffffffffffffffffffffffffffffffffff82168203610e1857565b7ffffffffffffffffffffffffffffffffffffffffffffffffffffffffffffffffc6060910112610e185773ffffffffffffffffffffffffffffffffffffffff6004358181168103610e185791602435916044359081168103610e185790565b90601f7fffffffffffffffffffffffffffffffffffffffffffffffffffffffffffffffe0910116810190811067ffffffffffffffff821117610ee057604052565b7f4e487b7100000000000000000000000000000000000000000000000000000000600052604160045260246000fd5b81810292918115918404141715610f2257565b7f4e487b7100000000000000000000000000000000000000000000000000000000600052601160045260246000fd5b91909173ffffffffffffffffffffffffffffffffffffffff808216817f0000000000000000000000000000000000000000000000000000000000000000168114159182611166575b505061113c57331561110b5760009133835282602052604093848420548181106110cb57602092670de0b6b3a7640000611037848895604495338852878952038a8720558060025403600255858a518281527fddf252ad1be2c89b69c2b068fc378daa952ba7f163c4a11628f55a4df523b3ef893392a37f000000000000000000000000000000000000000000000000000000000000000090610f0f565b048751917fa9059cbb0000000000000000000000000000000000000000000000000000000083526004830152602482015282855af191826110a6575b50501561107d5750565b600490517ffb7f5079000000000000000000000000000000000000000000000000000000008152fd5b9091503d156110c257600191505114601f3d11165b3880611073565b503b15156110bb565b85517fe450d38c00000000000000000000000000000000000000000000000000000000815233600482015260248101919091526044810191909152606490fd5b60246040517f96c6fd1e00000000000000000000000000000000000000000000000000000000815260006004820152fd5b60046040517fe1478bb0000000000000000000000000000000000000000000000000000000008152fd5b7f000000000000000000000000000000000000000000000000000000000000000016141590503880610f99565b909173ffffffffffffffffffffffffffffffffffffffff808316817f0000000000000000000000000000000000000000000000000000000000000000168114159081611340575b5061113c57670de0b6b3a76400006112127f000000000000000000000000000000000000000000000000000000000000000086610f0f565b04911690811561130f57600254818101809111610f22577fddf252ad1be2c89b69c2b068fc378daa952ba7f163c4a11628f55a4df523b3ef9460209384936064936002556000978895869284845283825260408420818154019055604051908152a3604051907f23b872dd000000000000000000000000000000000000000000000000000000008252336004830152306024830152604482015282855af191826112ea575b5050156112c057565b60046040517ff4059071000000000000000000000000000000000000000000000000000000008152fd5b9091503d1561130657600191505114601f3d11165b38806112b7565b503b15156112ff565b60246040517fec442f0500000000000000000000000000000000000000000000000000000000815260006004820152fd5b9050817f0000000000000000000000000000000000000000000000000000000000000000161415386111da565b467f0000000000000000000000000000000000000000000000000000000000000000036113b8577f000000000000000000000000000000000000000000000000000000000000000090565b60405160208101907f000000000000000000000000000000000000000000000000000000000000000082527f000000000000000000000000000000000000000000000000000000000000000060408201527f0000000000000000000000000000000000000000000000000000000000000000606082015246608082015273ffffffffffffffffffffffffffffffffffffffff7f00000000000000000000000000000000000000000000000000000000000000001660a082015260a0815260c0810181811067ffffffffffffffff821117610ee05760405251902090565b9173ffffffffffffffffffffffffffffffffffffffff80841692831561110b571692831561130f576000908382528160205260408220549083821061151c575091604082827fddf252ad1be2c89b69c2b068fc378daa952ba7f163c4a11628f55a4df523b3ef958760209652828652038282205586815220818154019055604051908152a3565b6040517fe450d38c00000000000000000000000000000000000000000000000000000000815273ffffffffffffffffffffffffffffffffffffffff919091166004820152602481019190915260448101839052606490fdfea264697066735822122020f629aaef990f8736b97d940cfb97176efaa9aff61feef321da3ab1c3adee2064736f6c63430008170033",
  "linkReferences": {},
  "deployedLinkReferences": {}
}