{"contracts/ERC20True.sol":{"ERC20True":{"abi":[{"inputs":[{"internalType":"address","name":"","type":"address"},{"internalType":"address","name":"","type":"address"}],"name":"allowance","outputs":[{"internalType":"uint256","name":"","type":"uint256"}],"stateMutability":"pure","type":"function"},{"inputs":[{"internalType":"address","name":"","type":"address"},{"internalType":"uint256","name":"","type":"uint256"}],"name":"approve","outputs":[{"internalType":"bool","name":"","type":"bool"}],"stateMutability":"pure","type":"function"},{"inputs":[{"internalType":"address","name":"","type":"address"}],"name":"balanceOf","outputs":[{"internalType":"uint256","name":"","type":"uint256"}],"stateMutability":"pure","type":"function"},{"inputs":[{"internalType":"address","name":"","type":"address"},{"internalType":"uint256","name":"","type":"uint256"}],"name":"transfer","outputs":[{"internalType":"bool","name":"","type":"bool"}],"stateMutability":"pure","type":"function"},{"inputs":[{"internalType":"address","name":"","type":"address"},{"internalType":"address","name":"","type":"address"},{"internalType":"uint256","name":"","type":"uint256"}],"name":"transferFrom","outputs":[{"internalType":"bool","name":"","type":"bool"}],"stateMutability":"pure","type":"function"}],"evm":{"bytecode":{"linkReferences":{},"object":"60808060405234610016576101e8908161001c8239f35b600080fdfe6080604052600436101561001257600080fd5b6000803560e01c8063095ea7b3146100a357806323b872dd146100e357806370a08231146100a8578063a9059cbb146100a35763dd62ed3e1461005457600080fd5b346100a05760407ffffffffffffffffffffffffffffffffffffffffffffffffffffffffffffffffc3601126100a05760209061008e610130565b50610097610158565b50604051908152f35b80fd5b61017b565b50346100a05760207ffffffffffffffffffffffffffffffffffffffffffffffffffffffffffffffffc3601126100a057602090610097610130565b50346100a05760607ffffffffffffffffffffffffffffffffffffffffffffffffffffffffffffffffc3601126100a05761011b610130565b50610124610158565b50602060405160018152f35b6004359073ffffffffffffffffffffffffffffffffffffffff8216820361015357565b600080fd5b6024359073ffffffffffffffffffffffffffffffffffffffff8216820361015357565b346101535760407ffffffffffffffffffffffffffffffffffffffffffffffffffffffffffffffffc3601126101535761012461013056fea2646970667358221220fbf7caa10d8047ca5c9387868162e428a29ea6f75a9b0f2eb95db3ab33a956fa64736f6c63430008170033","opcodes":"PUSH1 0x80 DUP1 PUSH1 0x40 MSTORE CALLVALUE PUSH2 0x16 JUMPI PUSH2 0x1E8 SWAP1 DUP2 PUSH2 0x1C DUP3 CODECOPY RETURN JUMPDEST PUSH1 0x0 DUP1 REVERT INVALID PUSH1 0x80 PUSH1 0x40 MSTORE PUSH1 0x4 CALLDATASIZE LT ISZERO PUSH2 0x12 JUMPI PUSH1 0x0 DUP1 REVERT JUMPDEST PUSH1 0x0 DUP1 CALLDATALOAD PUSH1 0xE0 SHR DUP1 PUSH4 0x95EA7B3 EQ PUSH2 0xA3 JUMPI DUP1 PUSH4 0x23B872DD EQ PUSH2 0xE3 JUMPI DUP1 PUSH4 0x70A08231 EQ PUSH2 0xA8 JUMPI DUP1 PUSH4 0xA9059CBB EQ PUSH2 0xA3 JUMPI PUSH4 0xDD62ED3E EQ PUSH2 0x54 JUMPI PUSH1 0x0 DUP1 REVERT JUMPDEST CALLVALUE PUSH2 0xA0 JUMPI PUSH1 0x40 PUSH32 0xFFFFFFFFFFFFFFFFFFFFFFFFFFFFFFFFFFFFFFFFFFFFFFFFFFFFFFFFFFFFFFFC CALLDATASIZE ADD SLT PUSH2 0xA0 JUMPI PUSH1 0x20 SWAP1 PUSH2 0x8E PUSH2 0x130 JUMP JUMPDEST POP PUSH2 0x97 PUSH2 0x158 JUMP JUMPDEST POP PUSH1 0x40 MLOAD SWAP1 DUP2 MSTORE RETURN JUMPDEST DUP1 REVERT JUMPDEST PUSH2 0x17B JUMP JUMPDEST POP CALLVALUE PUSH2 0xA0 JUMPI PUSH1 0x20 PUSH32 0xFFFFFFFFFFFFFFFFFFFFFFFFFFFFFFFFFFFFFFFFFFFFFFFFFFFFFFFFFFFFFFFC CALLDATASIZE ADD SLT PUSH2 0xA0 JUMPI PUSH1 0x20 SWAP1 PUSH2 0x97 PUSH2 0x130 JUMP JUMPDEST POP CALLVALUE PUSH2 0xA0 JUMPI PUSH1 0x60 PUSH32 0xFFFFFFFFFFFFFFFFFFFFFFFFFFFFFFFFFFFFFFFFFFFFFFFFFFFFFFFFFFFFFFFC CALLDATASIZE ADD SLT PUSH2 0xA0 JUMPI PUSH2 0x11B PUSH2 0x130 JUMP JUMPDEST POP PUSH2 0x124 PUSH2 0x158 JUMP JUMPDEST POP PUSH1 0x20 PUSH1 0x40 MLOAD PUSH1 0x1 DUP2 MSTORE RETURN JUMPDEST PUSH1 0x4 CALLDATALOAD SWAP1 PUSH20 0xFFFFFFFFFFFFFFFFFFFFFFFFFFFFFFFFFFFFFFFF DUP3 AND DUP3 SUB PUSH2 0x153 JUMPI JUMP JUMPDEST PUSH1 0x0 DUP1 REVERT JUMPDEST PUSH1 0x24 CALLDATALOAD SWAP1 PUSH20 0xFFFFFFFFFFFFFFFFFFFFFFFFFFFFFFFFFFFFFFFF DUP3 AND DUP3 SUB PUSH2 0x153 JUMPI JUMP JUMPDEST CALLVALUE PUSH2 0x153 JUMPI PUSH1 0x40 PUSH32 0xFFFFFFFFFFFFFFFFFFFFFFFFFFFFFFFFFFFFFFFFFFFFFFFFFFFFFFFFFFFFFFFC CALLDATASIZE ADD SLT PUSH2 0x153 JUMPI PUSH2 0x124 PUSH2 0x130 JUMP INVALID LOG2 PUSH5 0x6970667358 0x22 SLT KECCAK256 0xFB 0xF7 0xCA LOG1 0xD DUP1 SELFBALANCE 0xCA 0x5C SWAP4 DUP8 DUP7 DUP2 PUSH3 0xE428A2 SWAP15 0xA6 0xF7 GAS SWAP12 0xF 0x2E 0xB9 0x5D 0xB3 0xAB CALLER 0xA9 JUMP STATICCALL PUSH5 0x736F6C6343 STOP ADDMOD OR STOP CALLER "},"methodIdentifiers":{"allowance(address,address)":"dd62ed3e","approve(address,uint256)":"095ea7b3","balanceOf(address)":"70a08231","transfer(address,uint256)":"a9059cbb","transferFrom(address,address,uint256)":"23b872dd"}}}}}