{"contracts/Resolver.sol":{"Resolver":{"abi":[{"inputs":[{"internalType":"contract IEscrowFactory","name":"factory","type":"address"},{"internalType":"contract IOrderMixin","name":"lop","type":"address"},{"internalType":"address","name":"initialOwner","type":"address"}],"stateMutability":"nonpayable","type":"constructor"},{"inputs":[],"name":"InvalidLength","type":"error"},{"inputs":[],"name":"LengthMismatch","type":"error"},{"inputs":[],"name":"NativeTokenSendingFailure","type":"error"},{"inputs":[{"internalType":"address","name":"owner","type":"address"}],"name":"OwnableInvalidOwner","type":"error"},{"inputs":[{"internalType":"address","name":"account","type":"address"}],"name":"OwnableUnauthorizedAccount","type":"error"},{"anonymous":false,"inputs":[{"indexed":true,"internalType":"address","name":"previousOwner","type":"address"},{"indexed":true,"internalType":"address","name":"newOwner","type":"address"}],"name":"OwnershipTransferred","type":"event"},{"inputs":[{"internalType":"address[]","name":"targets","type":"address[]"},{"internalType":"bytes[]","name":"arguments","type":"bytes[]"}],"name":"arbitraryCalls","outputs":[],"stateMutability":"nonpayable","type":"function"},{"inputs":[{"internalType":"contract IEscrow","name":"escrow","type":"address"},{"components":[{"internalType":"bytes32","name":"orderHash","type":"bytes32"},{"internalType":"bytes32","name":"hashlock","type":"bytes32"},{"internalType":"Address","name":"maker","type":"uint256"},{"internalType":"Address","name":"taker","type":"uint256"},{"internalType":"Address","name":"token","type":"uint256"},{"internalType":"uint256","name":"amount","type":"uint256"},{"internalType":"uint256","name":"safetyDeposit","type":"uint256"},{"internalType":"Timelocks","name":"timelocks","type":"uint256"}],"internalType":"struct IBaseEscrow.Immutables","name":"immutables","type":"tuple"}],"name":"cancel","outputs":[],"stateMutability":"nonpayable","type":"function"},{"inputs":[{"components":[{"internalType":"bytes32","name":"orderHash","type":"bytes32"},{"internalType":"bytes32","name":"hashlock","type":"bytes32"},{"internalType":"Address","name":"maker","type":"uint256"},{"internalType":"Address","name":"taker","type":"uint256"},{"internalType":"Address","name":"token","type":"uint256"},{"internalType":"uint256","name":"amount","type":"uint256"},{"internalType":"uint256","name":"safetyDeposit","type":"uint256"},{"internalType":"Timelocks","name":"timelocks","type":"uint256"}],"internalType":"struct IBaseEscrow.Immutables","name":"dstImmutables","type":"tuple"},{"internalType":"uint256","name":"srcCancellationTimestamp","type":"uint256"}],"name":"deployDst","outputs":[],"stateMutability":"payable","type":"function"},{"inputs":[{"components":[{"internalType":"bytes32","name":"orderHash","type":"bytes32"},{"internalType":"bytes32","name":"hashlock","type":"bytes32"},{"internalType":"Address","name":"maker","type":"uint256"},{"internalType":"Address","name":"taker","type":"uint256"},{"internalType":"Address","name":"token","type":"uint256"},{"internalType":"uint256","name":"amount","type":"uint256"},{"internalType":"uint256","name":"safetyDeposit","type":"uint256"},{"internalType":"Timelocks","name":"timelocks","type":"uint256"}],"internalType":"struct IBaseEscrow.Immutables","name":"immutables","type":"tuple"},{"components":[{"internalType":"uint256","name":"salt","type":"uint256"},{"internalType":"Address","name":"maker","type":"uint256"},{"internalType":"Address","name":"receiver","type":"uint256"},{"internalType":"Address","name":"makerAsset","type":"uint256"},{"internalType":"Address","name":"takerAsset","type":"uint256"},{"internalType":"uint256","name":"makingAmount","type":"uint256"},{"internalType":"uint256","name":"takingAmount","type":"uint256"},{"internalType":"MakerTraits","name":"makerTraits","type":"uint256"}],"internalType":"struct IOrderMixin.Order","name":"order","type":"tuple"},{"internalType":"bytes32","name":"r","type":"bytes32"},{"internalType":"bytes32","name":"vs","type":"bytes32"},{"internalType":"uint256","name":"amount","type":"uint256"},{"internalType":"TakerTraits","name":"takerTraits","type":"uint256"},{"internalType":"bytes","name":"args","type":"bytes"}],"name":"deploySrc","outputs":[],"stateMutability":"payable","type":"function"},{"inputs":[],"name":"owner","outputs":[{"internalType":"address","name":"","type":"address"}],"stateMutability":"view","type":"function"},{"inputs":[],"name":"renounceOwnership","outputs":[],"stateMutability":"nonpayable","type":"function"},{"inputs":[{"internalType":"address","name":"newOwner","type":"address"}],"name":"transferOwnership","outputs":[],"stateMutability":"nonpayable","type":"function"},{"inputs":[{"internalType":"contract IEscrow","name":"escrow","type":"address"},{"internalType":"bytes32","name":"secret","type":"bytes32"},{"components":[{"internalType":"bytes32","name":"orderHash","type":"bytes32"},{"internalType":"bytes32","name":"hashlock","type":"bytes32"},{"internalType":"Address","name":"maker","type":"uint256"},{"internalType":"Address","name":"taker","type":"uint256"},{"internalType":"Address","name":"token","type":"uint256"},{"internalType":"uint256","name":"amount","type":"uint256"},{"internalType":"uint256","name":"safetyDeposit","type":"uint256"},{"internalType":"Timelocks","name":"timelocks","type":"uint256"}],"internalType":"struct IBaseEscrow.Immutables","name":"immutables","type":"tuple"}],"name":"withdraw","outputs":[],"stateMutability":"nonpayable","type":"function"},{"stateMutability":"payable","type":"receive"}],"evm":{"bytecode":{"linkReferences":{},"object":"60c0346100f757601f610e8738819003918201601f19168301916001600160401b038311848410176100fc578084926060946040528339810103126100f75780516001600160a01b03919082811681036100f75760208201519183831683036100f757604001518381168091036100f75780156100de57600080546001600160a01b03198116831782556040519516907f8be0079c531659141344cd1fd0a4f28419497f9722a3daafe3b4186f6b6457e09080a360805260a052610d7490816101138239608051818181610314015261085b015260a051816104c10152f35b604051631e4fbdf760e01b815260006004820152602490fd5b600080fd5b634e487b7160e01b600052604160045260246000fdfe60406080815260048036101561001f575b5050361561001d57600080fd5b005b600091823560e01c80631f3177ba14610a205780632c3c9a371461090957838163318b05621461080157508063715018a6146107645780638da5cb5b1461071357838163a4fc705a146105ee57508063ca218276146101755763f2fde38b146100885750610010565b346101715760207ffffffffffffffffffffffffffffffffffffffffffffffffffffffffffffffffc3601126101715781359173ffffffffffffffffffffffffffffffffffffffff9182841680940361016d576100e2610ced565b831561013e575050600054827fffffffffffffffffffffffff0000000000000000000000000000000000000000821617600055167f8be0079c531659141344cd1fd0a4f28419497f9722a3daafe3b4186f6b6457e0600080a380f35b908460249251917f1e4fbdf7000000000000000000000000000000000000000000000000000000008352820152fd5b8480fd5b8280fd5b50907ffffffffffffffffffffffffffffffffffffffffffffffffffffffffffffffffc3601916102a083126105ea576101008093126105ea57827ffffffffffffffffffffffffffffffffffffffffffffffffffffffffffffffefc3601126105ea576102843567ffffffffffffffff928382116105e657366023830112156105e65781810135948486116105e257602494368688860101116105de57610219610ced565b8451918201908111828210176105b157908493929184528135815260209081810197873589528582019460443586526060998a8401606435815260808501608435815260a086019160a435835260c087019960c4358b528d60e08901954260e01b7bffffffffffffffffffffffffffffffffffffffffffffffffffffffff60e4351617875273ffffffffffffffffffffffffffffffffffffffff9d51997ffb6bd47e000000000000000000000000000000000000000000000000000000008b52518c8b015251908901525160448801525160648701525160848601525160a4850152865160c48501525160e48401528a61010496858589818c7f0000000000000000000000000000000000000000000000000000000000000000165afa9485156105a757829561056b575b508180809251875af1610355610c8f565b501561054357928895926103b860348c858f98966101a09e839d9b988f7fffffffffffffffffffffffffffffffffffffffff00000000000000000000000090519889961b1689860152018484013781018883820152036014810184520182610c4e565b8851998a977ff497df750000000000000000000000000000000000000000000000000000000089526101a4948635908a0152610124908135908a0152610144803560448b015261016490813560648c015261018492833560848d0152873560a48d01526101c4988c60c48b359101528c60e46101e43591015261020435908d015261022435908c015261024435908b01527f08000000000000000000000000000000000000000000000000000000000000006102643517908a015288015280518093880152845b8381106105275750505090847fffffffffffffffffffffffffffffffffffffffffffffffffffffffffffffffe0601f84868585989786010152011681010301927f0000000000000000000000000000000000000000000000000000000000000000165af190811561051e57506104f3578280f35b813d8311610517575b6105068183610c4e565b810103126105145738808280f35b80fd5b503d6104fc565b513d85823e3d90fd5b8082018301518b82018601528b98508a97508c9550820161047f565b8488517f8a0332d5000000000000000000000000000000000000000000000000000000008152fd5b9094508581813d83116105a0575b6105838183610c4e565b8101031261059c5751888116810361059c579381610344565b5080fd5b503d610579565b8a513d84823e3d90fd5b856041847f4e487b7100000000000000000000000000000000000000000000000000000000600052526000fd5b8780fd5b8680fd5b8580fd5b8380fd5b8084843461070f576101207ffffffffffffffffffffffffffffffffffffffffffffffffffffffffffffffffc36011261070f57610629610be8565b6101007fffffffffffffffffffffffffffffffffffffffffffffffffffffffffffffffdc36011261070a5773ffffffffffffffffffffffffffffffffffffffff1691823b1561070a57839082519384917f90d3252f0000000000000000000000000000000000000000000000000000000083526024359083015260443560248301526064356044830152608435606483015260a435608483015260c43560a483015260e43560c4830152818361010492833560e48401525af190811561070157506106f15750f35b6106fa90610c0b565b6105145780f35b513d84823e3d90fd5b505050fd5b5050fd5b83823461059c57817ffffffffffffffffffffffffffffffffffffffffffffffffffffffffffffffffc36011261059c5773ffffffffffffffffffffffffffffffffffffffff60209254169051908152f35b833461051457807ffffffffffffffffffffffffffffffffffffffffffffffffffffffffffffffffc3601126105145761079b610ced565b600073ffffffffffffffffffffffffffffffffffffffff81547fffffffffffffffffffffffff000000000000000000000000000000000000000081168355167f8be0079c531659141344cd1fd0a4f28419497f9722a3daafe3b4186f6b6457e08280a380f35b8084847ffffffffffffffffffffffffffffffffffffffffffffffffffffffffffffffffc3601610120811261070a576101001361070f5761010491610844610ced565b73ffffffffffffffffffffffffffffffffffffffff7f00000000000000000000000000000000000000000000000000000000000000001692833b1561016d576101248592845195869384927fdea024e4000000000000000000000000000000000000000000000000000000008452803590840152602435602484015260443560448401526064356064840152608435608484015260a43560a484015260c43560c484015260e43560e484015280359083015234905af190811561070157506106f15750f35b5034610171576101407ffffffffffffffffffffffffffffffffffffffffffffffffffffffffffffffffc3601126101715782610943610be8565b6101007fffffffffffffffffffffffffffffffffffffffffffffffffffffffffffffffbc36011261059c5773ffffffffffffffffffffffffffffffffffffffff1692833b1561059c5782519384917f233057030000000000000000000000000000000000000000000000000000000083526024359083015260443560248301526064356044830152608435606483015260a435608483015260c43560a483015260e43560c4830152818361010492833560e4840152610124938435908401525af19081156107015750610a14575080f35b610a1d90610c0b565b80f35b5082903461059c57807ffffffffffffffffffffffffffffffffffffffffffffffffffffffffffffffffc36011261059c5767ffffffffffffffff9083358281116105ea57610a719036908601610bb2565b92906024956024358381116105e257610a8d9036908301610bb2565b929091610a98610ced565b838703610b8b57875b878110610aac578880f35b8060051b808401359073ffffffffffffffffffffffffffffffffffffffff82168203610b5c5786831015610b60578501357fffffffffffffffffffffffffffffffffffffffffffffffffffffffffffffffe186360301811215610b5c578501803590888211610b58576020018136038113610b585791818c809481948d519384928337810182815203925af1610b40610c8f565b5015610b4e57600101610aa1565b86513d8a823e3d90fd5b8b80fd5b8a80fd5b8b8b6032867f4e487b7100000000000000000000000000000000000000000000000000000000835252fd5b85517fff633a38000000000000000000000000000000000000000000000000000000008152fd5b9181601f84011215610be35782359167ffffffffffffffff8311610be3576020808501948460051b010111610be357565b600080fd5b6004359073ffffffffffffffffffffffffffffffffffffffff82168203610be357565b67ffffffffffffffff8111610c1f57604052565b7f4e487b7100000000000000000000000000000000000000000000000000000000600052604160045260246000fd5b90601f7fffffffffffffffffffffffffffffffffffffffffffffffffffffffffffffffe0910116810190811067ffffffffffffffff821117610c1f57604052565b3d15610ce8573d9067ffffffffffffffff8211610c1f5760405191610cdc60207fffffffffffffffffffffffffffffffffffffffffffffffffffffffffffffffe0601f8401160184610c4e565b82523d6000602084013e565b606090565b73ffffffffffffffffffffffffffffffffffffffff600054163303610d0e57565b60246040517f118cdaa7000000000000000000000000000000000000000000000000000000008152336004820152fdfea26469706673582212207241e63cb77e4361215d8a0e68bf77caa1736ba84c44bca4e9fc09ec0a281c6364736f6c63430008170033","opcodes":"PUSH1 0xC0 CALLVALUE PUSH2 0xF7 JUMPI PUSH1 0x1F PUSH2 0xE87 CODESIZE DUP2 SWAP1 SUB SWAP2 DUP3 ADD PUSH1 0x1F NOT AND DUP4 ADD SWAP2 PUSH1 0x1 PUSH1 0x1 PUSH1 0x40 SHL SUB DUP4 GT DUP5 DUP5 LT OR PUSH2 0xFC JUMPI DUP1 DUP5 SWAP3 PUSH1 0x60 SWAP5 PUSH1 0x40 MSTORE DUP4 CODECOPY DUP2 ADD SUB SLT PUSH2 0xF7 JUMPI DUP1 MLOAD PUSH1 0x1 PUSH1 0x1 PUSH1 0xA0 SHL SUB SWAP2 SWAP1 DUP3 DUP2 AND DUP2 SUB PUSH2 0xF7 JUMPI PUSH1 0x20 DUP3 ADD MLOAD SWAP2 DUP4 DUP4 AND DUP4 SUB PUSH2 0xF7 JUMPI PUSH1 0x40 ADD MLOAD DUP4 DUP2 AND DUP1 SWAP2 SUB PUSH2 0xF7 JUMPI DUP1 ISZERO PUSH2 0xDE JUMPI PUSH1 0x0 DUP1 SLOAD PUSH1 0x1 PUSH1 0x1 PUSH1 0xA0 SHL SUB NOT DUP2 AND DUP4 OR DUP3 SSTORE PUSH1 0x40 MLOAD SWAP6 AND SWAP1 PUSH32 0x8BE0079C531659141344CD1FD0A4F28419497F9722A3DAAFE3B4186F6B6457E0 SWAP1 DUP1 LOG3 PUSH1 0x80 MSTORE PUSH1 0xA0 MSTORE PUSH2 0xD74 SWAP1 DUP2 PUSH2 0x113 DUP3 CODECOPY PUSH1 0x80 MLOAD DUP2 DUP2 DUP2 PUSH2 0x314 ADD MSTORE PUSH2 0x85B ADD MSTORE PUSH1 0xA0 MLOAD DUP2 PUSH2 0x4C1 ADD MSTORE RETURN JUMPDEST PUSH1 0x40 MLOAD PUSH4 0x1E4FBDF7 PUSH1 0xE0 SHL DUP2 MSTORE PUSH1 0x0 PUSH1 0x4 DUP3 ADD MSTORE PUSH1 0x24 SWAP1 REVERT JUMPDEST PUSH1 0x0 DUP1 REVERT JUMPDEST PUSH4 0x4E487B71 PUSH1 0xE0 SHL PUSH1 0x0 MSTORE PUSH1 0x41 PUSH1 0x4 MSTORE PUSH1 0x24 PUSH1 0x0 REVERT INVALID PUSH1 0x40 PUSH1 0x80 DUP2 MSTORE PUSH1 0x4 DUP1 CALLDATASIZE LT ISZERO PUSH2 0x1F JUMPI JUMPDEST POP POP CALLDATASIZE ISZERO PUSH2 0x1D JUMPI PUSH1 0x0 DUP1 REVERT JUMPDEST STOP JUMPDEST PUSH1 0x0 SWAP2 DUP3 CALLDATALOAD PUSH1 0xE0 SHR DUP1 PUSH4 0x1F3177BA EQ PUSH2 0xA20 JUMPI DUP1 PUSH4 0x2C3C9A37 EQ PUSH2 0x909 JUMPI DUP4 DUP2 PUSH4 0x318B0562 EQ PUSH2 0x801 JUMPI POP DUP1 PUSH4 0x715018A6 EQ PUSH2 0x764 JUMPI DUP1 PUSH4 0x8DA5CB5B EQ PUSH2 0x713 JUMPI DUP4 DUP2 PUSH4 0xA4FC705A EQ PUSH2 0x5EE JUMPI POP DUP1 PUSH4 0xCA218276 EQ PUSH2 0x175 JUMPI PUSH4 0xF2FDE38B EQ PUSH2 0x88 JUMPI POP PUSH2 0x10 JUMP JUMPDEST CALLVALUE PUSH2 0x171 JUMPI PUSH1 0x20 PUSH32 0xFFFFFFFFFFFFFFFFFFFFFFFFFFFFFFFFFFFFFFFFFFFFFFFFFFFFFFFFFFFFFFFC CALLDATASIZE ADD SLT PUSH2 0x171 JUMPI DUP2 CALLDATALOAD SWAP2 PUSH20 0xFFFFFFFFFFFFFFFFFFFFFFFFFFFFFFFFFFFFFFFF SWAP2 DUP3 DUP5 AND DUP1 SWAP5 SUB PUSH2 0x16D JUMPI PUSH2 0xE2 PUSH2 0xCED JUMP JUMPDEST DUP4 ISZERO PUSH2 0x13E JUMPI POP POP PUSH1 0x0 SLOAD DUP3 PUSH32 0xFFFFFFFFFFFFFFFFFFFFFFFF0000000000000000000000000000000000000000 DUP3 AND OR PUSH1 0x0 SSTORE AND PUSH32 0x8BE0079C531659141344CD1FD0A4F28419497F9722A3DAAFE3B4186F6B6457E0 PUSH1 0x0 DUP1 LOG3 DUP1 RETURN JUMPDEST SWAP1 DUP5 PUSH1 0x24 SWAP3 MLOAD SWAP2 PUSH32 0x1E4FBDF700000000000000000000000000000000000000000000000000000000 DUP4 MSTORE DUP3 ADD MSTORE REVERT JUMPDEST DUP5 DUP1 REVERT JUMPDEST DUP3 DUP1 REVERT JUMPDEST POP SWAP1 PUSH32 0xFFFFFFFFFFFFFFFFFFFFFFFFFFFFFFFFFFFFFFFFFFFFFFFFFFFFFFFFFFFFFFFC CALLDATASIZE ADD SWAP2 PUSH2 0x2A0 DUP4 SLT PUSH2 0x5EA JUMPI PUSH2 0x100 DUP1 SWAP4 SLT PUSH2 0x5EA JUMPI DUP3 PUSH32 0xFFFFFFFFFFFFFFFFFFFFFFFFFFFFFFFFFFFFFFFFFFFFFFFFFFFFFFFFFFFFFEFC CALLDATASIZE ADD SLT PUSH2 0x5EA JUMPI PUSH2 0x284 CALLDATALOAD PUSH8 0xFFFFFFFFFFFFFFFF SWAP3 DUP4 DUP3 GT PUSH2 0x5E6 JUMPI CALLDATASIZE PUSH1 0x23 DUP4 ADD SLT ISZERO PUSH2 0x5E6 JUMPI DUP2 DUP2 ADD CALLDATALOAD SWAP5 DUP5 DUP7 GT PUSH2 0x5E2 JUMPI PUSH1 0x24 SWAP5 CALLDATASIZE DUP7 DUP9 DUP7 ADD ADD GT PUSH2 0x5DE JUMPI PUSH2 0x219 PUSH2 0xCED JUMP JUMPDEST DUP5 MLOAD SWAP2 DUP3 ADD SWAP1 DUP2 GT DUP3 DUP3 LT OR PUSH2 0x5B1 JUMPI SWAP1 DUP5 SWAP4 SWAP3 SWAP2 DUP5 MSTORE DUP2 CALLDATALOAD DUP2 MSTORE PUSH1 0x20 SWAP1 DUP2 DUP2 ADD SWAP8 DUP8 CALLDATALOAD DUP10 MSTORE DUP6 DUP3 ADD SWAP5 PUSH1 0x44 CALLDATALOAD DUP7 MSTORE PUSH1 0x60 SWAP10 DUP11 DUP5 ADD PUSH1 0x64 CALLDATALOAD DUP2 MSTORE PUSH1 0x80 DUP6 ADD PUSH1 0x84 CALLDATALOAD DUP2 MSTORE PUSH1 0xA0 DUP7 ADD SWAP2 PUSH1 0xA4 CALLDATALOAD DUP4 MSTORE PUSH1 0xC0 DUP8 ADD SWAP10 PUSH1 0xC4 CALLDATALOAD DUP12 MSTORE DUP14 PUSH1 0xE0 DUP10 ADD SWAP6 TIMESTAMP PUSH1 0xE0 SHL PUSH28 0xFFFFFFFFFFFFFFFFFFFFFFFFFFFFFFFFFFFFFFFFFFFFFFFFFFFFFFFF PUSH1 0xE4 CALLDATALOAD AND OR DUP8 MSTORE PUSH20 0xFFFFFFFFFFFFFFFFFFFFFFFFFFFFFFFFFFFFFFFF SWAP14 MLOAD SWAP10 PUSH32 0xFB6BD47E00000000000000000000000000000000000000000000000000000000 DUP12 MSTORE MLOAD DUP13 DUP12 ADD MSTORE MLOAD SWAP1 DUP10 ADD MSTORE MLOAD PUSH1 0x44 DUP9 ADD MSTORE MLOAD PUSH1 0x64 DUP8 ADD MSTORE MLOAD PUSH1 0x84 DUP7 ADD MSTORE MLOAD PUSH1 0xA4 DUP6 ADD MSTORE DUP7 MLOAD PUSH1 0xC4 DUP6 ADD MSTORE MLOAD PUSH1 0xE4 DUP5 ADD MSTORE DUP11 PUSH2 0x104 SWAP7 DUP6 DUP6 DUP10 DUP2 DUP13 PUSH32 0x0 AND GAS STATICCALL SWAP5 DUP6 ISZERO PUSH2 0x5A7 JUMPI DUP3 SWAP6 PUSH2 0x56B JUMPI JUMPDEST POP DUP2 DUP1 DUP1 SWAP3 MLOAD DUP8 GAS CALL PUSH2 0x355 PUSH2 0xC8F JUMP JUMPDEST POP ISZERO PUSH2 0x543 JUMPI SWAP3 DUP9 SWAP6 SWAP3 PUSH2 0x3B8 PUSH1 0x34 DUP13 DUP6 DUP16 SWAP9 SWAP7 PUSH2 0x1A0 SWAP15 DUP4 SWAP14 SWAP12 SWAP9 DUP16 PUSH32 0xFFFFFFFFFFFFFFFFFFFFFFFFFFFFFFFFFFFFFFFF000000000000000000000000 SWAP1 MLOAD SWAP9 DUP10 SWAP7 SHL AND DUP10 DUP7 ADD MSTORE ADD DUP5 DUP5 ADD CALLDATACOPY DUP2 ADD DUP9 DUP4 DUP3 ADD MSTORE SUB PUSH1 0x14 DUP2 ADD DUP5 MSTORE ADD DUP3 PUSH2 0xC4E JUMP JUMPDEST DUP9 MLOAD SWAP10 DUP11 SWAP8 PUSH32 0xF497DF7500000000000000000000000000000000000000000000000000000000 DUP10 MSTORE PUSH2 0x1A4 SWAP5 DUP7 CALLDATALOAD SWAP1 DUP11 ADD MSTORE PUSH2 0x124 SWAP1 DUP2 CALLDATALOAD SWAP1 DUP11 ADD MSTORE PUSH2 0x144 DUP1 CALLDATALOAD PUSH1 0x44 DUP12 ADD MSTORE PUSH2 0x164 SWAP1 DUP2 CALLDATALOAD PUSH1 0x64 DUP13 ADD MSTORE PUSH2 0x184 SWAP3 DUP4 CALLDATALOAD PUSH1 0x84 DUP14 ADD MSTORE DUP8 CALLDATALOAD PUSH1 0xA4 DUP14 ADD MSTORE PUSH2 0x1C4 SWAP9 DUP13 PUSH1 0xC4 DUP12 CALLDATALOAD SWAP2 ADD MSTORE DUP13 PUSH1 0xE4 PUSH2 0x1E4 CALLDATALOAD SWAP2 ADD MSTORE PUSH2 0x204 CALLDATALOAD SWAP1 DUP14 ADD MSTORE PUSH2 0x224 CALLDATALOAD SWAP1 DUP13 ADD MSTORE PUSH2 0x244 CALLDATALOAD SWAP1 DUP12 ADD MSTORE PUSH32 0x800000000000000000000000000000000000000000000000000000000000000 PUSH2 0x264 CALLDATALOAD OR SWAP1 DUP11 ADD MSTORE DUP9 ADD MSTORE DUP1 MLOAD DUP1 SWAP4 DUP9 ADD MSTORE DUP5 JUMPDEST DUP4 DUP2 LT PUSH2 0x527 JUMPI POP POP POP SWAP1 DUP5 PUSH32 0xFFFFFFFFFFFFFFFFFFFFFFFFFFFFFFFFFFFFFFFFFFFFFFFFFFFFFFFFFFFFFFE0 PUSH1 0x1F DUP5 DUP7 DUP6 DUP6 SWAP9 SWAP8 DUP7 ADD ADD MSTORE ADD AND DUP2 ADD SUB ADD SWAP3 PUSH32 0x0 AND GAS CALL SWAP1 DUP2 ISZERO PUSH2 0x51E JUMPI POP PUSH2 0x4F3 JUMPI DUP3 DUP1 RETURN JUMPDEST DUP2 RETURNDATASIZE DUP4 GT PUSH2 0x517 JUMPI JUMPDEST PUSH2 0x506 DUP2 DUP4 PUSH2 0xC4E JUMP JUMPDEST DUP2 ADD SUB SLT PUSH2 0x514 JUMPI CODESIZE DUP1 DUP3 DUP1 RETURN JUMPDEST DUP1 REVERT JUMPDEST POP RETURNDATASIZE PUSH2 0x4FC JUMP JUMPDEST MLOAD RETURNDATASIZE DUP6 DUP3 RETURNDATACOPY RETURNDATASIZE SWAP1 REVERT JUMPDEST DUP1 DUP3 ADD DUP4 ADD MLOAD DUP12 DUP3 ADD DUP7 ADD MSTORE DUP12 SWAP9 POP DUP11 SWAP8 POP DUP13 SWAP6 POP DUP3 ADD PUSH2 0x47F JUMP JUMPDEST DUP5 DUP9 MLOAD PUSH32 0x8A0332D500000000000000000000000000000000000000000000000000000000 DUP2 MSTORE REVERT JUMPDEST SWAP1 SWAP5 POP DUP6 DUP2 DUP2 RETURNDATASIZE DUP4 GT PUSH2 0x5A0 JUMPI JUMPDEST PUSH2 0x583 DUP2 DUP4 PUSH2 0xC4E JUMP JUMPDEST DUP2 ADD SUB SLT PUSH2 0x59C JUMPI MLOAD DUP9 DUP2 AND DUP2 SUB PUSH2 0x59C JUMPI SWAP4 DUP2 PUSH2 0x344 JUMP JUMPDEST POP DUP1 REVERT JUMPDEST POP RETURNDATASIZE PUSH2 0x579 JUMP JUMPDEST DUP11 MLOAD RETURNDATASIZE DUP5 DUP3 RETURNDATACOPY RETURNDATASIZE SWAP1 REVERT JUMPDEST DUP6 PUSH1 0x41 DUP5 PUSH32 0x4E487B7100000000000000000000000000000000000000000000000000000000 PUSH1 0x0 MSTORE MSTORE PUSH1 0x0 REVERT JUMPDEST DUP8 DUP1 REVERT JUMPDEST DUP7 DUP1 REVERT JUMPDEST DUP6 DUP1 REVERT JUMPDEST DUP4 DUP1 REVERT JUMPDEST DUP1 DUP5 DUP5 CALLVALUE PUSH2 0x70F JUMPI PUSH2 0x120 PUSH32 0xFFFFFFFFFFFFFFFFFFFFFFFFFFFFFFFFFFFFFFFFFFFFFFFFFFFFFFFFFFFFFFFC CALLDATASIZE ADD SLT PUSH2 0x70F JUMPI PUSH2 0x629 PUSH2 0xBE8 JUMP JUMPDEST PUSH2 0x100 PUSH32 0xFFFFFFFFFFFFFFFFFFFFFFFFFFFFFFFFFFFFFFFFFFFFFFFFFFFFFFFFFFFFFFDC CALLDATASIZE ADD SLT PUSH2 0x70A JUMPI PUSH20 0xFFFFFFFFFFFFFFFFFFFFFFFFFFFFFFFFFFFFFFFF AND SWAP2 DUP3 EXTCODESIZE ISZERO PUSH2 0x70A JUMPI DUP4 SWAP1 DUP3 MLOAD SWAP4 DUP5 SWAP2 PUSH32 0x90D3252F00000000000000000000000000000000000000000000000000000000 DUP4 MSTORE PUSH1 0x24 CALLDATALOAD SWAP1 DUP4 ADD MSTORE PUSH1 0x44 CALLDATALOAD PUSH1 0x24 DUP4 ADD MSTORE PUSH1 0x64 CALLDATALOAD PUSH1 0x44 DUP4 ADD MSTORE PUSH1 0x84 CALLDATALOAD PUSH1 0x64 DUP4 ADD MSTORE PUSH1 0xA4 CALLDATALOAD PUSH1 0x84 DUP4 ADD MSTORE PUSH1 0xC4 CALLDATALOAD PUSH1 0xA4 DUP4 ADD MSTORE PUSH1 0xE4 CALLDATALOAD PUSH1 0xC4 DUP4 ADD MSTORE DUP2 DUP4 PUSH2 0x104 SWAP3 DUP4 CALLDATALOAD PUSH1 0xE4 DUP5 ADD MSTORE GAS CALL SWAP1 DUP2 ISZERO PUSH2 0x701 JUMPI POP PUSH2 0x6F1 JUMPI POP RETURN JUMPDEST PUSH2 0x6FA SWAP1 PUSH2 0xC0B JUMP JUMPDEST PUSH2 0x514 JUMPI DUP1 RETURN JUMPDEST MLOAD RETURNDATASIZE DUP5 DUP3 RETURNDATACOPY RETURNDATASIZE SWAP1 REVERT JUMPDEST POP POP POP REVERT JUMPDEST POP POP REVERT JUMPDEST DUP4 DUP3 CALLVALUE PUSH2 0x59C JUMPI DUP2 PUSH32 0xFFFFFFFFFFFFFFFFFFFFFFFFFFFFFFFFFFFFFFFFFFFFFFFFFFFFFFFFFFFFFFFC CALLDATASIZE ADD SLT PUSH2 0x59C JUMPI PUSH20 0xFFFFFFFFFFFFFFFFFFFFFFFFFFFFFFFFFFFFFFFF PUSH1 0x20 SWAP3 SLOAD AND SWAP1 MLOAD SWAP1 DUP2 MSTORE RETURN JUMPDEST DUP4 CALLVALUE PUSH2 0x514 JUMPI DUP1 PUSH32 0xFFFFFFFFFFFFFFFFFFFFFFFFFFFFFFFFFFFFFFFFFFFFFFFFFFFFFFFFFFFFFFFC CALLDATASIZE ADD SLT PUSH2 0x514 JUMPI PUSH2 0x79B PUSH2 0xCED JUMP JUMPDEST PUSH1 0x0 PUSH20 0xFFFFFFFFFFFFFFFFFFFFFFFFFFFFFFFFFFFFFFFF DUP2 SLOAD PUSH32 0xFFFFFFFFFFFFFFFFFFFFFFFF0000000000000000000000000000000000000000 DUP2 AND DUP4 SSTORE AND PUSH32 0x8BE0079C531659141344CD1FD0A4F28419497F9722A3DAAFE3B4186F6B6457E0 DUP3 DUP1 LOG3 DUP1 RETURN JUMPDEST DUP1 DUP5 DUP5 PUSH32 0xFFFFFFFFFFFFFFFFFFFFFFFFFFFFFFFFFFFFFFFFFFFFFFFFFFFFFFFFFFFFFFFC CALLDATASIZE ADD PUSH2 0x120 DUP2 SLT PUSH2 0x70A JUMPI PUSH2 0x100 SGT PUSH2 0x70F JUMPI PUSH2 0x104 SWAP2 PUSH2 0x844 PUSH2 0xCED JUMP JUMPDEST PUSH20 0xFFFFFFFFFFFFFFFFFFFFFFFFFFFFFFFFFFFFFFFF PUSH32 0x0 AND SWAP3 DUP4 EXTCODESIZE ISZERO PUSH2 0x16D JUMPI PUSH2 0x124 DUP6 SWAP3 DUP5 MLOAD SWAP6 DUP7 SWAP4 DUP5 SWAP3 PUSH32 0xDEA024E400000000000000000000000000000000000000000000000000000000 DUP5 MSTORE DUP1 CALLDATALOAD SWAP1 DUP5 ADD MSTORE PUSH1 0x24 CALLDATALOAD PUSH1 0x24 DUP5 ADD MSTORE PUSH1 0x44 CALLDATALOAD PUSH1 0x44 DUP5 ADD MSTORE PUSH1 0x64 CALLDATALOAD PUSH1 0x64 DUP5 ADD MSTORE PUSH1 0x84 CALLDATALOAD PUSH1 0x84 DUP5 ADD MSTORE PUSH1 0xA4 CALLDATALOAD PUSH1 0xA4 DUP5 ADD MSTORE PUSH1 0xC4 CALLDATALOAD PUSH1 0xC4 DUP5 ADD MSTORE PUSH1 0xE4 CALLDATALOAD PUSH1 0xE4 DUP5 ADD MSTORE DUP1 CALLDATALOAD SWAP1 DUP4 ADD MSTORE CALLVALUE SWAP1 GAS CALL SWAP1 DUP2 ISZERO PUSH2 0x701 JUMPI POP PUSH2 0x6F1 JUMPI POP RETURN JUMPDEST POP CALLVALUE PUSH2 0x171 JUMPI PUSH2 0x140 PUSH32 0xFFFFFFFFFFFFFFFFFFFFFFFFFFFFFFFFFFFFFFFFFFFFFFFFFFFFFFFFFFFFFFFC CALLDATASIZE ADD SLT PUSH2 0x171 JUMPI DUP3 PUSH2 0x943 PUSH2 0xBE8 JUMP JUMPDEST PUSH2 0x100 PUSH32 0xFFFFFFFFFFFFFFFFFFFFFFFFFFFFFFFFFFFFFFFFFFFFFFFFFFFFFFFFFFFFFFBC CALLDATASIZE ADD SLT PUSH2 0x59C JUMPI PUSH20 0xFFFFFFFFFFFFFFFFFFFFFFFFFFFFFFFFFFFFFFFF AND SWAP3 DUP4 EXTCODESIZE ISZERO PUSH2 0x59C JUMPI DUP3 MLOAD SWAP4 DUP5 SWAP2 PUSH32 0x2330570300000000000000000000000000000000000000000000000000000000 DUP4 MSTORE PUSH1 0x24 CALLDATALOAD SWAP1 DUP4 ADD MSTORE PUSH1 0x44 CALLDATALOAD PUSH1 0x24 DUP4 ADD MSTORE PUSH1 0x64 CALLDATALOAD PUSH1 0x44 DUP4 ADD MSTORE PUSH1 0x84 CALLDATALOAD PUSH1 0x64 DUP4 ADD MSTORE PUSH1 0xA4 CALLDATALOAD PUSH1 0x84 DUP4 ADD MSTORE PUSH1 0xC4 CALLDATALOAD PUSH1 0xA4 DUP4 ADD MSTORE PUSH1 0xE4 CALLDATALOAD PUSH1 0xC4 DUP4 ADD MSTORE DUP2 DUP4 PUSH2 0x104 SWAP3 DUP4 CALLDATALOAD PUSH1 0xE4 DUP5 ADD MSTORE PUSH2 0x124 SWAP4 DUP5 CALLDATALOAD SWAP1 DUP5 ADD MSTORE GAS CALL SWAP1 DUP2 ISZERO PUSH2 0x701 JUMPI POP PUSH2 0xA14 JUMPI POP DUP1 RETURN JUMPDEST PUSH2 0xA1D SWAP1 PUSH2 0xC0B JUMP JUMPDEST DUP1 RETURN JUMPDEST POP DUP3 SWAP1 CALLVALUE PUSH2 0x59C JUMPI DUP1 PUSH32 0xFFFFFFFFFFFFFFFFFFFFFFFFFFFFFFFFFFFFFFFFFFFFFFFFFFFFFFFFFFFFFFFC CALLDATASIZE ADD SLT PUSH2 0x59C JUMPI PUSH8 0xFFFFFFFFFFFFFFFF SWAP1 DUP4 CALLDATALOAD DUP3 DUP2 GT PUSH2 0x5EA JUMPI PUSH2 0xA71 SWAP1 CALLDATASIZE SWAP1 DUP7 ADD PUSH2 0xBB2 JUMP JUMPDEST SWAP3 SWAP1 PUSH1 0x24 SWAP6 PUSH1 0x24 CALLDATALOAD DUP4 DUP2 GT PUSH2 0x5E2 JUMPI PUSH2 0xA8D SWAP1 CALLDATASIZE SWAP1 DUP4 ADD PUSH2 0xBB2 JUMP JUMPDEST SWAP3 SWAP1 SWAP2 PUSH2 0xA98 PUSH2 0xCED JUMP JUMPDEST DUP4 DUP8 SUB PUSH2 0xB8B JUMPI DUP8 JUMPDEST DUP8 DUP2 LT PUSH2 0xAAC JUMPI DUP9 DUP1 RETURN JUMPDEST DUP1 PUSH1 0x5 SHL DUP1 DUP5 ADD CALLDATALOAD SWAP1 PUSH20 0xFFFFFFFFFFFFFFFFFFFFFFFFFFFFFFFFFFFFFFFF DUP3 AND DUP3 SUB PUSH2 0xB5C JUMPI DUP7 DUP4 LT ISZERO PUSH2 0xB60 JUMPI DUP6 ADD CALLDATALOAD PUSH32 0xFFFFFFFFFFFFFFFFFFFFFFFFFFFFFFFFFFFFFFFFFFFFFFFFFFFFFFFFFFFFFFE1 DUP7 CALLDATASIZE SUB ADD DUP2 SLT ISZERO PUSH2 0xB5C JUMPI DUP6 ADD DUP1 CALLDATALOAD SWAP1 DUP9 DUP3 GT PUSH2 0xB58 JUMPI PUSH1 0x20 ADD DUP2 CALLDATASIZE SUB DUP2 SGT PUSH2 0xB58 JUMPI SWAP2 DUP2 DUP13 DUP1 SWAP5 DUP2 SWAP5 DUP14 MLOAD SWAP4 DUP5 SWAP3 DUP4 CALLDATACOPY DUP2 ADD DUP3 DUP2 MSTORE SUB SWAP3 GAS CALL PUSH2 0xB40 PUSH2 0xC8F JUMP JUMPDEST POP ISZERO PUSH2 0xB4E JUMPI PUSH1 0x1 ADD PUSH2 0xAA1 JUMP JUMPDEST DUP7 MLOAD RETURNDATASIZE DUP11 DUP3 RETURNDATACOPY RETURNDATASIZE SWAP1 REVERT JUMPDEST DUP12 DUP1 REVERT JUMPDEST DUP11 DUP1 REVERT JUMPDEST DUP12 DUP12 PUSH1 0x32 DUP7 PUSH32 0x4E487B7100000000000000000000000000000000000000000000000000000000 DUP4 MSTORE MSTORE REVERT JUMPDEST DUP6 MLOAD PUSH32 0xFF633A3800000000000000000000000000000000000000000000000000000000 DUP2 MSTORE REVERT JUMPDEST SWAP2 DUP2 PUSH1 0x1F DUP5 ADD SLT ISZERO PUSH2 0xBE3 JUMPI DUP3 CALLDATALOAD SWAP2 PUSH8 0xFFFFFFFFFFFFFFFF DUP4 GT PUSH2 0xBE3 JUMPI PUSH1 0x20 DUP1 DUP6 ADD SWAP5 DUP5 PUSH1 0x5 SHL ADD ADD GT PUSH2 0xBE3 JUMPI JUMP JUMPDEST PUSH1 0x0 DUP1 REVERT JUMPDEST PUSH1 0x4 CALLDATALOAD SWAP1 PUSH20 0xFFFFFFFFFFFFFFFFFFFFFFFFFFFFFFFFFFFFFFFF DUP3 AND DUP3 SUB PUSH2 0xBE3 JUMPI JUMP JUMPDEST PUSH8 0xFFFFFFFFFFFFFFFF DUP2 GT PUSH2 0xC1F JUMPI PUSH1 0x40 MSTORE JUMP JUMPDEST PUSH32 0x4E487B7100000000000000000000000000000000000000000000000000000000 PUSH1 0x0 MSTORE PUSH1 0x41 PUSH1 0x4 MSTORE PUSH1 0x24 PUSH1 0x0 REVERT JUMPDEST SWAP1 PUSH1 0x1F PUSH32 0xFFFFFFFFFFFFFFFFFFFFFFFFFFFFFFFFFFFFFFFFFFFFFFFFFFFFFFFFFFFFFFE0 SWAP2 ADD AND DUP2 ADD SWAP1 DUP2 LT PUSH8 0xFFFFFFFFFFFFFFFF DUP3 GT OR PUSH2 0xC1F JUMPI PUSH1 0x40 MSTORE JUMP JUMPDEST RETURNDATASIZE ISZERO PUSH2 0xCE8 JUMPI RETURNDATASIZE SWAP1 PUSH8 0xFFFFFFFFFFFFFFFF DUP3 GT PUSH2 0xC1F JUMPI PUSH1 0x40 MLOAD SWAP2 PUSH2 0xCDC PUSH1 0x20 PUSH32 0xFFFFFFFFFFFFFFFFFFFFFFFFFFFFFFFFFFFFFFFFFFFFFFFFFFFFFFFFFFFFFFE0 PUSH1 0x1F DUP5 ADD AND ADD DUP5 PUSH2 0xC4E JUMP JUMPDEST DUP3 MSTORE RETURNDATASIZE PUSH1 0x0 PUSH1 0x20 DUP5 ADD RETURNDATACOPY JUMP JUMPDEST PUSH1 0x60 SWAP1 JUMP JUMPDEST PUSH20 0xFFFFFFFFFFFFFFFFFFFFFFFFFFFFFFFFFFFFFFFF PUSH1 0x0 SLOAD AND CALLER SUB PUSH2 0xD0E JUMPI JUMP JUMPDEST PUSH1 0x24 PUSH1 0x40 MLOAD PUSH32 0x118CDAA700000000000000000000000000000000000000000000000000000000 DUP2 MSTORE CALLER PUSH1 0x4 DUP3 ADD MSTORE REVERT INVALID LOG2 PUSH5 0x6970667358 0x22 SLT KECCAK256 PUSH19 0x41E63CB77E4361215D8A0E68BF77CAA1736BA8 0x4C PREVRANDAO 0xBC LOG4 0xE9 0xFC MULMOD 0xEC EXP 0x28 SHR PUSH4 0x64736F6C PUSH4 0x43000817 STOP CALLER "},"methodIdentifiers":{"arbitraryCalls(address[],bytes[])":"1f3177ba","cancel(address,(bytes32,bytes32,uint256,uint256,uint256,uint256,uint256,uint256))":"a4fc705a","deployDst((bytes32,bytes32,uint256,uint256,uint256,uint256,uint256,uint256),uint256)":"318b0562","deploySrc((bytes32,bytes32,uint256,uint256,uint256,uint256,uint256,uint256),(uint256,uint256,uint256,uint256,uint256,uint256,uint256,uint256),bytes32,bytes32,uint256,uint256,bytes)":"ca218276","owner()":"8da5cb5b","renounceOwnership()":"715018a6","transferOwnership(address)":"f2fde38b","withdraw(address,bytes32,(bytes32,bytes32,uint256,uint256,uint256,uint256,uint256,uint256))":"2c3c9a37"}}}}}