{"contracts/escrow/EscrowFactory.sol":{"EscrowFactory":{"abi":[{"inputs":[{"internalType":"address","name":"limitOrderProtocol","type":"address"},{"internalType":"contract IERC20","name":"feeToken","type":"address"},{"internalType":"contract IERC20","name":"accessToken","type":"address"},{"internalType":"address","name":"owner","type":"address"},{"internalType":"uint32","name":"rescueDelaySrc","type":"uint32"},{"internalType":"uint32","name":"rescueDelayDst","type":"uint32"}],"stateMutability":"nonpayable","type":"constructor"},{"inputs":[],"name":"AccessDenied","type":"error"},{"inputs":[],"name":"FailedDeployment","type":"error"},{"inputs":[{"internalType":"uint256","name":"balance","type":"uint256"},{"internalType":"uint256","name":"needed","type":"uint256"}],"name":"InsufficientBalance","type":"error"},{"inputs":[],"name":"InsufficientEscrowBalance","type":"error"},{"inputs":[],"name":"InvalidCreationTime","type":"error"},{"inputs":[],"name":"InvalidPartialFill","type":"error"},{"inputs":[],"name":"InvalidProof","type":"error"},{"inputs":[],"name":"InvalidSecretsAmount","type":"error"},{"inputs":[],"name":"NotEnoughCredit","type":"error"},{"inputs":[],"name":"OnlyFeeBankAccess","type":"error"},{"inputs":[],"name":"OnlyLimitOrderProtocol","type":"error"},{"inputs":[],"name":"ResolverCanNotFillOrder","type":"error"},{"inputs":[],"name":"SafeTransferFromFailed","type":"error"},{"anonymous":false,"inputs":[{"indexed":false,"internalType":"address","name":"escrow","type":"address"},{"indexed":false,"internalType":"bytes32","name":"hashlock","type":"bytes32"},{"indexed":false,"internalType":"Address","name":"taker","type":"uint256"}],"name":"DstEscrowCreated","type":"event"},{"anonymous":false,"inputs":[{"components":[{"internalType":"bytes32","name":"orderHash","type":"bytes32"},{"internalType":"bytes32","name":"hashlock","type":"bytes32"},{"internalType":"Address","name":"maker","type":"uint256"},{"internalType":"Address","name":"taker","type":"uint256"},{"internalType":"Address","name":"token","type":"uint256"},{"internalType":"uint256","name":"amount","type":"uint256"},{"internalType":"uint256","name":"safetyDeposit","type":"uint256"},{"internalType":"Timelocks","name":"timelocks","type":"uint256"}],"indexed":false,"internalType":"struct IBaseEscrow.Immutables","name":"srcImmutables","type":"tuple"},{"components":[{"internalType":"Address","name":"maker","type":"uint256"},{"internalType":"uint256","name":"amount","type":"uint256"},{"internalType":"Address","name":"token","type":"uint256"},{"internalType":"uint256","name":"safetyDeposit","type":"uint256"},{"internalType":"uint256","name":"chainId","type":"uint256"}],"indexed":false,"internalType":"struct IEscrowFactory.DstImmutablesComplement","name":"dstImmutablesComplement","type":"tuple"}],"name":"SrcEscrowCreated","type":"event"},{"inputs":[],"name":"ESCROW_DST_IMPLEMENTATION","outputs":[{"internalType":"address","name":"","type":"address"}],"stateMutability":"view","type":"function"},{"inputs":[],"name":"ESCROW_SRC_IMPLEMENTATION","outputs":[{"internalType":"address","name":"","type":"address"}],"stateMutability":"view","type":"function"},{"inputs":[],"name":"FEE_BANK","outputs":[{"internalType":"contract IFeeBank","name":"","type":"address"}],"stateMutability":"view","type":"function"},{"inputs":[{"components":[{"internalType":"bytes32","name":"orderHash","type":"bytes32"},{"internalType":"bytes32","name":"hashlock","type":"bytes32"},{"internalType":"Address","name":"maker","type":"uint256"},{"internalType":"Address","name":"taker","type":"uint256"},{"internalType":"Address","name":"token","type":"uint256"},{"internalType":"uint256","name":"amount","type":"uint256"},{"internalType":"uint256","name":"safetyDeposit","type":"uint256"},{"internalType":"Timelocks","name":"timelocks","type":"uint256"}],"internalType":"struct IBaseEscrow.Immutables","name":"immutables","type":"tuple"}],"name":"addressOfEscrowDst","outputs":[{"internalType":"address","name":"","type":"address"}],"stateMutability":"view","type":"function"},{"inputs":[{"components":[{"internalType":"bytes32","name":"orderHash","type":"bytes32"},{"internalType":"bytes32","name":"hashlock","type":"bytes32"},{"internalType":"Address","name":"maker","type":"uint256"},{"internalType":"Address","name":"taker","type":"uint256"},{"internalType":"Address","name":"token","type":"uint256"},{"internalType":"uint256","name":"amount","type":"uint256"},{"internalType":"uint256","name":"safetyDeposit","type":"uint256"},{"internalType":"Timelocks","name":"timelocks","type":"uint256"}],"internalType":"struct IBaseEscrow.Immutables","name":"immutables","type":"tuple"}],"name":"addressOfEscrowSrc","outputs":[{"internalType":"address","name":"","type":"address"}],"stateMutability":"view","type":"function"},{"inputs":[{"internalType":"address","name":"account","type":"address"}],"name":"availableCredit","outputs":[{"internalType":"uint256","name":"","type":"uint256"}],"stateMutability":"view","type":"function"},{"inputs":[{"components":[{"internalType":"bytes32","name":"orderHash","type":"bytes32"},{"internalType":"bytes32","name":"hashlock","type":"bytes32"},{"internalType":"Address","name":"maker","type":"uint256"},{"internalType":"Address","name":"taker","type":"uint256"},{"internalType":"Address","name":"token","type":"uint256"},{"internalType":"uint256","name":"amount","type":"uint256"},{"internalType":"uint256","name":"safetyDeposit","type":"uint256"},{"internalType":"Timelocks","name":"timelocks","type":"uint256"}],"internalType":"struct IBaseEscrow.Immutables","name":"dstImmutables","type":"tuple"},{"internalType":"uint256","name":"srcCancellationTimestamp","type":"uint256"}],"name":"createDstEscrow","outputs":[],"stateMutability":"payable","type":"function"},{"inputs":[{"internalType":"address","name":"account","type":"address"},{"internalType":"uint256","name":"amount","type":"uint256"}],"name":"decreaseAvailableCredit","outputs":[{"internalType":"uint256","name":"allowance","type":"uint256"}],"stateMutability":"nonpayable","type":"function"},{"inputs":[{"components":[{"internalType":"uint256","name":"salt","type":"uint256"},{"internalType":"Address","name":"maker","type":"uint256"},{"internalType":"Address","name":"receiver","type":"uint256"},{"internalType":"Address","name":"makerAsset","type":"uint256"},{"internalType":"Address","name":"takerAsset","type":"uint256"},{"internalType":"uint256","name":"makingAmount","type":"uint256"},{"internalType":"uint256","name":"takingAmount","type":"uint256"},{"internalType":"MakerTraits","name":"makerTraits","type":"uint256"}],"internalType":"struct IOrderMixin.Order","name":"order","type":"tuple"},{"internalType":"bytes","name":"","type":"bytes"},{"internalType":"bytes32","name":"","type":"bytes32"},{"internalType":"address","name":"","type":"address"},{"internalType":"uint256","name":"takingAmount","type":"uint256"},{"internalType":"uint256","name":"","type":"uint256"},{"internalType":"bytes","name":"extraData","type":"bytes"}],"name":"getMakingAmount","outputs":[{"internalType":"uint256","name":"","type":"uint256"}],"stateMutability":"view","type":"function"},{"inputs":[{"components":[{"internalType":"uint256","name":"salt","type":"uint256"},{"internalType":"Address","name":"maker","type":"uint256"},{"internalType":"Address","name":"receiver","type":"uint256"},{"internalType":"Address","name":"makerAsset","type":"uint256"},{"internalType":"Address","name":"takerAsset","type":"uint256"},{"internalType":"uint256","name":"makingAmount","type":"uint256"},{"internalType":"uint256","name":"takingAmount","type":"uint256"},{"internalType":"MakerTraits","name":"makerTraits","type":"uint256"}],"internalType":"struct IOrderMixin.Order","name":"order","type":"tuple"},{"internalType":"bytes","name":"","type":"bytes"},{"internalType":"bytes32","name":"","type":"bytes32"},{"internalType":"address","name":"","type":"address"},{"internalType":"uint256","name":"makingAmount","type":"uint256"},{"internalType":"uint256","name":"","type":"uint256"},{"internalType":"bytes","name":"extraData","type":"bytes"}],"name":"getTakingAmount","outputs":[{"internalType":"uint256","name":"","type":"uint256"}],"stateMutability":"view","type":"function"},{"inputs":[{"internalType":"address","name":"account","type":"address"},{"internalType":"uint256","name":"amount","type":"uint256"}],"name":"increaseAvailableCredit","outputs":[{"internalType":"uint256","name":"allowance","type":"uint256"}],"stateMutability":"nonpayable","type":"function"},{"inputs":[{"internalType":"bytes32","name":"key","type":"bytes32"}],"name":"lastValidated","outputs":[{"internalType":"uint256","name":"index","type":"uint256"},{"internalType":"bytes32","name":"leaf","type":"bytes32"}],"stateMutability":"view","type":"function"},{"inputs":[{"components":[{"internalType":"uint256","name":"salt","type":"uint256"},{"internalType":"Address","name":"maker","type":"uint256"},{"internalType":"Address","name":"receiver","type":"uint256"},{"internalType":"Address","name":"makerAsset","type":"uint256"},{"internalType":"Address","name":"takerAsset","type":"uint256"},{"internalType":"uint256","name":"makingAmount","type":"uint256"},{"internalType":"uint256","name":"takingAmount","type":"uint256"},{"internalType":"MakerTraits","name":"makerTraits","type":"uint256"}],"internalType":"struct IOrderMixin.Order","name":"order","type":"tuple"},{"internalType":"bytes","name":"extension","type":"bytes"},{"internalType":"bytes32","name":"orderHash","type":"bytes32"},{"internalType":"address","name":"taker","type":"address"},{"internalType":"uint256","name":"makingAmount","type":"uint256"},{"internalType":"uint256","name":"takingAmount","type":"uint256"},{"internalType":"uint256","name":"remainingMakingAmount","type":"uint256"},{"internalType":"bytes","name":"extraData","type":"bytes"}],"name":"postInteraction","outputs":[],"stateMutability":"nonpayable","type":"function"},{"inputs":[{"components":[{"internalType":"uint256","name":"salt","type":"uint256"},{"internalType":"Address","name":"maker","type":"uint256"},{"internalType":"Address","name":"receiver","type":"uint256"},{"internalType":"Address","name":"makerAsset","type":"uint256"},{"internalType":"Address","name":"takerAsset","type":"uint256"},{"internalType":"uint256","name":"makingAmount","type":"uint256"},{"internalType":"uint256","name":"takingAmount","type":"uint256"},{"internalType":"MakerTraits","name":"makerTraits","type":"uint256"}],"internalType":"struct IOrderMixin.Order","name":"order","type":"tuple"},{"internalType":"bytes","name":"extension","type":"bytes"},{"internalType":"bytes32","name":"orderHash","type":"bytes32"},{"internalType":"address","name":"taker","type":"address"},{"internalType":"uint256","name":"makingAmount","type":"uint256"},{"internalType":"uint256","name":"takingAmount","type":"uint256"},{"internalType":"uint256","name":"remainingMakingAmount","type":"uint256"},{"internalType":"bytes","name":"extraData","type":"bytes"}],"name":"preInteraction","outputs":[],"stateMutability":"nonpayable","type":"function"},{"inputs":[{"components":[{"internalType":"uint256","name":"salt","type":"uint256"},{"internalType":"Address","name":"maker","type":"uint256"},{"internalType":"Address","name":"receiver","type":"uint256"},{"internalType":"Address","name":"makerAsset","type":"uint256"},{"internalType":"Address","name":"takerAsset","type":"uint256"},{"internalType":"uint256","name":"makingAmount","type":"uint256"},{"internalType":"uint256","name":"takingAmount","type":"uint256"},{"internalType":"MakerTraits","name":"makerTraits","type":"uint256"}],"internalType":"struct IOrderMixin.Order","name":"","type":"tuple"},{"internalType":"bytes","name":"extension","type":"bytes"},{"internalType":"bytes32","name":"orderHash","type":"bytes32"},{"internalType":"address","name":"","type":"address"},{"internalType":"uint256","name":"","type":"uint256"},{"internalType":"uint256","name":"","type":"uint256"},{"internalType":"uint256","name":"","type":"uint256"},{"internalType":"bytes","name":"extraData","type":"bytes"}],"name":"takerInteraction","outputs":[],"stateMutability":"nonpayable","type":"function"}],"evm":{"bytecode":{"linkReferences":{},"object":"61018034620002c4576001600160401b03601f62004f6438819003918201601f19168401919083831185841017620002ae578160c09286926040958652833981010312620002c4576200005283620002c9565b6200006060208501620002c9565b926200006e838601620002c9565b906200007d60608701620002c9565b926200009a60a06200009260808a01620002de565b9801620002de565b928160805285516112939788820198828a10868b1117620002ae576200238283393089526001600160a01b0390811660208a0152958616878901526000978190036060019088f08015620002a457851660a05260c05260e0528351610e0a8082019082821084831117620002865760209183916200415a833963ffffffff809a16815203019086f09586156200029a578361010097168752845192610b45808501938585109085111762000286579160209391859362003615853916815203019084f09283156200027b5750806101209316835262000202620001b982865116763d602d80600a3d3981f3363d3d373d3d3d363d73000000906e5af43d82803e903d91602b57fd5bf36020528060115260881c17600052603760092090565b91610140928352845116763d602d80600a3d3981f3363d3d373d3d3d363d73000000906e5af43d82803e903d91602b57fd5bf36020528060115260881c17600052603760092090565b9161016092835251926120919485620002f18639608051858181610b400152611872015260a0518581816109bf0152818161172c01526117c2015260c051856115b3015260e0518561065a015251848181610a86015261109401525183818161024e01526106080152518261010e015251816105970152f35b8251903d90823e3d90fd5b634e487b7160e01b88526041600452602488fd5b84513d87823e3d90fd5b86513d89823e3d90fd5b634e487b7160e01b600052604160045260246000fd5b600080fd5b51906001600160a01b0382168203620002c457565b519063ffffffff82168203620002c45756fe60a080604052600436101561001357600080fd5b60006080526080513560e01c9081630986bdd514611843575080631d9671c3146117e65780632ce26aeb146117765780633ee5ef1f146116dc578063462ebde214610b125780635886216f14610aaa5780637040f17314610a3a57806385eda2de1461096f578063acf4ce5c1461091a578063adf38ba11461062c578063ba551177146105bc578063be58e91c14610553578063d7ff8a8014610473578063dea024e4146101575763fb6bd47e146100ca57600080fd5b3461015157610100807ffffffffffffffffffffffffffffffffffffffffffffffffffffffffffffffffc3601126101515761013360209160405181600482372030907f000000000000000000000000000000000000000000000000000000000000000090611f06565b73ffffffffffffffffffffffffffffffffffffffff60405191168152f35b60805180fd5b7ffffffffffffffffffffffffffffffffffffffffffffffffffffffffffffffffc3601610120811261015157610100809112610151576084359073ffffffffffffffffffffffffffffffffffffffff8083168015929160c4358085610461575b340361043757604051936101ca85611ae7565b600435855260243594856020820152604435604082015260643597886060830152608082015260a081019260a435845260c08201524260e01b7bffffffffffffffffffffffffffffffffffffffffffffffffffffffff60e43516178060e0830152610246610104359163ffffffff8160c01c169060e01c611ab1565b1161040d57207f00000000000000000000000000000000000000000000000000000000000000003447106103d657763d602d80600a3d3981f3363d3d373d3d3d363d73000000906e5af43d82803e903d91602b57fd5bf36020528060115260881c176000526037600934f59182169485156103ac57156102fe575b7fc30e111dcc74fddc2c3a4d98ffb97adec4485c0a687946bf5b22c2a99c7ff96d606086888760405192835260208301526040820152a160805180f35b516040517f23b872dd0000000000000000000000000000000000000000000000000000000081523360048201526024810192909252604482015260805192939260209160649082855af19081610388575b501561035e57908380806102c1565b60046040517ff4059071000000000000000000000000000000000000000000000000000000008152fd5b90503d156103a4575060016080515114601f3d11165b8461034f565b3b151561039e565b60046040517fb06ebf3d000000000000000000000000000000000000000000000000000000008152fd5b604447604051907fcf4791810000000000000000000000000000000000000000000000000000000082526004820152346024820152fd5b60046040517ff4840e96000000000000000000000000000000000000000000000000000000008152fd5b60046040517f34f5151d000000000000000000000000000000000000000000000000000000008152fd5b61046e9060a43590611ab1565b6101b7565b3461015157610493610484366119c9565b95509350509495935050611b7e565b60c08301359162989680918201908183116105225760a0916104b491611a6f565b930135818102918183041490151715610522576104d2818484611c47565b9080156104f1576020936104e99309151590611ab1565b604051908152f35b7f4e487b71000000000000000000000000000000000000000000000000000000006080515260126004526024608051fd5b7f4e487b71000000000000000000000000000000000000000000000000000000006080515260116004526024608051fd5b3461015157610100807ffffffffffffffffffffffffffffffffffffffffffffffffffffffffffffffffc3601126101515761013360209160405181600482372030907f000000000000000000000000000000000000000000000000000000000000000090611f06565b34610151576080517ffffffffffffffffffffffffffffffffffffffffffffffffffffffffffffffffc36011261015157602060405173ffffffffffffffffffffffffffffffffffffffff7f0000000000000000000000000000000000000000000000000000000000000000168152f35b346101515761063a3661191c565b50975050505050919073ffffffffffffffffffffffffffffffffffffffff7f00000000000000000000000000000000000000000000000000000000000000001633036108f05761068991611e84565b907fffffffffffffffffffffffffffffffffffffffffffffffffffffffffffffff607dffffffffffffffffffffffffffffffffffffffffffffffffffffffffffff92839201013516604051926020936107468161071a85888301958690603e927fffffffffffffffffffffffffffffffffffffffffffffffffffffffffffff000091835260101b1660208201520190565b037fffffffffffffffffffffffffffffffffffffffffffffffffffffffffffffffe08101835282611b04565b5190209084357fffffffffffffffffffffffffffffffffffffffffffffffffffffffffffffffe1863603018112156101515767ffffffffffffffff939086018035858111610151576005918160051b360388820113610151576040888a013599013596604051898101917fffffffffffffffff0000000000000000000000000000000000000000000000008c60c01b168352896028830152602882526060820190828210908211176108c1576040959493955251902092608051925b82841061087d5750505050160361085357600184018094116105225760019283916040519561083087611acb565b865281860193845260805152526040608051209251835551910155608051608051f35b60046040517f09bde339000000000000000000000000000000000000000000000000000000008152fd5b92939192909184821b83018a013590818110156108ad5760805152895260016040608051205b9401929190610802565b9060805152895260016040608051206108a3565b7f4e487b7100000000000000000000000000000000000000000000000000000000600052604160045260246000fd5b60046040517f4ca88867000000000000000000000000000000000000000000000000000000008152fd5b346101515760207ffffffffffffffffffffffffffffffffffffffffffffffffffffffffffffffffc36011261015157600435608051526001602052604080608051206001815491015482519182526020820152f35b346101515760407ffffffffffffffffffffffffffffffffffffffffffffffffffffffffffffffffc360112610151576109a66118f9565b73ffffffffffffffffffffffffffffffffffffffff90817f0000000000000000000000000000000000000000000000000000000000000000163303610a105716608051526080516020526020604060805120610a056024358254611abe565b809155604051908152f35b60046040517fa4544199000000000000000000000000000000000000000000000000000000008152fd5b34610151576080517ffffffffffffffffffffffffffffffffffffffffffffffffffffffffffffffffc36011261015157602060405173ffffffffffffffffffffffffffffffffffffffff7f0000000000000000000000000000000000000000000000000000000000000000168152f35b346101515760207ffffffffffffffffffffffffffffffffffffffffffffffffffffffffffffffffc3601126101515773ffffffffffffffffffffffffffffffffffffffff610af66118f9565b1660805152608051602052602060406080512054604051908152f35b3461015157610b203661191c565b94919293979095989673ffffffffffffffffffffffffffffffffffffffff7f00000000000000000000000000000000000000000000000000000000000000001633036116b257857fffffffffffffffffffffffffffffffffffffffffffffffffffffffffffffff60810111610522577fffffffffffffffffffffffffffffffffffffffffffffffffffffffffffffff60860190877fffffffffffffffffffffffffffffffffffffffffffffffffffffffffffffff5f88018310610522577f010000000000000000000000000000000000000000000000000000000000000080610c4e7fffffffffffffffffffffffffffffffffffffffffffffffffffffffffffffff5f8b017fffffffffffffffffffffffffffffffffffffffffffffffffffffffffffffff608c018d611f3c565b351614610ca07fffffffffffffffffffffffffffffffffffffffffffffffffffffffffffffff5f8a017fffffffffffffffffffffffffffffffffffffffffffffffffffffffffffffff608b018c611f3c565b608051903560fb1c918061161e575b85600411610151577ffffffffffffffffffffffffffffffffffffffffffffffffffffffffffffffffc8601600c84021161015157610cfa8884600c810260048801883560e01c611f77565b1561147e575b505060147ffffffffffffffffffffffffffffffffffffffffffffffffffffffffffffffffc600c830286030111611201575b505050508585017fffffffffffffffffffffffffffffffffffffffffffffffffffffffffffffff6001905060e08701357f400000000000000000000000000000000000000000000000000000000000000016156111e457358060f01c600281106111ba5760408051602081018c815260109490941b7fffffffffffffffffffffffffffffffffffffffffffffffffffffffffffff00001691810191909152610e1f9290610de281605e810161071a565b519020608051526001602052604060805120906020604051610e0381611acb565b6001845494858352015491829101529460a08a0135908b611dce565b156111905773ffffffffffffffffffffffffffffffffffffffff915b60405198610e488a611ae7565b8952602089015260208601356040890152166060870152606084013560808701528460a08701527fffffffffffffffffffffffffffffffffffffffffffffffffffffffffffffffc0828401013560801c60c08701524260e01b7bffffffffffffffffffffffffffffffffffffffffffffffffffffffff7fffffffffffffffffffffffffffffffffffffffffffffffffffffffffffffffe08486010135161760e087015260408401356080515073ffffffffffffffffffffffffffffffffffffffff81161560001461118a57506020840135905b604051938460a081011067ffffffffffffffff60a0870111176108c1577f0e534c62f0afd2fa0f0fa71198e8aa2d549f24daf2bb47de0d5486c7ce9288ca936101a09360a08701604052865260208601928352604086017fffffffffffffffffffffffffffffffffffffffffffffffffffffffffffffffa0828401013581527fffffffffffffffffffffffffffffffffffffffffffffffffffffffffffffff8060608801926fffffffffffffffffffffffffffffffff7fffffffffffffffffffffffffffffffffffffffffffffffffffffffffffffffc0828701013516845260808901940101358352604051938a51855260208b0151602086015260408b0151604086015260608b0151606086015260808b0151608086015260a08b015160a086015260c08b015160c086015260e08b015160e086015261010097518886015251610120850152516101408401525161016083015251610180820152a18320763d602d80600a3d3981f3363d3d373d3d3d363d730000007f00000000000000000000000000000000000000000000000000000000000000006e5af43d82803e903d91602b57fd5bf36020528060115260881c17600052603760096000f59273ffffffffffffffffffffffffffffffffffffffff8416156103ac5760c0843191015111928315611112575b5050506104375760805180f35b60209293507f70a08231000000000000000000000000000000000000000000000000000000006080515260045260246080519173ffffffffffffffffffffffffffffffffffffffff6060608051920135165afa60805151901560203d101761117d5710818080611105565b6040513d608051823e3d90fd5b90610f1b565b60046040517feab3a174000000000000000000000000000000000000000000000000000000008152fd5b60046040517f10d629d3000000000000000000000000000000000000000000000000000000008152fd5b73ffffffffffffffffffffffffffffffffffffffff925035610e3b565b7fffffffffffffffffffffffffffffffffffffffff000000000000000000000000600c82028381016004013582811694929160149088037ffffffffffffffffffffffffffffffffffffffffffffffffffffffffffffffffc0110611461575b5050600c820285037ffffffffffffffffffffffffffffffffffffffffffffffffffffffffffffffffb8101907ffffffffffffffffffffffffffffffffffffffffffffffffffffffffffffffffc01811161052257601411610151578260601c3b15610151576113f98e60e0938f8f946018916113606040519c8d9b8c9a8b9a7f462ebde2000000000000000000000000000000000000000000000000000000008c52803560048d0152602081013560248d0152604081013560448d0152606081013560648d0152608081013560848d015260a081013560a48d015260c081013560c48d0152013560e48b01526101e06101048b01526101e48a019161201c565b9461012488015273ffffffffffffffffffffffffffffffffffffffff8d166101448801526101648701528d6101848701528c6101a48701527ffffffffffffffffffffffffffffffffffffffffffffffffffffffffffffffffc868503016101c4870152600c7fffffffffffffffffffffffffffffffffffffffffffffffffffffffffffffffe76080519b8286029003019302010161201c565b03916080519060601c5af1801561117d57611418575b80808080610d32565b67ffffffffffffffff8111611430576040528861140f565b7f4e487b71000000000000000000000000000000000000000000000000000000006080515260416004526024608051fd5b600c8402870360140360040160031b82901b161692508e80611260565b42843560e01c118015611553575b6115295761149b575b80610d00565b80156114955773ffffffffffffffffffffffffffffffffffffffff871660805152608051602052604060805120548181106114ff5773ffffffffffffffffffffffffffffffffffffffff88166080515260805160205203604060805120558d611495565b60046040517fa7fd3792000000000000000000000000000000000000000000000000000000008152fd5b60046040517ff25114a6000000000000000000000000000000000000000000000000000000008152fd5b506040517f70a0823100000000000000000000000000000000000000000000000000000000815273ffffffffffffffffffffffffffffffffffffffff8916600482015260208160248173ffffffffffffffffffffffffffffffffffffffff7f0000000000000000000000000000000000000000000000000000000000000000165afa90811561117d57608051916115ec575b501561148c565b90506020813d602011611616575b8161160760209383611b04565b810103126101515751386115e5565b3d91506115fa565b94505090507fffffffffffffffffffffffffffffffffffffffffffffffffffffffffffffff60880160041161015157883560e01c66038d7ea4c680009080828102048214811517156105225761167e8d6116839360a08f01359302611a6f565b611b45565b9060048a01917fffffffffffffffffffffffffffffffffffffffffffffffffffffffffffffff5c8a0194610caf565b60046040517fd25aa106000000000000000000000000000000000000000000000000000000008152fd5b346101515760407ffffffffffffffffffffffffffffffffffffffffffffffffffffffffffffffffc360112610151576117136118f9565b73ffffffffffffffffffffffffffffffffffffffff90817f0000000000000000000000000000000000000000000000000000000000000000163303610a105716608051526080516020526020604060805120602435815401809155604051908152f35b34610151576080517ffffffffffffffffffffffffffffffffffffffffffffffffffffffffffffffffc36011261015157602060405173ffffffffffffffffffffffffffffffffffffffff7f0000000000000000000000000000000000000000000000000000000000000000168152f35b34610151576118056117f7366119c9565b955093505095935050611b7e565b906298968091828402938085048414901517156105225782018092116105225760209260a061183b6104e99460c0850135611a6f565b920135611c47565b34610151576118513661191c565b5050505050505050505073ffffffffffffffffffffffffffffffffffffffff7f000000000000000000000000000000000000000000000000000000000000000016330361189e5760805180f35b807fd25aa1060000000000000000000000000000000000000000000000000000000060049252fd5b9181601f840112156118f45782359167ffffffffffffffff83116118f457602083818601950101116118f457565b600080fd5b6004359073ffffffffffffffffffffffffffffffffffffffff821682036118f457565b7ffffffffffffffffffffffffffffffffffffffffffffffffffffffffffffffffc81016101e081126118f457610100136118f45760049167ffffffffffffffff610104358181116118f45783611974916004016118c6565b9390939261012435926101443573ffffffffffffffffffffffffffffffffffffffff811681036118f45792610164359261018435926101a435926101c4359182116118f4576119c5916004016118c6565b9091565b907ffffffffffffffffffffffffffffffffffffffffffffffffffffffffffffffffc82016101c081126118f457610100136118f45760049167ffffffffffffffff90610104358281116118f45781611a23916004016118c6565b9390939261012435926101443573ffffffffffffffffffffffffffffffffffffffff811681036118f45792610164359261018435926101a4359182116118f4576119c5916004016118c6565b81810292918115918404141715611a8257565b7f4e487b7100000000000000000000000000000000000000000000000000000000600052601160045260246000fd5b91908201809211611a8257565b91908203918211611a8257565b6040810190811067ffffffffffffffff8211176108c157604052565b610100810190811067ffffffffffffffff8211176108c157604052565b90601f7fffffffffffffffffffffffffffffffffffffffffffffffffffffffffffffffe0910116810190811067ffffffffffffffff8211176108c157604052565b8115611b4f570490565b7f4e487b7100000000000000000000000000000000000000000000000000000000600052601260045260246000fd5b90806003116118f457813560e81c816007116118f457600383013560e01c9080158015611c3f575b15611c285750506000915b81600b116118f457600781013560e01c82600e116118f457826011116118f4577fffffffffffffffffffffffffffffffffffffffffffffffffffffffffffffffef611c159301916011810191600b600e83013560e81c92013560e81c810190611d0b565b81811115611c21570390565b5050600090565b620f424091611c38914802611b45565b0491611bb1565b508115611ba6565b91818302917fffffffffffffffffffffffffffffffffffffffffffffffffffffffffffffffff81850993838086109503948086039514611cfb5784831115611cdb579082910981600003821680920460028082600302188083028203028083028203028083028203028083028203028083028203028092029003029360018380600003040190848311900302920304170290565b82611cf45760125b634e487b716000526020526024601cfd5b6011611ce3565b505090611d089250611b45565b90565b9091939281421115600014611d21575050505090565b8293949192421015611dc457849291925b611d485750611d08935082039142900302611b45565b906003908582116118f457823560e81c906005928784116118f45784013560f01c81019485421115611da5575050907ffffffffffffffffffffffffffffffffffffffffffffffffffffffffffffffffb9193920194019384611d32565b925093611d089650809550849193500393429003029142030201611b45565b5050505050600090565b929190611de484611ddf8385611abe565b611ab1565b907fffffffffffffffffffffffffffffffffffffffffffffffffffffffffffffffff91828101908111611a82578361167e86611e1f93611a6f565b948103611e39575050505060028101809111611a82571490565b808303611e54575b5050505060018101809111611a82571490565b611e5e9083611abe565b908101908111611a8257611e759261167e91611a6f565b8114611c215738808080611e41565b91909160208310611efd578035907fffffffffffffffffffffffffffffffffffffffffffffffffffffffffffffffe063ffffffff8360c01c169260e01c94018411611ed3578101602001920390565b7f9605a0100000000000000000000000000000000000000000000000000000000060005260046000fd5b50600091508190565b60559173ffffffffffffffffffffffffffffffffffffffff93600b92604051926040840152602083015281520160ff8153201690565b90821015611f48570190565b7f4e487b7100000000000000000000000000000000000000000000000000000000600052603260045260246000fd5b9192909369ffffffffffffffffffff16926000925b828410611f9e57505050505050600090565b600a908282116118f457600c918383116118f45787013560f01c0195803560b01c8603611fd15750505050505042101590565b95929394954284116120105701949360010192917ffffffffffffffffffffffffffffffffffffffffffffffffffffffffffffffff49190910190611f8c565b50505050505050600090565b601f82602094937fffffffffffffffffffffffffffffffffffffffffffffffffffffffffffffffe093818652868601376000858286010152011601019056fea26469706673582212202f17ae91968c2de07c002c6e349fcfe48881d1d9887927d72c71d0f9e7cdbc8964736f6c6343000817003360c03461013257601f61129338819003918201601f19168301916001600160401b03831184841017610137578084926060946040528339810103126101325780516001600160a01b0380821682036101325760208301519281841690818503610132576040015182811680910361013257801561011957600080546001600160a01b03198116831782556040519416907f8be0079c531659141344cd1fd0a4f28419497f9722a3daafe3b4186f6b6457e09080a31561010a575060a052608052604051611145908161014e82396080518181816102f90152818161091e01528181610dea0152610e75015260a0518181816102c60152818161071301528181610d8c0152610f4e0152f35b63d92e233d60e01b8152600490fd5b604051631e4fbdf760e01b815260006004820152602490fd5b600080fd5b634e487b7160e01b600052604160045260246000fdfe6040608081526004908136101561001557600080fd5b600091823560e01c8063205c2878146108785780632e1a7d4d146108395780632f4f21e2146107f257806332d323a5146107885780635886216f1461068c578063715018a6146105f057806378e3214f1461044e5780638da5cb5b146103f957806397a2cb6414610232578063b6b55f25146101f3578063bfe917341461018a5763f2fde38b146100a557600080fd5b346101865760207ffffffffffffffffffffffffffffffffffffffffffffffffffffffffffffffffc360112610186576100dc6108bf565b906100e5611024565b73ffffffffffffffffffffffffffffffffffffffff8092169283156101575750508254827fffffffffffffffffffffffff00000000000000000000000000000000000000008216178455167f8be0079c531659141344cd1fd0a4f28419497f9722a3daafe3b4186f6b6457e08380a380f35b908460249251917f1e4fbdf7000000000000000000000000000000000000000000000000000000008352820152fd5b8280fd5b5091346101f057817ffffffffffffffffffffffffffffffffffffffffffffffffffffffffffffffffc3601126101f0576024359067ffffffffffffffff82116101f057506020926101e16101e992369083016108e7565b913533610915565b9051908152f35b80fd5b5091346101f05760207ffffffffffffffffffffffffffffffffffffffffffffffffffffffffffffffffc3601126101f057506101e96020923533610e50565b50903461018657602092837ffffffffffffffffffffffffffffffffffffffffffffffffffffffffffffffffc3601126101f057823567ffffffffffffffff80821161018657366023830112156101865781850135908111610186576024943660248360051b850101116103f5579492916102aa611024565b8295839473ffffffffffffffffffffffffffffffffffffffff807f000000000000000000000000000000000000000000000000000000000000000016935b858810610323578a8a8a61031d82337f0000000000000000000000000000000000000000000000000000000000000000611075565b51908152f35b9091929394959698838a60051b830101358381168091036103f15790818c928a5260018084528b8b2054908c51947f5886216f000000000000000000000000000000000000000000000000000000008652838a8701528589818d5afa9283156103e7578f908d946103ab575b600196508d5252818c8c205503019901969594939291906102e8565b94958092939450813d83116103e0575b6103c58183610cda565b810103126103dc57908e600195949392519361038f565b8b80fd5b503d6103bb565b8d513d8e823e3d90fd5b8880fd5b8380fd5b50503461044a57817ffffffffffffffffffffffffffffffffffffffffffffffffffffffffffffffffc36011261044a5773ffffffffffffffffffffffffffffffffffffffff60209254169051908152f35b5080fd5b50903461018657807ffffffffffffffffffffffffffffffffffffffffffffffffffffffffffffffffc36011261018657813573ffffffffffffffffffffffffffffffffffffffff8116908181036105ec57602435916104ab611024565b826104b4578580f35b80159081156105ce575b50156105ba575080471061059357838080809333611388f13d1561058e573d67ffffffffffffffff81116105625782519061052160207fffffffffffffffffffffffffffffffffffffffffffffffffffffffffffffffe0601f8401160183610cda565b81528460203d92013e5b1561053c5750505b38808080808580f35b517fb12d13eb000000000000000000000000000000000000000000000000000000008152fd5b6024856041867f4e487b7100000000000000000000000000000000000000000000000000000000835252fd5b61052b565b50517ff4d678b8000000000000000000000000000000000000000000000000000000008152fd5b9091506105c992503390611075565b610533565b73eeeeeeeeeeeeeeeeeeeeeeeeeeeeeeeeeeeeeeee915014386104be565b8480fd5b83346101f057807ffffffffffffffffffffffffffffffffffffffffffffffffffffffffffffffffc3601126101f057610627611024565b8073ffffffffffffffffffffffffffffffffffffffff81547fffffffffffffffffffffffff000000000000000000000000000000000000000081168355167f8be0079c531659141344cd1fd0a4f28419497f9722a3daafe3b4186f6b6457e08280a380f35b5091903461044a57602092837ffffffffffffffffffffffffffffffffffffffffffffffffffffffffffffffffc36011261018657836106c96108bf565b602473ffffffffffffffffffffffffffffffffffffffff9182865195869485937f5886216f00000000000000000000000000000000000000000000000000000000855216908301527f0000000000000000000000000000000000000000000000000000000000000000165afa92831561077d57809361074b575b505051908152f35b909192508382813d8311610776575b6107648183610cda565b810103126101f0575051903880610743565b503d61075a565b8251903d90823e3d90fd5b50346101865760607ffffffffffffffffffffffffffffffffffffffffffffffffffffffffffffffffc360112610186576107c06108bf565b926044359067ffffffffffffffff82116101f05750926107e86101e9926020953691016108e7565b9160243590610915565b50503461044a57807ffffffffffffffffffffffffffffffffffffffffffffffffffffffffffffffffc36011261044a576020906101e96108306108bf565b60243590610e50565b5091346101f05760207ffffffffffffffffffffffffffffffffffffffffffffffffffffffffffffffffc3601126101f057506101e96020923533610d4a565b50503461044a57807ffffffffffffffffffffffffffffffffffffffffffffffffffffffffffffffffc36011261044a576020906101e96108b66108bf565b60243590610d4a565b6004359073ffffffffffffffffffffffffffffffffffffffff821682036108e257565b600080fd5b9181601f840112156108e25782359167ffffffffffffffff83116108e257602083818601950101116108e257565b604051909391927f0000000000000000000000000000000000000000000000000000000000000000919083600060648214610c22575093600094918286959493604814610b60578060e014610b27578061010014610aec5780606014610a1657610160146109cc578185926004927f9fd5a6cf0000000000000000000000000000000000000000000000000000000086528386013701925af15b156109c0576109bd91610e50565b90565b6040513d6000823e3d90fd5b610164935061016091507f2b67b5700000000000000000000000000000000000000000000000000000000083526004830137826e22d473030f116ddee9f6b43ac78ba35af16109af565b5060209150604090610164947f2b67b570000000000000000000000000000000000000000000000000000000008552336004860152602485015260148160508601377fffffffffffffffffffffffffffffffffffffffffffffffffffffffffffffffff65ffffffffffff9080601484013560e01c0182166064870152601883013560e01c60848701523060a4870152601c83013560e01c011660c485015261010060e4850152816101048501528280820161012486013701610144830137826e22d473030f116ddee9f6b43ac78ba35af16109af565b5084915092610100610104947f8fcbaf0c00000000000000000000000000000000000000000000000000000000855260048501375af16109af565b508491509260e060e4947fd505accf00000000000000000000000000000000000000000000000000000000855260048501375af16109af565b50849150927f7fffffffffffffffffffffffffffffffffffffffffffffffffffffffffffffff610104947f8fcbaf0c00000000000000000000000000000000000000000000000000000000855233600486015230602486015260206008602883013592803560e01c60448901527fffffffffffffffffffffffffffffffffffffffffffffffffffffffffffffffff600482013560e01c016064890152600160848901528360ff1c601b0160a48901520160c48701371660e48401525af16109af565b945050908380937f7fffffffffffffffffffffffffffffffffffffffffffffffffffffffffffffff60e4947fd505accf00000000000000000000000000000000000000000000000000000000855233600486015230602486015260206024604483013592828160448a01377fffffffffffffffffffffffffffffffffffffffffffffffffffffffffffffffff8382013560e01c0160648901528360ff1c601b0160848901520160a48701371660c48401525af16109af565b90601f7fffffffffffffffffffffffffffffffffffffffffffffffffffffffffffffffe0910116810190811067ffffffffffffffff821117610d1b57604052565b7f4e487b7100000000000000000000000000000000000000000000000000000000600052604160045260246000fd5b6040517f85eda2de00000000000000000000000000000000000000000000000000000000815233600482015260248101839052600093929091602083604481887f000000000000000000000000000000000000000000000000000000000000000073ffffffffffffffffffffffffffffffffffffffff165af1928315610e45578593610e10575b506040610e0e93953381526001602052208281540390557f0000000000000000000000000000000000000000000000000000000000000000611075565b565b92506020833d602011610e3d575b81610e2b60209383610cda565b810103126105ec579151916040610dd1565b3d9150610e1e565b6040513d87823e3d90fd5b73ffffffffffffffffffffffffffffffffffffffff91828216908115610ffa576064937f00000000000000000000000000000000000000000000000000000000000000006000604051907f23b872dd000000000000000000000000000000000000000000000000000000008252336004830152306024830152846044830152602097889282855af19081610fd7575b5015610fad576000928352600185526040808420805484019055517f3ee5ef1f00000000000000000000000000000000000000000000000000000000815273ffffffffffffffffffffffffffffffffffffffff94909416600485015260248401919091528391839160449183917f0000000000000000000000000000000000000000000000000000000000000000165af19182156109c057600092610f8357505090565b90809250813d8311610fa6575b610f9a8183610cda565b810103126108e2575190565b503d610f90565b60046040517ff4059071000000000000000000000000000000000000000000000000000000008152fd5b90503d15610ff25750600160005114601f3d11165b38610edf565b3b1515610fec565b60046040517fd92e233d000000000000000000000000000000000000000000000000000000008152fd5b73ffffffffffffffffffffffffffffffffffffffff60005416330361104557565b60246040517f118cdaa7000000000000000000000000000000000000000000000000000000008152336004820152fd5b916044602092600092604051917fa9059cbb0000000000000000000000000000000000000000000000000000000083526004830152602482015282855af190816110ec575b50156110c257565b60046040517ffb7f5079000000000000000000000000000000000000000000000000000000008152fd5b90503d156111075750600160005114601f3d11165b386110ba565b3b151561110156fea2646970667358221220552a3a83b37e5067be598c508f5e5724e322070b2fbdd787200276b277eaf18c64736f6c6343000817003360e0346100ed57601f610b4538819003918201601f19168301916001600160401b038311848410176100f2578084926020946040528339810103126100ed575163ffffffff81168091036100ed573360a0526080526e5af43d82803e903d91602b57fd5bf360205230601152763d602d80600a3d3981f3363d3d373d3d3d363d730000003060881c17600052603760092060c052604051610a3c9081610109823960805181818160a80152610366015260a05181818161016101528181610330015281816104ee01526106c0015260c051818181610137015281816103060152818161047f01526106960152f35b600080fd5b634e487b7160e01b600052604160045260246000fdfe608060408181526004918236101561001657600080fd5b60009260e08435811c9283630af97558146105a15750826323305703146105125782632dd31000146104a257826334862b6a146104485782634649088b146102625750816390d3252f146100cf575063f56cd69c1461007457600080fd5b346100cb57817ffffffffffffffffffffffffffffffffffffffffffffffffffffffffffffffffc3601126100cb57602090517f00000000000000000000000000000000000000000000000000000000000000008152f35b5080fd5b8383346100cb57610100807ffffffffffffffffffffffffffffffffffffffffffffffffffffffffffffffffc36011261025e5773ffffffffffffffffffffffffffffffffffffffff91826064351691823303610236576055600b85928451818a8237208451907f00000000000000000000000000000000000000000000000000000000000000008683015260208201527f000000000000000000000000000000000000000000000000000000000000000081520160ff81532016300361020e5761019a60e435610816565b42106101e65750906101b39160a43591608435166108f7565b6101bf60c43533610929565b7f6e3be9294e58d10b9c8053cfd5e09871b67e442fe394d6b0870d336b9df984a98180a180f35b8490517f6f7eac26000000000000000000000000000000000000000000000000000000008152fd5b8490517fa269484a000000000000000000000000000000000000000000000000000000008152fd5b8582517f48f5c3ed000000000000000000000000000000000000000000000000000000008152fd5b8280fd5b8385913461025e576101407ffffffffffffffffffffffffffffffffffffffffffffffffffffffffffffffffc36011261025e5783359373ffffffffffffffffffffffffffffffffffffffff90818616928387036104445760243592610100807fffffffffffffffffffffffffffffffffffffffffffffffffffffffffffffffbc360112610440578160a43516330361041857600b60559188518160448237208851907f00000000000000000000000000000000000000000000000000000000000000008a83015260208201527f000000000000000000000000000000000000000000000000000000000000000081520160ff8153201630036103f05761012435901c7f00000000000000000000000000000000000000000000000000000000000000000142106103c957506103bb817fc4474c2790e13695f6d2b6f1d8e164290b55370f87a542fd7711abe0a1bf40ac959633906108f7565b82519182526020820152a180f35b83517f6f7eac26000000000000000000000000000000000000000000000000000000008152fd5b5083517fa269484a000000000000000000000000000000000000000000000000000000008152fd5b8387517f48f5c3ed000000000000000000000000000000000000000000000000000000008152fd5b8780fd5b8580fd5b505050346100cb57817ffffffffffffffffffffffffffffffffffffffffffffffffffffffffffffffffc3601126100cb57602090517f00000000000000000000000000000000000000000000000000000000000000008152f35b505050346100cb57817ffffffffffffffffffffffffffffffffffffffffffffffffffffffffffffffffc3601126100cb576020905173ffffffffffffffffffffffffffffffffffffffff7f0000000000000000000000000000000000000000000000000000000000000000168152f35b8385913461025e5761052336610606565b92909173ffffffffffffffffffffffffffffffffffffffff60608501351633036102365763ffffffff8185013580921c9160801c1681018091116105755742106101e65750906105729161066a565b80f35b6024856011887f4e487b7100000000000000000000000000000000000000000000000000000000835252fd5b85913461025e576105b136610606565b92909163ffffffff8185013580921c9160a01c1681018091116105755742106105df5750906105729161066a565b807f6f7eac2600000000000000000000000000000000000000000000000000000000869252fd5b906101207ffffffffffffffffffffffffffffffffffffffffffffffffffffffffffffffffc830112610665576101007fffffffffffffffffffffffffffffffffffffffffffffffffffffffffffffffdc60043593011261066557602490565b600080fd5b9061067860e0820135610816565b4210156107ec576040906055600b83516101009081858237208451907f00000000000000000000000000000000000000000000000000000000000000008683015260208201527f000000000000000000000000000000000000000000000000000000000000000081520160ff81532073ffffffffffffffffffffffffffffffffffffffff90811630036107c3576000908482526020822060208401350361079a5760c083602095938361077d9460807f0ce781a18c10c8289803c7c4cfd532d797113c4b41c9701ffad7d0a632ac555b9a9801351690868401351690801560001461078457508180809260a0860135905af15061077361085f565b505b013533610929565b51908152a1565b90610795925060a08401359161096c565b610775565b600484517fabab6bd7000000000000000000000000000000000000000000000000000000008152fd5b600483517fa269484a000000000000000000000000000000000000000000000000000000008152fd5b60046040517f6f7eac26000000000000000000000000000000000000000000000000000000008152fd5b63ffffffff8160e01c9160c01c1681018091116108305790565b7f4e487b7100000000000000000000000000000000000000000000000000000000600052601160045260246000fd5b3d156108f25767ffffffffffffffff903d8281116108c35760405192601f82017fffffffffffffffffffffffffffffffffffffffffffffffffffffffffffffffe0908116603f01168401908111848210176108c35760405282523d6000602084013e565b7f4e487b7100000000000000000000000000000000000000000000000000000000600052604160045260246000fd5b606090565b73ffffffffffffffffffffffffffffffffffffffff169190826109205761091e9250610929565b565b61091e9261096c565b600080809381935af161093a61085f565b501561094257565b60046040517f8a0332d5000000000000000000000000000000000000000000000000000000008152fd5b916044602092600092604051917fa9059cbb0000000000000000000000000000000000000000000000000000000083526004830152602482015282855af190816109e3575b50156109b957565b60046040517ffb7f5079000000000000000000000000000000000000000000000000000000008152fd5b90503d156109fe5750600160005114601f3d11165b386109b1565b3b15156109f856fea26469706673582212201c4d019757ef2af9a0c9244570f1ac8b0712f3879d83227aa766537895b8446164736f6c6343000817003360e0346100ed57601f610e0a38819003918201601f19168301916001600160401b038311848410176100f2578084926020946040528339810103126100ed575163ffffffff81168091036100ed573360a0526080526e5af43d82803e903d91602b57fd5bf360205230601152763d602d80600a3d3981f3363d3d373d3d3d363d730000003060881c17600052603760092060c052604051610d019081610109823960805181818160be01526104f9015260a05181818161066e015281816109cd01528181610a7e0152610b04015260c0518181816105ff015281816109a201528181610a530152610ad90152f35b600080fd5b634e487b7160e01b600052604160045260246000fdfe608060408181526004918236101561001657600080fd5b60009260e08435811c9283630af97558146107795750826323305703146106925782632dd310001461062257826334862b6a146105c85782634649088b1461045a5782636c10c0c8146102a457826390d3252f146101f5578263daff233e146100e557505063f56cd69c1461008a57600080fd5b346100e157817ffffffffffffffffffffffffffffffffffffffffffffffffffffffffffffffffc3601126100e157602090517f00000000000000000000000000000000000000000000000000000000000000008152f35b5080fd5b90929150346101f1576101007ffffffffffffffffffffffffffffffffffffffffffffffffffffffffffffffffc3601126101f15763ffffffff60e43580921c9160601c1681018091116101c557421061019f5782610141610a27565b61016c73ffffffffffffffffffffffffffffffffffffffff60a4359080604435169060843516610b34565b61017860c43533610bce565b7f6e3be9294e58d10b9c8053cfd5e09871b67e442fe394d6b0870d336b9df984a98180a180f35b517f6f7eac26000000000000000000000000000000000000000000000000000000008152fd5b6024846011857f4e487b7100000000000000000000000000000000000000000000000000000000835252fd5b8380fd5b509050346102a0576101007ffffffffffffffffffffffffffffffffffffffffffffffffffffffffffffffffc3601126102a05773ffffffffffffffffffffffffffffffffffffffff918260643516330361027a5761025460e435610916565b421061019f578361016c84610267610a27565b60a4359080604435169060843516610b34565b517f48f5c3ed000000000000000000000000000000000000000000000000000000008152fd5b8280fd5b848285346102a0576101407ffffffffffffffffffffffffffffffffffffffffffffffffffffffffffffffffc3601126102a05781359160243573ffffffffffffffffffffffffffffffffffffffff918282168203610456576101007fffffffffffffffffffffffffffffffffffffffffffffffffffffffffffffffbc360112610456578260a43516330361042f576101243561033f8161095f565b42106104075761034e90610916565b4210156103e05761035d610976565b84865260208620606435036103b95750916103a47f0ce781a18c10c8289803c7c4cfd532d797113c4b41c9701ffad7d0a632ac555b949260209460e4359160c43516610b34565b6103b16101043533610bce565b51908152a180f35b83517fabab6bd7000000000000000000000000000000000000000000000000000000008152fd5b83517f6f7eac26000000000000000000000000000000000000000000000000000000008152fd5b5083517f6f7eac26000000000000000000000000000000000000000000000000000000008152fd5b83517f48f5c3ed000000000000000000000000000000000000000000000000000000008152fd5b8580fd5b838591346102a0576101407ffffffffffffffffffffffffffffffffffffffffffffffffffffffffffffffffc3601126102a05783359073ffffffffffffffffffffffffffffffffffffffff908183168093036105c457602435916101007fffffffffffffffffffffffffffffffffffffffffffffffffffffffffffffffbc3601126104565760a43516330361059c576104f1610976565b61012435901c7f0000000000000000000000000000000000000000000000000000000000000000014210610574577fc4474c2790e13695f6d2b6f1d8e164290b55370f87a542fd7711abe0a1bf40ac9394508115600014610564576105568133610bce565b82519182526020820152a180f35b61056f813384610b34565b610556565b8483517f6f7eac26000000000000000000000000000000000000000000000000000000008152fd5b8584517f48f5c3ed000000000000000000000000000000000000000000000000000000008152fd5b8480fd5b505050346100e157817ffffffffffffffffffffffffffffffffffffffffffffffffffffffffffffffffc3601126100e157602090517f00000000000000000000000000000000000000000000000000000000000000008152f35b505050346100e157817ffffffffffffffffffffffffffffffffffffffffffffffffffffffffffffffffc3601126100e1576020905173ffffffffffffffffffffffffffffffffffffffff7f0000000000000000000000000000000000000000000000000000000000000000168152f35b90929150346101f1576106a4366108b2565b91909373ffffffffffffffffffffffffffffffffffffffff91826060850135163303610751578301356106d68161095f565b4210610407576106e590610916565b4210156103e0576106f583610aae565b848652602086206020840135036103b95750916103b160c08361074960209660a07f0ce781a18c10c8289803c7c4cfd532d797113c4b41c9701ffad7d0a632ac555b99970135903390608085013516610b34565b013533610bce565b5083517f48f5c3ed000000000000000000000000000000000000000000000000000000008152fd5b93925090346105c45761078b366108b2565b9290948184013580921c63ffffffff8360201c16810180911161088657421061085f57506107b890610916565b4210156108385773ffffffffffffffffffffffffffffffffffffffff906107de83610aae565b848652602086206020840135036103b95750916103b160c08361074960209660a07f0ce781a18c10c8289803c7c4cfd532d797113c4b41c9701ffad7d0a632ac555b99970135908060608501351690608085013516610b34565b82517f6f7eac26000000000000000000000000000000000000000000000000000000008152fd5b90507f6f7eac26000000000000000000000000000000000000000000000000000000008152fd5b6024886011867f4e487b7100000000000000000000000000000000000000000000000000000000835252fd5b906101207ffffffffffffffffffffffffffffffffffffffffffffffffffffffffffffffffc830112610911576101007fffffffffffffffffffffffffffffffffffffffffffffffffffffffffffffffdc60043593011261091157602490565b600080fd5b63ffffffff8160e01c9160401c1681018091116109305790565b7f4e487b7100000000000000000000000000000000000000000000000000000000600052601160045260246000fd5b63ffffffff8160e01c911681018091116109305790565b73ffffffffffffffffffffffffffffffffffffffff6055600b60405161010090816044823720604051907f0000000000000000000000000000000000000000000000000000000000000000604083015260208201527f000000000000000000000000000000000000000000000000000000000000000081520160ff8153201630036109fd57565b60046040517fa269484a000000000000000000000000000000000000000000000000000000008152fd5b73ffffffffffffffffffffffffffffffffffffffff6055600b60405161010090816004823720604051907f0000000000000000000000000000000000000000000000000000000000000000604083015260208201527f000000000000000000000000000000000000000000000000000000000000000081520160ff8153201630036109fd57565b6055600b73ffffffffffffffffffffffffffffffffffffffff926040516101008092823720604051907f0000000000000000000000000000000000000000000000000000000000000000604083015260208201527f000000000000000000000000000000000000000000000000000000000000000081520160ff8153201630036109fd57565b916044602092600092604051917fa9059cbb0000000000000000000000000000000000000000000000000000000083526004830152602482015282855af19081610bab575b5015610b8157565b60046040517ffb7f5079000000000000000000000000000000000000000000000000000000008152fd5b90503d15610bc65750600160005114601f3d11165b38610b79565b3b1515610bc0565b60008080809481945af1903d15610cc55767ffffffffffffffff903d828111610c985760405192601f82017fffffffffffffffffffffffffffffffffffffffffffffffffffffffffffffffe0908116603f0116840190811184821017610c6b57604052825260203d92013e5b15610c4157565b60046040517f8a0332d5000000000000000000000000000000000000000000000000000000008152fd5b6024837f4e487b710000000000000000000000000000000000000000000000000000000081526041600452fd5b6024827f4e487b710000000000000000000000000000000000000000000000000000000081526041600452fd5b50610c3a56fea26469706673582212205de98340a55562d97fa0fa479d70183ffd893bc618f5d3b0d8aaa9f73c56b74764736f6c63430008170033","opcodes":"PUSH2 0x180 CALLVALUE PUSH3 0x2C4 JUMPI PUSH1 0x1 PUSH1 0x1 PUSH1 0x40 SHL SUB PUSH1 0x1F PUSH3 0x4F64 CODESIZE DUP2 SWAP1 SUB SWAP2 DUP3 ADD PUSH1 0x1F NOT AND DUP5 ADD SWAP2 SWAP1 DUP4 DUP4 GT DUP6 DUP5 LT OR PUSH3 0x2AE JUMPI DUP2 PUSH1 0xC0 SWAP3 DUP7 SWAP3 PUSH1 0x40 SWAP6 DUP7 MSTORE DUP4 CODECOPY DUP2 ADD SUB SLT PUSH3 0x2C4 JUMPI PUSH3 0x52 DUP4 PUSH3 0x2C9 JUMP JUMPDEST PUSH3 0x60 PUSH1 0x20 DUP6 ADD PUSH3 0x2C9 JUMP JUMPDEST SWAP3 PUSH3 0x6E DUP4 DUP7 ADD PUSH3 0x2C9 JUMP JUMPDEST SWAP1 PUSH3 0x7D PUSH1 0x60 DUP8 ADD PUSH3 0x2C9 JUMP JUMPDEST SWAP3 PUSH3 0x9A PUSH1 0xA0 PUSH3 0x92 PUSH1 0x80 DUP11 ADD PUSH3 0x2DE JUMP JUMPDEST SWAP9 ADD PUSH3 0x2DE JUMP JUMPDEST SWAP3 DUP2 PUSH1 0x80 MSTORE DUP6 MLOAD PUSH2 0x1293 SWAP8 DUP9 DUP3 ADD SWAP9 DUP3 DUP11 LT DUP7 DUP12 GT OR PUSH3 0x2AE JUMPI PUSH3 0x2382 DUP4 CODECOPY ADDRESS DUP10 MSTORE PUSH1 0x1 PUSH1 0x1 PUSH1 0xA0 SHL SUB SWAP1 DUP2 AND PUSH1 0x20 DUP11 ADD MSTORE SWAP6 DUP7 AND DUP8 DUP10 ADD MSTORE PUSH1 0x0 SWAP8 DUP2 SWAP1 SUB PUSH1 0x60 ADD SWAP1 DUP9 CREATE DUP1 ISZERO PUSH3 0x2A4 JUMPI DUP6 AND PUSH1 0xA0 MSTORE PUSH1 0xC0 MSTORE PUSH1 0xE0 MSTORE DUP4 MLOAD PUSH2 0xE0A DUP1 DUP3 ADD SWAP1 DUP3 DUP3 LT DUP5 DUP4 GT OR PUSH3 0x286 JUMPI PUSH1 0x20 SWAP2 DUP4 SWAP2 PUSH3 0x415A DUP4 CODECOPY PUSH4 0xFFFFFFFF DUP1 SWAP11 AND DUP2 MSTORE SUB ADD SWAP1 DUP7 CREATE SWAP6 DUP7 ISZERO PUSH3 0x29A JUMPI DUP4 PUSH2 0x100 SWAP8 AND DUP8 MSTORE DUP5 MLOAD SWAP3 PUSH2 0xB45 DUP1 DUP6 ADD SWAP4 DUP6 DUP6 LT SWAP1 DUP6 GT OR PUSH3 0x286 JUMPI SWAP2 PUSH1 0x20 SWAP4 SWAP2 DUP6 SWAP4 PUSH3 0x3615 DUP6 CODECOPY AND DUP2 MSTORE SUB ADD SWAP1 DUP5 CREATE SWAP3 DUP4 ISZERO PUSH3 0x27B JUMPI POP DUP1 PUSH2 0x120 SWAP4 AND DUP4 MSTORE PUSH3 0x202 PUSH3 0x1B9 DUP3 DUP7 MLOAD AND PUSH23 0x3D602D80600A3D3981F3363D3D373D3D3D363D73000000 SWAP1 PUSH15 0x5AF43D82803E903D91602B57FD5BF3 PUSH1 0x20 MSTORE DUP1 PUSH1 0x11 MSTORE PUSH1 0x88 SHR OR PUSH1 0x0 MSTORE PUSH1 0x37 PUSH1 0x9 KECCAK256 SWAP1 JUMP JUMPDEST SWAP2 PUSH2 0x140 SWAP3 DUP4 MSTORE DUP5 MLOAD AND PUSH23 0x3D602D80600A3D3981F3363D3D373D3D3D363D73000000 SWAP1 PUSH15 0x5AF43D82803E903D91602B57FD5BF3 PUSH1 0x20 MSTORE DUP1 PUSH1 0x11 MSTORE PUSH1 0x88 SHR OR PUSH1 0x0 MSTORE PUSH1 0x37 PUSH1 0x9 KECCAK256 SWAP1 JUMP JUMPDEST SWAP2 PUSH2 0x160 SWAP3 DUP4 MSTORE MLOAD SWAP3 PUSH2 0x2091 SWAP5 DUP6 PUSH3 0x2F1 DUP7 CODECOPY PUSH1 0x80 MLOAD DUP6 DUP2 DUP2 PUSH2 0xB40 ADD MSTORE PUSH2 0x1872 ADD MSTORE PUSH1 0xA0 MLOAD DUP6 DUP2 DUP2 PUSH2 0x9BF ADD MSTORE DUP2 DUP2 PUSH2 0x172C ADD MSTORE PUSH2 0x17C2 ADD MSTORE PUSH1 0xC0 MLOAD DUP6 PUSH2 0x15B3 ADD MSTORE PUSH1 0xE0 MLOAD DUP6 PUSH2 0x65A ADD MSTORE MLOAD DUP5 DUP2 DUP2 PUSH2 0xA86 ADD MSTORE PUSH2 0x1094 ADD MSTORE MLOAD DUP4 DUP2 DUP2 PUSH2 0x24E ADD MSTORE PUSH2 0x608 ADD MSTORE MLOAD DUP3 PUSH2 0x10E ADD MSTORE MLOAD DUP2 PUSH2 0x597 ADD MSTORE RETURN JUMPDEST DUP3 MLOAD SWAP1 RETURNDATASIZE SWAP1 DUP3 RETURNDATACOPY RETURNDATASIZE SWAP1 REVERT JUMPDEST PUSH4 0x4E487B71 PUSH1 0xE0 SHL DUP9 MSTORE PUSH1 0x41 PUSH1 0x4 MSTORE PUSH1 0x24 DUP9 REVERT JUMPDEST DUP5 MLOAD RETURNDATASIZE DUP8 DUP3 RETURNDATACOPY RETURNDATASIZE SWAP1 REVERT JUMPDEST DUP7 MLOAD RETURNDATASIZE DUP10 DUP3 RETURNDATACOPY RETURNDATASIZE SWAP1 REVERT JUMPDEST PUSH4 0x4E487B71 PUSH1 0xE0 SHL PUSH1 0x0 MSTORE PUSH1 0x41 PUSH1 0x4 MSTORE PUSH1 0x24 PUSH1 0x0 REVERT JUMPDEST PUSH1 0x0 DUP1 REVERT JUMPDEST MLOAD SWAP1 PUSH1 0x1 PUSH1 0x1 PUSH1 0xA0 SHL SUB DUP3 AND DUP3 SUB PUSH3 0x2C4 JUMPI JUMP JUMPDEST MLOAD SWAP1 PUSH4 0xFFFFFFFF DUP3 AND DUP3 SUB PUSH3 0x2C4 JUMPI JUMP INVALID PUSH1 0xA0 DUP1 PUSH1 0x40 MSTORE PUSH1 0x4 CALLDATASIZE LT ISZERO PUSH2 0x13 JUMPI PUSH1 0x0 DUP1 REVERT JUMPDEST PUSH1 0x0 PUSH1 0x80 MSTORE PUSH1 0x80 MLOAD CALLDATALOAD PUSH1 0xE0 SHR SWAP1 DUP2 PUSH4 0x986BDD5 EQ PUSH2 0x1843 JUMPI POP DUP1 PUSH4 0x1D9671C3 EQ PUSH2 0x17E6 JUMPI DUP1 PUSH4 0x2CE26AEB EQ PUSH2 0x1776 JUMPI DUP1 PUSH4 0x3EE5EF1F EQ PUSH2 0x16DC JUMPI DUP1 PUSH4 0x462EBDE2 EQ PUSH2 0xB12 JUMPI DUP1 PUSH4 0x5886216F EQ PUSH2 0xAAA JUMPI DUP1 PUSH4 0x7040F173 EQ PUSH2 0xA3A JUMPI DUP1 PUSH4 0x85EDA2DE EQ PUSH2 0x96F JUMPI DUP1 PUSH4 0xACF4CE5C EQ PUSH2 0x91A JUMPI DUP1 PUSH4 0xADF38BA1 EQ PUSH2 0x62C JUMPI DUP1 PUSH4 0xBA551177 EQ PUSH2 0x5BC JUMPI DUP1 PUSH4 0xBE58E91C EQ PUSH2 0x553 JUMPI DUP1 PUSH4 0xD7FF8A80 EQ PUSH2 0x473 JUMPI DUP1 PUSH4 0xDEA024E4 EQ PUSH2 0x157 JUMPI PUSH4 0xFB6BD47E EQ PUSH2 0xCA JUMPI PUSH1 0x0 DUP1 REVERT JUMPDEST CALLVALUE PUSH2 0x151 JUMPI PUSH2 0x100 DUP1 PUSH32 0xFFFFFFFFFFFFFFFFFFFFFFFFFFFFFFFFFFFFFFFFFFFFFFFFFFFFFFFFFFFFFFFC CALLDATASIZE ADD SLT PUSH2 0x151 JUMPI PUSH2 0x133 PUSH1 0x20 SWAP2 PUSH1 0x40 MLOAD DUP2 PUSH1 0x4 DUP3 CALLDATACOPY KECCAK256 ADDRESS SWAP1 PUSH32 0x0 SWAP1 PUSH2 0x1F06 JUMP JUMPDEST PUSH20 0xFFFFFFFFFFFFFFFFFFFFFFFFFFFFFFFFFFFFFFFF PUSH1 0x40 MLOAD SWAP2 AND DUP2 MSTORE RETURN JUMPDEST PUSH1 0x80 MLOAD DUP1 REVERT JUMPDEST PUSH32 0xFFFFFFFFFFFFFFFFFFFFFFFFFFFFFFFFFFFFFFFFFFFFFFFFFFFFFFFFFFFFFFFC CALLDATASIZE ADD PUSH2 0x120 DUP2 SLT PUSH2 0x151 JUMPI PUSH2 0x100 DUP1 SWAP2 SLT PUSH2 0x151 JUMPI PUSH1 0x84 CALLDATALOAD SWAP1 PUSH20 0xFFFFFFFFFFFFFFFFFFFFFFFFFFFFFFFFFFFFFFFF DUP1 DUP4 AND DUP1 ISZERO SWAP3 SWAP2 PUSH1 0xC4 CALLDATALOAD DUP1 DUP6 PUSH2 0x461 JUMPI JUMPDEST CALLVALUE SUB PUSH2 0x437 JUMPI PUSH1 0x40 MLOAD SWAP4 PUSH2 0x1CA DUP6 PUSH2 0x1AE7 JUMP JUMPDEST PUSH1 0x4 CALLDATALOAD DUP6 MSTORE PUSH1 0x24 CALLDATALOAD SWAP5 DUP6 PUSH1 0x20 DUP3 ADD MSTORE PUSH1 0x44 CALLDATALOAD PUSH1 0x40 DUP3 ADD MSTORE PUSH1 0x64 CALLDATALOAD SWAP8 DUP9 PUSH1 0x60 DUP4 ADD MSTORE PUSH1 0x80 DUP3 ADD MSTORE PUSH1 0xA0 DUP2 ADD SWAP3 PUSH1 0xA4 CALLDATALOAD DUP5 MSTORE PUSH1 0xC0 DUP3 ADD MSTORE TIMESTAMP PUSH1 0xE0 SHL PUSH28 0xFFFFFFFFFFFFFFFFFFFFFFFFFFFFFFFFFFFFFFFFFFFFFFFFFFFFFFFF PUSH1 0xE4 CALLDATALOAD AND OR DUP1 PUSH1 0xE0 DUP4 ADD MSTORE PUSH2 0x246 PUSH2 0x104 CALLDATALOAD SWAP2 PUSH4 0xFFFFFFFF DUP2 PUSH1 0xC0 SHR AND SWAP1 PUSH1 0xE0 SHR PUSH2 0x1AB1 JUMP JUMPDEST GT PUSH2 0x40D JUMPI KECCAK256 PUSH32 0x0 CALLVALUE SELFBALANCE LT PUSH2 0x3D6 JUMPI PUSH23 0x3D602D80600A3D3981F3363D3D373D3D3D363D73000000 SWAP1 PUSH15 0x5AF43D82803E903D91602B57FD5BF3 PUSH1 0x20 MSTORE DUP1 PUSH1 0x11 MSTORE PUSH1 0x88 SHR OR PUSH1 0x0 MSTORE PUSH1 0x37 PUSH1 0x9 CALLVALUE CREATE2 SWAP2 DUP3 AND SWAP5 DUP6 ISZERO PUSH2 0x3AC JUMPI ISZERO PUSH2 0x2FE JUMPI JUMPDEST PUSH32 0xC30E111DCC74FDDC2C3A4D98FFB97ADEC4485C0A687946BF5B22C2A99C7FF96D PUSH1 0x60 DUP7 DUP9 DUP8 PUSH1 0x40 MLOAD SWAP3 DUP4 MSTORE PUSH1 0x20 DUP4 ADD MSTORE PUSH1 0x40 DUP3 ADD MSTORE LOG1 PUSH1 0x80 MLOAD DUP1 RETURN JUMPDEST MLOAD PUSH1 0x40 MLOAD PUSH32 0x23B872DD00000000000000000000000000000000000000000000000000000000 DUP2 MSTORE CALLER PUSH1 0x4 DUP3 ADD MSTORE PUSH1 0x24 DUP2 ADD SWAP3 SWAP1 SWAP3 MSTORE PUSH1 0x44 DUP3 ADD MSTORE PUSH1 0x80 MLOAD SWAP3 SWAP4 SWAP3 PUSH1 0x20 SWAP2 PUSH1 0x64 SWAP1 DUP3 DUP6 GAS CALL SWAP1 DUP2 PUSH2 0x388 JUMPI JUMPDEST POP ISZERO PUSH2 0x35E JUMPI SWAP1 DUP4 DUP1 DUP1 PUSH2 0x2C1 JUMP JUMPDEST PUSH1 0x4 PUSH1 0x40 MLOAD PUSH32 0xF405907100000000000000000000000000000000000000000000000000000000 DUP2 MSTORE REVERT JUMPDEST SWAP1 POP RETURNDATASIZE ISZERO PUSH2 0x3A4 JUMPI POP PUSH1 0x1 PUSH1 0x80 MLOAD MLOAD EQ PUSH1 0x1F RETURNDATASIZE GT AND JUMPDEST DUP5 PUSH2 0x34F JUMP JUMPDEST EXTCODESIZE ISZERO ISZERO PUSH2 0x39E JUMP JUMPDEST PUSH1 0x4 PUSH1 0x40 MLOAD PUSH32 0xB06EBF3D00000000000000000000000000000000000000000000000000000000 DUP2 MSTORE REVERT JUMPDEST PUSH1 0x44 SELFBALANCE PUSH1 0x40 MLOAD SWAP1 PUSH32 0xCF47918100000000000000000000000000000000000000000000000000000000 DUP3 MSTORE PUSH1 0x4 DUP3 ADD MSTORE CALLVALUE PUSH1 0x24 DUP3 ADD MSTORE REVERT JUMPDEST PUSH1 0x4 PUSH1 0x40 MLOAD PUSH32 0xF4840E9600000000000000000000000000000000000000000000000000000000 DUP2 MSTORE REVERT JUMPDEST PUSH1 0x4 PUSH1 0x40 MLOAD PUSH32 0x34F5151D00000000000000000000000000000000000000000000000000000000 DUP2 MSTORE REVERT JUMPDEST PUSH2 0x46E SWAP1 PUSH1 0xA4 CALLDATALOAD SWAP1 PUSH2 0x1AB1 JUMP JUMPDEST PUSH2 0x1B7 JUMP JUMPDEST CALLVALUE PUSH2 0x151 JUMPI PUSH2 0x493 PUSH2 0x484 CALLDATASIZE PUSH2 0x19C9 JUMP JUMPDEST SWAP6 POP SWAP4 POP POP SWAP5 SWAP6 SWAP4 POP POP PUSH2 0x1B7E JUMP JUMPDEST PUSH1 0xC0 DUP4 ADD CALLDATALOAD SWAP2 PUSH3 0x989680 SWAP2 DUP3 ADD SWAP1 DUP2 DUP4 GT PUSH2 0x522 JUMPI PUSH1 0xA0 SWAP2 PUSH2 0x4B4 SWAP2 PUSH2 0x1A6F JUMP JUMPDEST SWAP4 ADD CALLDATALOAD DUP2 DUP2 MUL SWAP2 DUP2 DUP4 DIV EQ SWAP1 ISZERO OR ISZERO PUSH2 0x522 JUMPI PUSH2 0x4D2 DUP2 DUP5 DUP5 PUSH2 0x1C47 JUMP JUMPDEST SWAP1 DUP1 ISZERO PUSH2 0x4F1 JUMPI PUSH1 0x20 SWAP4 PUSH2 0x4E9 SWAP4 MULMOD ISZERO ISZERO SWAP1 PUSH2 0x1AB1 JUMP JUMPDEST PUSH1 0x40 MLOAD SWAP1 DUP2 MSTORE RETURN JUMPDEST PUSH32 0x4E487B7100000000000000000000000000000000000000000000000000000000 PUSH1 0x80 MLOAD MSTORE PUSH1 0x12 PUSH1 0x4 MSTORE PUSH1 0x24 PUSH1 0x80 MLOAD REVERT JUMPDEST PUSH32 0x4E487B7100000000000000000000000000000000000000000000000000000000 PUSH1 0x80 MLOAD MSTORE PUSH1 0x11 PUSH1 0x4 MSTORE PUSH1 0x24 PUSH1 0x80 MLOAD REVERT JUMPDEST CALLVALUE PUSH2 0x151 JUMPI PUSH2 0x100 DUP1 PUSH32 0xFFFFFFFFFFFFFFFFFFFFFFFFFFFFFFFFFFFFFFFFFFFFFFFFFFFFFFFFFFFFFFFC CALLDATASIZE ADD SLT PUSH2 0x151 JUMPI PUSH2 0x133 PUSH1 0x20 SWAP2 PUSH1 0x40 MLOAD DUP2 PUSH1 0x4 DUP3 CALLDATACOPY KECCAK256 ADDRESS SWAP1 PUSH32 0x0 SWAP1 PUSH2 0x1F06 JUMP JUMPDEST CALLVALUE PUSH2 0x151 JUMPI PUSH1 0x80 MLOAD PUSH32 0xFFFFFFFFFFFFFFFFFFFFFFFFFFFFFFFFFFFFFFFFFFFFFFFFFFFFFFFFFFFFFFFC CALLDATASIZE ADD SLT PUSH2 0x151 JUMPI PUSH1 0x20 PUSH1 0x40 MLOAD PUSH20 0xFFFFFFFFFFFFFFFFFFFFFFFFFFFFFFFFFFFFFFFF PUSH32 0x0 AND DUP2 MSTORE RETURN JUMPDEST CALLVALUE PUSH2 0x151 JUMPI PUSH2 0x63A CALLDATASIZE PUSH2 0x191C JUMP JUMPDEST POP SWAP8 POP POP POP POP POP SWAP2 SWAP1 PUSH20 0xFFFFFFFFFFFFFFFFFFFFFFFFFFFFFFFFFFFFFFFF PUSH32 0x0 AND CALLER SUB PUSH2 0x8F0 JUMPI PUSH2 0x689 SWAP2 PUSH2 0x1E84 JUMP JUMPDEST SWAP1 PUSH32 0xFFFFFFFFFFFFFFFFFFFFFFFFFFFFFFFFFFFFFFFFFFFFFFFFFFFFFFFFFFFFFF60 PUSH30 0xFFFFFFFFFFFFFFFFFFFFFFFFFFFFFFFFFFFFFFFFFFFFFFFFFFFFFFFFFFFF SWAP3 DUP4 SWAP3 ADD ADD CALLDATALOAD AND PUSH1 0x40 MLOAD SWAP3 PUSH1 0x20 SWAP4 PUSH2 0x746 DUP2 PUSH2 0x71A DUP6 DUP9 DUP4 ADD SWAP6 DUP7 SWAP1 PUSH1 0x3E SWAP3 PUSH32 0xFFFFFFFFFFFFFFFFFFFFFFFFFFFFFFFFFFFFFFFFFFFFFFFFFFFFFFFFFFFF0000 SWAP2 DUP4 MSTORE PUSH1 0x10 SHL AND PUSH1 0x20 DUP3 ADD MSTORE ADD SWAP1 JUMP JUMPDEST SUB PUSH32 0xFFFFFFFFFFFFFFFFFFFFFFFFFFFFFFFFFFFFFFFFFFFFFFFFFFFFFFFFFFFFFFE0 DUP2 ADD DUP4 MSTORE DUP3 PUSH2 0x1B04 JUMP JUMPDEST MLOAD SWAP1 KECCAK256 SWAP1 DUP5 CALLDATALOAD PUSH32 0xFFFFFFFFFFFFFFFFFFFFFFFFFFFFFFFFFFFFFFFFFFFFFFFFFFFFFFFFFFFFFFE1 DUP7 CALLDATASIZE SUB ADD DUP2 SLT ISZERO PUSH2 0x151 JUMPI PUSH8 0xFFFFFFFFFFFFFFFF SWAP4 SWAP1 DUP7 ADD DUP1 CALLDATALOAD DUP6 DUP2 GT PUSH2 0x151 JUMPI PUSH1 0x5 SWAP2 DUP2 PUSH1 0x5 SHL CALLDATASIZE SUB DUP9 DUP3 ADD SGT PUSH2 0x151 JUMPI PUSH1 0x40 DUP9 DUP11 ADD CALLDATALOAD SWAP10 ADD CALLDATALOAD SWAP7 PUSH1 0x40 MLOAD DUP10 DUP2 ADD SWAP2 PUSH32 0xFFFFFFFFFFFFFFFF000000000000000000000000000000000000000000000000 DUP13 PUSH1 0xC0 SHL AND DUP4 MSTORE DUP10 PUSH1 0x28 DUP4 ADD MSTORE PUSH1 0x28 DUP3 MSTORE PUSH1 0x60 DUP3 ADD SWAP1 DUP3 DUP3 LT SWAP1 DUP3 GT OR PUSH2 0x8C1 JUMPI PUSH1 0x40 SWAP6 SWAP5 SWAP4 SWAP6 MSTORE MLOAD SWAP1 KECCAK256 SWAP3 PUSH1 0x80 MLOAD SWAP3 JUMPDEST DUP3 DUP5 LT PUSH2 0x87D JUMPI POP POP POP POP AND SUB PUSH2 0x853 JUMPI PUSH1 0x1 DUP5 ADD DUP1 SWAP5 GT PUSH2 0x522 JUMPI PUSH1 0x1 SWAP3 DUP4 SWAP2 PUSH1 0x40 MLOAD SWAP6 PUSH2 0x830 DUP8 PUSH2 0x1ACB JUMP JUMPDEST DUP7 MSTORE DUP2 DUP7 ADD SWAP4 DUP5 MSTORE PUSH1 0x80 MLOAD MSTORE MSTORE PUSH1 0x40 PUSH1 0x80 MLOAD KECCAK256 SWAP3 MLOAD DUP4 SSTORE MLOAD SWAP2 ADD SSTORE PUSH1 0x80 MLOAD PUSH1 0x80 MLOAD RETURN JUMPDEST PUSH1 0x4 PUSH1 0x40 MLOAD PUSH32 0x9BDE33900000000000000000000000000000000000000000000000000000000 DUP2 MSTORE REVERT JUMPDEST SWAP3 SWAP4 SWAP2 SWAP3 SWAP1 SWAP2 DUP5 DUP3 SHL DUP4 ADD DUP11 ADD CALLDATALOAD SWAP1 DUP2 DUP2 LT ISZERO PUSH2 0x8AD JUMPI PUSH1 0x80 MLOAD MSTORE DUP10 MSTORE PUSH1 0x1 PUSH1 0x40 PUSH1 0x80 MLOAD KECCAK256 JUMPDEST SWAP5 ADD SWAP3 SWAP2 SWAP1 PUSH2 0x802 JUMP JUMPDEST SWAP1 PUSH1 0x80 MLOAD MSTORE DUP10 MSTORE PUSH1 0x1 PUSH1 0x40 PUSH1 0x80 MLOAD KECCAK256 PUSH2 0x8A3 JUMP JUMPDEST PUSH32 0x4E487B7100000000000000000000000000000000000000000000000000000000 PUSH1 0x0 MSTORE PUSH1 0x41 PUSH1 0x4 MSTORE PUSH1 0x24 PUSH1 0x0 REVERT JUMPDEST PUSH1 0x4 PUSH1 0x40 MLOAD PUSH32 0x4CA8886700000000000000000000000000000000000000000000000000000000 DUP2 MSTORE REVERT JUMPDEST CALLVALUE PUSH2 0x151 JUMPI PUSH1 0x20 PUSH32 0xFFFFFFFFFFFFFFFFFFFFFFFFFFFFFFFFFFFFFFFFFFFFFFFFFFFFFFFFFFFFFFFC CALLDATASIZE ADD SLT PUSH2 0x151 JUMPI PUSH1 0x4 CALLDATALOAD PUSH1 0x80 MLOAD MSTORE PUSH1 0x1 PUSH1 0x20 MSTORE PUSH1 0x40 DUP1 PUSH1 0x80 MLOAD KECCAK256 PUSH1 0x1 DUP2 SLOAD SWAP2 ADD SLOAD DUP3 MLOAD SWAP2 DUP3 MSTORE PUSH1 0x20 DUP3 ADD MSTORE RETURN JUMPDEST CALLVALUE PUSH2 0x151 JUMPI PUSH1 0x40 PUSH32 0xFFFFFFFFFFFFFFFFFFFFFFFFFFFFFFFFFFFFFFFFFFFFFFFFFFFFFFFFFFFFFFFC CALLDATASIZE ADD SLT PUSH2 0x151 JUMPI PUSH2 0x9A6 PUSH2 0x18F9 JUMP JUMPDEST PUSH20 0xFFFFFFFFFFFFFFFFFFFFFFFFFFFFFFFFFFFFFFFF SWAP1 DUP2 PUSH32 0x0 AND CALLER SUB PUSH2 0xA10 JUMPI AND PUSH1 0x80 MLOAD MSTORE PUSH1 0x80 MLOAD PUSH1 0x20 MSTORE PUSH1 0x20 PUSH1 0x40 PUSH1 0x80 MLOAD KECCAK256 PUSH2 0xA05 PUSH1 0x24 CALLDATALOAD DUP3 SLOAD PUSH2 0x1ABE JUMP JUMPDEST DUP1 SWAP2 SSTORE PUSH1 0x40 MLOAD SWAP1 DUP2 MSTORE RETURN JUMPDEST PUSH1 0x4 PUSH1 0x40 MLOAD PUSH32 0xA454419900000000000000000000000000000000000000000000000000000000 DUP2 MSTORE REVERT JUMPDEST CALLVALUE PUSH2 0x151 JUMPI PUSH1 0x80 MLOAD PUSH32 0xFFFFFFFFFFFFFFFFFFFFFFFFFFFFFFFFFFFFFFFFFFFFFFFFFFFFFFFFFFFFFFFC CALLDATASIZE ADD SLT PUSH2 0x151 JUMPI PUSH1 0x20 PUSH1 0x40 MLOAD PUSH20 0xFFFFFFFFFFFFFFFFFFFFFFFFFFFFFFFFFFFFFFFF PUSH32 0x0 AND DUP2 MSTORE RETURN JUMPDEST CALLVALUE PUSH2 0x151 JUMPI PUSH1 0x20 PUSH32 0xFFFFFFFFFFFFFFFFFFFFFFFFFFFFFFFFFFFFFFFFFFFFFFFFFFFFFFFFFFFFFFFC CALLDATASIZE ADD SLT PUSH2 0x151 JUMPI PUSH20 0xFFFFFFFFFFFFFFFFFFFFFFFFFFFFFFFFFFFFFFFF PUSH2 0xAF6 PUSH2 0x18F9 JUMP JUMPDEST AND PUSH1 0x80 MLOAD MSTORE PUSH1 0x80 MLOAD PUSH1 0x20 MSTORE PUSH1 0x20 PUSH1 0x40 PUSH1 0x80 MLOAD KECCAK256 SLOAD PUSH1 0x40 MLOAD SWAP1 DUP2 MSTORE RETURN JUMPDEST CALLVALUE PUSH2 0x151 JUMPI PUSH2 0xB20 CALLDATASIZE PUSH2 0x191C JUMP JUMPDEST SWAP5 SWAP2 SWAP3 SWAP4 SWAP8 SWAP1 SWAP6 SWAP9 SWAP7 PUSH20 0xFFFFFFFFFFFFFFFFFFFFFFFFFFFFFFFFFFFFFFFF PUSH32 0x0 AND CALLER SUB PUSH2 0x16B2 JUMPI DUP6 PUSH32 0xFFFFFFFFFFFFFFFFFFFFFFFFFFFFFFFFFFFFFFFFFFFFFFFFFFFFFFFFFFFFFF60 DUP2 ADD GT PUSH2 0x522 JUMPI PUSH32 0xFFFFFFFFFFFFFFFFFFFFFFFFFFFFFFFFFFFFFFFFFFFFFFFFFFFFFFFFFFFFFF60 DUP7 ADD SWAP1 DUP8 PUSH32 0xFFFFFFFFFFFFFFFFFFFFFFFFFFFFFFFFFFFFFFFFFFFFFFFFFFFFFFFFFFFFFF5F DUP9 ADD DUP4 LT PUSH2 0x522 JUMPI PUSH32 0x100000000000000000000000000000000000000000000000000000000000000 DUP1 PUSH2 0xC4E PUSH32 0xFFFFFFFFFFFFFFFFFFFFFFFFFFFFFFFFFFFFFFFFFFFFFFFFFFFFFFFFFFFFFF5F DUP12 ADD PUSH32 0xFFFFFFFFFFFFFFFFFFFFFFFFFFFFFFFFFFFFFFFFFFFFFFFFFFFFFFFFFFFFFF60 DUP13 ADD DUP14 PUSH2 0x1F3C JUMP JUMPDEST CALLDATALOAD AND EQ PUSH2 0xCA0 PUSH32 0xFFFFFFFFFFFFFFFFFFFFFFFFFFFFFFFFFFFFFFFFFFFFFFFFFFFFFFFFFFFFFF5F DUP11 ADD PUSH32 0xFFFFFFFFFFFFFFFFFFFFFFFFFFFFFFFFFFFFFFFFFFFFFFFFFFFFFFFFFFFFFF60 DUP12 ADD DUP13 PUSH2 0x1F3C JUMP JUMPDEST PUSH1 0x80 MLOAD SWAP1 CALLDATALOAD PUSH1 0xFB SHR SWAP2 DUP1 PUSH2 0x161E JUMPI JUMPDEST DUP6 PUSH1 0x4 GT PUSH2 0x151 JUMPI PUSH32 0xFFFFFFFFFFFFFFFFFFFFFFFFFFFFFFFFFFFFFFFFFFFFFFFFFFFFFFFFFFFFFFFC DUP7 ADD PUSH1 0xC DUP5 MUL GT PUSH2 0x151 JUMPI PUSH2 0xCFA DUP9 DUP5 PUSH1 0xC DUP2 MUL PUSH1 0x4 DUP9 ADD DUP9 CALLDATALOAD PUSH1 0xE0 SHR PUSH2 0x1F77 JUMP JUMPDEST ISZERO PUSH2 0x147E JUMPI JUMPDEST POP POP PUSH1 0x14 PUSH32 0xFFFFFFFFFFFFFFFFFFFFFFFFFFFFFFFFFFFFFFFFFFFFFFFFFFFFFFFFFFFFFFFC PUSH1 0xC DUP4 MUL DUP7 SUB ADD GT PUSH2 0x1201 JUMPI JUMPDEST POP POP POP POP DUP6 DUP6 ADD PUSH32 0xFFFFFFFFFFFFFFFFFFFFFFFFFFFFFFFFFFFFFFFFFFFFFFFFFFFFFFFFFFFFFF60 ADD SWAP1 POP PUSH1 0xE0 DUP8 ADD CALLDATALOAD PUSH32 0x4000000000000000000000000000000000000000000000000000000000000000 AND ISZERO PUSH2 0x11E4 JUMPI CALLDATALOAD DUP1 PUSH1 0xF0 SHR PUSH1 0x2 DUP2 LT PUSH2 0x11BA JUMPI PUSH1 0x40 DUP1 MLOAD PUSH1 0x20 DUP2 ADD DUP13 DUP2 MSTORE PUSH1 0x10 SWAP5 SWAP1 SWAP5 SHL PUSH32 0xFFFFFFFFFFFFFFFFFFFFFFFFFFFFFFFFFFFFFFFFFFFFFFFFFFFFFFFFFFFF0000 AND SWAP2 DUP2 ADD SWAP2 SWAP1 SWAP2 MSTORE PUSH2 0xE1F SWAP3 SWAP1 PUSH2 0xDE2 DUP2 PUSH1 0x5E DUP2 ADD PUSH2 0x71A JUMP JUMPDEST MLOAD SWAP1 KECCAK256 PUSH1 0x80 MLOAD MSTORE PUSH1 0x1 PUSH1 0x20 MSTORE PUSH1 0x40 PUSH1 0x80 MLOAD KECCAK256 SWAP1 PUSH1 0x20 PUSH1 0x40 MLOAD PUSH2 0xE03 DUP2 PUSH2 0x1ACB JUMP JUMPDEST PUSH1 0x1 DUP5 SLOAD SWAP5 DUP6 DUP4 MSTORE ADD SLOAD SWAP2 DUP3 SWAP2 ADD MSTORE SWAP5 PUSH1 0xA0 DUP11 ADD CALLDATALOAD SWAP1 DUP12 PUSH2 0x1DCE JUMP JUMPDEST ISZERO PUSH2 0x1190 JUMPI PUSH20 0xFFFFFFFFFFFFFFFFFFFFFFFFFFFFFFFFFFFFFFFF SWAP2 JUMPDEST PUSH1 0x40 MLOAD SWAP9 PUSH2 0xE48 DUP11 PUSH2 0x1AE7 JUMP JUMPDEST DUP10 MSTORE PUSH1 0x20 DUP10 ADD MSTORE PUSH1 0x20 DUP7 ADD CALLDATALOAD PUSH1 0x40 DUP10 ADD MSTORE AND PUSH1 0x60 DUP8 ADD MSTORE PUSH1 0x60 DUP5 ADD CALLDATALOAD PUSH1 0x80 DUP8 ADD MSTORE DUP5 PUSH1 0xA0 DUP8 ADD MSTORE PUSH32 0xFFFFFFFFFFFFFFFFFFFFFFFFFFFFFFFFFFFFFFFFFFFFFFFFFFFFFFFFFFFFFFC0 DUP3 DUP5 ADD ADD CALLDATALOAD PUSH1 0x80 SHR PUSH1 0xC0 DUP8 ADD MSTORE TIMESTAMP PUSH1 0xE0 SHL PUSH28 0xFFFFFFFFFFFFFFFFFFFFFFFFFFFFFFFFFFFFFFFFFFFFFFFFFFFFFFFF PUSH32 0xFFFFFFFFFFFFFFFFFFFFFFFFFFFFFFFFFFFFFFFFFFFFFFFFFFFFFFFFFFFFFFE0 DUP5 DUP7 ADD ADD CALLDATALOAD AND OR PUSH1 0xE0 DUP8 ADD MSTORE PUSH1 0x40 DUP5 ADD CALLDATALOAD PUSH1 0x80 MLOAD POP PUSH20 0xFFFFFFFFFFFFFFFFFFFFFFFFFFFFFFFFFFFFFFFF DUP2 AND ISZERO PUSH1 0x0 EQ PUSH2 0x118A JUMPI POP PUSH1 0x20 DUP5 ADD CALLDATALOAD SWAP1 JUMPDEST PUSH1 0x40 MLOAD SWAP4 DUP5 PUSH1 0xA0 DUP2 ADD LT PUSH8 0xFFFFFFFFFFFFFFFF PUSH1 0xA0 DUP8 ADD GT OR PUSH2 0x8C1 JUMPI PUSH32 0xE534C62F0AFD2FA0F0FA71198E8AA2D549F24DAF2BB47DE0D5486C7CE9288CA SWAP4 PUSH2 0x1A0 SWAP4 PUSH1 0xA0 DUP8 ADD PUSH1 0x40 MSTORE DUP7 MSTORE PUSH1 0x20 DUP7 ADD SWAP3 DUP4 MSTORE PUSH1 0x40 DUP7 ADD PUSH32 0xFFFFFFFFFFFFFFFFFFFFFFFFFFFFFFFFFFFFFFFFFFFFFFFFFFFFFFFFFFFFFFA0 DUP3 DUP5 ADD ADD CALLDATALOAD DUP2 MSTORE PUSH32 0xFFFFFFFFFFFFFFFFFFFFFFFFFFFFFFFFFFFFFFFFFFFFFFFFFFFFFFFFFFFFFF80 PUSH1 0x60 DUP9 ADD SWAP3 PUSH16 0xFFFFFFFFFFFFFFFFFFFFFFFFFFFFFFFF PUSH32 0xFFFFFFFFFFFFFFFFFFFFFFFFFFFFFFFFFFFFFFFFFFFFFFFFFFFFFFFFFFFFFFC0 DUP3 DUP8 ADD ADD CALLDATALOAD AND DUP5 MSTORE PUSH1 0x80 DUP10 ADD SWAP5 ADD ADD CALLDATALOAD DUP4 MSTORE PUSH1 0x40 MLOAD SWAP4 DUP11 MLOAD DUP6 MSTORE PUSH1 0x20 DUP12 ADD MLOAD PUSH1 0x20 DUP7 ADD MSTORE PUSH1 0x40 DUP12 ADD MLOAD PUSH1 0x40 DUP7 ADD MSTORE PUSH1 0x60 DUP12 ADD MLOAD PUSH1 0x60 DUP7 ADD MSTORE PUSH1 0x80 DUP12 ADD MLOAD PUSH1 0x80 DUP7 ADD MSTORE PUSH1 0xA0 DUP12 ADD MLOAD PUSH1 0xA0 DUP7 ADD MSTORE PUSH1 0xC0 DUP12 ADD MLOAD PUSH1 0xC0 DUP7 ADD MSTORE PUSH1 0xE0 DUP12 ADD MLOAD PUSH1 0xE0 DUP7 ADD MSTORE PUSH2 0x100 SWAP8 MLOAD DUP9 DUP7 ADD MSTORE MLOAD PUSH2 0x120 DUP6 ADD MSTORE MLOAD PUSH2 0x140 DUP5 ADD MSTORE MLOAD PUSH2 0x160 DUP4 ADD MSTORE MLOAD PUSH2 0x180 DUP3 ADD MSTORE LOG1 DUP4 KECCAK256 PUSH23 0x3D602D80600A3D3981F3363D3D373D3D3D363D73000000 PUSH32 0x0 PUSH15 0x5AF43D82803E903D91602B57FD5BF3 PUSH1 0x20 MSTORE DUP1 PUSH1 0x11 MSTORE PUSH1 0x88 SHR OR PUSH1 0x0 MSTORE PUSH1 0x37 PUSH1 0x9 PUSH1 0x0 CREATE2 SWAP3 PUSH20 0xFFFFFFFFFFFFFFFFFFFFFFFFFFFFFFFFFFFFFFFF DUP5 AND ISZERO PUSH2 0x3AC JUMPI PUSH1 0xC0 DUP5 BALANCE SWAP2 ADD MLOAD GT SWAP3 DUP4 ISZERO PUSH2 0x1112 JUMPI JUMPDEST POP POP POP PUSH2 0x437 JUMPI PUSH1 0x80 MLOAD DUP1 RETURN JUMPDEST PUSH1 0x20 SWAP3 SWAP4 POP PUSH32 0x70A0823100000000000000000000000000000000000000000000000000000000 PUSH1 0x80 MLOAD MSTORE PUSH1 0x4 MSTORE PUSH1 0x24 PUSH1 0x80 MLOAD SWAP2 PUSH20 0xFFFFFFFFFFFFFFFFFFFFFFFFFFFFFFFFFFFFFFFF PUSH1 0x60 PUSH1 0x80 MLOAD SWAP3 ADD CALLDATALOAD AND GAS STATICCALL PUSH1 0x80 MLOAD MLOAD SWAP1 ISZERO PUSH1 0x20 RETURNDATASIZE LT OR PUSH2 0x117D JUMPI LT DUP2 DUP1 DUP1 PUSH2 0x1105 JUMP JUMPDEST PUSH1 0x40 MLOAD RETURNDATASIZE PUSH1 0x80 MLOAD DUP3 RETURNDATACOPY RETURNDATASIZE SWAP1 REVERT JUMPDEST SWAP1 PUSH2 0xF1B JUMP JUMPDEST PUSH1 0x4 PUSH1 0x40 MLOAD PUSH32 0xEAB3A17400000000000000000000000000000000000000000000000000000000 DUP2 MSTORE REVERT JUMPDEST PUSH1 0x4 PUSH1 0x40 MLOAD PUSH32 0x10D629D300000000000000000000000000000000000000000000000000000000 DUP2 MSTORE REVERT JUMPDEST PUSH20 0xFFFFFFFFFFFFFFFFFFFFFFFFFFFFFFFFFFFFFFFF SWAP3 POP CALLDATALOAD PUSH2 0xE3B JUMP JUMPDEST PUSH32 0xFFFFFFFFFFFFFFFFFFFFFFFFFFFFFFFFFFFFFFFF000000000000000000000000 PUSH1 0xC DUP3 MUL DUP4 DUP2 ADD PUSH1 0x4 ADD CALLDATALOAD DUP3 DUP2 AND SWAP5 SWAP3 SWAP2 PUSH1 0x14 SWAP1 DUP9 SUB PUSH32 0xFFFFFFFFFFFFFFFFFFFFFFFFFFFFFFFFFFFFFFFFFFFFFFFFFFFFFFFFFFFFFFFC ADD LT PUSH2 0x1461 JUMPI JUMPDEST POP POP PUSH1 0xC DUP3 MUL DUP6 SUB PUSH32 0xFFFFFFFFFFFFFFFFFFFFFFFFFFFFFFFFFFFFFFFFFFFFFFFFFFFFFFFFFFFFFFFB DUP2 ADD SWAP1 PUSH32 0xFFFFFFFFFFFFFFFFFFFFFFFFFFFFFFFFFFFFFFFFFFFFFFFFFFFFFFFFFFFFFFFC ADD DUP2 GT PUSH2 0x522 JUMPI PUSH1 0x14 GT PUSH2 0x151 JUMPI DUP3 PUSH1 0x60 SHR EXTCODESIZE ISZERO PUSH2 0x151 JUMPI PUSH2 0x13F9 DUP15 PUSH1 0xE0 SWAP4 DUP16 DUP16 SWAP5 PUSH1 0x18 SWAP2 PUSH2 0x1360 PUSH1 0x40 MLOAD SWAP13 DUP14 SWAP12 DUP13 SWAP11 DUP12 SWAP11 PUSH32 0x462EBDE200000000000000000000000000000000000000000000000000000000 DUP13 MSTORE DUP1 CALLDATALOAD PUSH1 0x4 DUP14 ADD MSTORE PUSH1 0x20 DUP2 ADD CALLDATALOAD PUSH1 0x24 DUP14 ADD MSTORE PUSH1 0x40 DUP2 ADD CALLDATALOAD PUSH1 0x44 DUP14 ADD MSTORE PUSH1 0x60 DUP2 ADD CALLDATALOAD PUSH1 0x64 DUP14 ADD MSTORE PUSH1 0x80 DUP2 ADD CALLDATALOAD PUSH1 0x84 DUP14 ADD MSTORE PUSH1 0xA0 DUP2 ADD CALLDATALOAD PUSH1 0xA4 DUP14 ADD MSTORE PUSH1 0xC0 DUP2 ADD CALLDATALOAD PUSH1 0xC4 DUP14 ADD MSTORE ADD CALLDATALOAD PUSH1 0xE4 DUP12 ADD MSTORE PUSH2 0x1E0 PUSH2 0x104 DUP12 ADD MSTORE PUSH2 0x1E4 DUP11 ADD SWAP2 PUSH2 0x201C JUMP JUMPDEST SWAP5 PUSH2 0x124 DUP9 ADD MSTORE PUSH20 0xFFFFFFFFFFFFFFFFFFFFFFFFFFFFFFFFFFFFFFFF DUP14 AND PUSH2 0x144 DUP9 ADD MSTORE PUSH2 0x164 DUP8 ADD MSTORE DUP14 PUSH2 0x184 DUP8 ADD MSTORE DUP13 PUSH2 0x1A4 DUP8 ADD MSTORE PUSH32 0xFFFFFFFFFFFFFFFFFFFFFFFFFFFFFFFFFFFFFFFFFFFFFFFFFFFFFFFFFFFFFFFC DUP7 DUP6 SUB ADD PUSH2 0x1C4 DUP8 ADD MSTORE PUSH1 0xC PUSH32 0xFFFFFFFFFFFFFFFFFFFFFFFFFFFFFFFFFFFFFFFFFFFFFFFFFFFFFFFFFFFFFFE7 PUSH1 0x80 MLOAD SWAP12 DUP3 DUP7 MUL SWAP1 SUB ADD SWAP4 MUL ADD ADD PUSH2 0x201C JUMP JUMPDEST SUB SWAP2 PUSH1 0x80 MLOAD SWAP1 PUSH1 0x60 SHR GAS CALL DUP1 ISZERO PUSH2 0x117D JUMPI PUSH2 0x1418 JUMPI JUMPDEST DUP1 DUP1 DUP1 DUP1 PUSH2 0xD32 JUMP JUMPDEST PUSH8 0xFFFFFFFFFFFFFFFF DUP2 GT PUSH2 0x1430 JUMPI PUSH1 0x40 MSTORE DUP9 PUSH2 0x140F JUMP JUMPDEST PUSH32 0x4E487B7100000000000000000000000000000000000000000000000000000000 PUSH1 0x80 MLOAD MSTORE PUSH1 0x41 PUSH1 0x4 MSTORE PUSH1 0x24 PUSH1 0x80 MLOAD REVERT JUMPDEST PUSH1 0xC DUP5 MUL DUP8 SUB PUSH1 0x14 SUB PUSH1 0x4 ADD PUSH1 0x3 SHL DUP3 SWAP1 SHL AND AND SWAP3 POP DUP15 DUP1 PUSH2 0x1260 JUMP JUMPDEST TIMESTAMP DUP5 CALLDATALOAD PUSH1 0xE0 SHR GT DUP1 ISZERO PUSH2 0x1553 JUMPI JUMPDEST PUSH2 0x1529 JUMPI PUSH2 0x149B JUMPI JUMPDEST DUP1 PUSH2 0xD00 JUMP JUMPDEST DUP1 ISZERO PUSH2 0x1495 JUMPI PUSH20 0xFFFFFFFFFFFFFFFFFFFFFFFFFFFFFFFFFFFFFFFF DUP8 AND PUSH1 0x80 MLOAD MSTORE PUSH1 0x80 MLOAD PUSH1 0x20 MSTORE PUSH1 0x40 PUSH1 0x80 MLOAD KECCAK256 SLOAD DUP2 DUP2 LT PUSH2 0x14FF JUMPI PUSH20 0xFFFFFFFFFFFFFFFFFFFFFFFFFFFFFFFFFFFFFFFF DUP9 AND PUSH1 0x80 MLOAD MSTORE PUSH1 0x80 MLOAD PUSH1 0x20 MSTORE SUB PUSH1 0x40 PUSH1 0x80 MLOAD KECCAK256 SSTORE DUP14 PUSH2 0x1495 JUMP JUMPDEST PUSH1 0x4 PUSH1 0x40 MLOAD PUSH32 0xA7FD379200000000000000000000000000000000000000000000000000000000 DUP2 MSTORE REVERT JUMPDEST PUSH1 0x4 PUSH1 0x40 MLOAD PUSH32 0xF25114A600000000000000000000000000000000000000000000000000000000 DUP2 MSTORE REVERT JUMPDEST POP PUSH1 0x40 MLOAD PUSH32 0x70A0823100000000000000000000000000000000000000000000000000000000 DUP2 MSTORE PUSH20 0xFFFFFFFFFFFFFFFFFFFFFFFFFFFFFFFFFFFFFFFF DUP10 AND PUSH1 0x4 DUP3 ADD MSTORE PUSH1 0x20 DUP2 PUSH1 0x24 DUP2 PUSH20 0xFFFFFFFFFFFFFFFFFFFFFFFFFFFFFFFFFFFFFFFF PUSH32 0x0 AND GAS STATICCALL SWAP1 DUP2 ISZERO PUSH2 0x117D JUMPI PUSH1 0x80 MLOAD SWAP2 PUSH2 0x15EC JUMPI JUMPDEST POP ISZERO PUSH2 0x148C JUMP JUMPDEST SWAP1 POP PUSH1 0x20 DUP2 RETURNDATASIZE PUSH1 0x20 GT PUSH2 0x1616 JUMPI JUMPDEST DUP2 PUSH2 0x1607 PUSH1 0x20 SWAP4 DUP4 PUSH2 0x1B04 JUMP JUMPDEST DUP2 ADD SUB SLT PUSH2 0x151 JUMPI MLOAD CODESIZE PUSH2 0x15E5 JUMP JUMPDEST RETURNDATASIZE SWAP2 POP PUSH2 0x15FA JUMP JUMPDEST SWAP5 POP POP SWAP1 POP PUSH32 0xFFFFFFFFFFFFFFFFFFFFFFFFFFFFFFFFFFFFFFFFFFFFFFFFFFFFFFFFFFFFFF60 DUP9 ADD PUSH1 0x4 GT PUSH2 0x151 JUMPI DUP9 CALLDATALOAD PUSH1 0xE0 SHR PUSH7 0x38D7EA4C68000 SWAP1 DUP1 DUP3 DUP2 MUL DIV DUP3 EQ DUP2 ISZERO OR ISZERO PUSH2 0x522 JUMPI PUSH2 0x167E DUP14 PUSH2 0x1683 SWAP4 PUSH1 0xA0 DUP16 ADD CALLDATALOAD SWAP4 MUL PUSH2 0x1A6F JUMP JUMPDEST PUSH2 0x1B45 JUMP JUMPDEST SWAP1 PUSH1 0x4 DUP11 ADD SWAP2 PUSH32 0xFFFFFFFFFFFFFFFFFFFFFFFFFFFFFFFFFFFFFFFFFFFFFFFFFFFFFFFFFFFFFF5C DUP11 ADD SWAP5 PUSH2 0xCAF JUMP JUMPDEST PUSH1 0x4 PUSH1 0x40 MLOAD PUSH32 0xD25AA10600000000000000000000000000000000000000000000000000000000 DUP2 MSTORE REVERT JUMPDEST CALLVALUE PUSH2 0x151 JUMPI PUSH1 0x40 PUSH32 0xFFFFFFFFFFFFFFFFFFFFFFFFFFFFFFFFFFFFFFFFFFFFFFFFFFFFFFFFFFFFFFFC CALLDATASIZE ADD SLT PUSH2 0x151 JUMPI PUSH2 0x1713 PUSH2 0x18F9 JUMP JUMPDEST PUSH20 0xFFFFFFFFFFFFFFFFFFFFFFFFFFFFFFFFFFFFFFFF SWAP1 DUP2 PUSH32 0x0 AND CALLER SUB PUSH2 0xA10 JUMPI AND PUSH1 0x80 MLOAD MSTORE PUSH1 0x80 MLOAD PUSH1 0x20 MSTORE PUSH1 0x20 PUSH1 0x40 PUSH1 0x80 MLOAD KECCAK256 PUSH1 0x24 CALLDATALOAD DUP2 SLOAD ADD DUP1 SWAP2 SSTORE PUSH1 0x40 MLOAD SWAP1 DUP2 MSTORE RETURN JUMPDEST CALLVALUE PUSH2 0x151 JUMPI PUSH1 0x80 MLOAD PUSH32 0xFFFFFFFFFFFFFFFFFFFFFFFFFFFFFFFFFFFFFFFFFFFFFFFFFFFFFFFFFFFFFFFC CALLDATASIZE ADD SLT PUSH2 0x151 JUMPI PUSH1 0x20 PUSH1 0x40 MLOAD PUSH20 0xFFFFFFFFFFFFFFFFFFFFFFFFFFFFFFFFFFFFFFFF PUSH32 0x0 AND DUP2 MSTORE RETURN JUMPDEST CALLVALUE PUSH2 0x151 JUMPI PUSH2 0x1805 PUSH2 0x17F7 CALLDATASIZE PUSH2 0x19C9 JUMP JUMPDEST SWAP6 POP SWAP4 POP POP SWAP6 SWAP4 POP POP PUSH2 0x1B7E JUMP JUMPDEST SWAP1 PUSH3 0x989680 SWAP2 DUP3 DUP5 MUL SWAP4 DUP1 DUP6 DIV DUP5 EQ SWAP1 ISZERO OR ISZERO PUSH2 0x522 JUMPI DUP3 ADD DUP1 SWAP3 GT PUSH2 0x522 JUMPI PUSH1 0x20 SWAP3 PUSH1 0xA0 PUSH2 0x183B PUSH2 0x4E9 SWAP5 PUSH1 0xC0 DUP6 ADD CALLDATALOAD PUSH2 0x1A6F JUMP JUMPDEST SWAP3 ADD CALLDATALOAD PUSH2 0x1C47 JUMP JUMPDEST CALLVALUE PUSH2 0x151 JUMPI PUSH2 0x1851 CALLDATASIZE PUSH2 0x191C JUMP JUMPDEST POP POP POP POP POP POP POP POP POP POP PUSH20 0xFFFFFFFFFFFFFFFFFFFFFFFFFFFFFFFFFFFFFFFF PUSH32 0x0 AND CALLER SUB PUSH2 0x189E JUMPI PUSH1 0x80 MLOAD DUP1 RETURN JUMPDEST DUP1 PUSH32 0xD25AA10600000000000000000000000000000000000000000000000000000000 PUSH1 0x4 SWAP3 MSTORE REVERT JUMPDEST SWAP2 DUP2 PUSH1 0x1F DUP5 ADD SLT ISZERO PUSH2 0x18F4 JUMPI DUP3 CALLDATALOAD SWAP2 PUSH8 0xFFFFFFFFFFFFFFFF DUP4 GT PUSH2 0x18F4 JUMPI PUSH1 0x20 DUP4 DUP2 DUP7 ADD SWAP6 ADD ADD GT PUSH2 0x18F4 JUMPI JUMP JUMPDEST PUSH1 0x0 DUP1 REVERT JUMPDEST PUSH1 0x4 CALLDATALOAD SWAP1 PUSH20 0xFFFFFFFFFFFFFFFFFFFFFFFFFFFFFFFFFFFFFFFF DUP3 AND DUP3 SUB PUSH2 0x18F4 JUMPI JUMP JUMPDEST PUSH32 0xFFFFFFFFFFFFFFFFFFFFFFFFFFFFFFFFFFFFFFFFFFFFFFFFFFFFFFFFFFFFFFFC DUP2 ADD PUSH2 0x1E0 DUP2 SLT PUSH2 0x18F4 JUMPI PUSH2 0x100 SGT PUSH2 0x18F4 JUMPI PUSH1 0x4 SWAP2 PUSH8 0xFFFFFFFFFFFFFFFF PUSH2 0x104 CALLDATALOAD DUP2 DUP2 GT PUSH2 0x18F4 JUMPI DUP4 PUSH2 0x1974 SWAP2 PUSH1 0x4 ADD PUSH2 0x18C6 JUMP JUMPDEST SWAP4 SWAP1 SWAP4 SWAP3 PUSH2 0x124 CALLDATALOAD SWAP3 PUSH2 0x144 CALLDATALOAD PUSH20 0xFFFFFFFFFFFFFFFFFFFFFFFFFFFFFFFFFFFFFFFF DUP2 AND DUP2 SUB PUSH2 0x18F4 JUMPI SWAP3 PUSH2 0x164 CALLDATALOAD SWAP3 PUSH2 0x184 CALLDATALOAD SWAP3 PUSH2 0x1A4 CALLDATALOAD SWAP3 PUSH2 0x1C4 CALLDATALOAD SWAP2 DUP3 GT PUSH2 0x18F4 JUMPI PUSH2 0x19C5 SWAP2 PUSH1 0x4 ADD PUSH2 0x18C6 JUMP JUMPDEST SWAP1 SWAP2 JUMP JUMPDEST SWAP1 PUSH32 0xFFFFFFFFFFFFFFFFFFFFFFFFFFFFFFFFFFFFFFFFFFFFFFFFFFFFFFFFFFFFFFFC DUP3 ADD PUSH2 0x1C0 DUP2 SLT PUSH2 0x18F4 JUMPI PUSH2 0x100 SGT PUSH2 0x18F4 JUMPI PUSH1 0x4 SWAP2 PUSH8 0xFFFFFFFFFFFFFFFF SWAP1 PUSH2 0x104 CALLDATALOAD DUP3 DUP2 GT PUSH2 0x18F4 JUMPI DUP2 PUSH2 0x1A23 SWAP2 PUSH1 0x4 ADD PUSH2 0x18C6 JUMP JUMPDEST SWAP4 SWAP1 SWAP4 SWAP3 PUSH2 0x124 CALLDATALOAD SWAP3 PUSH2 0x144 CALLDATALOAD PUSH20 0xFFFFFFFFFFFFFFFFFFFFFFFFFFFFFFFFFFFFFFFF DUP2 AND DUP2 SUB PUSH2 0x18F4 JUMPI SWAP3 PUSH2 0x164 CALLDATALOAD SWAP3 PUSH2 0x184 CALLDATALOAD SWAP3 PUSH2 0x1A4 CALLDATALOAD SWAP2 DUP3 GT PUSH2 0x18F4 JUMPI PUSH2 0x19C5 SWAP2 PUSH1 0x4 ADD PUSH2 0x18C6 JUMP JUMPDEST DUP2 DUP2 MUL SWAP3 SWAP2 DUP2 ISZERO SWAP2 DUP5 DIV EQ OR ISZERO PUSH2 0x1A82 JUMPI JUMP JUMPDEST PUSH32 0x4E487B7100000000000000000000000000000000000000000000000000000000 PUSH1 0x0 MSTORE PUSH1 0x11 PUSH1 0x4 MSTORE PUSH1 0x24 PUSH1 0x0 REVERT JUMPDEST SWAP2 SWAP1 DUP3 ADD DUP1 SWAP3 GT PUSH2 0x1A82 JUMPI JUMP JUMPDEST SWAP2 SWAP1 DUP3 SUB SWAP2 DUP3 GT PUSH2 0x1A82 JUMPI JUMP JUMPDEST PUSH1 0x40 DUP2 ADD SWAP1 DUP2 LT PUSH8 0xFFFFFFFFFFFFFFFF DUP3 GT OR PUSH2 0x8C1 JUMPI PUSH1 0x40 MSTORE JUMP JUMPDEST PUSH2 0x100 DUP2 ADD SWAP1 DUP2 LT PUSH8 0xFFFFFFFFFFFFFFFF DUP3 GT OR PUSH2 0x8C1 JUMPI PUSH1 0x40 MSTORE JUMP JUMPDEST SWAP1 PUSH1 0x1F PUSH32 0xFFFFFFFFFFFFFFFFFFFFFFFFFFFFFFFFFFFFFFFFFFFFFFFFFFFFFFFFFFFFFFE0 SWAP2 ADD AND DUP2 ADD SWAP1 DUP2 LT PUSH8 0xFFFFFFFFFFFFFFFF DUP3 GT OR PUSH2 0x8C1 JUMPI PUSH1 0x40 MSTORE JUMP JUMPDEST DUP2 ISZERO PUSH2 0x1B4F JUMPI DIV SWAP1 JUMP JUMPDEST PUSH32 0x4E487B7100000000000000000000000000000000000000000000000000000000 PUSH1 0x0 MSTORE PUSH1 0x12 PUSH1 0x4 MSTORE PUSH1 0x24 PUSH1 0x0 REVERT JUMPDEST SWAP1 DUP1 PUSH1 0x3 GT PUSH2 0x18F4 JUMPI DUP2 CALLDATALOAD PUSH1 0xE8 SHR DUP2 PUSH1 0x7 GT PUSH2 0x18F4 JUMPI PUSH1 0x3 DUP4 ADD CALLDATALOAD PUSH1 0xE0 SHR SWAP1 DUP1 ISZERO DUP1 ISZERO PUSH2 0x1C3F JUMPI JUMPDEST ISZERO PUSH2 0x1C28 JUMPI POP POP PUSH1 0x0 SWAP2 JUMPDEST DUP2 PUSH1 0xB GT PUSH2 0x18F4 JUMPI PUSH1 0x7 DUP2 ADD CALLDATALOAD PUSH1 0xE0 SHR DUP3 PUSH1 0xE GT PUSH2 0x18F4 JUMPI DUP3 PUSH1 0x11 GT PUSH2 0x18F4 JUMPI PUSH32 0xFFFFFFFFFFFFFFFFFFFFFFFFFFFFFFFFFFFFFFFFFFFFFFFFFFFFFFFFFFFFFFEF PUSH2 0x1C15 SWAP4 ADD SWAP2 PUSH1 0x11 DUP2 ADD SWAP2 PUSH1 0xB PUSH1 0xE DUP4 ADD CALLDATALOAD PUSH1 0xE8 SHR SWAP3 ADD CALLDATALOAD PUSH1 0xE8 SHR DUP2 ADD SWAP1 PUSH2 0x1D0B JUMP JUMPDEST DUP2 DUP2 GT ISZERO PUSH2 0x1C21 JUMPI SUB SWAP1 JUMP JUMPDEST POP POP PUSH1 0x0 SWAP1 JUMP JUMPDEST PUSH3 0xF4240 SWAP2 PUSH2 0x1C38 SWAP2 BASEFEE MUL PUSH2 0x1B45 JUMP JUMPDEST DIV SWAP2 PUSH2 0x1BB1 JUMP JUMPDEST POP DUP2 ISZERO PUSH2 0x1BA6 JUMP JUMPDEST SWAP2 DUP2 DUP4 MUL SWAP2 PUSH32 0xFFFFFFFFFFFFFFFFFFFFFFFFFFFFFFFFFFFFFFFFFFFFFFFFFFFFFFFFFFFFFFFF DUP2 DUP6 MULMOD SWAP4 DUP4 DUP1 DUP7 LT SWAP6 SUB SWAP5 DUP1 DUP7 SUB SWAP6 EQ PUSH2 0x1CFB JUMPI DUP5 DUP4 GT ISZERO PUSH2 0x1CDB JUMPI SWAP1 DUP3 SWAP2 MULMOD DUP2 PUSH1 0x0 SUB DUP3 AND DUP1 SWAP3 DIV PUSH1 0x2 DUP1 DUP3 PUSH1 0x3 MUL XOR DUP1 DUP4 MUL DUP3 SUB MUL DUP1 DUP4 MUL DUP3 SUB MUL DUP1 DUP4 MUL DUP3 SUB MUL DUP1 DUP4 MUL DUP3 SUB MUL DUP1 DUP4 MUL DUP3 SUB MUL DUP1 SWAP3 MUL SWAP1 SUB MUL SWAP4 PUSH1 0x1 DUP4 DUP1 PUSH1 0x0 SUB DIV ADD SWAP1 DUP5 DUP4 GT SWAP1 SUB MUL SWAP3 SUB DIV OR MUL SWAP1 JUMP JUMPDEST DUP3 PUSH2 0x1CF4 JUMPI PUSH1 0x12 JUMPDEST PUSH4 0x4E487B71 PUSH1 0x0 MSTORE PUSH1 0x20 MSTORE PUSH1 0x24 PUSH1 0x1C REVERT JUMPDEST PUSH1 0x11 PUSH2 0x1CE3 JUMP JUMPDEST POP POP SWAP1 PUSH2 0x1D08 SWAP3 POP PUSH2 0x1B45 JUMP JUMPDEST SWAP1 JUMP JUMPDEST SWAP1 SWAP2 SWAP4 SWAP3 DUP2 TIMESTAMP GT ISZERO PUSH1 0x0 EQ PUSH2 0x1D21 JUMPI POP POP POP POP SWAP1 JUMP JUMPDEST DUP3 SWAP4 SWAP5 SWAP2 SWAP3 TIMESTAMP LT ISZERO PUSH2 0x1DC4 JUMPI DUP5 SWAP3 SWAP2 SWAP3 JUMPDEST PUSH2 0x1D48 JUMPI POP PUSH2 0x1D08 SWAP4 POP DUP3 SUB SWAP2 TIMESTAMP SWAP1 SUB MUL PUSH2 0x1B45 JUMP JUMPDEST SWAP1 PUSH1 0x3 SWAP1 DUP6 DUP3 GT PUSH2 0x18F4 JUMPI DUP3 CALLDATALOAD PUSH1 0xE8 SHR SWAP1 PUSH1 0x5 SWAP3 DUP8 DUP5 GT PUSH2 0x18F4 JUMPI DUP5 ADD CALLDATALOAD PUSH1 0xF0 SHR DUP2 ADD SWAP5 DUP6 TIMESTAMP GT ISZERO PUSH2 0x1DA5 JUMPI POP POP SWAP1 PUSH32 0xFFFFFFFFFFFFFFFFFFFFFFFFFFFFFFFFFFFFFFFFFFFFFFFFFFFFFFFFFFFFFFFB SWAP2 SWAP4 SWAP3 ADD SWAP5 ADD SWAP4 DUP5 PUSH2 0x1D32 JUMP JUMPDEST SWAP3 POP SWAP4 PUSH2 0x1D08 SWAP7 POP DUP1 SWAP6 POP DUP5 SWAP2 SWAP4 POP SUB SWAP4 TIMESTAMP SWAP1 SUB MUL SWAP2 TIMESTAMP SUB MUL ADD PUSH2 0x1B45 JUMP JUMPDEST POP POP POP POP POP PUSH1 0x0 SWAP1 JUMP JUMPDEST SWAP3 SWAP2 SWAP1 PUSH2 0x1DE4 DUP5 PUSH2 0x1DDF DUP4 DUP6 PUSH2 0x1ABE JUMP JUMPDEST PUSH2 0x1AB1 JUMP JUMPDEST SWAP1 PUSH32 0xFFFFFFFFFFFFFFFFFFFFFFFFFFFFFFFFFFFFFFFFFFFFFFFFFFFFFFFFFFFFFFFF SWAP2 DUP3 DUP2 ADD SWAP1 DUP2 GT PUSH2 0x1A82 JUMPI DUP4 PUSH2 0x167E DUP7 PUSH2 0x1E1F SWAP4 PUSH2 0x1A6F JUMP JUMPDEST SWAP5 DUP2 SUB PUSH2 0x1E39 JUMPI POP POP POP POP PUSH1 0x2 DUP2 ADD DUP1 SWAP2 GT PUSH2 0x1A82 JUMPI EQ SWAP1 JUMP JUMPDEST DUP1 DUP4 SUB PUSH2 0x1E54 JUMPI JUMPDEST POP POP POP POP PUSH1 0x1 DUP2 ADD DUP1 SWAP2 GT PUSH2 0x1A82 JUMPI EQ SWAP1 JUMP JUMPDEST PUSH2 0x1E5E SWAP1 DUP4 PUSH2 0x1ABE JUMP JUMPDEST SWAP1 DUP2 ADD SWAP1 DUP2 GT PUSH2 0x1A82 JUMPI PUSH2 0x1E75 SWAP3 PUSH2 0x167E SWAP2 PUSH2 0x1A6F JUMP JUMPDEST DUP2 EQ PUSH2 0x1C21 JUMPI CODESIZE DUP1 DUP1 DUP1 PUSH2 0x1E41 JUMP JUMPDEST SWAP2 SWAP1 SWAP2 PUSH1 0x20 DUP4 LT PUSH2 0x1EFD JUMPI DUP1 CALLDATALOAD SWAP1 PUSH32 0xFFFFFFFFFFFFFFFFFFFFFFFFFFFFFFFFFFFFFFFFFFFFFFFFFFFFFFFFFFFFFFE0 PUSH4 0xFFFFFFFF DUP4 PUSH1 0xC0 SHR AND SWAP3 PUSH1 0xE0 SHR SWAP5 ADD DUP5 GT PUSH2 0x1ED3 JUMPI DUP2 ADD PUSH1 0x20 ADD SWAP3 SUB SWAP1 JUMP JUMPDEST PUSH32 0x9605A01000000000000000000000000000000000000000000000000000000000 PUSH1 0x0 MSTORE PUSH1 0x4 PUSH1 0x0 REVERT JUMPDEST POP PUSH1 0x0 SWAP2 POP DUP2 SWAP1 JUMP JUMPDEST PUSH1 0x55 SWAP2 PUSH20 0xFFFFFFFFFFFFFFFFFFFFFFFFFFFFFFFFFFFFFFFF SWAP4 PUSH1 0xB SWAP3 PUSH1 0x40 MLOAD SWAP3 PUSH1 0x40 DUP5 ADD MSTORE PUSH1 0x20 DUP4 ADD MSTORE DUP2 MSTORE ADD PUSH1 0xFF DUP2 MSTORE8 KECCAK256 AND SWAP1 JUMP JUMPDEST SWAP1 DUP3 LT ISZERO PUSH2 0x1F48 JUMPI ADD SWAP1 JUMP JUMPDEST PUSH32 0x4E487B7100000000000000000000000000000000000000000000000000000000 PUSH1 0x0 MSTORE PUSH1 0x32 PUSH1 0x4 MSTORE PUSH1 0x24 PUSH1 0x0 REVERT JUMPDEST SWAP2 SWAP3 SWAP1 SWAP4 PUSH10 0xFFFFFFFFFFFFFFFFFFFF AND SWAP3 PUSH1 0x0 SWAP3 JUMPDEST DUP3 DUP5 LT PUSH2 0x1F9E JUMPI POP POP POP POP POP POP PUSH1 0x0 SWAP1 JUMP JUMPDEST PUSH1 0xA SWAP1 DUP3 DUP3 GT PUSH2 0x18F4 JUMPI PUSH1 0xC SWAP2 DUP4 DUP4 GT PUSH2 0x18F4 JUMPI DUP8 ADD CALLDATALOAD PUSH1 0xF0 SHR ADD SWAP6 DUP1 CALLDATALOAD PUSH1 0xB0 SHR DUP7 SUB PUSH2 0x1FD1 JUMPI POP POP POP POP POP POP TIMESTAMP LT ISZERO SWAP1 JUMP JUMPDEST SWAP6 SWAP3 SWAP4 SWAP5 SWAP6 TIMESTAMP DUP5 GT PUSH2 0x2010 JUMPI ADD SWAP5 SWAP4 PUSH1 0x1 ADD SWAP3 SWAP2 PUSH32 0xFFFFFFFFFFFFFFFFFFFFFFFFFFFFFFFFFFFFFFFFFFFFFFFFFFFFFFFFFFFFFFF4 SWAP2 SWAP1 SWAP2 ADD SWAP1 PUSH2 0x1F8C JUMP JUMPDEST POP POP POP POP POP POP POP PUSH1 0x0 SWAP1 JUMP JUMPDEST PUSH1 0x1F DUP3 PUSH1 0x20 SWAP5 SWAP4 PUSH32 0xFFFFFFFFFFFFFFFFFFFFFFFFFFFFFFFFFFFFFFFFFFFFFFFFFFFFFFFFFFFFFFE0 SWAP4 DUP2 DUP7 MSTORE DUP7 DUP7 ADD CALLDATACOPY PUSH1 0x0 DUP6 DUP3 DUP7 ADD ADD MSTORE ADD AND ADD ADD SWAP1 JUMP INVALID LOG2 PUSH5 0x6970667358 0x22 SLT KECCAK256 0x2F OR 0xAE SWAP2 SWAP7 DUP13 0x2D 0xE0 PUSH29 0x2C6E349FCFE48881D1D9887927D72C71D0F9E7CDBC8964736F6C6343 STOP ADDMOD OR STOP CALLER PUSH1 0xC0 CALLVALUE PUSH2 0x132 JUMPI PUSH1 0x1F PUSH2 0x1293 CODESIZE DUP2 SWAP1 SUB SWAP2 DUP3 ADD PUSH1 0x1F NOT AND DUP4 ADD SWAP2 PUSH1 0x1 PUSH1 0x1 PUSH1 0x40 SHL SUB DUP4 GT DUP5 DUP5 LT OR PUSH2 0x137 JUMPI DUP1 DUP5 SWAP3 PUSH1 0x60 SWAP5 PUSH1 0x40 MSTORE DUP4 CODECOPY DUP2 ADD SUB SLT PUSH2 0x132 JUMPI DUP1 MLOAD PUSH1 0x1 PUSH1 0x1 PUSH1 0xA0 SHL SUB DUP1 DUP3 AND DUP3 SUB PUSH2 0x132 JUMPI PUSH1 0x20 DUP4 ADD MLOAD SWAP3 DUP2 DUP5 AND SWAP1 DUP2 DUP6 SUB PUSH2 0x132 JUMPI PUSH1 0x40 ADD MLOAD DUP3 DUP2 AND DUP1 SWAP2 SUB PUSH2 0x132 JUMPI DUP1 ISZERO PUSH2 0x119 JUMPI PUSH1 0x0 DUP1 SLOAD PUSH1 0x1 PUSH1 0x1 PUSH1 0xA0 SHL SUB NOT DUP2 AND DUP4 OR DUP3 SSTORE PUSH1 0x40 MLOAD SWAP5 AND SWAP1 PUSH32 0x8BE0079C531659141344CD1FD0A4F28419497F9722A3DAAFE3B4186F6B6457E0 SWAP1 DUP1 LOG3 ISZERO PUSH2 0x10A JUMPI POP PUSH1 0xA0 MSTORE PUSH1 0x80 MSTORE PUSH1 0x40 MLOAD PUSH2 0x1145 SWAP1 DUP2 PUSH2 0x14E DUP3 CODECOPY PUSH1 0x80 MLOAD DUP2 DUP2 DUP2 PUSH2 0x2F9 ADD MSTORE DUP2 DUP2 PUSH2 0x91E ADD MSTORE DUP2 DUP2 PUSH2 0xDEA ADD MSTORE PUSH2 0xE75 ADD MSTORE PUSH1 0xA0 MLOAD DUP2 DUP2 DUP2 PUSH2 0x2C6 ADD MSTORE DUP2 DUP2 PUSH2 0x713 ADD MSTORE DUP2 DUP2 PUSH2 0xD8C ADD MSTORE PUSH2 0xF4E ADD MSTORE RETURN JUMPDEST PUSH4 0xD92E233D PUSH1 0xE0 SHL DUP2 MSTORE PUSH1 0x4 SWAP1 REVERT JUMPDEST PUSH1 0x40 MLOAD PUSH4 0x1E4FBDF7 PUSH1 0xE0 SHL DUP2 MSTORE PUSH1 0x0 PUSH1 0x4 DUP3 ADD MSTORE PUSH1 0x24 SWAP1 REVERT JUMPDEST PUSH1 0x0 DUP1 REVERT JUMPDEST PUSH4 0x4E487B71 PUSH1 0xE0 SHL PUSH1 0x0 MSTORE PUSH1 0x41 PUSH1 0x4 MSTORE PUSH1 0x24 PUSH1 0x0 REVERT INVALID PUSH1 0x40 PUSH1 0x80 DUP2 MSTORE PUSH1 0x4 SWAP1 DUP2 CALLDATASIZE LT ISZERO PUSH2 0x15 JUMPI PUSH1 0x0 DUP1 REVERT JUMPDEST PUSH1 0x0 SWAP2 DUP3 CALLDATALOAD PUSH1 0xE0 SHR DUP1 PUSH4 0x205C2878 EQ PUSH2 0x878 JUMPI DUP1 PUSH4 0x2E1A7D4D EQ PUSH2 0x839 JUMPI DUP1 PUSH4 0x2F4F21E2 EQ PUSH2 0x7F2 JUMPI DUP1 PUSH4 0x32D323A5 EQ PUSH2 0x788 JUMPI DUP1 PUSH4 0x5886216F EQ PUSH2 0x68C JUMPI DUP1 PUSH4 0x715018A6 EQ PUSH2 0x5F0 JUMPI DUP1 PUSH4 0x78E3214F EQ PUSH2 0x44E JUMPI DUP1 PUSH4 0x8DA5CB5B EQ PUSH2 0x3F9 JUMPI DUP1 PUSH4 0x97A2CB64 EQ PUSH2 0x232 JUMPI DUP1 PUSH4 0xB6B55F25 EQ PUSH2 0x1F3 JUMPI DUP1 PUSH4 0xBFE91734 EQ PUSH2 0x18A JUMPI PUSH4 0xF2FDE38B EQ PUSH2 0xA5 JUMPI PUSH1 0x0 DUP1 REVERT JUMPDEST CALLVALUE PUSH2 0x186 JUMPI PUSH1 0x20 PUSH32 0xFFFFFFFFFFFFFFFFFFFFFFFFFFFFFFFFFFFFFFFFFFFFFFFFFFFFFFFFFFFFFFFC CALLDATASIZE ADD SLT PUSH2 0x186 JUMPI PUSH2 0xDC PUSH2 0x8BF JUMP JUMPDEST SWAP1 PUSH2 0xE5 PUSH2 0x1024 JUMP JUMPDEST PUSH20 0xFFFFFFFFFFFFFFFFFFFFFFFFFFFFFFFFFFFFFFFF DUP1 SWAP3 AND SWAP3 DUP4 ISZERO PUSH2 0x157 JUMPI POP POP DUP3 SLOAD DUP3 PUSH32 0xFFFFFFFFFFFFFFFFFFFFFFFF0000000000000000000000000000000000000000 DUP3 AND OR DUP5 SSTORE AND PUSH32 0x8BE0079C531659141344CD1FD0A4F28419497F9722A3DAAFE3B4186F6B6457E0 DUP4 DUP1 LOG3 DUP1 RETURN JUMPDEST SWAP1 DUP5 PUSH1 0x24 SWAP3 MLOAD SWAP2 PUSH32 0x1E4FBDF700000000000000000000000000000000000000000000000000000000 DUP4 MSTORE DUP3 ADD MSTORE REVERT JUMPDEST DUP3 DUP1 REVERT JUMPDEST POP SWAP2 CALLVALUE PUSH2 0x1F0 JUMPI DUP2 PUSH32 0xFFFFFFFFFFFFFFFFFFFFFFFFFFFFFFFFFFFFFFFFFFFFFFFFFFFFFFFFFFFFFFFC CALLDATASIZE ADD SLT PUSH2 0x1F0 JUMPI PUSH1 0x24 CALLDATALOAD SWAP1 PUSH8 0xFFFFFFFFFFFFFFFF DUP3 GT PUSH2 0x1F0 JUMPI POP PUSH1 0x20 SWAP3 PUSH2 0x1E1 PUSH2 0x1E9 SWAP3 CALLDATASIZE SWAP1 DUP4 ADD PUSH2 0x8E7 JUMP JUMPDEST SWAP2 CALLDATALOAD CALLER PUSH2 0x915 JUMP JUMPDEST SWAP1 MLOAD SWAP1 DUP2 MSTORE RETURN JUMPDEST DUP1 REVERT JUMPDEST POP SWAP2 CALLVALUE PUSH2 0x1F0 JUMPI PUSH1 0x20 PUSH32 0xFFFFFFFFFFFFFFFFFFFFFFFFFFFFFFFFFFFFFFFFFFFFFFFFFFFFFFFFFFFFFFFC CALLDATASIZE ADD SLT PUSH2 0x1F0 JUMPI POP PUSH2 0x1E9 PUSH1 0x20 SWAP3 CALLDATALOAD CALLER PUSH2 0xE50 JUMP JUMPDEST POP SWAP1 CALLVALUE PUSH2 0x186 JUMPI PUSH1 0x20 SWAP3 DUP4 PUSH32 0xFFFFFFFFFFFFFFFFFFFFFFFFFFFFFFFFFFFFFFFFFFFFFFFFFFFFFFFFFFFFFFFC CALLDATASIZE ADD SLT PUSH2 0x1F0 JUMPI DUP3 CALLDATALOAD PUSH8 0xFFFFFFFFFFFFFFFF DUP1 DUP3 GT PUSH2 0x186 JUMPI CALLDATASIZE PUSH1 0x23 DUP4 ADD SLT ISZERO PUSH2 0x186 JUMPI DUP2 DUP6 ADD CALLDATALOAD SWAP1 DUP2 GT PUSH2 0x186 JUMPI PUSH1 0x24 SWAP5 CALLDATASIZE PUSH1 0x24 DUP4 PUSH1 0x5 SHL DUP6 ADD ADD GT PUSH2 0x3F5 JUMPI SWAP5 SWAP3 SWAP2 PUSH2 0x2AA PUSH2 0x1024 JUMP JUMPDEST DUP3 SWAP6 DUP4 SWAP5 PUSH20 0xFFFFFFFFFFFFFFFFFFFFFFFFFFFFFFFFFFFFFFFF DUP1 PUSH32 0x0 AND SWAP4 JUMPDEST DUP6 DUP9 LT PUSH2 0x323 JUMPI DUP11 DUP11 DUP11 PUSH2 0x31D DUP3 CALLER PUSH32 0x0 PUSH2 0x1075 JUMP JUMPDEST MLOAD SWAP1 DUP2 MSTORE RETURN JUMPDEST SWAP1 SWAP2 SWAP3 SWAP4 SWAP5 SWAP6 SWAP7 SWAP9 DUP4 DUP11 PUSH1 0x5 SHL DUP4 ADD ADD CALLDATALOAD DUP4 DUP2 AND DUP1 SWAP2 SUB PUSH2 0x3F1 JUMPI SWAP1 DUP2 DUP13 SWAP3 DUP11 MSTORE PUSH1 0x1 DUP1 DUP5 MSTORE DUP12 DUP12 KECCAK256 SLOAD SWAP1 DUP13 MLOAD SWAP5 PUSH32 0x5886216F00000000000000000000000000000000000000000000000000000000 DUP7 MSTORE DUP4 DUP11 DUP8 ADD MSTORE DUP6 DUP10 DUP2 DUP14 GAS STATICCALL SWAP3 DUP4 ISZERO PUSH2 0x3E7 JUMPI DUP16 SWAP1 DUP14 SWAP5 PUSH2 0x3AB JUMPI JUMPDEST PUSH1 0x1 SWAP7 POP DUP14 MSTORE MSTORE DUP2 DUP13 DUP13 KECCAK256 SSTORE SUB ADD SWAP10 ADD SWAP7 SWAP6 SWAP5 SWAP4 SWAP3 SWAP2 SWAP1 PUSH2 0x2E8 JUMP JUMPDEST SWAP5 SWAP6 DUP1 SWAP3 SWAP4 SWAP5 POP DUP2 RETURNDATASIZE DUP4 GT PUSH2 0x3E0 JUMPI JUMPDEST PUSH2 0x3C5 DUP2 DUP4 PUSH2 0xCDA JUMP JUMPDEST DUP2 ADD SUB SLT PUSH2 0x3DC JUMPI SWAP1 DUP15 PUSH1 0x1 SWAP6 SWAP5 SWAP4 SWAP3 MLOAD SWAP4 PUSH2 0x38F JUMP JUMPDEST DUP12 DUP1 REVERT JUMPDEST POP RETURNDATASIZE PUSH2 0x3BB JUMP JUMPDEST DUP14 MLOAD RETURNDATASIZE DUP15 DUP3 RETURNDATACOPY RETURNDATASIZE SWAP1 REVERT JUMPDEST DUP9 DUP1 REVERT JUMPDEST DUP4 DUP1 REVERT JUMPDEST POP POP CALLVALUE PUSH2 0x44A JUMPI DUP2 PUSH32 0xFFFFFFFFFFFFFFFFFFFFFFFFFFFFFFFFFFFFFFFFFFFFFFFFFFFFFFFFFFFFFFFC CALLDATASIZE ADD SLT PUSH2 0x44A JUMPI PUSH20 0xFFFFFFFFFFFFFFFFFFFFFFFFFFFFFFFFFFFFFFFF PUSH1 0x20 SWAP3 SLOAD AND SWAP1 MLOAD SWAP1 DUP2 MSTORE RETURN JUMPDEST POP DUP1 REVERT JUMPDEST POP SWAP1 CALLVALUE PUSH2 0x186 JUMPI DUP1 PUSH32 0xFFFFFFFFFFFFFFFFFFFFFFFFFFFFFFFFFFFFFFFFFFFFFFFFFFFFFFFFFFFFFFFC CALLDATASIZE ADD SLT PUSH2 0x186 JUMPI DUP2 CALLDATALOAD PUSH20 0xFFFFFFFFFFFFFFFFFFFFFFFFFFFFFFFFFFFFFFFF DUP2 AND SWAP1 DUP2 DUP2 SUB PUSH2 0x5EC JUMPI PUSH1 0x24 CALLDATALOAD SWAP2 PUSH2 0x4AB PUSH2 0x1024 JUMP JUMPDEST DUP3 PUSH2 0x4B4 JUMPI DUP6 DUP1 RETURN JUMPDEST DUP1 ISZERO SWAP1 DUP2 ISZERO PUSH2 0x5CE JUMPI JUMPDEST POP ISZERO PUSH2 0x5BA JUMPI POP DUP1 SELFBALANCE LT PUSH2 0x593 JUMPI DUP4 DUP1 DUP1 DUP1 SWAP4 CALLER PUSH2 0x1388 CALL RETURNDATASIZE ISZERO PUSH2 0x58E JUMPI RETURNDATASIZE PUSH8 0xFFFFFFFFFFFFFFFF DUP2 GT PUSH2 0x562 JUMPI DUP3 MLOAD SWAP1 PUSH2 0x521 PUSH1 0x20 PUSH32 0xFFFFFFFFFFFFFFFFFFFFFFFFFFFFFFFFFFFFFFFFFFFFFFFFFFFFFFFFFFFFFFE0 PUSH1 0x1F DUP5 ADD AND ADD DUP4 PUSH2 0xCDA JUMP JUMPDEST DUP2 MSTORE DUP5 PUSH1 0x20 RETURNDATASIZE SWAP3 ADD RETURNDATACOPY JUMPDEST ISZERO PUSH2 0x53C JUMPI POP POP JUMPDEST CODESIZE DUP1 DUP1 DUP1 DUP1 DUP6 DUP1 RETURN JUMPDEST MLOAD PUSH32 0xB12D13EB00000000000000000000000000000000000000000000000000000000 DUP2 MSTORE REVERT JUMPDEST PUSH1 0x24 DUP6 PUSH1 0x41 DUP7 PUSH32 0x4E487B7100000000000000000000000000000000000000000000000000000000 DUP4 MSTORE MSTORE REVERT JUMPDEST PUSH2 0x52B JUMP JUMPDEST POP MLOAD PUSH32 0xF4D678B800000000000000000000000000000000000000000000000000000000 DUP2 MSTORE REVERT JUMPDEST SWAP1 SWAP2 POP PUSH2 0x5C9 SWAP3 POP CALLER SWAP1 PUSH2 0x1075 JUMP JUMPDEST PUSH2 0x533 JUMP JUMPDEST PUSH20 0xEEEEEEEEEEEEEEEEEEEEEEEEEEEEEEEEEEEEEEEE SWAP2 POP EQ CODESIZE PUSH2 0x4BE JUMP JUMPDEST DUP5 DUP1 REVERT JUMPDEST DUP4 CALLVALUE PUSH2 0x1F0 JUMPI DUP1 PUSH32 0xFFFFFFFFFFFFFFFFFFFFFFFFFFFFFFFFFFFFFFFFFFFFFFFFFFFFFFFFFFFFFFFC CALLDATASIZE ADD SLT PUSH2 0x1F0 JUMPI PUSH2 0x627 PUSH2 0x1024 JUMP JUMPDEST DUP1 PUSH20 0xFFFFFFFFFFFFFFFFFFFFFFFFFFFFFFFFFFFFFFFF DUP2 SLOAD PUSH32 0xFFFFFFFFFFFFFFFFFFFFFFFF0000000000000000000000000000000000000000 DUP2 AND DUP4 SSTORE AND PUSH32 0x8BE0079C531659141344CD1FD0A4F28419497F9722A3DAAFE3B4186F6B6457E0 DUP3 DUP1 LOG3 DUP1 RETURN JUMPDEST POP SWAP2 SWAP1 CALLVALUE PUSH2 0x44A JUMPI PUSH1 0x20 SWAP3 DUP4 PUSH32 0xFFFFFFFFFFFFFFFFFFFFFFFFFFFFFFFFFFFFFFFFFFFFFFFFFFFFFFFFFFFFFFFC CALLDATASIZE ADD SLT PUSH2 0x186 JUMPI DUP4 PUSH2 0x6C9 PUSH2 0x8BF JUMP JUMPDEST PUSH1 0x24 PUSH20 0xFFFFFFFFFFFFFFFFFFFFFFFFFFFFFFFFFFFFFFFF SWAP2 DUP3 DUP7 MLOAD SWAP6 DUP7 SWAP5 DUP6 SWAP4 PUSH32 0x5886216F00000000000000000000000000000000000000000000000000000000 DUP6 MSTORE AND SWAP1 DUP4 ADD MSTORE PUSH32 0x0 AND GAS STATICCALL SWAP3 DUP4 ISZERO PUSH2 0x77D JUMPI DUP1 SWAP4 PUSH2 0x74B JUMPI JUMPDEST POP POP MLOAD SWAP1 DUP2 MSTORE RETURN JUMPDEST SWAP1 SWAP2 SWAP3 POP DUP4 DUP3 DUP2 RETURNDATASIZE DUP4 GT PUSH2 0x776 JUMPI JUMPDEST PUSH2 0x764 DUP2 DUP4 PUSH2 0xCDA JUMP JUMPDEST DUP2 ADD SUB SLT PUSH2 0x1F0 JUMPI POP MLOAD SWAP1 CODESIZE DUP1 PUSH2 0x743 JUMP JUMPDEST POP RETURNDATASIZE PUSH2 0x75A JUMP JUMPDEST DUP3 MLOAD SWAP1 RETURNDATASIZE SWAP1 DUP3 RETURNDATACOPY RETURNDATASIZE SWAP1 REVERT JUMPDEST POP CALLVALUE PUSH2 0x186 JUMPI PUSH1 0x60 PUSH32 0xFFFFFFFFFFFFFFFFFFFFFFFFFFFFFFFFFFFFFFFFFFFFFFFFFFFFFFFFFFFFFFFC CALLDATASIZE ADD SLT PUSH2 0x186 JUMPI PUSH2 0x7C0 PUSH2 0x8BF JUMP JUMPDEST SWAP3 PUSH1 0x44 CALLDATALOAD SWAP1 PUSH8 0xFFFFFFFFFFFFFFFF DUP3 GT PUSH2 0x1F0 JUMPI POP SWAP3 PUSH2 0x7E8 PUSH2 0x1E9 SWAP3 PUSH1 0x20 SWAP6 CALLDATASIZE SWAP2 ADD PUSH2 0x8E7 JUMP JUMPDEST SWAP2 PUSH1 0x24 CALLDATALOAD SWAP1 PUSH2 0x915 JUMP JUMPDEST POP POP CALLVALUE PUSH2 0x44A JUMPI DUP1 PUSH32 0xFFFFFFFFFFFFFFFFFFFFFFFFFFFFFFFFFFFFFFFFFFFFFFFFFFFFFFFFFFFFFFFC CALLDATASIZE ADD SLT PUSH2 0x44A JUMPI PUSH1 0x20 SWAP1 PUSH2 0x1E9 PUSH2 0x830 PUSH2 0x8BF JUMP JUMPDEST PUSH1 0x24 CALLDATALOAD SWAP1 PUSH2 0xE50 JUMP JUMPDEST POP SWAP2 CALLVALUE PUSH2 0x1F0 JUMPI PUSH1 0x20 PUSH32 0xFFFFFFFFFFFFFFFFFFFFFFFFFFFFFFFFFFFFFFFFFFFFFFFFFFFFFFFFFFFFFFFC CALLDATASIZE ADD SLT PUSH2 0x1F0 JUMPI POP PUSH2 0x1E9 PUSH1 0x20 SWAP3 CALLDATALOAD CALLER PUSH2 0xD4A JUMP JUMPDEST POP POP CALLVALUE PUSH2 0x44A JUMPI DUP1 PUSH32 0xFFFFFFFFFFFFFFFFFFFFFFFFFFFFFFFFFFFFFFFFFFFFFFFFFFFFFFFFFFFFFFFC CALLDATASIZE ADD SLT PUSH2 0x44A JUMPI PUSH1 0x20 SWAP1 PUSH2 0x1E9 PUSH2 0x8B6 PUSH2 0x8BF JUMP JUMPDEST PUSH1 0x24 CALLDATALOAD SWAP1 PUSH2 0xD4A JUMP JUMPDEST PUSH1 0x4 CALLDATALOAD SWAP1 PUSH20 0xFFFFFFFFFFFFFFFFFFFFFFFFFFFFFFFFFFFFFFFF DUP3 AND DUP3 SUB PUSH2 0x8E2 JUMPI JUMP JUMPDEST PUSH1 0x0 DUP1 REVERT JUMPDEST SWAP2 DUP2 PUSH1 0x1F DUP5 ADD SLT ISZERO PUSH2 0x8E2 JUMPI DUP3 CALLDATALOAD SWAP2 PUSH8 0xFFFFFFFFFFFFFFFF DUP4 GT PUSH2 0x8E2 JUMPI PUSH1 0x20 DUP4 DUP2 DUP7 ADD SWAP6 ADD ADD GT PUSH2 0x8E2 JUMPI JUMP JUMPDEST PUSH1 0x40 MLOAD SWAP1 SWAP4 SWAP2 SWAP3 PUSH32 0x0 SWAP2 SWAP1 DUP4 PUSH1 0x0 PUSH1 0x64 DUP3 EQ PUSH2 0xC22 JUMPI POP SWAP4 PUSH1 0x0 SWAP5 SWAP2 DUP3 DUP7 SWAP6 SWAP5 SWAP4 PUSH1 0x48 EQ PUSH2 0xB60 JUMPI DUP1 PUSH1 0xE0 EQ PUSH2 0xB27 JUMPI DUP1 PUSH2 0x100 EQ PUSH2 0xAEC JUMPI DUP1 PUSH1 0x60 EQ PUSH2 0xA16 JUMPI PUSH2 0x160 EQ PUSH2 0x9CC JUMPI DUP2 DUP6 SWAP3 PUSH1 0x4 SWAP3 PUSH32 0x9FD5A6CF00000000000000000000000000000000000000000000000000000000 DUP7 MSTORE DUP4 DUP7 ADD CALLDATACOPY ADD SWAP3 GAS CALL JUMPDEST ISZERO PUSH2 0x9C0 JUMPI PUSH2 0x9BD SWAP2 PUSH2 0xE50 JUMP JUMPDEST SWAP1 JUMP JUMPDEST PUSH1 0x40 MLOAD RETURNDATASIZE PUSH1 0x0 DUP3 RETURNDATACOPY RETURNDATASIZE SWAP1 REVERT JUMPDEST PUSH2 0x164 SWAP4 POP PUSH2 0x160 SWAP2 POP PUSH32 0x2B67B57000000000000000000000000000000000000000000000000000000000 DUP4 MSTORE PUSH1 0x4 DUP4 ADD CALLDATACOPY DUP3 PUSH15 0x22D473030F116DDEE9F6B43AC78BA3 GAS CALL PUSH2 0x9AF JUMP JUMPDEST POP PUSH1 0x20 SWAP2 POP PUSH1 0x40 SWAP1 PUSH2 0x164 SWAP5 PUSH32 0x2B67B57000000000000000000000000000000000000000000000000000000000 DUP6 MSTORE CALLER PUSH1 0x4 DUP7 ADD MSTORE PUSH1 0x24 DUP6 ADD MSTORE PUSH1 0x14 DUP2 PUSH1 0x50 DUP7 ADD CALLDATACOPY PUSH32 0xFFFFFFFFFFFFFFFFFFFFFFFFFFFFFFFFFFFFFFFFFFFFFFFFFFFFFFFFFFFFFFFF PUSH6 0xFFFFFFFFFFFF SWAP1 DUP1 PUSH1 0x14 DUP5 ADD CALLDATALOAD PUSH1 0xE0 SHR ADD DUP3 AND PUSH1 0x64 DUP8 ADD MSTORE PUSH1 0x18 DUP4 ADD CALLDATALOAD PUSH1 0xE0 SHR PUSH1 0x84 DUP8 ADD MSTORE ADDRESS PUSH1 0xA4 DUP8 ADD MSTORE PUSH1 0x1C DUP4 ADD CALLDATALOAD PUSH1 0xE0 SHR ADD AND PUSH1 0xC4 DUP6 ADD MSTORE PUSH2 0x100 PUSH1 0xE4 DUP6 ADD MSTORE DUP2 PUSH2 0x104 DUP6 ADD MSTORE DUP3 DUP1 DUP3 ADD PUSH2 0x124 DUP7 ADD CALLDATACOPY ADD PUSH2 0x144 DUP4 ADD CALLDATACOPY DUP3 PUSH15 0x22D473030F116DDEE9F6B43AC78BA3 GAS CALL PUSH2 0x9AF JUMP JUMPDEST POP DUP5 SWAP2 POP SWAP3 PUSH2 0x100 PUSH2 0x104 SWAP5 PUSH32 0x8FCBAF0C00000000000000000000000000000000000000000000000000000000 DUP6 MSTORE PUSH1 0x4 DUP6 ADD CALLDATACOPY GAS CALL PUSH2 0x9AF JUMP JUMPDEST POP DUP5 SWAP2 POP SWAP3 PUSH1 0xE0 PUSH1 0xE4 SWAP5 PUSH32 0xD505ACCF00000000000000000000000000000000000000000000000000000000 DUP6 MSTORE PUSH1 0x4 DUP6 ADD CALLDATACOPY GAS CALL PUSH2 0x9AF JUMP JUMPDEST POP DUP5 SWAP2 POP SWAP3 PUSH32 0x7FFFFFFFFFFFFFFFFFFFFFFFFFFFFFFFFFFFFFFFFFFFFFFFFFFFFFFFFFFFFFFF PUSH2 0x104 SWAP5 PUSH32 0x8FCBAF0C00000000000000000000000000000000000000000000000000000000 DUP6 MSTORE CALLER PUSH1 0x4 DUP7 ADD MSTORE ADDRESS PUSH1 0x24 DUP7 ADD MSTORE PUSH1 0x20 PUSH1 0x8 PUSH1 0x28 DUP4 ADD CALLDATALOAD SWAP3 DUP1 CALLDATALOAD PUSH1 0xE0 SHR PUSH1 0x44 DUP10 ADD MSTORE PUSH32 0xFFFFFFFFFFFFFFFFFFFFFFFFFFFFFFFFFFFFFFFFFFFFFFFFFFFFFFFFFFFFFFFF PUSH1 0x4 DUP3 ADD CALLDATALOAD PUSH1 0xE0 SHR ADD PUSH1 0x64 DUP10 ADD MSTORE PUSH1 0x1 PUSH1 0x84 DUP10 ADD MSTORE DUP4 PUSH1 0xFF SHR PUSH1 0x1B ADD PUSH1 0xA4 DUP10 ADD MSTORE ADD PUSH1 0xC4 DUP8 ADD CALLDATACOPY AND PUSH1 0xE4 DUP5 ADD MSTORE GAS CALL PUSH2 0x9AF JUMP JUMPDEST SWAP5 POP POP SWAP1 DUP4 DUP1 SWAP4 PUSH32 0x7FFFFFFFFFFFFFFFFFFFFFFFFFFFFFFFFFFFFFFFFFFFFFFFFFFFFFFFFFFFFFFF PUSH1 0xE4 SWAP5 PUSH32 0xD505ACCF00000000000000000000000000000000000000000000000000000000 DUP6 MSTORE CALLER PUSH1 0x4 DUP7 ADD MSTORE ADDRESS PUSH1 0x24 DUP7 ADD MSTORE PUSH1 0x20 PUSH1 0x24 PUSH1 0x44 DUP4 ADD CALLDATALOAD SWAP3 DUP3 DUP2 PUSH1 0x44 DUP11 ADD CALLDATACOPY PUSH32 0xFFFFFFFFFFFFFFFFFFFFFFFFFFFFFFFFFFFFFFFFFFFFFFFFFFFFFFFFFFFFFFFF DUP4 DUP3 ADD CALLDATALOAD PUSH1 0xE0 SHR ADD PUSH1 0x64 DUP10 ADD MSTORE DUP4 PUSH1 0xFF SHR PUSH1 0x1B ADD PUSH1 0x84 DUP10 ADD MSTORE ADD PUSH1 0xA4 DUP8 ADD CALLDATACOPY AND PUSH1 0xC4 DUP5 ADD MSTORE GAS CALL PUSH2 0x9AF JUMP JUMPDEST SWAP1 PUSH1 0x1F PUSH32 0xFFFFFFFFFFFFFFFFFFFFFFFFFFFFFFFFFFFFFFFFFFFFFFFFFFFFFFFFFFFFFFE0 SWAP2 ADD AND DUP2 ADD SWAP1 DUP2 LT PUSH8 0xFFFFFFFFFFFFFFFF DUP3 GT OR PUSH2 0xD1B JUMPI PUSH1 0x40 MSTORE JUMP JUMPDEST PUSH32 0x4E487B7100000000000000000000000000000000000000000000000000000000 PUSH1 0x0 MSTORE PUSH1 0x41 PUSH1 0x4 MSTORE PUSH1 0x24 PUSH1 0x0 REVERT JUMPDEST PUSH1 0x40 MLOAD PUSH32 0x85EDA2DE00000000000000000000000000000000000000000000000000000000 DUP2 MSTORE CALLER PUSH1 0x4 DUP3 ADD MSTORE PUSH1 0x24 DUP2 ADD DUP4 SWAP1 MSTORE PUSH1 0x0 SWAP4 SWAP3 SWAP1 SWAP2 PUSH1 0x20 DUP4 PUSH1 0x44 DUP2 DUP9 PUSH32 0x0 PUSH20 0xFFFFFFFFFFFFFFFFFFFFFFFFFFFFFFFFFFFFFFFF AND GAS CALL SWAP3 DUP4 ISZERO PUSH2 0xE45 JUMPI DUP6 SWAP4 PUSH2 0xE10 JUMPI JUMPDEST POP PUSH1 0x40 PUSH2 0xE0E SWAP4 SWAP6 CALLER DUP2 MSTORE PUSH1 0x1 PUSH1 0x20 MSTORE KECCAK256 DUP3 DUP2 SLOAD SUB SWAP1 SSTORE PUSH32 0x0 PUSH2 0x1075 JUMP JUMPDEST JUMP JUMPDEST SWAP3 POP PUSH1 0x20 DUP4 RETURNDATASIZE PUSH1 0x20 GT PUSH2 0xE3D JUMPI JUMPDEST DUP2 PUSH2 0xE2B PUSH1 0x20 SWAP4 DUP4 PUSH2 0xCDA JUMP JUMPDEST DUP2 ADD SUB SLT PUSH2 0x5EC JUMPI SWAP2 MLOAD SWAP2 PUSH1 0x40 PUSH2 0xDD1 JUMP JUMPDEST RETURNDATASIZE SWAP2 POP PUSH2 0xE1E JUMP JUMPDEST PUSH1 0x40 MLOAD RETURNDATASIZE DUP8 DUP3 RETURNDATACOPY RETURNDATASIZE SWAP1 REVERT JUMPDEST PUSH20 0xFFFFFFFFFFFFFFFFFFFFFFFFFFFFFFFFFFFFFFFF SWAP2 DUP3 DUP3 AND SWAP1 DUP2 ISZERO PUSH2 0xFFA JUMPI PUSH1 0x64 SWAP4 PUSH32 0x0 PUSH1 0x0 PUSH1 0x40 MLOAD SWAP1 PUSH32 0x23B872DD00000000000000000000000000000000000000000000000000000000 DUP3 MSTORE CALLER PUSH1 0x4 DUP4 ADD MSTORE ADDRESS PUSH1 0x24 DUP4 ADD MSTORE DUP5 PUSH1 0x44 DUP4 ADD MSTORE PUSH1 0x20 SWAP8 DUP9 SWAP3 DUP3 DUP6 GAS CALL SWAP1 DUP2 PUSH2 0xFD7 JUMPI JUMPDEST POP ISZERO PUSH2 0xFAD JUMPI PUSH1 0x0 SWAP3 DUP4 MSTORE PUSH1 0x1 DUP6 MSTORE PUSH1 0x40 DUP1 DUP5 KECCAK256 DUP1 SLOAD DUP5 ADD SWAP1 SSTORE MLOAD PUSH32 0x3EE5EF1F00000000000000000000000000000000000000000000000000000000 DUP2 MSTORE PUSH20 0xFFFFFFFFFFFFFFFFFFFFFFFFFFFFFFFFFFFFFFFF SWAP5 SWAP1 SWAP5 AND PUSH1 0x4 DUP6 ADD MSTORE PUSH1 0x24 DUP5 ADD SWAP2 SWAP1 SWAP2 MSTORE DUP4 SWAP2 DUP4 SWAP2 PUSH1 0x44 SWAP2 DUP4 SWAP2 PUSH32 0x0 AND GAS CALL SWAP2 DUP3 ISZERO PUSH2 0x9C0 JUMPI PUSH1 0x0 SWAP3 PUSH2 0xF83 JUMPI POP POP SWAP1 JUMP JUMPDEST SWAP1 DUP1 SWAP3 POP DUP2 RETURNDATASIZE DUP4 GT PUSH2 0xFA6 JUMPI JUMPDEST PUSH2 0xF9A DUP2 DUP4 PUSH2 0xCDA JUMP JUMPDEST DUP2 ADD SUB SLT PUSH2 0x8E2 JUMPI MLOAD SWAP1 JUMP JUMPDEST POP RETURNDATASIZE PUSH2 0xF90 JUMP JUMPDEST PUSH1 0x4 PUSH1 0x40 MLOAD PUSH32 0xF405907100000000000000000000000000000000000000000000000000000000 DUP2 MSTORE REVERT JUMPDEST SWAP1 POP RETURNDATASIZE ISZERO PUSH2 0xFF2 JUMPI POP PUSH1 0x1 PUSH1 0x0 MLOAD EQ PUSH1 0x1F RETURNDATASIZE GT AND JUMPDEST CODESIZE PUSH2 0xEDF JUMP JUMPDEST EXTCODESIZE ISZERO ISZERO PUSH2 0xFEC JUMP JUMPDEST PUSH1 0x4 PUSH1 0x40 MLOAD PUSH32 0xD92E233D00000000000000000000000000000000000000000000000000000000 DUP2 MSTORE REVERT JUMPDEST PUSH20 0xFFFFFFFFFFFFFFFFFFFFFFFFFFFFFFFFFFFFFFFF PUSH1 0x0 SLOAD AND CALLER SUB PUSH2 0x1045 JUMPI JUMP JUMPDEST PUSH1 0x24 PUSH1 0x40 MLOAD PUSH32 0x118CDAA700000000000000000000000000000000000000000000000000000000 DUP2 MSTORE CALLER PUSH1 0x4 DUP3 ADD MSTORE REVERT JUMPDEST SWAP2 PUSH1 0x44 PUSH1 0x20 SWAP3 PUSH1 0x0 SWAP3 PUSH1 0x40 MLOAD SWAP2 PUSH32 0xA9059CBB00000000000000000000000000000000000000000000000000000000 DUP4 MSTORE PUSH1 0x4 DUP4 ADD MSTORE PUSH1 0x24 DUP3 ADD MSTORE DUP3 DUP6 GAS CALL SWAP1 DUP2 PUSH2 0x10EC JUMPI JUMPDEST POP ISZERO PUSH2 0x10C2 JUMPI JUMP JUMPDEST PUSH1 0x4 PUSH1 0x40 MLOAD PUSH32 0xFB7F507900000000000000000000000000000000000000000000000000000000 DUP2 MSTORE REVERT JUMPDEST SWAP1 POP RETURNDATASIZE ISZERO PUSH2 0x1107 JUMPI POP PUSH1 0x1 PUSH1 0x0 MLOAD EQ PUSH1 0x1F RETURNDATASIZE GT AND JUMPDEST CODESIZE PUSH2 0x10BA JUMP JUMPDEST EXTCODESIZE ISZERO ISZERO PUSH2 0x1101 JUMP INVALID LOG2 PUSH5 0x6970667358 0x22 SLT KECCAK256 SSTORE 0x2A GASPRICE DUP4 0xB3 PUSH31 0x5067BE598C508F5E5724E322070B2FBDD787200276B277EAF18C64736F6C63 NUMBER STOP ADDMOD OR STOP CALLER PUSH1 0xE0 CALLVALUE PUSH2 0xED JUMPI PUSH1 0x1F PUSH2 0xB45 CODESIZE DUP2 SWAP1 SUB SWAP2 DUP3 ADD PUSH1 0x1F NOT AND DUP4 ADD SWAP2 PUSH1 0x1 PUSH1 0x1 PUSH1 0x40 SHL SUB DUP4 GT DUP5 DUP5 LT OR PUSH2 0xF2 JUMPI DUP1 DUP5 SWAP3 PUSH1 0x20 SWAP5 PUSH1 0x40 MSTORE DUP4 CODECOPY DUP2 ADD SUB SLT PUSH2 0xED JUMPI MLOAD PUSH4 0xFFFFFFFF DUP2 AND DUP1 SWAP2 SUB PUSH2 0xED JUMPI CALLER PUSH1 0xA0 MSTORE PUSH1 0x80 MSTORE PUSH15 0x5AF43D82803E903D91602B57FD5BF3 PUSH1 0x20 MSTORE ADDRESS PUSH1 0x11 MSTORE PUSH23 0x3D602D80600A3D3981F3363D3D373D3D3D363D73000000 ADDRESS PUSH1 0x88 SHR OR PUSH1 0x0 MSTORE PUSH1 0x37 PUSH1 0x9 KECCAK256 PUSH1 0xC0 MSTORE PUSH1 0x40 MLOAD PUSH2 0xA3C SWAP1 DUP2 PUSH2 0x109 DUP3 CODECOPY PUSH1 0x80 MLOAD DUP2 DUP2 DUP2 PUSH1 0xA8 ADD MSTORE PUSH2 0x366 ADD MSTORE PUSH1 0xA0 MLOAD DUP2 DUP2 DUP2 PUSH2 0x161 ADD MSTORE DUP2 DUP2 PUSH2 0x330 ADD MSTORE DUP2 DUP2 PUSH2 0x4EE ADD MSTORE PUSH2 0x6C0 ADD MSTORE PUSH1 0xC0 MLOAD DUP2 DUP2 DUP2 PUSH2 0x137 ADD MSTORE DUP2 DUP2 PUSH2 0x306 ADD MSTORE DUP2 DUP2 PUSH2 0x47F ADD MSTORE PUSH2 0x696 ADD MSTORE RETURN JUMPDEST PUSH1 0x0 DUP1 REVERT JUMPDEST PUSH4 0x4E487B71 PUSH1 0xE0 SHL PUSH1 0x0 MSTORE PUSH1 0x41 PUSH1 0x4 MSTORE PUSH1 0x24 PUSH1 0x0 REVERT INVALID PUSH1 0x80 PUSH1 0x40 DUP2 DUP2 MSTORE PUSH1 0x4 SWAP2 DUP3 CALLDATASIZE LT ISZERO PUSH2 0x16 JUMPI PUSH1 0x0 DUP1 REVERT JUMPDEST PUSH1 0x0 SWAP3 PUSH1 0xE0 DUP5 CALLDATALOAD DUP2 SHR SWAP3 DUP4 PUSH4 0xAF97558 EQ PUSH2 0x5A1 JUMPI POP DUP3 PUSH4 0x23305703 EQ PUSH2 0x512 JUMPI DUP3 PUSH4 0x2DD31000 EQ PUSH2 0x4A2 JUMPI DUP3 PUSH4 0x34862B6A EQ PUSH2 0x448 JUMPI DUP3 PUSH4 0x4649088B EQ PUSH2 0x262 JUMPI POP DUP2 PUSH4 0x90D3252F EQ PUSH2 0xCF JUMPI POP PUSH4 0xF56CD69C EQ PUSH2 0x74 JUMPI PUSH1 0x0 DUP1 REVERT JUMPDEST CALLVALUE PUSH2 0xCB JUMPI DUP2 PUSH32 0xFFFFFFFFFFFFFFFFFFFFFFFFFFFFFFFFFFFFFFFFFFFFFFFFFFFFFFFFFFFFFFFC CALLDATASIZE ADD SLT PUSH2 0xCB JUMPI PUSH1 0x20 SWAP1 MLOAD PUSH32 0x0 DUP2 MSTORE RETURN JUMPDEST POP DUP1 REVERT JUMPDEST DUP4 DUP4 CALLVALUE PUSH2 0xCB JUMPI PUSH2 0x100 DUP1 PUSH32 0xFFFFFFFFFFFFFFFFFFFFFFFFFFFFFFFFFFFFFFFFFFFFFFFFFFFFFFFFFFFFFFFC CALLDATASIZE ADD SLT PUSH2 0x25E JUMPI PUSH20 0xFFFFFFFFFFFFFFFFFFFFFFFFFFFFFFFFFFFFFFFF SWAP2 DUP3 PUSH1 0x64 CALLDATALOAD AND SWAP2 DUP3 CALLER SUB PUSH2 0x236 JUMPI PUSH1 0x55 PUSH1 0xB DUP6 SWAP3 DUP5 MLOAD DUP2 DUP11 DUP3 CALLDATACOPY KECCAK256 DUP5 MLOAD SWAP1 PUSH32 0x0 DUP7 DUP4 ADD MSTORE PUSH1 0x20 DUP3 ADD MSTORE PUSH32 0x0 DUP2 MSTORE ADD PUSH1 0xFF DUP2 MSTORE8 KECCAK256 AND ADDRESS SUB PUSH2 0x20E JUMPI PUSH2 0x19A PUSH1 0xE4 CALLDATALOAD PUSH2 0x816 JUMP JUMPDEST TIMESTAMP LT PUSH2 0x1E6 JUMPI POP SWAP1 PUSH2 0x1B3 SWAP2 PUSH1 0xA4 CALLDATALOAD SWAP2 PUSH1 0x84 CALLDATALOAD AND PUSH2 0x8F7 JUMP JUMPDEST PUSH2 0x1BF PUSH1 0xC4 CALLDATALOAD CALLER PUSH2 0x929 JUMP JUMPDEST PUSH32 0x6E3BE9294E58D10B9C8053CFD5E09871B67E442FE394D6B0870D336B9DF984A9 DUP2 DUP1 LOG1 DUP1 RETURN JUMPDEST DUP5 SWAP1 MLOAD PUSH32 0x6F7EAC2600000000000000000000000000000000000000000000000000000000 DUP2 MSTORE REVERT JUMPDEST DUP5 SWAP1 MLOAD PUSH32 0xA269484A00000000000000000000000000000000000000000000000000000000 DUP2 MSTORE REVERT JUMPDEST DUP6 DUP3 MLOAD PUSH32 0x48F5C3ED00000000000000000000000000000000000000000000000000000000 DUP2 MSTORE REVERT JUMPDEST DUP3 DUP1 REVERT JUMPDEST DUP4 DUP6 SWAP2 CALLVALUE PUSH2 0x25E JUMPI PUSH2 0x140 PUSH32 0xFFFFFFFFFFFFFFFFFFFFFFFFFFFFFFFFFFFFFFFFFFFFFFFFFFFFFFFFFFFFFFFC CALLDATASIZE ADD SLT PUSH2 0x25E JUMPI DUP4 CALLDATALOAD SWAP4 PUSH20 0xFFFFFFFFFFFFFFFFFFFFFFFFFFFFFFFFFFFFFFFF SWAP1 DUP2 DUP7 AND SWAP3 DUP4 DUP8 SUB PUSH2 0x444 JUMPI PUSH1 0x24 CALLDATALOAD SWAP3 PUSH2 0x100 DUP1 PUSH32 0xFFFFFFFFFFFFFFFFFFFFFFFFFFFFFFFFFFFFFFFFFFFFFFFFFFFFFFFFFFFFFFBC CALLDATASIZE ADD SLT PUSH2 0x440 JUMPI DUP2 PUSH1 0xA4 CALLDATALOAD AND CALLER SUB PUSH2 0x418 JUMPI PUSH1 0xB PUSH1 0x55 SWAP2 DUP9 MLOAD DUP2 PUSH1 0x44 DUP3 CALLDATACOPY KECCAK256 DUP9 MLOAD SWAP1 PUSH32 0x0 DUP11 DUP4 ADD MSTORE PUSH1 0x20 DUP3 ADD MSTORE PUSH32 0x0 DUP2 MSTORE ADD PUSH1 0xFF DUP2 MSTORE8 KECCAK256 AND ADDRESS SUB PUSH2 0x3F0 JUMPI PUSH2 0x124 CALLDATALOAD SWAP1 SHR PUSH32 0x0 ADD TIMESTAMP LT PUSH2 0x3C9 JUMPI POP PUSH2 0x3BB DUP2 PUSH32 0xC4474C2790E13695F6D2B6F1D8E164290B55370F87A542FD7711ABE0A1BF40AC SWAP6 SWAP7 CALLER SWAP1 PUSH2 0x8F7 JUMP JUMPDEST DUP3 MLOAD SWAP2 DUP3 MSTORE PUSH1 0x20 DUP3 ADD MSTORE LOG1 DUP1 RETURN JUMPDEST DUP4 MLOAD PUSH32 0x6F7EAC2600000000000000000000000000000000000000000000000000000000 DUP2 MSTORE REVERT JUMPDEST POP DUP4 MLOAD PUSH32 0xA269484A00000000000000000000000000000000000000000000000000000000 DUP2 MSTORE REVERT JUMPDEST DUP4 DUP8 MLOAD PUSH32 0x48F5C3ED00000000000000000000000000000000000000000000000000000000 DUP2 MSTORE REVERT JUMPDEST DUP8 DUP1 REVERT JUMPDEST DUP6 DUP1 REVERT JUMPDEST POP POP POP CALLVALUE PUSH2 0xCB JUMPI DUP2 PUSH32 0xFFFFFFFFFFFFFFFFFFFFFFFFFFFFFFFFFFFFFFFFFFFFFFFFFFFFFFFFFFFFFFFC CALLDATASIZE ADD SLT PUSH2 0xCB JUMPI PUSH1 0x20 SWAP1 MLOAD PUSH32 0x0 DUP2 MSTORE RETURN JUMPDEST POP POP POP CALLVALUE PUSH2 0xCB JUMPI DUP2 PUSH32 0xFFFFFFFFFFFFFFFFFFFFFFFFFFFFFFFFFFFFFFFFFFFFFFFFFFFFFFFFFFFFFFFC CALLDATASIZE ADD SLT PUSH2 0xCB JUMPI PUSH1 0x20 SWAP1 MLOAD PUSH20 0xFFFFFFFFFFFFFFFFFFFFFFFFFFFFFFFFFFFFFFFF PUSH32 0x0 AND DUP2 MSTORE RETURN JUMPDEST DUP4 DUP6 SWAP2 CALLVALUE PUSH2 0x25E JUMPI PUSH2 0x523 CALLDATASIZE PUSH2 0x606 JUMP JUMPDEST SWAP3 SWAP1 SWAP2 PUSH20 0xFFFFFFFFFFFFFFFFFFFFFFFFFFFFFFFFFFFFFFFF PUSH1 0x60 DUP6 ADD CALLDATALOAD AND CALLER SUB PUSH2 0x236 JUMPI PUSH4 0xFFFFFFFF DUP2 DUP6 ADD CALLDATALOAD DUP1 SWAP3 SHR SWAP2 PUSH1 0x80 SHR AND DUP2 ADD DUP1 SWAP2 GT PUSH2 0x575 JUMPI TIMESTAMP LT PUSH2 0x1E6 JUMPI POP SWAP1 PUSH2 0x572 SWAP2 PUSH2 0x66A JUMP JUMPDEST DUP1 RETURN JUMPDEST PUSH1 0x24 DUP6 PUSH1 0x11 DUP9 PUSH32 0x4E487B7100000000000000000000000000000000000000000000000000000000 DUP4 MSTORE MSTORE REVERT JUMPDEST DUP6 SWAP2 CALLVALUE PUSH2 0x25E JUMPI PUSH2 0x5B1 CALLDATASIZE PUSH2 0x606 JUMP JUMPDEST SWAP3 SWAP1 SWAP2 PUSH4 0xFFFFFFFF DUP2 DUP6 ADD CALLDATALOAD DUP1 SWAP3 SHR SWAP2 PUSH1 0xA0 SHR AND DUP2 ADD DUP1 SWAP2 GT PUSH2 0x575 JUMPI TIMESTAMP LT PUSH2 0x5DF JUMPI POP SWAP1 PUSH2 0x572 SWAP2 PUSH2 0x66A JUMP JUMPDEST DUP1 PUSH32 0x6F7EAC2600000000000000000000000000000000000000000000000000000000 DUP7 SWAP3 MSTORE REVERT JUMPDEST SWAP1 PUSH2 0x120 PUSH32 0xFFFFFFFFFFFFFFFFFFFFFFFFFFFFFFFFFFFFFFFFFFFFFFFFFFFFFFFFFFFFFFFC DUP4 ADD SLT PUSH2 0x665 JUMPI PUSH2 0x100 PUSH32 0xFFFFFFFFFFFFFFFFFFFFFFFFFFFFFFFFFFFFFFFFFFFFFFFFFFFFFFFFFFFFFFDC PUSH1 0x4 CALLDATALOAD SWAP4 ADD SLT PUSH2 0x665 JUMPI PUSH1 0x24 SWAP1 JUMP JUMPDEST PUSH1 0x0 DUP1 REVERT JUMPDEST SWAP1 PUSH2 0x678 PUSH1 0xE0 DUP3 ADD CALLDATALOAD PUSH2 0x816 JUMP JUMPDEST TIMESTAMP LT ISZERO PUSH2 0x7EC JUMPI PUSH1 0x40 SWAP1 PUSH1 0x55 PUSH1 0xB DUP4 MLOAD PUSH2 0x100 SWAP1 DUP2 DUP6 DUP3 CALLDATACOPY KECCAK256 DUP5 MLOAD SWAP1 PUSH32 0x0 DUP7 DUP4 ADD MSTORE PUSH1 0x20 DUP3 ADD MSTORE PUSH32 0x0 DUP2 MSTORE ADD PUSH1 0xFF DUP2 MSTORE8 KECCAK256 PUSH20 0xFFFFFFFFFFFFFFFFFFFFFFFFFFFFFFFFFFFFFFFF SWAP1 DUP2 AND ADDRESS SUB PUSH2 0x7C3 JUMPI PUSH1 0x0 SWAP1 DUP5 DUP3 MSTORE PUSH1 0x20 DUP3 KECCAK256 PUSH1 0x20 DUP5 ADD CALLDATALOAD SUB PUSH2 0x79A JUMPI PUSH1 0xC0 DUP4 PUSH1 0x20 SWAP6 SWAP4 DUP4 PUSH2 0x77D SWAP5 PUSH1 0x80 PUSH32 0xCE781A18C10C8289803C7C4CFD532D797113C4B41C9701FFAD7D0A632AC555B SWAP11 SWAP9 ADD CALLDATALOAD AND SWAP1 DUP7 DUP5 ADD CALLDATALOAD AND SWAP1 DUP1 ISZERO PUSH1 0x0 EQ PUSH2 0x784 JUMPI POP DUP2 DUP1 DUP1 SWAP3 PUSH1 0xA0 DUP7 ADD CALLDATALOAD SWAP1 GAS CALL POP PUSH2 0x773 PUSH2 0x85F JUMP JUMPDEST POP JUMPDEST ADD CALLDATALOAD CALLER PUSH2 0x929 JUMP JUMPDEST MLOAD SWAP1 DUP2 MSTORE LOG1 JUMP JUMPDEST SWAP1 PUSH2 0x795 SWAP3 POP PUSH1 0xA0 DUP5 ADD CALLDATALOAD SWAP2 PUSH2 0x96C JUMP JUMPDEST PUSH2 0x775 JUMP JUMPDEST PUSH1 0x4 DUP5 MLOAD PUSH32 0xABAB6BD700000000000000000000000000000000000000000000000000000000 DUP2 MSTORE REVERT JUMPDEST PUSH1 0x4 DUP4 MLOAD PUSH32 0xA269484A00000000000000000000000000000000000000000000000000000000 DUP2 MSTORE REVERT JUMPDEST PUSH1 0x4 PUSH1 0x40 MLOAD PUSH32 0x6F7EAC2600000000000000000000000000000000000000000000000000000000 DUP2 MSTORE REVERT JUMPDEST PUSH4 0xFFFFFFFF DUP2 PUSH1 0xE0 SHR SWAP2 PUSH1 0xC0 SHR AND DUP2 ADD DUP1 SWAP2 GT PUSH2 0x830 JUMPI SWAP1 JUMP JUMPDEST PUSH32 0x4E487B7100000000000000000000000000000000000000000000000000000000 PUSH1 0x0 MSTORE PUSH1 0x11 PUSH1 0x4 MSTORE PUSH1 0x24 PUSH1 0x0 REVERT JUMPDEST RETURNDATASIZE ISZERO PUSH2 0x8F2 JUMPI PUSH8 0xFFFFFFFFFFFFFFFF SWAP1 RETURNDATASIZE DUP3 DUP2 GT PUSH2 0x8C3 JUMPI PUSH1 0x40 MLOAD SWAP3 PUSH1 0x1F DUP3 ADD PUSH32 0xFFFFFFFFFFFFFFFFFFFFFFFFFFFFFFFFFFFFFFFFFFFFFFFFFFFFFFFFFFFFFFE0 SWAP1 DUP2 AND PUSH1 0x3F ADD AND DUP5 ADD SWAP1 DUP2 GT DUP5 DUP3 LT OR PUSH2 0x8C3 JUMPI PUSH1 0x40 MSTORE DUP3 MSTORE RETURNDATASIZE PUSH1 0x0 PUSH1 0x20 DUP5 ADD RETURNDATACOPY JUMP JUMPDEST PUSH32 0x4E487B7100000000000000000000000000000000000000000000000000000000 PUSH1 0x0 MSTORE PUSH1 0x41 PUSH1 0x4 MSTORE PUSH1 0x24 PUSH1 0x0 REVERT JUMPDEST PUSH1 0x60 SWAP1 JUMP JUMPDEST PUSH20 0xFFFFFFFFFFFFFFFFFFFFFFFFFFFFFFFFFFFFFFFF AND SWAP2 SWAP1 DUP3 PUSH2 0x920 JUMPI PUSH2 0x91E SWAP3 POP PUSH2 0x929 JUMP JUMPDEST JUMP JUMPDEST PUSH2 0x91E SWAP3 PUSH2 0x96C JUMP JUMPDEST PUSH1 0x0 DUP1 DUP1 SWAP4 DUP2 SWAP4 GAS CALL PUSH2 0x93A PUSH2 0x85F JUMP JUMPDEST POP ISZERO PUSH2 0x942 JUMPI JUMP JUMPDEST PUSH1 0x4 PUSH1 0x40 MLOAD PUSH32 0x8A0332D500000000000000000000000000000000000000000000000000000000 DUP2 MSTORE REVERT JUMPDEST SWAP2 PUSH1 0x44 PUSH1 0x20 SWAP3 PUSH1 0x0 SWAP3 PUSH1 0x40 MLOAD SWAP2 PUSH32 0xA9059CBB00000000000000000000000000000000000000000000000000000000 DUP4 MSTORE PUSH1 0x4 DUP4 ADD MSTORE PUSH1 0x24 DUP3 ADD MSTORE DUP3 DUP6 GAS CALL SWAP1 DUP2 PUSH2 0x9E3 JUMPI JUMPDEST POP ISZERO PUSH2 0x9B9 JUMPI JUMP JUMPDEST PUSH1 0x4 PUSH1 0x40 MLOAD PUSH32 0xFB7F507900000000000000000000000000000000000000000000000000000000 DUP2 MSTORE REVERT JUMPDEST SWAP1 POP RETURNDATASIZE ISZERO PUSH2 0x9FE JUMPI POP PUSH1 0x1 PUSH1 0x0 MLOAD EQ PUSH1 0x1F RETURNDATASIZE GT AND JUMPDEST CODESIZE PUSH2 0x9B1 JUMP JUMPDEST EXTCODESIZE ISZERO ISZERO PUSH2 0x9F8 JUMP INVALID LOG2 PUSH5 0x6970667358 0x22 SLT KECCAK256 SHR 0x4D ADD SWAP8 JUMPI 0xEF 0x2A 0xF9 LOG0 0xC9 0x24 GASLIMIT PUSH17 0xF1AC8B0712F3879D83227AA766537895B8 PREVRANDAO PUSH2 0x6473 PUSH16 0x6C6343000817003360E0346100ED5760 0x1F PUSH2 0xE0A CODESIZE DUP2 SWAP1 SUB SWAP2 DUP3 ADD PUSH1 0x1F NOT AND DUP4 ADD SWAP2 PUSH1 0x1 PUSH1 0x1 PUSH1 0x40 SHL SUB DUP4 GT DUP5 DUP5 LT OR PUSH2 0xF2 JUMPI DUP1 DUP5 SWAP3 PUSH1 0x20 SWAP5 PUSH1 0x40 MSTORE DUP4 CODECOPY DUP2 ADD SUB SLT PUSH2 0xED JUMPI MLOAD PUSH4 0xFFFFFFFF DUP2 AND DUP1 SWAP2 SUB PUSH2 0xED JUMPI CALLER PUSH1 0xA0 MSTORE PUSH1 0x80 MSTORE PUSH15 0x5AF43D82803E903D91602B57FD5BF3 PUSH1 0x20 MSTORE ADDRESS PUSH1 0x11 MSTORE PUSH23 0x3D602D80600A3D3981F3363D3D373D3D3D363D73000000 ADDRESS PUSH1 0x88 SHR OR PUSH1 0x0 MSTORE PUSH1 0x37 PUSH1 0x9 KECCAK256 PUSH1 0xC0 MSTORE PUSH1 0x40 MLOAD PUSH2 0xD01 SWAP1 DUP2 PUSH2 0x109 DUP3 CODECOPY PUSH1 0x80 MLOAD DUP2 DUP2 DUP2 PUSH1 0xBE ADD MSTORE PUSH2 0x4F9 ADD MSTORE PUSH1 0xA0 MLOAD DUP2 DUP2 DUP2 PUSH2 0x66E ADD MSTORE DUP2 DUP2 PUSH2 0x9CD ADD MSTORE DUP2 DUP2 PUSH2 0xA7E ADD MSTORE PUSH2 0xB04 ADD MSTORE PUSH1 0xC0 MLOAD DUP2 DUP2 DUP2 PUSH2 0x5FF ADD MSTORE DUP2 DUP2 PUSH2 0x9A2 ADD MSTORE DUP2 DUP2 PUSH2 0xA53 ADD MSTORE PUSH2 0xAD9 ADD MSTORE RETURN JUMPDEST PUSH1 0x0 DUP1 REVERT JUMPDEST PUSH4 0x4E487B71 PUSH1 0xE0 SHL PUSH1 0x0 MSTORE PUSH1 0x41 PUSH1 0x4 MSTORE PUSH1 0x24 PUSH1 0x0 REVERT INVALID PUSH1 0x80 PUSH1 0x40 DUP2 DUP2 MSTORE PUSH1 0x4 SWAP2 DUP3 CALLDATASIZE LT ISZERO PUSH2 0x16 JUMPI PUSH1 0x0 DUP1 REVERT JUMPDEST PUSH1 0x0 SWAP3 PUSH1 0xE0 DUP5 CALLDATALOAD DUP2 SHR SWAP3 DUP4 PUSH4 0xAF97558 EQ PUSH2 0x779 JUMPI POP DUP3 PUSH4 0x23305703 EQ PUSH2 0x692 JUMPI DUP3 PUSH4 0x2DD31000 EQ PUSH2 0x622 JUMPI DUP3 PUSH4 0x34862B6A EQ PUSH2 0x5C8 JUMPI DUP3 PUSH4 0x4649088B EQ PUSH2 0x45A JUMPI DUP3 PUSH4 0x6C10C0C8 EQ PUSH2 0x2A4 JUMPI DUP3 PUSH4 0x90D3252F EQ PUSH2 0x1F5 JUMPI DUP3 PUSH4 0xDAFF233E EQ PUSH2 0xE5 JUMPI POP POP PUSH4 0xF56CD69C EQ PUSH2 0x8A JUMPI PUSH1 0x0 DUP1 REVERT JUMPDEST CALLVALUE PUSH2 0xE1 JUMPI DUP2 PUSH32 0xFFFFFFFFFFFFFFFFFFFFFFFFFFFFFFFFFFFFFFFFFFFFFFFFFFFFFFFFFFFFFFFC CALLDATASIZE ADD SLT PUSH2 0xE1 JUMPI PUSH1 0x20 SWAP1 MLOAD PUSH32 0x0 DUP2 MSTORE RETURN JUMPDEST POP DUP1 REVERT JUMPDEST SWAP1 SWAP3 SWAP2 POP CALLVALUE PUSH2 0x1F1 JUMPI PUSH2 0x100 PUSH32 0xFFFFFFFFFFFFFFFFFFFFFFFFFFFFFFFFFFFFFFFFFFFFFFFFFFFFFFFFFFFFFFFC CALLDATASIZE ADD SLT PUSH2 0x1F1 JUMPI PUSH4 0xFFFFFFFF PUSH1 0xE4 CALLDATALOAD DUP1 SWAP3 SHR SWAP2 PUSH1 0x60 SHR AND DUP2 ADD DUP1 SWAP2 GT PUSH2 0x1C5 JUMPI TIMESTAMP LT PUSH2 0x19F JUMPI DUP3 PUSH2 0x141 PUSH2 0xA27 JUMP JUMPDEST PUSH2 0x16C PUSH20 0xFFFFFFFFFFFFFFFFFFFFFFFFFFFFFFFFFFFFFFFF PUSH1 0xA4 CALLDATALOAD SWAP1 DUP1 PUSH1 0x44 CALLDATALOAD AND SWAP1 PUSH1 0x84 CALLDATALOAD AND PUSH2 0xB34 JUMP JUMPDEST PUSH2 0x178 PUSH1 0xC4 CALLDATALOAD CALLER PUSH2 0xBCE JUMP JUMPDEST PUSH32 0x6E3BE9294E58D10B9C8053CFD5E09871B67E442FE394D6B0870D336B9DF984A9 DUP2 DUP1 LOG1 DUP1 RETURN JUMPDEST MLOAD PUSH32 0x6F7EAC2600000000000000000000000000000000000000000000000000000000 DUP2 MSTORE REVERT JUMPDEST PUSH1 0x24 DUP5 PUSH1 0x11 DUP6 PUSH32 0x4E487B7100000000000000000000000000000000000000000000000000000000 DUP4 MSTORE MSTORE REVERT JUMPDEST DUP4 DUP1 REVERT JUMPDEST POP SWAP1 POP CALLVALUE PUSH2 0x2A0 JUMPI PUSH2 0x100 PUSH32 0xFFFFFFFFFFFFFFFFFFFFFFFFFFFFFFFFFFFFFFFFFFFFFFFFFFFFFFFFFFFFFFFC CALLDATASIZE ADD SLT PUSH2 0x2A0 JUMPI PUSH20 0xFFFFFFFFFFFFFFFFFFFFFFFFFFFFFFFFFFFFFFFF SWAP2 DUP3 PUSH1 0x64 CALLDATALOAD AND CALLER SUB PUSH2 0x27A JUMPI PUSH2 0x254 PUSH1 0xE4 CALLDATALOAD PUSH2 0x916 JUMP JUMPDEST TIMESTAMP LT PUSH2 0x19F JUMPI DUP4 PUSH2 0x16C DUP5 PUSH2 0x267 PUSH2 0xA27 JUMP JUMPDEST PUSH1 0xA4 CALLDATALOAD SWAP1 DUP1 PUSH1 0x44 CALLDATALOAD AND SWAP1 PUSH1 0x84 CALLDATALOAD AND PUSH2 0xB34 JUMP JUMPDEST MLOAD PUSH32 0x48F5C3ED00000000000000000000000000000000000000000000000000000000 DUP2 MSTORE REVERT JUMPDEST DUP3 DUP1 REVERT JUMPDEST DUP5 DUP3 DUP6 CALLVALUE PUSH2 0x2A0 JUMPI PUSH2 0x140 PUSH32 0xFFFFFFFFFFFFFFFFFFFFFFFFFFFFFFFFFFFFFFFFFFFFFFFFFFFFFFFFFFFFFFFC CALLDATASIZE ADD SLT PUSH2 0x2A0 JUMPI DUP2 CALLDATALOAD SWAP2 PUSH1 0x24 CALLDATALOAD PUSH20 0xFFFFFFFFFFFFFFFFFFFFFFFFFFFFFFFFFFFFFFFF SWAP2 DUP3 DUP3 AND DUP3 SUB PUSH2 0x456 JUMPI PUSH2 0x100 PUSH32 0xFFFFFFFFFFFFFFFFFFFFFFFFFFFFFFFFFFFFFFFFFFFFFFFFFFFFFFFFFFFFFFBC CALLDATASIZE ADD SLT PUSH2 0x456 JUMPI DUP3 PUSH1 0xA4 CALLDATALOAD AND CALLER SUB PUSH2 0x42F JUMPI PUSH2 0x124 CALLDATALOAD PUSH2 0x33F DUP2 PUSH2 0x95F JUMP JUMPDEST TIMESTAMP LT PUSH2 0x407 JUMPI PUSH2 0x34E SWAP1 PUSH2 0x916 JUMP JUMPDEST TIMESTAMP LT ISZERO PUSH2 0x3E0 JUMPI PUSH2 0x35D PUSH2 0x976 JUMP JUMPDEST DUP5 DUP7 MSTORE PUSH1 0x20 DUP7 KECCAK256 PUSH1 0x64 CALLDATALOAD SUB PUSH2 0x3B9 JUMPI POP SWAP2 PUSH2 0x3A4 PUSH32 0xCE781A18C10C8289803C7C4CFD532D797113C4B41C9701FFAD7D0A632AC555B SWAP5 SWAP3 PUSH1 0x20 SWAP5 PUSH1 0xE4 CALLDATALOAD SWAP2 PUSH1 0xC4 CALLDATALOAD AND PUSH2 0xB34 JUMP JUMPDEST PUSH2 0x3B1 PUSH2 0x104 CALLDATALOAD CALLER PUSH2 0xBCE JUMP JUMPDEST MLOAD SWAP1 DUP2 MSTORE LOG1 DUP1 RETURN JUMPDEST DUP4 MLOAD PUSH32 0xABAB6BD700000000000000000000000000000000000000000000000000000000 DUP2 MSTORE REVERT JUMPDEST DUP4 MLOAD PUSH32 0x6F7EAC2600000000000000000000000000000000000000000000000000000000 DUP2 MSTORE REVERT JUMPDEST POP DUP4 MLOAD PUSH32 0x6F7EAC2600000000000000000000000000000000000000000000000000000000 DUP2 MSTORE REVERT JUMPDEST DUP4 MLOAD PUSH32 0x48F5C3ED00000000000000000000000000000000000000000000000000000000 DUP2 MSTORE REVERT JUMPDEST DUP6 DUP1 REVERT JUMPDEST DUP4 DUP6 SWAP2 CALLVALUE PUSH2 0x2A0 JUMPI PUSH2 0x140 PUSH32 0xFFFFFFFFFFFFFFFFFFFFFFFFFFFFFFFFFFFFFFFFFFFFFFFFFFFFFFFFFFFFFFFC CALLDATASIZE ADD SLT PUSH2 0x2A0 JUMPI DUP4 CALLDATALOAD SWAP1 PUSH20 0xFFFFFFFFFFFFFFFFFFFFFFFFFFFFFFFFFFFFFFFF SWAP1 DUP2 DUP4 AND DUP1 SWAP4 SUB PUSH2 0x5C4 JUMPI PUSH1 0x24 CALLDATALOAD SWAP2 PUSH2 0x100 PUSH32 0xFFFFFFFFFFFFFFFFFFFFFFFFFFFFFFFFFFFFFFFFFFFFFFFFFFFFFFFFFFFFFFBC CALLDATASIZE ADD SLT PUSH2 0x456 JUMPI PUSH1 0xA4 CALLDATALOAD AND CALLER SUB PUSH2 0x59C JUMPI PUSH2 0x4F1 PUSH2 0x976 JUMP JUMPDEST PUSH2 0x124 CALLDATALOAD SWAP1 SHR PUSH32 0x0 ADD TIMESTAMP LT PUSH2 0x574 JUMPI PUSH32 0xC4474C2790E13695F6D2B6F1D8E164290B55370F87A542FD7711ABE0A1BF40AC SWAP4 SWAP5 POP DUP2 ISZERO PUSH1 0x0 EQ PUSH2 0x564 JUMPI PUSH2 0x556 DUP2 CALLER PUSH2 0xBCE JUMP JUMPDEST DUP3 MLOAD SWAP2 DUP3 MSTORE PUSH1 0x20 DUP3 ADD MSTORE LOG1 DUP1 RETURN JUMPDEST PUSH2 0x56F DUP2 CALLER DUP5 PUSH2 0xB34 JUMP JUMPDEST PUSH2 0x556 JUMP JUMPDEST DUP5 DUP4 MLOAD PUSH32 0x6F7EAC2600000000000000000000000000000000000000000000000000000000 DUP2 MSTORE REVERT JUMPDEST DUP6 DUP5 MLOAD PUSH32 0x48F5C3ED00000000000000000000000000000000000000000000000000000000 DUP2 MSTORE REVERT JUMPDEST DUP5 DUP1 REVERT JUMPDEST POP POP POP CALLVALUE PUSH2 0xE1 JUMPI DUP2 PUSH32 0xFFFFFFFFFFFFFFFFFFFFFFFFFFFFFFFFFFFFFFFFFFFFFFFFFFFFFFFFFFFFFFFC CALLDATASIZE ADD SLT PUSH2 0xE1 JUMPI PUSH1 0x20 SWAP1 MLOAD PUSH32 0x0 DUP2 MSTORE RETURN JUMPDEST POP POP POP CALLVALUE PUSH2 0xE1 JUMPI DUP2 PUSH32 0xFFFFFFFFFFFFFFFFFFFFFFFFFFFFFFFFFFFFFFFFFFFFFFFFFFFFFFFFFFFFFFFC CALLDATASIZE ADD SLT PUSH2 0xE1 JUMPI PUSH1 0x20 SWAP1 MLOAD PUSH20 0xFFFFFFFFFFFFFFFFFFFFFFFFFFFFFFFFFFFFFFFF PUSH32 0x0 AND DUP2 MSTORE RETURN JUMPDEST SWAP1 SWAP3 SWAP2 POP CALLVALUE PUSH2 0x1F1 JUMPI PUSH2 0x6A4 CALLDATASIZE PUSH2 0x8B2 JUMP JUMPDEST SWAP2 SWAP1 SWAP4 PUSH20 0xFFFFFFFFFFFFFFFFFFFFFFFFFFFFFFFFFFFFFFFF SWAP2 DUP3 PUSH1 0x60 DUP6 ADD CALLDATALOAD AND CALLER SUB PUSH2 0x751 JUMPI DUP4 ADD CALLDATALOAD PUSH2 0x6D6 DUP2 PUSH2 0x95F JUMP JUMPDEST TIMESTAMP LT PUSH2 0x407 JUMPI PUSH2 0x6E5 SWAP1 PUSH2 0x916 JUMP JUMPDEST TIMESTAMP LT ISZERO PUSH2 0x3E0 JUMPI PUSH2 0x6F5 DUP4 PUSH2 0xAAE JUMP JUMPDEST DUP5 DUP7 MSTORE PUSH1 0x20 DUP7 KECCAK256 PUSH1 0x20 DUP5 ADD CALLDATALOAD SUB PUSH2 0x3B9 JUMPI POP SWAP2 PUSH2 0x3B1 PUSH1 0xC0 DUP4 PUSH2 0x749 PUSH1 0x20 SWAP7 PUSH1 0xA0 PUSH32 0xCE781A18C10C8289803C7C4CFD532D797113C4B41C9701FFAD7D0A632AC555B SWAP10 SWAP8 ADD CALLDATALOAD SWAP1 CALLER SWAP1 PUSH1 0x80 DUP6 ADD CALLDATALOAD AND PUSH2 0xB34 JUMP JUMPDEST ADD CALLDATALOAD CALLER PUSH2 0xBCE JUMP JUMPDEST POP DUP4 MLOAD PUSH32 0x48F5C3ED00000000000000000000000000000000000000000000000000000000 DUP2 MSTORE REVERT JUMPDEST SWAP4 SWAP3 POP SWAP1 CALLVALUE PUSH2 0x5C4 JUMPI PUSH2 0x78B CALLDATASIZE PUSH2 0x8B2 JUMP JUMPDEST SWAP3 SWAP1 SWAP5 DUP2 DUP5 ADD CALLDATALOAD DUP1 SWAP3 SHR PUSH4 0xFFFFFFFF DUP4 PUSH1 0x20 SHR AND DUP2 ADD DUP1 SWAP2 GT PUSH2 0x886 JUMPI TIMESTAMP LT PUSH2 0x85F JUMPI POP PUSH2 0x7B8 SWAP1 PUSH2 0x916 JUMP JUMPDEST TIMESTAMP LT ISZERO PUSH2 0x838 JUMPI PUSH20 0xFFFFFFFFFFFFFFFFFFFFFFFFFFFFFFFFFFFFFFFF SWAP1 PUSH2 0x7DE DUP4 PUSH2 0xAAE JUMP JUMPDEST DUP5 DUP7 MSTORE PUSH1 0x20 DUP7 KECCAK256 PUSH1 0x20 DUP5 ADD CALLDATALOAD SUB PUSH2 0x3B9 JUMPI POP SWAP2 PUSH2 0x3B1 PUSH1 0xC0 DUP4 PUSH2 0x749 PUSH1 0x20 SWAP7 PUSH1 0xA0 PUSH32 0xCE781A18C10C8289803C7C4CFD532D797113C4B41C9701FFAD7D0A632AC555B SWAP10 SWAP8 ADD CALLDATALOAD SWAP1 DUP1 PUSH1 0x60 DUP6 ADD CALLDATALOAD AND SWAP1 PUSH1 0x80 DUP6 ADD CALLDATALOAD AND PUSH2 0xB34 JUMP JUMPDEST DUP3 MLOAD PUSH32 0x6F7EAC2600000000000000000000000000000000000000000000000000000000 DUP2 MSTORE REVERT JUMPDEST SWAP1 POP PUSH32 0x6F7EAC2600000000000000000000000000000000000000000000000000000000 DUP2 MSTORE REVERT JUMPDEST PUSH1 0x24 DUP9 PUSH1 0x11 DUP7 PUSH32 0x4E487B7100000000000000000000000000000000000000000000000000000000 DUP4 MSTORE MSTORE REVERT JUMPDEST SWAP1 PUSH2 0x120 PUSH32 0xFFFFFFFFFFFFFFFFFFFFFFFFFFFFFFFFFFFFFFFFFFFFFFFFFFFFFFFFFFFFFFFC DUP4 ADD SLT PUSH2 0x911 JUMPI PUSH2 0x100 PUSH32 0xFFFFFFFFFFFFFFFFFFFFFFFFFFFFFFFFFFFFFFFFFFFFFFFFFFFFFFFFFFFFFFDC PUSH1 0x4 CALLDATALOAD SWAP4 ADD SLT PUSH2 0x911 JUMPI PUSH1 0x24 SWAP1 JUMP JUMPDEST PUSH1 0x0 DUP1 REVERT JUMPDEST PUSH4 0xFFFFFFFF DUP2 PUSH1 0xE0 SHR SWAP2 PUSH1 0x40 SHR AND DUP2 ADD DUP1 SWAP2 GT PUSH2 0x930 JUMPI SWAP1 JUMP JUMPDEST PUSH32 0x4E487B7100000000000000000000000000000000000000000000000000000000 PUSH1 0x0 MSTORE PUSH1 0x11 PUSH1 0x4 MSTORE PUSH1 0x24 PUSH1 0x0 REVERT JUMPDEST PUSH4 0xFFFFFFFF DUP2 PUSH1 0xE0 SHR SWAP2 AND DUP2 ADD DUP1 SWAP2 GT PUSH2 0x930 JUMPI SWAP1 JUMP JUMPDEST PUSH20 0xFFFFFFFFFFFFFFFFFFFFFFFFFFFFFFFFFFFFFFFF PUSH1 0x55 PUSH1 0xB PUSH1 0x40 MLOAD PUSH2 0x100 SWAP1 DUP2 PUSH1 0x44 DUP3 CALLDATACOPY KECCAK256 PUSH1 0x40 MLOAD SWAP1 PUSH32 0x0 PUSH1 0x40 DUP4 ADD MSTORE PUSH1 0x20 DUP3 ADD MSTORE PUSH32 0x0 DUP2 MSTORE ADD PUSH1 0xFF DUP2 MSTORE8 KECCAK256 AND ADDRESS SUB PUSH2 0x9FD JUMPI JUMP JUMPDEST PUSH1 0x4 PUSH1 0x40 MLOAD PUSH32 0xA269484A00000000000000000000000000000000000000000000000000000000 DUP2 MSTORE REVERT JUMPDEST PUSH20 0xFFFFFFFFFFFFFFFFFFFFFFFFFFFFFFFFFFFFFFFF PUSH1 0x55 PUSH1 0xB PUSH1 0x40 MLOAD PUSH2 0x100 SWAP1 DUP2 PUSH1 0x4 DUP3 CALLDATACOPY KECCAK256 PUSH1 0x40 MLOAD SWAP1 PUSH32 0x0 PUSH1 0x40 DUP4 ADD MSTORE PUSH1 0x20 DUP3 ADD MSTORE PUSH32 0x0 DUP2 MSTORE ADD PUSH1 0xFF DUP2 MSTORE8 KECCAK256 AND ADDRESS SUB PUSH2 0x9FD JUMPI JUMP JUMPDEST PUSH1 0x55 PUSH1 0xB PUSH20 0xFFFFFFFFFFFFFFFFFFFFFFFFFFFFFFFFFFFFFFFF SWAP3 PUSH1 0x40 MLOAD PUSH2 0x100 DUP1 SWAP3 DUP3 CALLDATACOPY KECCAK256 PUSH1 0x40 MLOAD SWAP1 PUSH32 0x0 PUSH1 0x40 DUP4 ADD MSTORE PUSH1 0x20 DUP3 ADD MSTORE PUSH32 0x0 DUP2 MSTORE ADD PUSH1 0xFF DUP2 MSTORE8 KECCAK256 AND ADDRESS SUB PUSH2 0x9FD JUMPI JUMP JUMPDEST SWAP2 PUSH1 0x44 PUSH1 0x20 SWAP3 PUSH1 0x0 SWAP3 PUSH1 0x40 MLOAD SWAP2 PUSH32 0xA9059CBB00000000000000000000000000000000000000000000000000000000 DUP4 MSTORE PUSH1 0x4 DUP4 ADD MSTORE PUSH1 0x24 DUP3 ADD MSTORE DUP3 DUP6 GAS CALL SWAP1 DUP2 PUSH2 0xBAB JUMPI JUMPDEST POP ISZERO PUSH2 0xB81 JUMPI JUMP JUMPDEST PUSH1 0x4 PUSH1 0x40 MLOAD PUSH32 0xFB7F507900000000000000000000000000000000000000000000000000000000 DUP2 MSTORE REVERT JUMPDEST SWAP1 POP RETURNDATASIZE ISZERO PUSH2 0xBC6 JUMPI POP PUSH1 0x1 PUSH1 0x0 MLOAD EQ PUSH1 0x1F RETURNDATASIZE GT AND JUMPDEST CODESIZE PUSH2 0xB79 JUMP JUMPDEST EXTCODESIZE ISZERO ISZERO PUSH2 0xBC0 JUMP JUMPDEST PUSH1 0x0 DUP1 DUP1 DUP1 SWAP5 DUP2 SWAP5 GAS CALL SWAP1 RETURNDATASIZE ISZERO PUSH2 0xCC5 JUMPI PUSH8 0xFFFFFFFFFFFFFFFF SWAP1 RETURNDATASIZE DUP3 DUP2 GT PUSH2 0xC98 JUMPI PUSH1 0x40 MLOAD SWAP3 PUSH1 0x1F DUP3 ADD PUSH32 0xFFFFFFFFFFFFFFFFFFFFFFFFFFFFFFFFFFFFFFFFFFFFFFFFFFFFFFFFFFFFFFE0 SWAP1 DUP2 AND PUSH1 0x3F ADD AND DUP5 ADD SWAP1 DUP2 GT DUP5 DUP3 LT OR PUSH2 0xC6B JUMPI PUSH1 0x40 MSTORE DUP3 MSTORE PUSH1 0x20 RETURNDATASIZE SWAP3 ADD RETURNDATACOPY JUMPDEST ISZERO PUSH2 0xC41 JUMPI JUMP JUMPDEST PUSH1 0x4 PUSH1 0x40 MLOAD PUSH32 0x8A0332D500000000000000000000000000000000000000000000000000000000 DUP2 MSTORE REVERT JUMPDEST PUSH1 0x24 DUP4 PUSH32 0x4E487B7100000000000000000000000000000000000000000000000000000000 DUP2 MSTORE PUSH1 0x41 PUSH1 0x4 MSTORE REVERT JUMPDEST PUSH1 0x24 DUP3 PUSH32 0x4E487B7100000000000000000000000000000000000000000000000000000000 DUP2 MSTORE PUSH1 0x41 PUSH1 0x4 MSTORE REVERT JUMPDEST POP PUSH2 0xC3A JUMP INVALID LOG2 PUSH5 0x6970667358 0x22 SLT KECCAK256 0x5D 0xE9 DUP4 BLOCKHASH 0xA5 SSTORE PUSH3 0xD97FA0 STATICCALL SELFBALANCE SWAP14 PUSH17 0x183FFD893BC618F5D3B0D8AAA9F73C56B7 SELFBALANCE PUSH5 0x736F6C6343 STOP ADDMOD OR STOP CALLER "},"methodIdentifiers":{"ESCROW_DST_IMPLEMENTATION()":"ba551177","ESCROW_SRC_IMPLEMENTATION()":"7040f173","FEE_BANK()":"2ce26aeb","addressOfEscrowDst((bytes32,bytes32,uint256,uint256,uint256,uint256,uint256,uint256))":"be58e91c","addressOfEscrowSrc((bytes32,bytes32,uint256,uint256,uint256,uint256,uint256,uint256))":"fb6bd47e","availableCredit(address)":"5886216f","createDstEscrow((bytes32,bytes32,uint256,uint256,uint256,uint256,uint256,uint256),uint256)":"dea024e4","decreaseAvailableCredit(address,uint256)":"85eda2de","getMakingAmount((uint256,uint256,uint256,uint256,uint256,uint256,uint256,uint256),bytes,bytes32,address,uint256,uint256,bytes)":"1d9671c3","getTakingAmount((uint256,uint256,uint256,uint256,uint256,uint256,uint256,uint256),bytes,bytes32,address,uint256,uint256,bytes)":"d7ff8a80","increaseAvailableCredit(address,uint256)":"3ee5ef1f","lastValidated(bytes32)":"acf4ce5c","postInteraction((uint256,uint256,uint256,uint256,uint256,uint256,uint256,uint256),bytes,bytes32,address,uint256,uint256,uint256,bytes)":"462ebde2","preInteraction((uint256,uint256,uint256,uint256,uint256,uint256,uint256,uint256),bytes,bytes32,address,uint256,uint256,uint256,bytes)":"0986bdd5","takerInteraction((uint256,uint256,uint256,uint256,uint256,uint256,uint256,uint256),bytes,bytes32,address,uint256,uint256,uint256,bytes)":"adf38ba1"}}}}}