{"contracts/escrow/EscrowFactory.sol":{"EscrowDst":{"abi":[{"inputs":[{"internalType":"uint32","name":"rescueDelay","type":"uint32"}],"stateMutability":"nonpayable","type":"constructor"},{"inputs":[],"name":"InvalidCaller","type":"error"},{"inputs":[],"name":"InvalidImmutables","type":"error"},{"inputs":[],"name":"InvalidSecret","type":"error"},{"inputs":[],"name":"InvalidTime","type":"error"},{"inputs":[],"name":"NativeTokenSendingFailure","type":"error"},{"inputs":[],"name":"SafeTransferFailed","type":"error"},{"anonymous":false,"inputs":[],"name":"EscrowCancelled","type":"event"},{"anonymous":false,"inputs":[{"indexed":false,"internalType":"address","name":"token","type":"address"},{"indexed":false,"internalType":"uint256","name":"amount","type":"uint256"}],"name":"FundsRescued","type":"event"},{"anonymous":false,"inputs":[{"indexed":false,"internalType":"bytes32","name":"secret","type":"bytes32"}],"name":"Withdrawal","type":"event"},{"inputs":[],"name":"FACTORY","outputs":[{"internalType":"address","name":"","type":"address"}],"stateMutability":"view","type":"function"},{"inputs":[],"name":"PROXY_BYTECODE_HASH","outputs":[{"internalType":"bytes32","name":"","type":"bytes32"}],"stateMutability":"view","type":"function"},{"inputs":[],"name":"RESCUE_DELAY","outputs":[{"internalType":"uint256","name":"","type":"uint256"}],"stateMutability":"view","type":"function"},{"inputs":[{"components":[{"internalType":"bytes32","name":"orderHash","type":"bytes32"},{"internalType":"bytes32","name":"hashlock","type":"bytes32"},{"internalType":"Address","name":"maker","type":"uint256"},{"internalType":"Address","name":"taker","type":"uint256"},{"internalType":"Address","name":"token","type":"uint256"},{"internalType":"uint256","name":"amount","type":"uint256"},{"internalType":"uint256","name":"safetyDeposit","type":"uint256"},{"internalType":"Timelocks","name":"timelocks","type":"uint256"}],"internalType":"struct IBaseEscrow.Immutables","name":"immutables","type":"tuple"}],"name":"cancel","outputs":[],"stateMutability":"nonpayable","type":"function"},{"inputs":[{"internalType":"bytes32","name":"secret","type":"bytes32"},{"components":[{"internalType":"bytes32","name":"orderHash","type":"bytes32"},{"internalType":"bytes32","name":"hashlock","type":"bytes32"},{"internalType":"Address","name":"maker","type":"uint256"},{"internalType":"Address","name":"taker","type":"uint256"},{"internalType":"Address","name":"token","type":"uint256"},{"internalType":"uint256","name":"amount","type":"uint256"},{"internalType":"uint256","name":"safetyDeposit","type":"uint256"},{"internalType":"Timelocks","name":"timelocks","type":"uint256"}],"internalType":"struct IBaseEscrow.Immutables","name":"immutables","type":"tuple"}],"name":"publicWithdraw","outputs":[],"stateMutability":"nonpayable","type":"function"},{"inputs":[{"internalType":"address","name":"token","type":"address"},{"internalType":"uint256","name":"amount","type":"uint256"},{"components":[{"internalType":"bytes32","name":"orderHash","type":"bytes32"},{"internalType":"bytes32","name":"hashlock","type":"bytes32"},{"internalType":"Address","name":"maker","type":"uint256"},{"internalType":"Address","name":"taker","type":"uint256"},{"internalType":"Address","name":"token","type":"uint256"},{"internalType":"uint256","name":"amount","type":"uint256"},{"internalType":"uint256","name":"safetyDeposit","type":"uint256"},{"internalType":"Timelocks","name":"timelocks","type":"uint256"}],"internalType":"struct IBaseEscrow.Immutables","name":"immutables","type":"tuple"}],"name":"rescueFunds","outputs":[],"stateMutability":"nonpayable","type":"function"},{"inputs":[{"internalType":"bytes32","name":"secret","type":"bytes32"},{"components":[{"internalType":"bytes32","name":"orderHash","type":"bytes32"},{"internalType":"bytes32","name":"hashlock","type":"bytes32"},{"internalType":"Address","name":"maker","type":"uint256"},{"internalType":"Address","name":"taker","type":"uint256"},{"internalType":"Address","name":"token","type":"uint256"},{"internalType":"uint256","name":"amount","type":"uint256"},{"internalType":"uint256","name":"safetyDeposit","type":"uint256"},{"internalType":"Timelocks","name":"timelocks","type":"uint256"}],"internalType":"struct IBaseEscrow.Immutables","name":"immutables","type":"tuple"}],"name":"withdraw","outputs":[],"stateMutability":"nonpayable","type":"function"}],"evm":{"bytecode":{"linkReferences":{},"object":"60e0346100ed57601f610b4538819003918201601f19168301916001600160401b038311848410176100f2578084926020946040528339810103126100ed575163ffffffff81168091036100ed573360a0526080526e5af43d82803e903d91602b57fd5bf360205230601152763d602d80600a3d3981f3363d3d373d3d3d363d730000003060881c17600052603760092060c052604051610a3c9081610109823960805181818160a80152610366015260a05181818161016101528181610330015281816104ee01526106c0015260c051818181610137015281816103060152818161047f01526106960152f35b600080fd5b634e487b7160e01b600052604160045260246000fdfe608060408181526004918236101561001657600080fd5b60009260e08435811c9283630af97558146105a15750826323305703146105125782632dd31000146104a257826334862b6a146104485782634649088b146102625750816390d3252f146100cf575063f56cd69c1461007457600080fd5b346100cb57817ffffffffffffffffffffffffffffffffffffffffffffffffffffffffffffffffc3601126100cb57602090517f00000000000000000000000000000000000000000000000000000000000000008152f35b5080fd5b8383346100cb57610100807ffffffffffffffffffffffffffffffffffffffffffffffffffffffffffffffffc36011261025e5773ffffffffffffffffffffffffffffffffffffffff91826064351691823303610236576055600b85928451818a8237208451907f00000000000000000000000000000000000000000000000000000000000000008683015260208201527f000000000000000000000000000000000000000000000000000000000000000081520160ff81532016300361020e5761019a60e435610816565b42106101e65750906101b39160a43591608435166108f7565b6101bf60c43533610929565b7f6e3be9294e58d10b9c8053cfd5e09871b67e442fe394d6b0870d336b9df984a98180a180f35b8490517f6f7eac26000000000000000000000000000000000000000000000000000000008152fd5b8490517fa269484a000000000000000000000000000000000000000000000000000000008152fd5b8582517f48f5c3ed000000000000000000000000000000000000000000000000000000008152fd5b8280fd5b8385913461025e576101407ffffffffffffffffffffffffffffffffffffffffffffffffffffffffffffffffc36011261025e5783359373ffffffffffffffffffffffffffffffffffffffff90818616928387036104445760243592610100807fffffffffffffffffffffffffffffffffffffffffffffffffffffffffffffffbc360112610440578160a43516330361041857600b60559188518160448237208851907f00000000000000000000000000000000000000000000000000000000000000008a83015260208201527f000000000000000000000000000000000000000000000000000000000000000081520160ff8153201630036103f05761012435901c7f00000000000000000000000000000000000000000000000000000000000000000142106103c957506103bb817fc4474c2790e13695f6d2b6f1d8e164290b55370f87a542fd7711abe0a1bf40ac959633906108f7565b82519182526020820152a180f35b83517f6f7eac26000000000000000000000000000000000000000000000000000000008152fd5b5083517fa269484a000000000000000000000000000000000000000000000000000000008152fd5b8387517f48f5c3ed000000000000000000000000000000000000000000000000000000008152fd5b8780fd5b8580fd5b505050346100cb57817ffffffffffffffffffffffffffffffffffffffffffffffffffffffffffffffffc3601126100cb57602090517f00000000000000000000000000000000000000000000000000000000000000008152f35b505050346100cb57817ffffffffffffffffffffffffffffffffffffffffffffffffffffffffffffffffc3601126100cb576020905173ffffffffffffffffffffffffffffffffffffffff7f0000000000000000000000000000000000000000000000000000000000000000168152f35b8385913461025e5761052336610606565b92909173ffffffffffffffffffffffffffffffffffffffff60608501351633036102365763ffffffff8185013580921c9160801c1681018091116105755742106101e65750906105729161066a565b80f35b6024856011887f4e487b7100000000000000000000000000000000000000000000000000000000835252fd5b85913461025e576105b136610606565b92909163ffffffff8185013580921c9160a01c1681018091116105755742106105df5750906105729161066a565b807f6f7eac2600000000000000000000000000000000000000000000000000000000869252fd5b906101207ffffffffffffffffffffffffffffffffffffffffffffffffffffffffffffffffc830112610665576101007fffffffffffffffffffffffffffffffffffffffffffffffffffffffffffffffdc60043593011261066557602490565b600080fd5b9061067860e0820135610816565b4210156107ec576040906055600b83516101009081858237208451907f00000000000000000000000000000000000000000000000000000000000000008683015260208201527f000000000000000000000000000000000000000000000000000000000000000081520160ff81532073ffffffffffffffffffffffffffffffffffffffff90811630036107c3576000908482526020822060208401350361079a5760c083602095938361077d9460807f0ce781a18c10c8289803c7c4cfd532d797113c4b41c9701ffad7d0a632ac555b9a9801351690868401351690801560001461078457508180809260a0860135905af15061077361085f565b505b013533610929565b51908152a1565b90610795925060a08401359161096c565b610775565b600484517fabab6bd7000000000000000000000000000000000000000000000000000000008152fd5b600483517fa269484a000000000000000000000000000000000000000000000000000000008152fd5b60046040517f6f7eac26000000000000000000000000000000000000000000000000000000008152fd5b63ffffffff8160e01c9160c01c1681018091116108305790565b7f4e487b7100000000000000000000000000000000000000000000000000000000600052601160045260246000fd5b3d156108f25767ffffffffffffffff903d8281116108c35760405192601f82017fffffffffffffffffffffffffffffffffffffffffffffffffffffffffffffffe0908116603f01168401908111848210176108c35760405282523d6000602084013e565b7f4e487b7100000000000000000000000000000000000000000000000000000000600052604160045260246000fd5b606090565b73ffffffffffffffffffffffffffffffffffffffff169190826109205761091e9250610929565b565b61091e9261096c565b600080809381935af161093a61085f565b501561094257565b60046040517f8a0332d5000000000000000000000000000000000000000000000000000000008152fd5b916044602092600092604051917fa9059cbb0000000000000000000000000000000000000000000000000000000083526004830152602482015282855af190816109e3575b50156109b957565b60046040517ffb7f5079000000000000000000000000000000000000000000000000000000008152fd5b90503d156109fe5750600160005114601f3d11165b386109b1565b3b15156109f856fea26469706673582212201c4d019757ef2af9a0c9244570f1ac8b0712f3879d83227aa766537895b8446164736f6c63430008170033","opcodes":"PUSH1 0xE0 CALLVALUE PUSH2 0xED JUMPI PUSH1 0x1F PUSH2 0xB45 CODESIZE DUP2 SWAP1 SUB SWAP2 DUP3 ADD PUSH1 0x1F NOT AND DUP4 ADD SWAP2 PUSH1 0x1 PUSH1 0x1 PUSH1 0x40 SHL SUB DUP4 GT DUP5 DUP5 LT OR PUSH2 0xF2 JUMPI DUP1 DUP5 SWAP3 PUSH1 0x20 SWAP5 PUSH1 0x40 MSTORE DUP4 CODECOPY DUP2 ADD SUB SLT PUSH2 0xED JUMPI MLOAD PUSH4 0xFFFFFFFF DUP2 AND DUP1 SWAP2 SUB PUSH2 0xED JUMPI CALLER PUSH1 0xA0 MSTORE PUSH1 0x80 MSTORE PUSH15 0x5AF43D82803E903D91602B57FD5BF3 PUSH1 0x20 MSTORE ADDRESS PUSH1 0x11 MSTORE PUSH23 0x3D602D80600A3D3981F3363D3D373D3D3D363D73000000 ADDRESS PUSH1 0x88 SHR OR PUSH1 0x0 MSTORE PUSH1 0x37 PUSH1 0x9 KECCAK256 PUSH1 0xC0 MSTORE PUSH1 0x40 MLOAD PUSH2 0xA3C SWAP1 DUP2 PUSH2 0x109 DUP3 CODECOPY PUSH1 0x80 MLOAD DUP2 DUP2 DUP2 PUSH1 0xA8 ADD MSTORE PUSH2 0x366 ADD MSTORE PUSH1 0xA0 MLOAD DUP2 DUP2 DUP2 PUSH2 0x161 ADD MSTORE DUP2 DUP2 PUSH2 0x330 ADD MSTORE DUP2 DUP2 PUSH2 0x4EE ADD MSTORE PUSH2 0x6C0 ADD MSTORE PUSH1 0xC0 MLOAD DUP2 DUP2 DUP2 PUSH2 0x137 ADD MSTORE DUP2 DUP2 PUSH2 0x306 ADD MSTORE DUP2 DUP2 PUSH2 0x47F ADD MSTORE PUSH2 0x696 ADD MSTORE RETURN JUMPDEST PUSH1 0x0 DUP1 REVERT JUMPDEST PUSH4 0x4E487B71 PUSH1 0xE0 SHL PUSH1 0x0 MSTORE PUSH1 0x41 PUSH1 0x4 MSTORE PUSH1 0x24 PUSH1 0x0 REVERT INVALID PUSH1 0x80 PUSH1 0x40 DUP2 DUP2 MSTORE PUSH1 0x4 SWAP2 DUP3 CALLDATASIZE LT ISZERO PUSH2 0x16 JUMPI PUSH1 0x0 DUP1 REVERT JUMPDEST PUSH1 0x0 SWAP3 PUSH1 0xE0 DUP5 CALLDATALOAD DUP2 SHR SWAP3 DUP4 PUSH4 0xAF97558 EQ PUSH2 0x5A1 JUMPI POP DUP3 PUSH4 0x23305703 EQ PUSH2 0x512 JUMPI DUP3 PUSH4 0x2DD31000 EQ PUSH2 0x4A2 JUMPI DUP3 PUSH4 0x34862B6A EQ PUSH2 0x448 JUMPI DUP3 PUSH4 0x4649088B EQ PUSH2 0x262 JUMPI POP DUP2 PUSH4 0x90D3252F EQ PUSH2 0xCF JUMPI POP PUSH4 0xF56CD69C EQ PUSH2 0x74 JUMPI PUSH1 0x0 DUP1 REVERT JUMPDEST CALLVALUE PUSH2 0xCB JUMPI DUP2 PUSH32 0xFFFFFFFFFFFFFFFFFFFFFFFFFFFFFFFFFFFFFFFFFFFFFFFFFFFFFFFFFFFFFFFC CALLDATASIZE ADD SLT PUSH2 0xCB JUMPI PUSH1 0x20 SWAP1 MLOAD PUSH32 0x0 DUP2 MSTORE RETURN JUMPDEST POP DUP1 REVERT JUMPDEST DUP4 DUP4 CALLVALUE PUSH2 0xCB JUMPI PUSH2 0x100 DUP1 PUSH32 0xFFFFFFFFFFFFFFFFFFFFFFFFFFFFFFFFFFFFFFFFFFFFFFFFFFFFFFFFFFFFFFFC CALLDATASIZE ADD SLT PUSH2 0x25E JUMPI PUSH20 0xFFFFFFFFFFFFFFFFFFFFFFFFFFFFFFFFFFFFFFFF SWAP2 DUP3 PUSH1 0x64 CALLDATALOAD AND SWAP2 DUP3 CALLER SUB PUSH2 0x236 JUMPI PUSH1 0x55 PUSH1 0xB DUP6 SWAP3 DUP5 MLOAD DUP2 DUP11 DUP3 CALLDATACOPY KECCAK256 DUP5 MLOAD SWAP1 PUSH32 0x0 DUP7 DUP4 ADD MSTORE PUSH1 0x20 DUP3 ADD MSTORE PUSH32 0x0 DUP2 MSTORE ADD PUSH1 0xFF DUP2 MSTORE8 KECCAK256 AND ADDRESS SUB PUSH2 0x20E JUMPI PUSH2 0x19A PUSH1 0xE4 CALLDATALOAD PUSH2 0x816 JUMP JUMPDEST TIMESTAMP LT PUSH2 0x1E6 JUMPI POP SWAP1 PUSH2 0x1B3 SWAP2 PUSH1 0xA4 CALLDATALOAD SWAP2 PUSH1 0x84 CALLDATALOAD AND PUSH2 0x8F7 JUMP JUMPDEST PUSH2 0x1BF PUSH1 0xC4 CALLDATALOAD CALLER PUSH2 0x929 JUMP JUMPDEST PUSH32 0x6E3BE9294E58D10B9C8053CFD5E09871B67E442FE394D6B0870D336B9DF984A9 DUP2 DUP1 LOG1 DUP1 RETURN JUMPDEST DUP5 SWAP1 MLOAD PUSH32 0x6F7EAC2600000000000000000000000000000000000000000000000000000000 DUP2 MSTORE REVERT JUMPDEST DUP5 SWAP1 MLOAD PUSH32 0xA269484A00000000000000000000000000000000000000000000000000000000 DUP2 MSTORE REVERT JUMPDEST DUP6 DUP3 MLOAD PUSH32 0x48F5C3ED00000000000000000000000000000000000000000000000000000000 DUP2 MSTORE REVERT JUMPDEST DUP3 DUP1 REVERT JUMPDEST DUP4 DUP6 SWAP2 CALLVALUE PUSH2 0x25E JUMPI PUSH2 0x140 PUSH32 0xFFFFFFFFFFFFFFFFFFFFFFFFFFFFFFFFFFFFFFFFFFFFFFFFFFFFFFFFFFFFFFFC CALLDATASIZE ADD SLT PUSH2 0x25E JUMPI DUP4 CALLDATALOAD SWAP4 PUSH20 0xFFFFFFFFFFFFFFFFFFFFFFFFFFFFFFFFFFFFFFFF SWAP1 DUP2 DUP7 AND SWAP3 DUP4 DUP8 SUB PUSH2 0x444 JUMPI PUSH1 0x24 CALLDATALOAD SWAP3 PUSH2 0x100 DUP1 PUSH32 0xFFFFFFFFFFFFFFFFFFFFFFFFFFFFFFFFFFFFFFFFFFFFFFFFFFFFFFFFFFFFFFBC CALLDATASIZE ADD SLT PUSH2 0x440 JUMPI DUP2 PUSH1 0xA4 CALLDATALOAD AND CALLER SUB PUSH2 0x418 JUMPI PUSH1 0xB PUSH1 0x55 SWAP2 DUP9 MLOAD DUP2 PUSH1 0x44 DUP3 CALLDATACOPY KECCAK256 DUP9 MLOAD SWAP1 PUSH32 0x0 DUP11 DUP4 ADD MSTORE PUSH1 0x20 DUP3 ADD MSTORE PUSH32 0x0 DUP2 MSTORE ADD PUSH1 0xFF DUP2 MSTORE8 KECCAK256 AND ADDRESS SUB PUSH2 0x3F0 JUMPI PUSH2 0x124 CALLDATALOAD SWAP1 SHR PUSH32 0x0 ADD TIMESTAMP LT PUSH2 0x3C9 JUMPI POP PUSH2 0x3BB DUP2 PUSH32 0xC4474C2790E13695F6D2B6F1D8E164290B55370F87A542FD7711ABE0A1BF40AC SWAP6 SWAP7 CALLER SWAP1 PUSH2 0x8F7 JUMP JUMPDEST DUP3 MLOAD SWAP2 DUP3 MSTORE PUSH1 0x20 DUP3 ADD MSTORE LOG1 DUP1 RETURN JUMPDEST DUP4 MLOAD PUSH32 0x6F7EAC2600000000000000000000000000000000000000000000000000000000 DUP2 MSTORE REVERT JUMPDEST POP DUP4 MLOAD PUSH32 0xA269484A00000000000000000000000000000000000000000000000000000000 DUP2 MSTORE REVERT JUMPDEST DUP4 DUP8 MLOAD PUSH32 0x48F5C3ED00000000000000000000000000000000000000000000000000000000 DUP2 MSTORE REVERT JUMPDEST DUP8 DUP1 REVERT JUMPDEST DUP6 DUP1 REVERT JUMPDEST POP POP POP CALLVALUE PUSH2 0xCB JUMPI DUP2 PUSH32 0xFFFFFFFFFFFFFFFFFFFFFFFFFFFFFFFFFFFFFFFFFFFFFFFFFFFFFFFFFFFFFFFC CALLDATASIZE ADD SLT PUSH2 0xCB JUMPI PUSH1 0x20 SWAP1 MLOAD PUSH32 0x0 DUP2 MSTORE RETURN JUMPDEST POP POP POP CALLVALUE PUSH2 0xCB JUMPI DUP2 PUSH32 0xFFFFFFFFFFFFFFFFFFFFFFFFFFFFFFFFFFFFFFFFFFFFFFFFFFFFFFFFFFFFFFFC CALLDATASIZE ADD SLT PUSH2 0xCB JUMPI PUSH1 0x20 SWAP1 MLOAD PUSH20 0xFFFFFFFFFFFFFFFFFFFFFFFFFFFFFFFFFFFFFFFF PUSH32 0x0 AND DUP2 MSTORE RETURN JUMPDEST DUP4 DUP6 SWAP2 CALLVALUE PUSH2 0x25E JUMPI PUSH2 0x523 CALLDATASIZE PUSH2 0x606 JUMP JUMPDEST SWAP3 SWAP1 SWAP2 PUSH20 0xFFFFFFFFFFFFFFFFFFFFFFFFFFFFFFFFFFFFFFFF PUSH1 0x60 DUP6 ADD CALLDATALOAD AND CALLER SUB PUSH2 0x236 JUMPI PUSH4 0xFFFFFFFF DUP2 DUP6 ADD CALLDATALOAD DUP1 SWAP3 SHR SWAP2 PUSH1 0x80 SHR AND DUP2 ADD DUP1 SWAP2 GT PUSH2 0x575 JUMPI TIMESTAMP LT PUSH2 0x1E6 JUMPI POP SWAP1 PUSH2 0x572 SWAP2 PUSH2 0x66A JUMP JUMPDEST DUP1 RETURN JUMPDEST PUSH1 0x24 DUP6 PUSH1 0x11 DUP9 PUSH32 0x4E487B7100000000000000000000000000000000000000000000000000000000 DUP4 MSTORE MSTORE REVERT JUMPDEST DUP6 SWAP2 CALLVALUE PUSH2 0x25E JUMPI PUSH2 0x5B1 CALLDATASIZE PUSH2 0x606 JUMP JUMPDEST SWAP3 SWAP1 SWAP2 PUSH4 0xFFFFFFFF DUP2 DUP6 ADD CALLDATALOAD DUP1 SWAP3 SHR SWAP2 PUSH1 0xA0 SHR AND DUP2 ADD DUP1 SWAP2 GT PUSH2 0x575 JUMPI TIMESTAMP LT PUSH2 0x5DF JUMPI POP SWAP1 PUSH2 0x572 SWAP2 PUSH2 0x66A JUMP JUMPDEST DUP1 PUSH32 0x6F7EAC2600000000000000000000000000000000000000000000000000000000 DUP7 SWAP3 MSTORE REVERT JUMPDEST SWAP1 PUSH2 0x120 PUSH32 0xFFFFFFFFFFFFFFFFFFFFFFFFFFFFFFFFFFFFFFFFFFFFFFFFFFFFFFFFFFFFFFFC DUP4 ADD SLT PUSH2 0x665 JUMPI PUSH2 0x100 PUSH32 0xFFFFFFFFFFFFFFFFFFFFFFFFFFFFFFFFFFFFFFFFFFFFFFFFFFFFFFFFFFFFFFDC PUSH1 0x4 CALLDATALOAD SWAP4 ADD SLT PUSH2 0x665 JUMPI PUSH1 0x24 SWAP1 JUMP JUMPDEST PUSH1 0x0 DUP1 REVERT JUMPDEST SWAP1 PUSH2 0x678 PUSH1 0xE0 DUP3 ADD CALLDATALOAD PUSH2 0x816 JUMP JUMPDEST TIMESTAMP LT ISZERO PUSH2 0x7EC JUMPI PUSH1 0x40 SWAP1 PUSH1 0x55 PUSH1 0xB DUP4 MLOAD PUSH2 0x100 SWAP1 DUP2 DUP6 DUP3 CALLDATACOPY KECCAK256 DUP5 MLOAD SWAP1 PUSH32 0x0 DUP7 DUP4 ADD MSTORE PUSH1 0x20 DUP3 ADD MSTORE PUSH32 0x0 DUP2 MSTORE ADD PUSH1 0xFF DUP2 MSTORE8 KECCAK256 PUSH20 0xFFFFFFFFFFFFFFFFFFFFFFFFFFFFFFFFFFFFFFFF SWAP1 DUP2 AND ADDRESS SUB PUSH2 0x7C3 JUMPI PUSH1 0x0 SWAP1 DUP5 DUP3 MSTORE PUSH1 0x20 DUP3 KECCAK256 PUSH1 0x20 DUP5 ADD CALLDATALOAD SUB PUSH2 0x79A JUMPI PUSH1 0xC0 DUP4 PUSH1 0x20 SWAP6 SWAP4 DUP4 PUSH2 0x77D SWAP5 PUSH1 0x80 PUSH32 0xCE781A18C10C8289803C7C4CFD532D797113C4B41C9701FFAD7D0A632AC555B SWAP11 SWAP9 ADD CALLDATALOAD AND SWAP1 DUP7 DUP5 ADD CALLDATALOAD AND SWAP1 DUP1 ISZERO PUSH1 0x0 EQ PUSH2 0x784 JUMPI POP DUP2 DUP1 DUP1 SWAP3 PUSH1 0xA0 DUP7 ADD CALLDATALOAD SWAP1 GAS CALL POP PUSH2 0x773 PUSH2 0x85F JUMP JUMPDEST POP JUMPDEST ADD CALLDATALOAD CALLER PUSH2 0x929 JUMP JUMPDEST MLOAD SWAP1 DUP2 MSTORE LOG1 JUMP JUMPDEST SWAP1 PUSH2 0x795 SWAP3 POP PUSH1 0xA0 DUP5 ADD CALLDATALOAD SWAP2 PUSH2 0x96C JUMP JUMPDEST PUSH2 0x775 JUMP JUMPDEST PUSH1 0x4 DUP5 MLOAD PUSH32 0xABAB6BD700000000000000000000000000000000000000000000000000000000 DUP2 MSTORE REVERT JUMPDEST PUSH1 0x4 DUP4 MLOAD PUSH32 0xA269484A00000000000000000000000000000000000000000000000000000000 DUP2 MSTORE REVERT JUMPDEST PUSH1 0x4 PUSH1 0x40 MLOAD PUSH32 0x6F7EAC2600000000000000000000000000000000000000000000000000000000 DUP2 MSTORE REVERT JUMPDEST PUSH4 0xFFFFFFFF DUP2 PUSH1 0xE0 SHR SWAP2 PUSH1 0xC0 SHR AND DUP2 ADD DUP1 SWAP2 GT PUSH2 0x830 JUMPI SWAP1 JUMP JUMPDEST PUSH32 0x4E487B7100000000000000000000000000000000000000000000000000000000 PUSH1 0x0 MSTORE PUSH1 0x11 PUSH1 0x4 MSTORE PUSH1 0x24 PUSH1 0x0 REVERT JUMPDEST RETURNDATASIZE ISZERO PUSH2 0x8F2 JUMPI PUSH8 0xFFFFFFFFFFFFFFFF SWAP1 RETURNDATASIZE DUP3 DUP2 GT PUSH2 0x8C3 JUMPI PUSH1 0x40 MLOAD SWAP3 PUSH1 0x1F DUP3 ADD PUSH32 0xFFFFFFFFFFFFFFFFFFFFFFFFFFFFFFFFFFFFFFFFFFFFFFFFFFFFFFFFFFFFFFE0 SWAP1 DUP2 AND PUSH1 0x3F ADD AND DUP5 ADD SWAP1 DUP2 GT DUP5 DUP3 LT OR PUSH2 0x8C3 JUMPI PUSH1 0x40 MSTORE DUP3 MSTORE RETURNDATASIZE PUSH1 0x0 PUSH1 0x20 DUP5 ADD RETURNDATACOPY JUMP JUMPDEST PUSH32 0x4E487B7100000000000000000000000000000000000000000000000000000000 PUSH1 0x0 MSTORE PUSH1 0x41 PUSH1 0x4 MSTORE PUSH1 0x24 PUSH1 0x0 REVERT JUMPDEST PUSH1 0x60 SWAP1 JUMP JUMPDEST PUSH20 0xFFFFFFFFFFFFFFFFFFFFFFFFFFFFFFFFFFFFFFFF AND SWAP2 SWAP1 DUP3 PUSH2 0x920 JUMPI PUSH2 0x91E SWAP3 POP PUSH2 0x929 JUMP JUMPDEST JUMP JUMPDEST PUSH2 0x91E SWAP3 PUSH2 0x96C JUMP JUMPDEST PUSH1 0x0 DUP1 DUP1 SWAP4 DUP2 SWAP4 GAS CALL PUSH2 0x93A PUSH2 0x85F JUMP JUMPDEST POP ISZERO PUSH2 0x942 JUMPI JUMP JUMPDEST PUSH1 0x4 PUSH1 0x40 MLOAD PUSH32 0x8A0332D500000000000000000000000000000000000000000000000000000000 DUP2 MSTORE REVERT JUMPDEST SWAP2 PUSH1 0x44 PUSH1 0x20 SWAP3 PUSH1 0x0 SWAP3 PUSH1 0x40 MLOAD SWAP2 PUSH32 0xA9059CBB00000000000000000000000000000000000000000000000000000000 DUP4 MSTORE PUSH1 0x4 DUP4 ADD MSTORE PUSH1 0x24 DUP3 ADD MSTORE DUP3 DUP6 GAS CALL SWAP1 DUP2 PUSH2 0x9E3 JUMPI JUMPDEST POP ISZERO PUSH2 0x9B9 JUMPI JUMP JUMPDEST PUSH1 0x4 PUSH1 0x40 MLOAD PUSH32 0xFB7F507900000000000000000000000000000000000000000000000000000000 DUP2 MSTORE REVERT JUMPDEST SWAP1 POP RETURNDATASIZE ISZERO PUSH2 0x9FE JUMPI POP PUSH1 0x1 PUSH1 0x0 MLOAD EQ PUSH1 0x1F RETURNDATASIZE GT AND JUMPDEST CODESIZE PUSH2 0x9B1 JUMP JUMPDEST EXTCODESIZE ISZERO ISZERO PUSH2 0x9F8 JUMP INVALID LOG2 PUSH5 0x6970667358 0x22 SLT KECCAK256 SHR 0x4D ADD SWAP8 JUMPI 0xEF 0x2A 0xF9 LOG0 0xC9 0x24 GASLIMIT PUSH17 0xF1AC8B0712F3879D83227AA766537895B8 PREVRANDAO PUSH2 0x6473 PUSH16 0x6C634300081700330000000000000000 "},"methodIdentifiers":{"FACTORY()":"2dd31000","PROXY_BYTECODE_HASH()":"34862b6a","RESCUE_DELAY()":"f56cd69c","cancel((bytes32,bytes32,uint256,uint256,uint256,uint256,uint256,uint256))":"90d3252f","publicWithdraw(bytes32,(bytes32,bytes32,uint256,uint256,uint256,uint256,uint256,uint256))":"0af97558","rescueFunds(address,uint256,(bytes32,bytes32,uint256,uint256,uint256,uint256,uint256,uint256))":"4649088b","withdraw(bytes32,(bytes32,bytes32,uint256,uint256,uint256,uint256,uint256,uint256))":"23305703"}}}}}