{"contracts/escrow/EscrowFactory.sol":{"EscrowSrc":{"abi":[{"inputs":[{"internalType":"uint32","name":"rescueDelay","type":"uint32"}],"stateMutability":"nonpayable","type":"constructor"},{"inputs":[],"name":"InvalidCaller","type":"error"},{"inputs":[],"name":"InvalidImmutables","type":"error"},{"inputs":[],"name":"InvalidSecret","type":"error"},{"inputs":[],"name":"InvalidTime","type":"error"},{"inputs":[],"name":"NativeTokenSendingFailure","type":"error"},{"inputs":[],"name":"SafeTransferFailed","type":"error"},{"anonymous":false,"inputs":[],"name":"EscrowCancelled","type":"event"},{"anonymous":false,"inputs":[{"indexed":false,"internalType":"address","name":"token","type":"address"},{"indexed":false,"internalType":"uint256","name":"amount","type":"uint256"}],"name":"FundsRescued","type":"event"},{"anonymous":false,"inputs":[{"indexed":false,"internalType":"bytes32","name":"secret","type":"bytes32"}],"name":"Withdrawal","type":"event"},{"inputs":[],"name":"FACTORY","outputs":[{"internalType":"address","name":"","type":"address"}],"stateMutability":"view","type":"function"},{"inputs":[],"name":"PROXY_BYTECODE_HASH","outputs":[{"internalType":"bytes32","name":"","type":"bytes32"}],"stateMutability":"view","type":"function"},{"inputs":[],"name":"RESCUE_DELAY","outputs":[{"internalType":"uint256","name":"","type":"uint256"}],"stateMutability":"view","type":"function"},{"inputs":[{"components":[{"internalType":"bytes32","name":"orderHash","type":"bytes32"},{"internalType":"bytes32","name":"hashlock","type":"bytes32"},{"internalType":"Address","name":"maker","type":"uint256"},{"internalType":"Address","name":"taker","type":"uint256"},{"internalType":"Address","name":"token","type":"uint256"},{"internalType":"uint256","name":"amount","type":"uint256"},{"internalType":"uint256","name":"safetyDeposit","type":"uint256"},{"internalType":"Timelocks","name":"timelocks","type":"uint256"}],"internalType":"struct IBaseEscrow.Immutables","name":"immutables","type":"tuple"}],"name":"cancel","outputs":[],"stateMutability":"nonpayable","type":"function"},{"inputs":[{"components":[{"internalType":"bytes32","name":"orderHash","type":"bytes32"},{"internalType":"bytes32","name":"hashlock","type":"bytes32"},{"internalType":"Address","name":"maker","type":"uint256"},{"internalType":"Address","name":"taker","type":"uint256"},{"internalType":"Address","name":"token","type":"uint256"},{"internalType":"uint256","name":"amount","type":"uint256"},{"internalType":"uint256","name":"safetyDeposit","type":"uint256"},{"internalType":"Timelocks","name":"timelocks","type":"uint256"}],"internalType":"struct IBaseEscrow.Immutables","name":"immutables","type":"tuple"}],"name":"publicCancel","outputs":[],"stateMutability":"nonpayable","type":"function"},{"inputs":[{"internalType":"bytes32","name":"secret","type":"bytes32"},{"components":[{"internalType":"bytes32","name":"orderHash","type":"bytes32"},{"internalType":"bytes32","name":"hashlock","type":"bytes32"},{"internalType":"Address","name":"maker","type":"uint256"},{"internalType":"Address","name":"taker","type":"uint256"},{"internalType":"Address","name":"token","type":"uint256"},{"internalType":"uint256","name":"amount","type":"uint256"},{"internalType":"uint256","name":"safetyDeposit","type":"uint256"},{"internalType":"Timelocks","name":"timelocks","type":"uint256"}],"internalType":"struct IBaseEscrow.Immutables","name":"immutables","type":"tuple"}],"name":"publicWithdraw","outputs":[],"stateMutability":"nonpayable","type":"function"},{"inputs":[{"internalType":"address","name":"token","type":"address"},{"internalType":"uint256","name":"amount","type":"uint256"},{"components":[{"internalType":"bytes32","name":"orderHash","type":"bytes32"},{"internalType":"bytes32","name":"hashlock","type":"bytes32"},{"internalType":"Address","name":"maker","type":"uint256"},{"internalType":"Address","name":"taker","type":"uint256"},{"internalType":"Address","name":"token","type":"uint256"},{"internalType":"uint256","name":"amount","type":"uint256"},{"internalType":"uint256","name":"safetyDeposit","type":"uint256"},{"internalType":"Timelocks","name":"timelocks","type":"uint256"}],"internalType":"struct IBaseEscrow.Immutables","name":"immutables","type":"tuple"}],"name":"rescueFunds","outputs":[],"stateMutability":"nonpayable","type":"function"},{"inputs":[{"internalType":"bytes32","name":"secret","type":"bytes32"},{"components":[{"internalType":"bytes32","name":"orderHash","type":"bytes32"},{"internalType":"bytes32","name":"hashlock","type":"bytes32"},{"internalType":"Address","name":"maker","type":"uint256"},{"internalType":"Address","name":"taker","type":"uint256"},{"internalType":"Address","name":"token","type":"uint256"},{"internalType":"uint256","name":"amount","type":"uint256"},{"internalType":"uint256","name":"safetyDeposit","type":"uint256"},{"internalType":"Timelocks","name":"timelocks","type":"uint256"}],"internalType":"struct IBaseEscrow.Immutables","name":"immutables","type":"tuple"}],"name":"withdraw","outputs":[],"stateMutability":"nonpayable","type":"function"},{"inputs":[{"internalType":"bytes32","name":"secret","type":"bytes32"},{"internalType":"address","name":"target","type":"address"},{"components":[{"internalType":"bytes32","name":"orderHash","type":"bytes32"},{"internalType":"bytes32","name":"hashlock","type":"bytes32"},{"internalType":"Address","name":"maker","type":"uint256"},{"internalType":"Address","name":"taker","type":"uint256"},{"internalType":"Address","name":"token","type":"uint256"},{"internalType":"uint256","name":"amount","type":"uint256"},{"internalType":"uint256","name":"safetyDeposit","type":"uint256"},{"internalType":"Timelocks","name":"timelocks","type":"uint256"}],"internalType":"struct IBaseEscrow.Immutables","name":"immutables","type":"tuple"}],"name":"withdrawTo","outputs":[],"stateMutability":"nonpayable","type":"function"}],"evm":{"bytecode":{"linkReferences":{},"object":"60e0346100ed57601f610e0a38819003918201601f19168301916001600160401b038311848410176100f2578084926020946040528339810103126100ed575163ffffffff81168091036100ed573360a0526080526e5af43d82803e903d91602b57fd5bf360205230601152763d602d80600a3d3981f3363d3d373d3d3d363d730000003060881c17600052603760092060c052604051610d019081610109823960805181818160be01526104f9015260a05181818161066e015281816109cd01528181610a7e0152610b04015260c0518181816105ff015281816109a201528181610a530152610ad90152f35b600080fd5b634e487b7160e01b600052604160045260246000fdfe608060408181526004918236101561001657600080fd5b60009260e08435811c9283630af97558146107795750826323305703146106925782632dd310001461062257826334862b6a146105c85782634649088b1461045a5782636c10c0c8146102a457826390d3252f146101f5578263daff233e146100e557505063f56cd69c1461008a57600080fd5b346100e157817ffffffffffffffffffffffffffffffffffffffffffffffffffffffffffffffffc3601126100e157602090517f00000000000000000000000000000000000000000000000000000000000000008152f35b5080fd5b90929150346101f1576101007ffffffffffffffffffffffffffffffffffffffffffffffffffffffffffffffffc3601126101f15763ffffffff60e43580921c9160601c1681018091116101c557421061019f5782610141610a27565b61016c73ffffffffffffffffffffffffffffffffffffffff60a4359080604435169060843516610b34565b61017860c43533610bce565b7f6e3be9294e58d10b9c8053cfd5e09871b67e442fe394d6b0870d336b9df984a98180a180f35b517f6f7eac26000000000000000000000000000000000000000000000000000000008152fd5b6024846011857f4e487b7100000000000000000000000000000000000000000000000000000000835252fd5b8380fd5b509050346102a0576101007ffffffffffffffffffffffffffffffffffffffffffffffffffffffffffffffffc3601126102a05773ffffffffffffffffffffffffffffffffffffffff918260643516330361027a5761025460e435610916565b421061019f578361016c84610267610a27565b60a4359080604435169060843516610b34565b517f48f5c3ed000000000000000000000000000000000000000000000000000000008152fd5b8280fd5b848285346102a0576101407ffffffffffffffffffffffffffffffffffffffffffffffffffffffffffffffffc3601126102a05781359160243573ffffffffffffffffffffffffffffffffffffffff918282168203610456576101007fffffffffffffffffffffffffffffffffffffffffffffffffffffffffffffffbc360112610456578260a43516330361042f576101243561033f8161095f565b42106104075761034e90610916565b4210156103e05761035d610976565b84865260208620606435036103b95750916103a47f0ce781a18c10c8289803c7c4cfd532d797113c4b41c9701ffad7d0a632ac555b949260209460e4359160c43516610b34565b6103b16101043533610bce565b51908152a180f35b83517fabab6bd7000000000000000000000000000000000000000000000000000000008152fd5b83517f6f7eac26000000000000000000000000000000000000000000000000000000008152fd5b5083517f6f7eac26000000000000000000000000000000000000000000000000000000008152fd5b83517f48f5c3ed000000000000000000000000000000000000000000000000000000008152fd5b8580fd5b838591346102a0576101407ffffffffffffffffffffffffffffffffffffffffffffffffffffffffffffffffc3601126102a05783359073ffffffffffffffffffffffffffffffffffffffff908183168093036105c457602435916101007fffffffffffffffffffffffffffffffffffffffffffffffffffffffffffffffbc3601126104565760a43516330361059c576104f1610976565b61012435901c7f0000000000000000000000000000000000000000000000000000000000000000014210610574577fc4474c2790e13695f6d2b6f1d8e164290b55370f87a542fd7711abe0a1bf40ac9394508115600014610564576105568133610bce565b82519182526020820152a180f35b61056f813384610b34565b610556565b8483517f6f7eac26000000000000000000000000000000000000000000000000000000008152fd5b8584517f48f5c3ed000000000000000000000000000000000000000000000000000000008152fd5b8480fd5b505050346100e157817ffffffffffffffffffffffffffffffffffffffffffffffffffffffffffffffffc3601126100e157602090517f00000000000000000000000000000000000000000000000000000000000000008152f35b505050346100e157817ffffffffffffffffffffffffffffffffffffffffffffffffffffffffffffffffc3601126100e1576020905173ffffffffffffffffffffffffffffffffffffffff7f0000000000000000000000000000000000000000000000000000000000000000168152f35b90929150346101f1576106a4366108b2565b91909373ffffffffffffffffffffffffffffffffffffffff91826060850135163303610751578301356106d68161095f565b4210610407576106e590610916565b4210156103e0576106f583610aae565b848652602086206020840135036103b95750916103b160c08361074960209660a07f0ce781a18c10c8289803c7c4cfd532d797113c4b41c9701ffad7d0a632ac555b99970135903390608085013516610b34565b013533610bce565b5083517f48f5c3ed000000000000000000000000000000000000000000000000000000008152fd5b93925090346105c45761078b366108b2565b9290948184013580921c63ffffffff8360201c16810180911161088657421061085f57506107b890610916565b4210156108385773ffffffffffffffffffffffffffffffffffffffff906107de83610aae565b848652602086206020840135036103b95750916103b160c08361074960209660a07f0ce781a18c10c8289803c7c4cfd532d797113c4b41c9701ffad7d0a632ac555b99970135908060608501351690608085013516610b34565b82517f6f7eac26000000000000000000000000000000000000000000000000000000008152fd5b90507f6f7eac26000000000000000000000000000000000000000000000000000000008152fd5b6024886011867f4e487b7100000000000000000000000000000000000000000000000000000000835252fd5b906101207ffffffffffffffffffffffffffffffffffffffffffffffffffffffffffffffffc830112610911576101007fffffffffffffffffffffffffffffffffffffffffffffffffffffffffffffffdc60043593011261091157602490565b600080fd5b63ffffffff8160e01c9160401c1681018091116109305790565b7f4e487b7100000000000000000000000000000000000000000000000000000000600052601160045260246000fd5b63ffffffff8160e01c911681018091116109305790565b73ffffffffffffffffffffffffffffffffffffffff6055600b60405161010090816044823720604051907f0000000000000000000000000000000000000000000000000000000000000000604083015260208201527f000000000000000000000000000000000000000000000000000000000000000081520160ff8153201630036109fd57565b60046040517fa269484a000000000000000000000000000000000000000000000000000000008152fd5b73ffffffffffffffffffffffffffffffffffffffff6055600b60405161010090816004823720604051907f0000000000000000000000000000000000000000000000000000000000000000604083015260208201527f000000000000000000000000000000000000000000000000000000000000000081520160ff8153201630036109fd57565b6055600b73ffffffffffffffffffffffffffffffffffffffff926040516101008092823720604051907f0000000000000000000000000000000000000000000000000000000000000000604083015260208201527f000000000000000000000000000000000000000000000000000000000000000081520160ff8153201630036109fd57565b916044602092600092604051917fa9059cbb0000000000000000000000000000000000000000000000000000000083526004830152602482015282855af19081610bab575b5015610b8157565b60046040517ffb7f5079000000000000000000000000000000000000000000000000000000008152fd5b90503d15610bc65750600160005114601f3d11165b38610b79565b3b1515610bc0565b60008080809481945af1903d15610cc55767ffffffffffffffff903d828111610c985760405192601f82017fffffffffffffffffffffffffffffffffffffffffffffffffffffffffffffffe0908116603f0116840190811184821017610c6b57604052825260203d92013e5b15610c4157565b60046040517f8a0332d5000000000000000000000000000000000000000000000000000000008152fd5b6024837f4e487b710000000000000000000000000000000000000000000000000000000081526041600452fd5b6024827f4e487b710000000000000000000000000000000000000000000000000000000081526041600452fd5b50610c3a56fea26469706673582212205de98340a55562d97fa0fa479d70183ffd893bc618f5d3b0d8aaa9f73c56b74764736f6c63430008170033","opcodes":"PUSH1 0xE0 CALLVALUE PUSH2 0xED JUMPI PUSH1 0x1F PUSH2 0xE0A CODESIZE DUP2 SWAP1 SUB SWAP2 DUP3 ADD PUSH1 0x1F NOT AND DUP4 ADD SWAP2 PUSH1 0x1 PUSH1 0x1 PUSH1 0x40 SHL SUB DUP4 GT DUP5 DUP5 LT OR PUSH2 0xF2 JUMPI DUP1 DUP5 SWAP3 PUSH1 0x20 SWAP5 PUSH1 0x40 MSTORE DUP4 CODECOPY DUP2 ADD SUB SLT PUSH2 0xED JUMPI MLOAD PUSH4 0xFFFFFFFF DUP2 AND DUP1 SWAP2 SUB PUSH2 0xED JUMPI CALLER PUSH1 0xA0 MSTORE PUSH1 0x80 MSTORE PUSH15 0x5AF43D82803E903D91602B57FD5BF3 PUSH1 0x20 MSTORE ADDRESS PUSH1 0x11 MSTORE PUSH23 0x3D602D80600A3D3981F3363D3D373D3D3D363D73000000 ADDRESS PUSH1 0x88 SHR OR PUSH1 0x0 MSTORE PUSH1 0x37 PUSH1 0x9 KECCAK256 PUSH1 0xC0 MSTORE PUSH1 0x40 MLOAD PUSH2 0xD01 SWAP1 DUP2 PUSH2 0x109 DUP3 CODECOPY PUSH1 0x80 MLOAD DUP2 DUP2 DUP2 PUSH1 0xBE ADD MSTORE PUSH2 0x4F9 ADD MSTORE PUSH1 0xA0 MLOAD DUP2 DUP2 DUP2 PUSH2 0x66E ADD MSTORE DUP2 DUP2 PUSH2 0x9CD ADD MSTORE DUP2 DUP2 PUSH2 0xA7E ADD MSTORE PUSH2 0xB04 ADD MSTORE PUSH1 0xC0 MLOAD DUP2 DUP2 DUP2 PUSH2 0x5FF ADD MSTORE DUP2 DUP2 PUSH2 0x9A2 ADD MSTORE DUP2 DUP2 PUSH2 0xA53 ADD MSTORE PUSH2 0xAD9 ADD MSTORE RETURN JUMPDEST PUSH1 0x0 DUP1 REVERT JUMPDEST PUSH4 0x4E487B71 PUSH1 0xE0 SHL PUSH1 0x0 MSTORE PUSH1 0x41 PUSH1 0x4 MSTORE PUSH1 0x24 PUSH1 0x0 REVERT INVALID PUSH1 0x80 PUSH1 0x40 DUP2 DUP2 MSTORE PUSH1 0x4 SWAP2 DUP3 CALLDATASIZE LT ISZERO PUSH2 0x16 JUMPI PUSH1 0x0 DUP1 REVERT JUMPDEST PUSH1 0x0 SWAP3 PUSH1 0xE0 DUP5 CALLDATALOAD DUP2 SHR SWAP3 DUP4 PUSH4 0xAF97558 EQ PUSH2 0x779 JUMPI POP DUP3 PUSH4 0x23305703 EQ PUSH2 0x692 JUMPI DUP3 PUSH4 0x2DD31000 EQ PUSH2 0x622 JUMPI DUP3 PUSH4 0x34862B6A EQ PUSH2 0x5C8 JUMPI DUP3 PUSH4 0x4649088B EQ PUSH2 0x45A JUMPI DUP3 PUSH4 0x6C10C0C8 EQ PUSH2 0x2A4 JUMPI DUP3 PUSH4 0x90D3252F EQ PUSH2 0x1F5 JUMPI DUP3 PUSH4 0xDAFF233E EQ PUSH2 0xE5 JUMPI POP POP PUSH4 0xF56CD69C EQ PUSH2 0x8A JUMPI PUSH1 0x0 DUP1 REVERT JUMPDEST CALLVALUE PUSH2 0xE1 JUMPI DUP2 PUSH32 0xFFFFFFFFFFFFFFFFFFFFFFFFFFFFFFFFFFFFFFFFFFFFFFFFFFFFFFFFFFFFFFFC CALLDATASIZE ADD SLT PUSH2 0xE1 JUMPI PUSH1 0x20 SWAP1 MLOAD PUSH32 0x0 DUP2 MSTORE RETURN JUMPDEST POP DUP1 REVERT JUMPDEST SWAP1 SWAP3 SWAP2 POP CALLVALUE PUSH2 0x1F1 JUMPI PUSH2 0x100 PUSH32 0xFFFFFFFFFFFFFFFFFFFFFFFFFFFFFFFFFFFFFFFFFFFFFFFFFFFFFFFFFFFFFFFC CALLDATASIZE ADD SLT PUSH2 0x1F1 JUMPI PUSH4 0xFFFFFFFF PUSH1 0xE4 CALLDATALOAD DUP1 SWAP3 SHR SWAP2 PUSH1 0x60 SHR AND DUP2 ADD DUP1 SWAP2 GT PUSH2 0x1C5 JUMPI TIMESTAMP LT PUSH2 0x19F JUMPI DUP3 PUSH2 0x141 PUSH2 0xA27 JUMP JUMPDEST PUSH2 0x16C PUSH20 0xFFFFFFFFFFFFFFFFFFFFFFFFFFFFFFFFFFFFFFFF PUSH1 0xA4 CALLDATALOAD SWAP1 DUP1 PUSH1 0x44 CALLDATALOAD AND SWAP1 PUSH1 0x84 CALLDATALOAD AND PUSH2 0xB34 JUMP JUMPDEST PUSH2 0x178 PUSH1 0xC4 CALLDATALOAD CALLER PUSH2 0xBCE JUMP JUMPDEST PUSH32 0x6E3BE9294E58D10B9C8053CFD5E09871B67E442FE394D6B0870D336B9DF984A9 DUP2 DUP1 LOG1 DUP1 RETURN JUMPDEST MLOAD PUSH32 0x6F7EAC2600000000000000000000000000000000000000000000000000000000 DUP2 MSTORE REVERT JUMPDEST PUSH1 0x24 DUP5 PUSH1 0x11 DUP6 PUSH32 0x4E487B7100000000000000000000000000000000000000000000000000000000 DUP4 MSTORE MSTORE REVERT JUMPDEST DUP4 DUP1 REVERT JUMPDEST POP SWAP1 POP CALLVALUE PUSH2 0x2A0 JUMPI PUSH2 0x100 PUSH32 0xFFFFFFFFFFFFFFFFFFFFFFFFFFFFFFFFFFFFFFFFFFFFFFFFFFFFFFFFFFFFFFFC CALLDATASIZE ADD SLT PUSH2 0x2A0 JUMPI PUSH20 0xFFFFFFFFFFFFFFFFFFFFFFFFFFFFFFFFFFFFFFFF SWAP2 DUP3 PUSH1 0x64 CALLDATALOAD AND CALLER SUB PUSH2 0x27A JUMPI PUSH2 0x254 PUSH1 0xE4 CALLDATALOAD PUSH2 0x916 JUMP JUMPDEST TIMESTAMP LT PUSH2 0x19F JUMPI DUP4 PUSH2 0x16C DUP5 PUSH2 0x267 PUSH2 0xA27 JUMP JUMPDEST PUSH1 0xA4 CALLDATALOAD SWAP1 DUP1 PUSH1 0x44 CALLDATALOAD AND SWAP1 PUSH1 0x84 CALLDATALOAD AND PUSH2 0xB34 JUMP JUMPDEST MLOAD PUSH32 0x48F5C3ED00000000000000000000000000000000000000000000000000000000 DUP2 MSTORE REVERT JUMPDEST DUP3 DUP1 REVERT JUMPDEST DUP5 DUP3 DUP6 CALLVALUE PUSH2 0x2A0 JUMPI PUSH2 0x140 PUSH32 0xFFFFFFFFFFFFFFFFFFFFFFFFFFFFFFFFFFFFFFFFFFFFFFFFFFFFFFFFFFFFFFFC CALLDATASIZE ADD SLT PUSH2 0x2A0 JUMPI DUP2 CALLDATALOAD SWAP2 PUSH1 0x24 CALLDATALOAD PUSH20 0xFFFFFFFFFFFFFFFFFFFFFFFFFFFFFFFFFFFFFFFF SWAP2 DUP3 DUP3 AND DUP3 SUB PUSH2 0x456 JUMPI PUSH2 0x100 PUSH32 0xFFFFFFFFFFFFFFFFFFFFFFFFFFFFFFFFFFFFFFFFFFFFFFFFFFFFFFFFFFFFFFBC CALLDATASIZE ADD SLT PUSH2 0x456 JUMPI DUP3 PUSH1 0xA4 CALLDATALOAD AND CALLER SUB PUSH2 0x42F JUMPI PUSH2 0x124 CALLDATALOAD PUSH2 0x33F DUP2 PUSH2 0x95F JUMP JUMPDEST TIMESTAMP LT PUSH2 0x407 JUMPI PUSH2 0x34E SWAP1 PUSH2 0x916 JUMP JUMPDEST TIMESTAMP LT ISZERO PUSH2 0x3E0 JUMPI PUSH2 0x35D PUSH2 0x976 JUMP JUMPDEST DUP5 DUP7 MSTORE PUSH1 0x20 DUP7 KECCAK256 PUSH1 0x64 CALLDATALOAD SUB PUSH2 0x3B9 JUMPI POP SWAP2 PUSH2 0x3A4 PUSH32 0xCE781A18C10C8289803C7C4CFD532D797113C4B41C9701FFAD7D0A632AC555B SWAP5 SWAP3 PUSH1 0x20 SWAP5 PUSH1 0xE4 CALLDATALOAD SWAP2 PUSH1 0xC4 CALLDATALOAD AND PUSH2 0xB34 JUMP JUMPDEST PUSH2 0x3B1 PUSH2 0x104 CALLDATALOAD CALLER PUSH2 0xBCE JUMP JUMPDEST MLOAD SWAP1 DUP2 MSTORE LOG1 DUP1 RETURN JUMPDEST DUP4 MLOAD PUSH32 0xABAB6BD700000000000000000000000000000000000000000000000000000000 DUP2 MSTORE REVERT JUMPDEST DUP4 MLOAD PUSH32 0x6F7EAC2600000000000000000000000000000000000000000000000000000000 DUP2 MSTORE REVERT JUMPDEST POP DUP4 MLOAD PUSH32 0x6F7EAC2600000000000000000000000000000000000000000000000000000000 DUP2 MSTORE REVERT JUMPDEST DUP4 MLOAD PUSH32 0x48F5C3ED00000000000000000000000000000000000000000000000000000000 DUP2 MSTORE REVERT JUMPDEST DUP6 DUP1 REVERT JUMPDEST DUP4 DUP6 SWAP2 CALLVALUE PUSH2 0x2A0 JUMPI PUSH2 0x140 PUSH32 0xFFFFFFFFFFFFFFFFFFFFFFFFFFFFFFFFFFFFFFFFFFFFFFFFFFFFFFFFFFFFFFFC CALLDATASIZE ADD SLT PUSH2 0x2A0 JUMPI DUP4 CALLDATALOAD SWAP1 PUSH20 0xFFFFFFFFFFFFFFFFFFFFFFFFFFFFFFFFFFFFFFFF SWAP1 DUP2 DUP4 AND DUP1 SWAP4 SUB PUSH2 0x5C4 JUMPI PUSH1 0x24 CALLDATALOAD SWAP2 PUSH2 0x100 PUSH32 0xFFFFFFFFFFFFFFFFFFFFFFFFFFFFFFFFFFFFFFFFFFFFFFFFFFFFFFFFFFFFFFBC CALLDATASIZE ADD SLT PUSH2 0x456 JUMPI PUSH1 0xA4 CALLDATALOAD AND CALLER SUB PUSH2 0x59C JUMPI PUSH2 0x4F1 PUSH2 0x976 JUMP JUMPDEST PUSH2 0x124 CALLDATALOAD SWAP1 SHR PUSH32 0x0 ADD TIMESTAMP LT PUSH2 0x574 JUMPI PUSH32 0xC4474C2790E13695F6D2B6F1D8E164290B55370F87A542FD7711ABE0A1BF40AC SWAP4 SWAP5 POP DUP2 ISZERO PUSH1 0x0 EQ PUSH2 0x564 JUMPI PUSH2 0x556 DUP2 CALLER PUSH2 0xBCE JUMP JUMPDEST DUP3 MLOAD SWAP2 DUP3 MSTORE PUSH1 0x20 DUP3 ADD MSTORE LOG1 DUP1 RETURN JUMPDEST PUSH2 0x56F DUP2 CALLER DUP5 PUSH2 0xB34 JUMP JUMPDEST PUSH2 0x556 JUMP JUMPDEST DUP5 DUP4 MLOAD PUSH32 0x6F7EAC2600000000000000000000000000000000000000000000000000000000 DUP2 MSTORE REVERT JUMPDEST DUP6 DUP5 MLOAD PUSH32 0x48F5C3ED00000000000000000000000000000000000000000000000000000000 DUP2 MSTORE REVERT JUMPDEST DUP5 DUP1 REVERT JUMPDEST POP POP POP CALLVALUE PUSH2 0xE1 JUMPI DUP2 PUSH32 0xFFFFFFFFFFFFFFFFFFFFFFFFFFFFFFFFFFFFFFFFFFFFFFFFFFFFFFFFFFFFFFFC CALLDATASIZE ADD SLT PUSH2 0xE1 JUMPI PUSH1 0x20 SWAP1 MLOAD PUSH32 0x0 DUP2 MSTORE RETURN JUMPDEST POP POP POP CALLVALUE PUSH2 0xE1 JUMPI DUP2 PUSH32 0xFFFFFFFFFFFFFFFFFFFFFFFFFFFFFFFFFFFFFFFFFFFFFFFFFFFFFFFFFFFFFFFC CALLDATASIZE ADD SLT PUSH2 0xE1 JUMPI PUSH1 0x20 SWAP1 MLOAD PUSH20 0xFFFFFFFFFFFFFFFFFFFFFFFFFFFFFFFFFFFFFFFF PUSH32 0x0 AND DUP2 MSTORE RETURN JUMPDEST SWAP1 SWAP3 SWAP2 POP CALLVALUE PUSH2 0x1F1 JUMPI PUSH2 0x6A4 CALLDATASIZE PUSH2 0x8B2 JUMP JUMPDEST SWAP2 SWAP1 SWAP4 PUSH20 0xFFFFFFFFFFFFFFFFFFFFFFFFFFFFFFFFFFFFFFFF SWAP2 DUP3 PUSH1 0x60 DUP6 ADD CALLDATALOAD AND CALLER SUB PUSH2 0x751 JUMPI DUP4 ADD CALLDATALOAD PUSH2 0x6D6 DUP2 PUSH2 0x95F JUMP JUMPDEST TIMESTAMP LT PUSH2 0x407 JUMPI PUSH2 0x6E5 SWAP1 PUSH2 0x916 JUMP JUMPDEST TIMESTAMP LT ISZERO PUSH2 0x3E0 JUMPI PUSH2 0x6F5 DUP4 PUSH2 0xAAE JUMP JUMPDEST DUP5 DUP7 MSTORE PUSH1 0x20 DUP7 KECCAK256 PUSH1 0x20 DUP5 ADD CALLDATALOAD SUB PUSH2 0x3B9 JUMPI POP SWAP2 PUSH2 0x3B1 PUSH1 0xC0 DUP4 PUSH2 0x749 PUSH1 0x20 SWAP7 PUSH1 0xA0 PUSH32 0xCE781A18C10C8289803C7C4CFD532D797113C4B41C9701FFAD7D0A632AC555B SWAP10 SWAP8 ADD CALLDATALOAD SWAP1 CALLER SWAP1 PUSH1 0x80 DUP6 ADD CALLDATALOAD AND PUSH2 0xB34 JUMP JUMPDEST ADD CALLDATALOAD CALLER PUSH2 0xBCE JUMP JUMPDEST POP DUP4 MLOAD PUSH32 0x48F5C3ED00000000000000000000000000000000000000000000000000000000 DUP2 MSTORE REVERT JUMPDEST SWAP4 SWAP3 POP SWAP1 CALLVALUE PUSH2 0x5C4 JUMPI PUSH2 0x78B CALLDATASIZE PUSH2 0x8B2 JUMP JUMPDEST SWAP3 SWAP1 SWAP5 DUP2 DUP5 ADD CALLDATALOAD DUP1 SWAP3 SHR PUSH4 0xFFFFFFFF DUP4 PUSH1 0x20 SHR AND DUP2 ADD DUP1 SWAP2 GT PUSH2 0x886 JUMPI TIMESTAMP LT PUSH2 0x85F JUMPI POP PUSH2 0x7B8 SWAP1 PUSH2 0x916 JUMP JUMPDEST TIMESTAMP LT ISZERO PUSH2 0x838 JUMPI PUSH20 0xFFFFFFFFFFFFFFFFFFFFFFFFFFFFFFFFFFFFFFFF SWAP1 PUSH2 0x7DE DUP4 PUSH2 0xAAE JUMP JUMPDEST DUP5 DUP7 MSTORE PUSH1 0x20 DUP7 KECCAK256 PUSH1 0x20 DUP5 ADD CALLDATALOAD SUB PUSH2 0x3B9 JUMPI POP SWAP2 PUSH2 0x3B1 PUSH1 0xC0 DUP4 PUSH2 0x749 PUSH1 0x20 SWAP7 PUSH1 0xA0 PUSH32 0xCE781A18C10C8289803C7C4CFD532D797113C4B41C9701FFAD7D0A632AC555B SWAP10 SWAP8 ADD CALLDATALOAD SWAP1 DUP1 PUSH1 0x60 DUP6 ADD CALLDATALOAD AND SWAP1 PUSH1 0x80 DUP6 ADD CALLDATALOAD AND PUSH2 0xB34 JUMP JUMPDEST DUP3 MLOAD PUSH32 0x6F7EAC2600000000000000000000000000000000000000000000000000000000 DUP2 MSTORE REVERT JUMPDEST SWAP1 POP PUSH32 0x6F7EAC2600000000000000000000000000000000000000000000000000000000 DUP2 MSTORE REVERT JUMPDEST PUSH1 0x24 DUP9 PUSH1 0x11 DUP7 PUSH32 0x4E487B7100000000000000000000000000000000000000000000000000000000 DUP4 MSTORE MSTORE REVERT JUMPDEST SWAP1 PUSH2 0x120 PUSH32 0xFFFFFFFFFFFFFFFFFFFFFFFFFFFFFFFFFFFFFFFFFFFFFFFFFFFFFFFFFFFFFFFC DUP4 ADD SLT PUSH2 0x911 JUMPI PUSH2 0x100 PUSH32 0xFFFFFFFFFFFFFFFFFFFFFFFFFFFFFFFFFFFFFFFFFFFFFFFFFFFFFFFFFFFFFFDC PUSH1 0x4 CALLDATALOAD SWAP4 ADD SLT PUSH2 0x911 JUMPI PUSH1 0x24 SWAP1 JUMP JUMPDEST PUSH1 0x0 DUP1 REVERT JUMPDEST PUSH4 0xFFFFFFFF DUP2 PUSH1 0xE0 SHR SWAP2 PUSH1 0x40 SHR AND DUP2 ADD DUP1 SWAP2 GT PUSH2 0x930 JUMPI SWAP1 JUMP JUMPDEST PUSH32 0x4E487B7100000000000000000000000000000000000000000000000000000000 PUSH1 0x0 MSTORE PUSH1 0x11 PUSH1 0x4 MSTORE PUSH1 0x24 PUSH1 0x0 REVERT JUMPDEST PUSH4 0xFFFFFFFF DUP2 PUSH1 0xE0 SHR SWAP2 AND DUP2 ADD DUP1 SWAP2 GT PUSH2 0x930 JUMPI SWAP1 JUMP JUMPDEST PUSH20 0xFFFFFFFFFFFFFFFFFFFFFFFFFFFFFFFFFFFFFFFF PUSH1 0x55 PUSH1 0xB PUSH1 0x40 MLOAD PUSH2 0x100 SWAP1 DUP2 PUSH1 0x44 DUP3 CALLDATACOPY KECCAK256 PUSH1 0x40 MLOAD SWAP1 PUSH32 0x0 PUSH1 0x40 DUP4 ADD MSTORE PUSH1 0x20 DUP3 ADD MSTORE PUSH32 0x0 DUP2 MSTORE ADD PUSH1 0xFF DUP2 MSTORE8 KECCAK256 AND ADDRESS SUB PUSH2 0x9FD JUMPI JUMP JUMPDEST PUSH1 0x4 PUSH1 0x40 MLOAD PUSH32 0xA269484A00000000000000000000000000000000000000000000000000000000 DUP2 MSTORE REVERT JUMPDEST PUSH20 0xFFFFFFFFFFFFFFFFFFFFFFFFFFFFFFFFFFFFFFFF PUSH1 0x55 PUSH1 0xB PUSH1 0x40 MLOAD PUSH2 0x100 SWAP1 DUP2 PUSH1 0x4 DUP3 CALLDATACOPY KECCAK256 PUSH1 0x40 MLOAD SWAP1 PUSH32 0x0 PUSH1 0x40 DUP4 ADD MSTORE PUSH1 0x20 DUP3 ADD MSTORE PUSH32 0x0 DUP2 MSTORE ADD PUSH1 0xFF DUP2 MSTORE8 KECCAK256 AND ADDRESS SUB PUSH2 0x9FD JUMPI JUMP JUMPDEST PUSH1 0x55 PUSH1 0xB PUSH20 0xFFFFFFFFFFFFFFFFFFFFFFFFFFFFFFFFFFFFFFFF SWAP3 PUSH1 0x40 MLOAD PUSH2 0x100 DUP1 SWAP3 DUP3 CALLDATACOPY KECCAK256 PUSH1 0x40 MLOAD SWAP1 PUSH32 0x0 PUSH1 0x40 DUP4 ADD MSTORE PUSH1 0x20 DUP3 ADD MSTORE PUSH32 0x0 DUP2 MSTORE ADD PUSH1 0xFF DUP2 MSTORE8 KECCAK256 AND ADDRESS SUB PUSH2 0x9FD JUMPI JUMP JUMPDEST SWAP2 PUSH1 0x44 PUSH1 0x20 SWAP3 PUSH1 0x0 SWAP3 PUSH1 0x40 MLOAD SWAP2 PUSH32 0xA9059CBB00000000000000000000000000000000000000000000000000000000 DUP4 MSTORE PUSH1 0x4 DUP4 ADD MSTORE PUSH1 0x24 DUP3 ADD MSTORE DUP3 DUP6 GAS CALL SWAP1 DUP2 PUSH2 0xBAB JUMPI JUMPDEST POP ISZERO PUSH2 0xB81 JUMPI JUMP JUMPDEST PUSH1 0x4 PUSH1 0x40 MLOAD PUSH32 0xFB7F507900000000000000000000000000000000000000000000000000000000 DUP2 MSTORE REVERT JUMPDEST SWAP1 POP RETURNDATASIZE ISZERO PUSH2 0xBC6 JUMPI POP PUSH1 0x1 PUSH1 0x0 MLOAD EQ PUSH1 0x1F RETURNDATASIZE GT AND JUMPDEST CODESIZE PUSH2 0xB79 JUMP JUMPDEST EXTCODESIZE ISZERO ISZERO PUSH2 0xBC0 JUMP JUMPDEST PUSH1 0x0 DUP1 DUP1 DUP1 SWAP5 DUP2 SWAP5 GAS CALL SWAP1 RETURNDATASIZE ISZERO PUSH2 0xCC5 JUMPI PUSH8 0xFFFFFFFFFFFFFFFF SWAP1 RETURNDATASIZE DUP3 DUP2 GT PUSH2 0xC98 JUMPI PUSH1 0x40 MLOAD SWAP3 PUSH1 0x1F DUP3 ADD PUSH32 0xFFFFFFFFFFFFFFFFFFFFFFFFFFFFFFFFFFFFFFFFFFFFFFFFFFFFFFFFFFFFFFE0 SWAP1 DUP2 AND PUSH1 0x3F ADD AND DUP5 ADD SWAP1 DUP2 GT DUP5 DUP3 LT OR PUSH2 0xC6B JUMPI PUSH1 0x40 MSTORE DUP3 MSTORE PUSH1 0x20 RETURNDATASIZE SWAP3 ADD RETURNDATACOPY JUMPDEST ISZERO PUSH2 0xC41 JUMPI JUMP JUMPDEST PUSH1 0x4 PUSH1 0x40 MLOAD PUSH32 0x8A0332D500000000000000000000000000000000000000000000000000000000 DUP2 MSTORE REVERT JUMPDEST PUSH1 0x24 DUP4 PUSH32 0x4E487B7100000000000000000000000000000000000000000000000000000000 DUP2 MSTORE PUSH1 0x41 PUSH1 0x4 MSTORE REVERT JUMPDEST PUSH1 0x24 DUP3 PUSH32 0x4E487B7100000000000000000000000000000000000000000000000000000000 DUP2 MSTORE PUSH1 0x41 PUSH1 0x4 MSTORE REVERT JUMPDEST POP PUSH2 0xC3A JUMP INVALID LOG2 PUSH5 0x6970667358 0x22 SLT KECCAK256 0x5D 0xE9 DUP4 BLOCKHASH 0xA5 SSTORE PUSH3 0xD97FA0 STATICCALL SELFBALANCE SWAP14 PUSH17 0x183FFD893BC618F5D3B0D8AAA9F73C56B7 SELFBALANCE PUSH5 0x736F6C6343 STOP ADDMOD OR STOP CALLER "},"methodIdentifiers":{"FACTORY()":"2dd31000","PROXY_BYTECODE_HASH()":"34862b6a","RESCUE_DELAY()":"f56cd69c","cancel((bytes32,bytes32,uint256,uint256,uint256,uint256,uint256,uint256))":"90d3252f","publicCancel((bytes32,bytes32,uint256,uint256,uint256,uint256,uint256,uint256))":"daff233e","publicWithdraw(bytes32,(bytes32,bytes32,uint256,uint256,uint256,uint256,uint256,uint256))":"0af97558","rescueFunds(address,uint256,(bytes32,bytes32,uint256,uint256,uint256,uint256,uint256,uint256))":"4649088b","withdraw(bytes32,(bytes32,bytes32,uint256,uint256,uint256,uint256,uint256,uint256))":"23305703","withdrawTo(bytes32,address,(bytes32,bytes32,uint256,uint256,uint256,uint256,uint256,uint256))":"6c10c0c8"}}}}}