{"contracts/escrow/EscrowFactory.sol":{"MerkleStorageInvalidator":{"abi":[{"inputs":[{"internalType":"address","name":"limitOrderProtocol","type":"address"}],"stateMutability":"nonpayable","type":"constructor"},{"inputs":[],"name":"AccessDenied","type":"error"},{"inputs":[],"name":"InvalidProof","type":"error"},{"inputs":[{"internalType":"bytes32","name":"key","type":"bytes32"}],"name":"lastValidated","outputs":[{"internalType":"uint256","name":"index","type":"uint256"},{"internalType":"bytes32","name":"leaf","type":"bytes32"}],"stateMutability":"view","type":"function"},{"inputs":[{"components":[{"internalType":"uint256","name":"salt","type":"uint256"},{"internalType":"Address","name":"maker","type":"uint256"},{"internalType":"Address","name":"receiver","type":"uint256"},{"internalType":"Address","name":"makerAsset","type":"uint256"},{"internalType":"Address","name":"takerAsset","type":"uint256"},{"internalType":"uint256","name":"makingAmount","type":"uint256"},{"internalType":"uint256","name":"takingAmount","type":"uint256"},{"internalType":"MakerTraits","name":"makerTraits","type":"uint256"}],"internalType":"struct IOrderMixin.Order","name":"","type":"tuple"},{"internalType":"bytes","name":"extension","type":"bytes"},{"internalType":"bytes32","name":"orderHash","type":"bytes32"},{"internalType":"address","name":"","type":"address"},{"internalType":"uint256","name":"","type":"uint256"},{"internalType":"uint256","name":"","type":"uint256"},{"internalType":"uint256","name":"","type":"uint256"},{"internalType":"bytes","name":"extraData","type":"bytes"}],"name":"takerInteraction","outputs":[],"stateMutability":"nonpayable","type":"function"}],"evm":{"bytecode":{"linkReferences":{},"object":"60a03461006957601f61058e38819003918201601f19168301916001600160401b0383118484101761006e5780849260209460405283398101031261006957516001600160a01b038116810361006957608052604051610509908161008582396080518160d50152f35b600080fd5b634e487b7160e01b600052604160045260246000fdfe60806040908082526004918236101561001757600080fd5b600091823560e01c908163acf4ce5c14610384575063adf38ba11461003b57600080fd5b3461037c577ffffffffffffffffffffffffffffffffffffffffffffffffffffffffffffffffc36016101e08112610380576101001361037c5767ffffffffffffffff90610104358281116103785761009690369086016103d3565b73ffffffffffffffffffffffffffffffffffffffff92916101443584811603610374576101c435858111610370576100d190369089016103d3565b50937f0000000000000000000000000000000000000000000000000000000000000000163303610348577fffffffffffffffffffffffffffffffffffffffffffffffffffffffffffffff609161012691610451565b010135917dffffffffffffffffffffffffffffffffffffffffffffffffffffffffffff92825191602092838101906101243582527fffffffffffffffffffffffffffffffffffffffffffffffffffffffffffff00008460101b1686820152603e815261019181610406565b5190209181357fffffffffffffffffffffffffffffffffffffffffffffffffffffffffffffffe18336030181121561034457820195863591888311610340576005928060051b3603878a011361033c578a908888870135960135998951898101907fffffffffffffffff0000000000000000000000000000000000000000000000008960c01b1682528c60288201526028815261022d81610406565b519020958a845b8486106103055750505050505081169116036102dd57600181018091116102b15783519586850190811187821017610285578452855281850193845285528490528320915182555160019091015580f35b60248860418b7f4e487b7100000000000000000000000000000000000000000000000000000000835252fd5b60248760118a7f4e487b7100000000000000000000000000000000000000000000000000000000835252fd5b8784517f09bde339000000000000000000000000000000000000000000000000000000008152fd5b85988c849596976001951b87010135908181106000146103315782528c52205b96019291908a8e610234565b9082528c5220610325565b8a80fd5b8980fd5b8880fd5b8683517f4ca88867000000000000000000000000000000000000000000000000000000008152fd5b8680fd5b8580fd5b8380fd5b5080fd5b8280fd5b905082843461037c5760207ffffffffffffffffffffffffffffffffffffffffffffffffffffffffffffffffc36011261037c579083913581528060205220600181549101549082526020820152f35b9181601f840112156104015782359167ffffffffffffffff8311610401576020838186019501011161040157565b600080fd5b6060810190811067ffffffffffffffff82111761042257604052565b7f4e487b7100000000000000000000000000000000000000000000000000000000600052604160045260246000fd5b919091602083106104ca578035907fffffffffffffffffffffffffffffffffffffffffffffffffffffffffffffffe063ffffffff8360c01c169260e01c940184116104a0578101602001920390565b7f9605a0100000000000000000000000000000000000000000000000000000000060005260046000fd5b5060009150819056fea26469706673582212208deb4f84672a58d3350ac3738d63e3e7db0034718d78dd88d6b5f847d332f9a864736f6c63430008170033","opcodes":"PUSH1 0xA0 CALLVALUE PUSH2 0x69 JUMPI PUSH1 0x1F PUSH2 0x58E CODESIZE DUP2 SWAP1 SUB SWAP2 DUP3 ADD PUSH1 0x1F NOT AND DUP4 ADD SWAP2 PUSH1 0x1 PUSH1 0x1 PUSH1 0x40 SHL SUB DUP4 GT DUP5 DUP5 LT OR PUSH2 0x6E JUMPI DUP1 DUP5 SWAP3 PUSH1 0x20 SWAP5 PUSH1 0x40 MSTORE DUP4 CODECOPY DUP2 ADD SUB SLT PUSH2 0x69 JUMPI MLOAD PUSH1 0x1 PUSH1 0x1 PUSH1 0xA0 SHL SUB DUP2 AND DUP2 SUB PUSH2 0x69 JUMPI PUSH1 0x80 MSTORE PUSH1 0x40 MLOAD PUSH2 0x509 SWAP1 DUP2 PUSH2 0x85 DUP3 CODECOPY PUSH1 0x80 MLOAD DUP2 PUSH1 0xD5 ADD MSTORE RETURN JUMPDEST PUSH1 0x0 DUP1 REVERT JUMPDEST PUSH4 0x4E487B71 PUSH1 0xE0 SHL PUSH1 0x0 MSTORE PUSH1 0x41 PUSH1 0x4 MSTORE PUSH1 0x24 PUSH1 0x0 REVERT INVALID PUSH1 0x80 PUSH1 0x40 SWAP1 DUP1 DUP3 MSTORE PUSH1 0x4 SWAP2 DUP3 CALLDATASIZE LT ISZERO PUSH2 0x17 JUMPI PUSH1 0x0 DUP1 REVERT JUMPDEST PUSH1 0x0 SWAP2 DUP3 CALLDATALOAD PUSH1 0xE0 SHR SWAP1 DUP2 PUSH4 0xACF4CE5C EQ PUSH2 0x384 JUMPI POP PUSH4 0xADF38BA1 EQ PUSH2 0x3B JUMPI PUSH1 0x0 DUP1 REVERT JUMPDEST CALLVALUE PUSH2 0x37C JUMPI PUSH32 0xFFFFFFFFFFFFFFFFFFFFFFFFFFFFFFFFFFFFFFFFFFFFFFFFFFFFFFFFFFFFFFFC CALLDATASIZE ADD PUSH2 0x1E0 DUP2 SLT PUSH2 0x380 JUMPI PUSH2 0x100 SGT PUSH2 0x37C JUMPI PUSH8 0xFFFFFFFFFFFFFFFF SWAP1 PUSH2 0x104 CALLDATALOAD DUP3 DUP2 GT PUSH2 0x378 JUMPI PUSH2 0x96 SWAP1 CALLDATASIZE SWAP1 DUP7 ADD PUSH2 0x3D3 JUMP JUMPDEST PUSH20 0xFFFFFFFFFFFFFFFFFFFFFFFFFFFFFFFFFFFFFFFF SWAP3 SWAP2 PUSH2 0x144 CALLDATALOAD DUP5 DUP2 AND SUB PUSH2 0x374 JUMPI PUSH2 0x1C4 CALLDATALOAD DUP6 DUP2 GT PUSH2 0x370 JUMPI PUSH2 0xD1 SWAP1 CALLDATASIZE SWAP1 DUP10 ADD PUSH2 0x3D3 JUMP JUMPDEST POP SWAP4 PUSH32 0x0 AND CALLER SUB PUSH2 0x348 JUMPI PUSH32 0xFFFFFFFFFFFFFFFFFFFFFFFFFFFFFFFFFFFFFFFFFFFFFFFFFFFFFFFFFFFFFF60 SWAP2 PUSH2 0x126 SWAP2 PUSH2 0x451 JUMP JUMPDEST ADD ADD CALLDATALOAD SWAP2 PUSH30 0xFFFFFFFFFFFFFFFFFFFFFFFFFFFFFFFFFFFFFFFFFFFFFFFFFFFFFFFFFFFF SWAP3 DUP3 MLOAD SWAP2 PUSH1 0x20 SWAP3 DUP4 DUP2 ADD SWAP1 PUSH2 0x124 CALLDATALOAD DUP3 MSTORE PUSH32 0xFFFFFFFFFFFFFFFFFFFFFFFFFFFFFFFFFFFFFFFFFFFFFFFFFFFFFFFFFFFF0000 DUP5 PUSH1 0x10 SHL AND DUP7 DUP3 ADD MSTORE PUSH1 0x3E DUP2 MSTORE PUSH2 0x191 DUP2 PUSH2 0x406 JUMP JUMPDEST MLOAD SWAP1 KECCAK256 SWAP2 DUP2 CALLDATALOAD PUSH32 0xFFFFFFFFFFFFFFFFFFFFFFFFFFFFFFFFFFFFFFFFFFFFFFFFFFFFFFFFFFFFFFE1 DUP4 CALLDATASIZE SUB ADD DUP2 SLT ISZERO PUSH2 0x344 JUMPI DUP3 ADD SWAP6 DUP7 CALLDATALOAD SWAP2 DUP9 DUP4 GT PUSH2 0x340 JUMPI PUSH1 0x5 SWAP3 DUP1 PUSH1 0x5 SHL CALLDATASIZE SUB DUP8 DUP11 ADD SGT PUSH2 0x33C JUMPI DUP11 SWAP1 DUP9 DUP9 DUP8 ADD CALLDATALOAD SWAP7 ADD CALLDATALOAD SWAP10 DUP10 MLOAD DUP10 DUP2 ADD SWAP1 PUSH32 0xFFFFFFFFFFFFFFFF000000000000000000000000000000000000000000000000 DUP10 PUSH1 0xC0 SHL AND DUP3 MSTORE DUP13 PUSH1 0x28 DUP3 ADD MSTORE PUSH1 0x28 DUP2 MSTORE PUSH2 0x22D DUP2 PUSH2 0x406 JUMP JUMPDEST MLOAD SWAP1 KECCAK256 SWAP6 DUP11 DUP5 JUMPDEST DUP5 DUP7 LT PUSH2 0x305 JUMPI POP POP POP POP POP POP DUP2 AND SWAP2 AND SUB PUSH2 0x2DD JUMPI PUSH1 0x1 DUP2 ADD DUP1 SWAP2 GT PUSH2 0x2B1 JUMPI DUP4 MLOAD SWAP6 DUP7 DUP6 ADD SWAP1 DUP2 GT DUP8 DUP3 LT OR PUSH2 0x285 JUMPI DUP5 MSTORE DUP6 MSTORE DUP2 DUP6 ADD SWAP4 DUP5 MSTORE DUP6 MSTORE DUP5 SWAP1 MSTORE DUP4 KECCAK256 SWAP2 MLOAD DUP3 SSTORE MLOAD PUSH1 0x1 SWAP1 SWAP2 ADD SSTORE DUP1 RETURN JUMPDEST PUSH1 0x24 DUP9 PUSH1 0x41 DUP12 PUSH32 0x4E487B7100000000000000000000000000000000000000000000000000000000 DUP4 MSTORE MSTORE REVERT JUMPDEST PUSH1 0x24 DUP8 PUSH1 0x11 DUP11 PUSH32 0x4E487B7100000000000000000000000000000000000000000000000000000000 DUP4 MSTORE MSTORE REVERT JUMPDEST DUP8 DUP5 MLOAD PUSH32 0x9BDE33900000000000000000000000000000000000000000000000000000000 DUP2 MSTORE REVERT JUMPDEST DUP6 SWAP9 DUP13 DUP5 SWAP6 SWAP7 SWAP8 PUSH1 0x1 SWAP6 SHL DUP8 ADD ADD CALLDATALOAD SWAP1 DUP2 DUP2 LT PUSH1 0x0 EQ PUSH2 0x331 JUMPI DUP3 MSTORE DUP13 MSTORE KECCAK256 JUMPDEST SWAP7 ADD SWAP3 SWAP2 SWAP1 DUP11 DUP15 PUSH2 0x234 JUMP JUMPDEST SWAP1 DUP3 MSTORE DUP13 MSTORE KECCAK256 PUSH2 0x325 JUMP JUMPDEST DUP11 DUP1 REVERT JUMPDEST DUP10 DUP1 REVERT JUMPDEST DUP9 DUP1 REVERT JUMPDEST DUP7 DUP4 MLOAD PUSH32 0x4CA8886700000000000000000000000000000000000000000000000000000000 DUP2 MSTORE REVERT JUMPDEST DUP7 DUP1 REVERT JUMPDEST DUP6 DUP1 REVERT JUMPDEST DUP4 DUP1 REVERT JUMPDEST POP DUP1 REVERT JUMPDEST DUP3 DUP1 REVERT JUMPDEST SWAP1 POP DUP3 DUP5 CALLVALUE PUSH2 0x37C JUMPI PUSH1 0x20 PUSH32 0xFFFFFFFFFFFFFFFFFFFFFFFFFFFFFFFFFFFFFFFFFFFFFFFFFFFFFFFFFFFFFFFC CALLDATASIZE ADD SLT PUSH2 0x37C JUMPI SWAP1 DUP4 SWAP2 CALLDATALOAD DUP2 MSTORE DUP1 PUSH1 0x20 MSTORE KECCAK256 PUSH1 0x1 DUP2 SLOAD SWAP2 ADD SLOAD SWAP1 DUP3 MSTORE PUSH1 0x20 DUP3 ADD MSTORE RETURN JUMPDEST SWAP2 DUP2 PUSH1 0x1F DUP5 ADD SLT ISZERO PUSH2 0x401 JUMPI DUP3 CALLDATALOAD SWAP2 PUSH8 0xFFFFFFFFFFFFFFFF DUP4 GT PUSH2 0x401 JUMPI PUSH1 0x20 DUP4 DUP2 DUP7 ADD SWAP6 ADD ADD GT PUSH2 0x401 JUMPI JUMP JUMPDEST PUSH1 0x0 DUP1 REVERT JUMPDEST PUSH1 0x60 DUP2 ADD SWAP1 DUP2 LT PUSH8 0xFFFFFFFFFFFFFFFF DUP3 GT OR PUSH2 0x422 JUMPI PUSH1 0x40 MSTORE JUMP JUMPDEST PUSH32 0x4E487B7100000000000000000000000000000000000000000000000000000000 PUSH1 0x0 MSTORE PUSH1 0x41 PUSH1 0x4 MSTORE PUSH1 0x24 PUSH1 0x0 REVERT JUMPDEST SWAP2 SWAP1 SWAP2 PUSH1 0x20 DUP4 LT PUSH2 0x4CA JUMPI DUP1 CALLDATALOAD SWAP1 PUSH32 0xFFFFFFFFFFFFFFFFFFFFFFFFFFFFFFFFFFFFFFFFFFFFFFFFFFFFFFFFFFFFFFE0 PUSH4 0xFFFFFFFF DUP4 PUSH1 0xC0 SHR AND SWAP3 PUSH1 0xE0 SHR SWAP5 ADD DUP5 GT PUSH2 0x4A0 JUMPI DUP2 ADD PUSH1 0x20 ADD SWAP3 SUB SWAP1 JUMP JUMPDEST PUSH32 0x9605A01000000000000000000000000000000000000000000000000000000000 PUSH1 0x0 MSTORE PUSH1 0x4 PUSH1 0x0 REVERT JUMPDEST POP PUSH1 0x0 SWAP2 POP DUP2 SWAP1 JUMP INVALID LOG2 PUSH5 0x6970667358 0x22 SLT KECCAK256 DUP14 0xEB 0x4F DUP5 PUSH8 0x2A58D3350AC3738D PUSH4 0xE3E7DB00 CALLVALUE PUSH18 0x8D78DD88D6B5F847D332F9A864736F6C6343 STOP ADDMOD OR STOP CALLER "},"methodIdentifiers":{"lastValidated(bytes32)":"acf4ce5c","takerInteraction((uint256,uint256,uint256,uint256,uint256,uint256,uint256,uint256),bytes,bytes32,address,uint256,uint256,uint256,bytes)":"adf38ba1"}}}}}