{"contracts/escrow/EscrowFactory.sol":{"BaseExtension":{"abi":[{"inputs":[{"internalType":"address","name":"limitOrderProtocol","type":"address"}],"stateMutability":"nonpayable","type":"constructor"},{"inputs":[],"name":"OnlyLimitOrderProtocol","type":"error"},{"inputs":[{"components":[{"internalType":"uint256","name":"salt","type":"uint256"},{"internalType":"Address","name":"maker","type":"uint256"},{"internalType":"Address","name":"receiver","type":"uint256"},{"internalType":"Address","name":"makerAsset","type":"uint256"},{"internalType":"Address","name":"takerAsset","type":"uint256"},{"internalType":"uint256","name":"makingAmount","type":"uint256"},{"internalType":"uint256","name":"takingAmount","type":"uint256"},{"internalType":"MakerTraits","name":"makerTraits","type":"uint256"}],"internalType":"struct IOrderMixin.Order","name":"order","type":"tuple"},{"internalType":"bytes","name":"","type":"bytes"},{"internalType":"bytes32","name":"","type":"bytes32"},{"internalType":"address","name":"","type":"address"},{"internalType":"uint256","name":"takingAmount","type":"uint256"},{"internalType":"uint256","name":"","type":"uint256"},{"internalType":"bytes","name":"extraData","type":"bytes"}],"name":"getMakingAmount","outputs":[{"internalType":"uint256","name":"","type":"uint256"}],"stateMutability":"view","type":"function"},{"inputs":[{"components":[{"internalType":"uint256","name":"salt","type":"uint256"},{"internalType":"Address","name":"maker","type":"uint256"},{"internalType":"Address","name":"receiver","type":"uint256"},{"internalType":"Address","name":"makerAsset","type":"uint256"},{"internalType":"Address","name":"takerAsset","type":"uint256"},{"internalType":"uint256","name":"makingAmount","type":"uint256"},{"internalType":"uint256","name":"takingAmount","type":"uint256"},{"internalType":"MakerTraits","name":"makerTraits","type":"uint256"}],"internalType":"struct IOrderMixin.Order","name":"order","type":"tuple"},{"internalType":"bytes","name":"","type":"bytes"},{"internalType":"bytes32","name":"","type":"bytes32"},{"internalType":"address","name":"","type":"address"},{"internalType":"uint256","name":"makingAmount","type":"uint256"},{"internalType":"uint256","name":"","type":"uint256"},{"internalType":"bytes","name":"extraData","type":"bytes"}],"name":"getTakingAmount","outputs":[{"internalType":"uint256","name":"","type":"uint256"}],"stateMutability":"view","type":"function"},{"inputs":[{"components":[{"internalType":"uint256","name":"salt","type":"uint256"},{"internalType":"Address","name":"maker","type":"uint256"},{"internalType":"Address","name":"receiver","type":"uint256"},{"internalType":"Address","name":"makerAsset","type":"uint256"},{"internalType":"Address","name":"takerAsset","type":"uint256"},{"internalType":"uint256","name":"makingAmount","type":"uint256"},{"internalType":"uint256","name":"takingAmount","type":"uint256"},{"internalType":"MakerTraits","name":"makerTraits","type":"uint256"}],"internalType":"struct IOrderMixin.Order","name":"order","type":"tuple"},{"internalType":"bytes","name":"extension","type":"bytes"},{"internalType":"bytes32","name":"orderHash","type":"bytes32"},{"internalType":"address","name":"taker","type":"address"},{"internalType":"uint256","name":"makingAmount","type":"uint256"},{"internalType":"uint256","name":"takingAmount","type":"uint256"},{"internalType":"uint256","name":"remainingMakingAmount","type":"uint256"},{"internalType":"bytes","name":"extraData","type":"bytes"}],"name":"postInteraction","outputs":[],"stateMutability":"nonpayable","type":"function"},{"inputs":[{"components":[{"internalType":"uint256","name":"salt","type":"uint256"},{"internalType":"Address","name":"maker","type":"uint256"},{"internalType":"Address","name":"receiver","type":"uint256"},{"internalType":"Address","name":"makerAsset","type":"uint256"},{"internalType":"Address","name":"takerAsset","type":"uint256"},{"internalType":"uint256","name":"makingAmount","type":"uint256"},{"internalType":"uint256","name":"takingAmount","type":"uint256"},{"internalType":"MakerTraits","name":"makerTraits","type":"uint256"}],"internalType":"struct IOrderMixin.Order","name":"order","type":"tuple"},{"internalType":"bytes","name":"extension","type":"bytes"},{"internalType":"bytes32","name":"orderHash","type":"bytes32"},{"internalType":"address","name":"taker","type":"address"},{"internalType":"uint256","name":"makingAmount","type":"uint256"},{"internalType":"uint256","name":"takingAmount","type":"uint256"},{"internalType":"uint256","name":"remainingMakingAmount","type":"uint256"},{"internalType":"bytes","name":"extraData","type":"bytes"}],"name":"preInteraction","outputs":[],"stateMutability":"nonpayable","type":"function"}],"evm":{"bytecode":{"linkReferences":{},"object":"60a03461007157601f610af038819003918201601f19168301916001600160401b038311848410176100765780849260209460405283398101031261007157516001600160a01b038116810361007157608052604051610a63908161008d82396080518181816101b501526105760152f35b600080fd5b634e487b7160e01b600052604160045260246000fdfe608080604052600436101561001357600080fd5b600090813560e01c9081630986bdd514610545575080631d9671c314610481578063462ebde2146101835763d7ff8a801461004d57600080fd5b346101805761006c61005e366106ac565b95509350509593505061079e565b629896809260c0830135918401908185116101535760a09161008d91610752565b920135838102938185041490151715610126576100ab838383610867565b9383156100f9575009151581018091116100ca57602090604051908152f35b7f4e487b7100000000000000000000000000000000000000000000000000000000600052601160045260246000fd5b807f4e487b7100000000000000000000000000000000000000000000000000000000602492526012600452fd5b6024847f4e487b710000000000000000000000000000000000000000000000000000000081526011600452fd5b6024867f4e487b710000000000000000000000000000000000000000000000000000000081526011600452fd5b80fd5b503461018057610192366105ff565b73ffffffffffffffffffffffffffffffffffffffff9a99939a98979598969192967f000000000000000000000000000000000000000000000000000000000000000016330361045757601481116101e7578980f35b8235967fffffffffffffffffffffffffffffffffffffffff0000000000000000000000008089169860148410610441575b5050817fffffffffffffffffffffffffffffffffffffffffffffffffffffffffffffffff810111610414578a9b7fffffffffffffffffffffffffffffffffffffffffffffffffffffffffffffffff839c9b9c01601411610410578860601c3b15610410578a966040519c8d9b8c9a8b997f462ebde2000000000000000000000000000000000000000000000000000000008b52803560048c0152602081013560248c0152604081013560448c0152606081013560648c0152608081013560848c015260a081013560a48c015260c081013560c48c015260e0013560e48b01526101048a016101e090526101e48a01906103109261092b565b9561012489015273ffffffffffffffffffffffffffffffffffffffff166101448801526101648701526101848601526101a48501528382037ffffffffffffffffffffffffffffffffffffffffffffffffffffffffffffffffc016101c48501527fffffffffffffffffffffffffffffffffffffffffffffffffffffffffffffffeb0191601401916103a09261092b565b039260601c5af18015610405576103c0575b808080808080808089988980f35b67ffffffffffffffff81116103d857604052386103b2565b6024827f4e487b710000000000000000000000000000000000000000000000000000000081526041600452fd5b6040513d84823e3d90fd5b8a80fd5b60248b7f4e487b710000000000000000000000000000000000000000000000000000000081526011600452fd5b601484900360031b82901b161697503880610218565b60046040517fd25aa106000000000000000000000000000000000000000000000000000000008152fd5b5034610180576104a490610494366106ac565b955093505095949693505061079e565b906298968091828402938085048414901517156105185782018092116104eb5760206104e3858560a06104db8760c0850135610752565b920135610867565b604051908152f35b807f4e487b7100000000000000000000000000000000000000000000000000000000602492526011600452fd5b6024827f4e487b710000000000000000000000000000000000000000000000000000000081526011600452fd5b9050346105c857610555366105ff565b5050505050505050505073ffffffffffffffffffffffffffffffffffffffff7f00000000000000000000000000000000000000000000000000000000000000001633036105a0575080f35b807fd25aa1060000000000000000000000000000000000000000000000000000000060049252fd5b5080fd5b9181601f840112156105fa5782359167ffffffffffffffff83116105fa57602083818601950101116105fa57565b600080fd5b7ffffffffffffffffffffffffffffffffffffffffffffffffffffffffffffffffc81016101e081126105fa57610100136105fa5760049167ffffffffffffffff610104358181116105fa5783610657916004016105cc565b9390939261012435926101443573ffffffffffffffffffffffffffffffffffffffff811681036105fa5792610164359261018435926101a435926101c4359182116105fa576106a8916004016105cc565b9091565b907ffffffffffffffffffffffffffffffffffffffffffffffffffffffffffffffffc82016101c081126105fa57610100136105fa5760049167ffffffffffffffff90610104358281116105fa5781610706916004016105cc565b9390939261012435926101443573ffffffffffffffffffffffffffffffffffffffff811681036105fa5792610164359261018435926101a4359182116105fa576106a8916004016105cc565b818102929181159184041417156100ca57565b811561076f570490565b7f4e487b7100000000000000000000000000000000000000000000000000000000600052601260045260246000fd5b90806003116105fa57813560e81c816007116105fa57600383013560e01c908015801561085f575b156108485750506000915b81600b116105fa57600781013560e01c82600e116105fa57826011116105fa577fffffffffffffffffffffffffffffffffffffffffffffffffffffffffffffffef6108359301916011810191600b600e83013560e81c92013560e81c81019061096a565b81811115610841570390565b5050600090565b620f424091610858914802610765565b04916107d1565b5081156107c6565b91818302917fffffffffffffffffffffffffffffffffffffffffffffffffffffffffffffffff8185099383808610950394808603951461091b57848311156108fb579082910981600003821680920460028082600302188083028203028083028203028083028203028083028203028083028203028092029003029360018380600003040190848311900302920304170290565b826109145760125b634e487b716000526020526024601cfd5b6011610903565b5050906109289250610765565b90565b601f82602094937fffffffffffffffffffffffffffffffffffffffffffffffffffffffffffffffe0938186528686013760008582860101520116010190565b9091939281421115600014610980575050505090565b8293949192421015610a2357849291925b6109a75750610928935082039142900302610765565b906003908582116105fa57823560e81c906005928784116105fa5784013560f01c81019485421115610a04575050907ffffffffffffffffffffffffffffffffffffffffffffffffffffffffffffffffb9193920194019384610991565b9250936109289650809550849193500393429003029142030201610765565b505050505060009056fea264697066735822122030071915f8a71fbe492ebe69302600d0df3cfcbb765d6f7dc15cdb1f65fced3064736f6c63430008170033","opcodes":"PUSH1 0xA0 CALLVALUE PUSH2 0x71 JUMPI PUSH1 0x1F PUSH2 0xAF0 CODESIZE DUP2 SWAP1 SUB SWAP2 DUP3 ADD PUSH1 0x1F NOT AND DUP4 ADD SWAP2 PUSH1 0x1 PUSH1 0x1 PUSH1 0x40 SHL SUB DUP4 GT DUP5 DUP5 LT OR PUSH2 0x76 JUMPI DUP1 DUP5 SWAP3 PUSH1 0x20 SWAP5 PUSH1 0x40 MSTORE DUP4 CODECOPY DUP2 ADD SUB SLT PUSH2 0x71 JUMPI MLOAD PUSH1 0x1 PUSH1 0x1 PUSH1 0xA0 SHL SUB DUP2 AND DUP2 SUB PUSH2 0x71 JUMPI PUSH1 0x80 MSTORE PUSH1 0x40 MLOAD PUSH2 0xA63 SWAP1 DUP2 PUSH2 0x8D DUP3 CODECOPY PUSH1 0x80 MLOAD DUP2 DUP2 DUP2 PUSH2 0x1B5 ADD MSTORE PUSH2 0x576 ADD MSTORE RETURN JUMPDEST PUSH1 0x0 DUP1 REVERT JUMPDEST PUSH4 0x4E487B71 PUSH1 0xE0 SHL PUSH1 0x0 MSTORE PUSH1 0x41 PUSH1 0x4 MSTORE PUSH1 0x24 PUSH1 0x0 REVERT INVALID PUSH1 0x80 DUP1 PUSH1 0x40 MSTORE PUSH1 0x4 CALLDATASIZE LT ISZERO PUSH2 0x13 JUMPI PUSH1 0x0 DUP1 REVERT JUMPDEST PUSH1 0x0 SWAP1 DUP2 CALLDATALOAD PUSH1 0xE0 SHR SWAP1 DUP2 PUSH4 0x986BDD5 EQ PUSH2 0x545 JUMPI POP DUP1 PUSH4 0x1D9671C3 EQ PUSH2 0x481 JUMPI DUP1 PUSH4 0x462EBDE2 EQ PUSH2 0x183 JUMPI PUSH4 0xD7FF8A80 EQ PUSH2 0x4D JUMPI PUSH1 0x0 DUP1 REVERT JUMPDEST CALLVALUE PUSH2 0x180 JUMPI PUSH2 0x6C PUSH2 0x5E CALLDATASIZE PUSH2 0x6AC JUMP JUMPDEST SWAP6 POP SWAP4 POP POP SWAP6 SWAP4 POP POP PUSH2 0x79E JUMP JUMPDEST PUSH3 0x989680 SWAP3 PUSH1 0xC0 DUP4 ADD CALLDATALOAD SWAP2 DUP5 ADD SWAP1 DUP2 DUP6 GT PUSH2 0x153 JUMPI PUSH1 0xA0 SWAP2 PUSH2 0x8D SWAP2 PUSH2 0x752 JUMP JUMPDEST SWAP3 ADD CALLDATALOAD DUP4 DUP2 MUL SWAP4 DUP2 DUP6 DIV EQ SWAP1 ISZERO OR ISZERO PUSH2 0x126 JUMPI PUSH2 0xAB DUP4 DUP4 DUP4 PUSH2 0x867 JUMP JUMPDEST SWAP4 DUP4 ISZERO PUSH2 0xF9 JUMPI POP MULMOD ISZERO ISZERO DUP2 ADD DUP1 SWAP2 GT PUSH2 0xCA JUMPI PUSH1 0x20 SWAP1 PUSH1 0x40 MLOAD SWAP1 DUP2 MSTORE RETURN JUMPDEST PUSH32 0x4E487B7100000000000000000000000000000000000000000000000000000000 PUSH1 0x0 MSTORE PUSH1 0x11 PUSH1 0x4 MSTORE PUSH1 0x24 PUSH1 0x0 REVERT JUMPDEST DUP1 PUSH32 0x4E487B7100000000000000000000000000000000000000000000000000000000 PUSH1 0x24 SWAP3 MSTORE PUSH1 0x12 PUSH1 0x4 MSTORE REVERT JUMPDEST PUSH1 0x24 DUP5 PUSH32 0x4E487B7100000000000000000000000000000000000000000000000000000000 DUP2 MSTORE PUSH1 0x11 PUSH1 0x4 MSTORE REVERT JUMPDEST PUSH1 0x24 DUP7 PUSH32 0x4E487B7100000000000000000000000000000000000000000000000000000000 DUP2 MSTORE PUSH1 0x11 PUSH1 0x4 MSTORE REVERT JUMPDEST DUP1 REVERT JUMPDEST POP CALLVALUE PUSH2 0x180 JUMPI PUSH2 0x192 CALLDATASIZE PUSH2 0x5FF JUMP JUMPDEST PUSH20 0xFFFFFFFFFFFFFFFFFFFFFFFFFFFFFFFFFFFFFFFF SWAP11 SWAP10 SWAP4 SWAP11 SWAP9 SWAP8 SWAP6 SWAP9 SWAP7 SWAP2 SWAP3 SWAP7 PUSH32 0x0 AND CALLER SUB PUSH2 0x457 JUMPI PUSH1 0x14 DUP2 GT PUSH2 0x1E7 JUMPI DUP10 DUP1 RETURN JUMPDEST DUP3 CALLDATALOAD SWAP7 PUSH32 0xFFFFFFFFFFFFFFFFFFFFFFFFFFFFFFFFFFFFFFFF000000000000000000000000 DUP1 DUP10 AND SWAP9 PUSH1 0x14 DUP5 LT PUSH2 0x441 JUMPI JUMPDEST POP POP DUP2 PUSH32 0xFFFFFFFFFFFFFFFFFFFFFFFFFFFFFFFFFFFFFFFFFFFFFFFFFFFFFFFFFFFFFFFF DUP2 ADD GT PUSH2 0x414 JUMPI DUP11 SWAP12 PUSH32 0xFFFFFFFFFFFFFFFFFFFFFFFFFFFFFFFFFFFFFFFFFFFFFFFFFFFFFFFFFFFFFFFF DUP4 SWAP13 SWAP12 SWAP13 ADD PUSH1 0x14 GT PUSH2 0x410 JUMPI DUP9 PUSH1 0x60 SHR EXTCODESIZE ISZERO PUSH2 0x410 JUMPI DUP11 SWAP7 PUSH1 0x40 MLOAD SWAP13 DUP14 SWAP12 DUP13 SWAP11 DUP12 SWAP10 PUSH32 0x462EBDE200000000000000000000000000000000000000000000000000000000 DUP12 MSTORE DUP1 CALLDATALOAD PUSH1 0x4 DUP13 ADD MSTORE PUSH1 0x20 DUP2 ADD CALLDATALOAD PUSH1 0x24 DUP13 ADD MSTORE PUSH1 0x40 DUP2 ADD CALLDATALOAD PUSH1 0x44 DUP13 ADD MSTORE PUSH1 0x60 DUP2 ADD CALLDATALOAD PUSH1 0x64 DUP13 ADD MSTORE PUSH1 0x80 DUP2 ADD CALLDATALOAD PUSH1 0x84 DUP13 ADD MSTORE PUSH1 0xA0 DUP2 ADD CALLDATALOAD PUSH1 0xA4 DUP13 ADD MSTORE PUSH1 0xC0 DUP2 ADD CALLDATALOAD PUSH1 0xC4 DUP13 ADD MSTORE PUSH1 0xE0 ADD CALLDATALOAD PUSH1 0xE4 DUP12 ADD MSTORE PUSH2 0x104 DUP11 ADD PUSH2 0x1E0 SWAP1 MSTORE PUSH2 0x1E4 DUP11 ADD SWAP1 PUSH2 0x310 SWAP3 PUSH2 0x92B JUMP JUMPDEST SWAP6 PUSH2 0x124 DUP10 ADD MSTORE PUSH20 0xFFFFFFFFFFFFFFFFFFFFFFFFFFFFFFFFFFFFFFFF AND PUSH2 0x144 DUP9 ADD MSTORE PUSH2 0x164 DUP8 ADD MSTORE PUSH2 0x184 DUP7 ADD MSTORE PUSH2 0x1A4 DUP6 ADD MSTORE DUP4 DUP3 SUB PUSH32 0xFFFFFFFFFFFFFFFFFFFFFFFFFFFFFFFFFFFFFFFFFFFFFFFFFFFFFFFFFFFFFFFC ADD PUSH2 0x1C4 DUP6 ADD MSTORE PUSH32 0xFFFFFFFFFFFFFFFFFFFFFFFFFFFFFFFFFFFFFFFFFFFFFFFFFFFFFFFFFFFFFFEB ADD SWAP2 PUSH1 0x14 ADD SWAP2 PUSH2 0x3A0 SWAP3 PUSH2 0x92B JUMP JUMPDEST SUB SWAP3 PUSH1 0x60 SHR GAS CALL DUP1 ISZERO PUSH2 0x405 JUMPI PUSH2 0x3C0 JUMPI JUMPDEST DUP1 DUP1 DUP1 DUP1 DUP1 DUP1 DUP1 DUP1 DUP10 SWAP9 DUP10 DUP1 RETURN JUMPDEST PUSH8 0xFFFFFFFFFFFFFFFF DUP2 GT PUSH2 0x3D8 JUMPI PUSH1 0x40 MSTORE CODESIZE PUSH2 0x3B2 JUMP JUMPDEST PUSH1 0x24 DUP3 PUSH32 0x4E487B7100000000000000000000000000000000000000000000000000000000 DUP2 MSTORE PUSH1 0x41 PUSH1 0x4 MSTORE REVERT JUMPDEST PUSH1 0x40 MLOAD RETURNDATASIZE DUP5 DUP3 RETURNDATACOPY RETURNDATASIZE SWAP1 REVERT JUMPDEST DUP11 DUP1 REVERT JUMPDEST PUSH1 0x24 DUP12 PUSH32 0x4E487B7100000000000000000000000000000000000000000000000000000000 DUP2 MSTORE PUSH1 0x11 PUSH1 0x4 MSTORE REVERT JUMPDEST PUSH1 0x14 DUP5 SWAP1 SUB PUSH1 0x3 SHL DUP3 SWAP1 SHL AND AND SWAP8 POP CODESIZE DUP1 PUSH2 0x218 JUMP JUMPDEST PUSH1 0x4 PUSH1 0x40 MLOAD PUSH32 0xD25AA10600000000000000000000000000000000000000000000000000000000 DUP2 MSTORE REVERT JUMPDEST POP CALLVALUE PUSH2 0x180 JUMPI PUSH2 0x4A4 SWAP1 PUSH2 0x494 CALLDATASIZE PUSH2 0x6AC JUMP JUMPDEST SWAP6 POP SWAP4 POP POP SWAP6 SWAP5 SWAP7 SWAP4 POP POP PUSH2 0x79E JUMP JUMPDEST SWAP1 PUSH3 0x989680 SWAP2 DUP3 DUP5 MUL SWAP4 DUP1 DUP6 DIV DUP5 EQ SWAP1 ISZERO OR ISZERO PUSH2 0x518 JUMPI DUP3 ADD DUP1 SWAP3 GT PUSH2 0x4EB JUMPI PUSH1 0x20 PUSH2 0x4E3 DUP6 DUP6 PUSH1 0xA0 PUSH2 0x4DB DUP8 PUSH1 0xC0 DUP6 ADD CALLDATALOAD PUSH2 0x752 JUMP JUMPDEST SWAP3 ADD CALLDATALOAD PUSH2 0x867 JUMP JUMPDEST PUSH1 0x40 MLOAD SWAP1 DUP2 MSTORE RETURN JUMPDEST DUP1 PUSH32 0x4E487B7100000000000000000000000000000000000000000000000000000000 PUSH1 0x24 SWAP3 MSTORE PUSH1 0x11 PUSH1 0x4 MSTORE REVERT JUMPDEST PUSH1 0x24 DUP3 PUSH32 0x4E487B7100000000000000000000000000000000000000000000000000000000 DUP2 MSTORE PUSH1 0x11 PUSH1 0x4 MSTORE REVERT JUMPDEST SWAP1 POP CALLVALUE PUSH2 0x5C8 JUMPI PUSH2 0x555 CALLDATASIZE PUSH2 0x5FF JUMP JUMPDEST POP POP POP POP POP POP POP POP POP POP PUSH20 0xFFFFFFFFFFFFFFFFFFFFFFFFFFFFFFFFFFFFFFFF PUSH32 0x0 AND CALLER SUB PUSH2 0x5A0 JUMPI POP DUP1 RETURN JUMPDEST DUP1 PUSH32 0xD25AA10600000000000000000000000000000000000000000000000000000000 PUSH1 0x4 SWAP3 MSTORE REVERT JUMPDEST POP DUP1 REVERT JUMPDEST SWAP2 DUP2 PUSH1 0x1F DUP5 ADD SLT ISZERO PUSH2 0x5FA JUMPI DUP3 CALLDATALOAD SWAP2 PUSH8 0xFFFFFFFFFFFFFFFF DUP4 GT PUSH2 0x5FA JUMPI PUSH1 0x20 DUP4 DUP2 DUP7 ADD SWAP6 ADD ADD GT PUSH2 0x5FA JUMPI JUMP JUMPDEST PUSH1 0x0 DUP1 REVERT JUMPDEST PUSH32 0xFFFFFFFFFFFFFFFFFFFFFFFFFFFFFFFFFFFFFFFFFFFFFFFFFFFFFFFFFFFFFFFC DUP2 ADD PUSH2 0x1E0 DUP2 SLT PUSH2 0x5FA JUMPI PUSH2 0x100 SGT PUSH2 0x5FA JUMPI PUSH1 0x4 SWAP2 PUSH8 0xFFFFFFFFFFFFFFFF PUSH2 0x104 CALLDATALOAD DUP2 DUP2 GT PUSH2 0x5FA JUMPI DUP4 PUSH2 0x657 SWAP2 PUSH1 0x4 ADD PUSH2 0x5CC JUMP JUMPDEST SWAP4 SWAP1 SWAP4 SWAP3 PUSH2 0x124 CALLDATALOAD SWAP3 PUSH2 0x144 CALLDATALOAD PUSH20 0xFFFFFFFFFFFFFFFFFFFFFFFFFFFFFFFFFFFFFFFF DUP2 AND DUP2 SUB PUSH2 0x5FA JUMPI SWAP3 PUSH2 0x164 CALLDATALOAD SWAP3 PUSH2 0x184 CALLDATALOAD SWAP3 PUSH2 0x1A4 CALLDATALOAD SWAP3 PUSH2 0x1C4 CALLDATALOAD SWAP2 DUP3 GT PUSH2 0x5FA JUMPI PUSH2 0x6A8 SWAP2 PUSH1 0x4 ADD PUSH2 0x5CC JUMP JUMPDEST SWAP1 SWAP2 JUMP JUMPDEST SWAP1 PUSH32 0xFFFFFFFFFFFFFFFFFFFFFFFFFFFFFFFFFFFFFFFFFFFFFFFFFFFFFFFFFFFFFFFC DUP3 ADD PUSH2 0x1C0 DUP2 SLT PUSH2 0x5FA JUMPI PUSH2 0x100 SGT PUSH2 0x5FA JUMPI PUSH1 0x4 SWAP2 PUSH8 0xFFFFFFFFFFFFFFFF SWAP1 PUSH2 0x104 CALLDATALOAD DUP3 DUP2 GT PUSH2 0x5FA JUMPI DUP2 PUSH2 0x706 SWAP2 PUSH1 0x4 ADD PUSH2 0x5CC JUMP JUMPDEST SWAP4 SWAP1 SWAP4 SWAP3 PUSH2 0x124 CALLDATALOAD SWAP3 PUSH2 0x144 CALLDATALOAD PUSH20 0xFFFFFFFFFFFFFFFFFFFFFFFFFFFFFFFFFFFFFFFF DUP2 AND DUP2 SUB PUSH2 0x5FA JUMPI SWAP3 PUSH2 0x164 CALLDATALOAD SWAP3 PUSH2 0x184 CALLDATALOAD SWAP3 PUSH2 0x1A4 CALLDATALOAD SWAP2 DUP3 GT PUSH2 0x5FA JUMPI PUSH2 0x6A8 SWAP2 PUSH1 0x4 ADD PUSH2 0x5CC JUMP JUMPDEST DUP2 DUP2 MUL SWAP3 SWAP2 DUP2 ISZERO SWAP2 DUP5 DIV EQ OR ISZERO PUSH2 0xCA JUMPI JUMP JUMPDEST DUP2 ISZERO PUSH2 0x76F JUMPI DIV SWAP1 JUMP JUMPDEST PUSH32 0x4E487B7100000000000000000000000000000000000000000000000000000000 PUSH1 0x0 MSTORE PUSH1 0x12 PUSH1 0x4 MSTORE PUSH1 0x24 PUSH1 0x0 REVERT JUMPDEST SWAP1 DUP1 PUSH1 0x3 GT PUSH2 0x5FA JUMPI DUP2 CALLDATALOAD PUSH1 0xE8 SHR DUP2 PUSH1 0x7 GT PUSH2 0x5FA JUMPI PUSH1 0x3 DUP4 ADD CALLDATALOAD PUSH1 0xE0 SHR SWAP1 DUP1 ISZERO DUP1 ISZERO PUSH2 0x85F JUMPI JUMPDEST ISZERO PUSH2 0x848 JUMPI POP POP PUSH1 0x0 SWAP2 JUMPDEST DUP2 PUSH1 0xB GT PUSH2 0x5FA JUMPI PUSH1 0x7 DUP2 ADD CALLDATALOAD PUSH1 0xE0 SHR DUP3 PUSH1 0xE GT PUSH2 0x5FA JUMPI DUP3 PUSH1 0x11 GT PUSH2 0x5FA JUMPI PUSH32 0xFFFFFFFFFFFFFFFFFFFFFFFFFFFFFFFFFFFFFFFFFFFFFFFFFFFFFFFFFFFFFFEF PUSH2 0x835 SWAP4 ADD SWAP2 PUSH1 0x11 DUP2 ADD SWAP2 PUSH1 0xB PUSH1 0xE DUP4 ADD CALLDATALOAD PUSH1 0xE8 SHR SWAP3 ADD CALLDATALOAD PUSH1 0xE8 SHR DUP2 ADD SWAP1 PUSH2 0x96A JUMP JUMPDEST DUP2 DUP2 GT ISZERO PUSH2 0x841 JUMPI SUB SWAP1 JUMP JUMPDEST POP POP PUSH1 0x0 SWAP1 JUMP JUMPDEST PUSH3 0xF4240 SWAP2 PUSH2 0x858 SWAP2 BASEFEE MUL PUSH2 0x765 JUMP JUMPDEST DIV SWAP2 PUSH2 0x7D1 JUMP JUMPDEST POP DUP2 ISZERO PUSH2 0x7C6 JUMP JUMPDEST SWAP2 DUP2 DUP4 MUL SWAP2 PUSH32 0xFFFFFFFFFFFFFFFFFFFFFFFFFFFFFFFFFFFFFFFFFFFFFFFFFFFFFFFFFFFFFFFF DUP2 DUP6 MULMOD SWAP4 DUP4 DUP1 DUP7 LT SWAP6 SUB SWAP5 DUP1 DUP7 SUB SWAP6 EQ PUSH2 0x91B JUMPI DUP5 DUP4 GT ISZERO PUSH2 0x8FB JUMPI SWAP1 DUP3 SWAP2 MULMOD DUP2 PUSH1 0x0 SUB DUP3 AND DUP1 SWAP3 DIV PUSH1 0x2 DUP1 DUP3 PUSH1 0x3 MUL XOR DUP1 DUP4 MUL DUP3 SUB MUL DUP1 DUP4 MUL DUP3 SUB MUL DUP1 DUP4 MUL DUP3 SUB MUL DUP1 DUP4 MUL DUP3 SUB MUL DUP1 DUP4 MUL DUP3 SUB MUL DUP1 SWAP3 MUL SWAP1 SUB MUL SWAP4 PUSH1 0x1 DUP4 DUP1 PUSH1 0x0 SUB DIV ADD SWAP1 DUP5 DUP4 GT SWAP1 SUB MUL SWAP3 SUB DIV OR MUL SWAP1 JUMP JUMPDEST DUP3 PUSH2 0x914 JUMPI PUSH1 0x12 JUMPDEST PUSH4 0x4E487B71 PUSH1 0x0 MSTORE PUSH1 0x20 MSTORE PUSH1 0x24 PUSH1 0x1C REVERT JUMPDEST PUSH1 0x11 PUSH2 0x903 JUMP JUMPDEST POP POP SWAP1 PUSH2 0x928 SWAP3 POP PUSH2 0x765 JUMP JUMPDEST SWAP1 JUMP JUMPDEST PUSH1 0x1F DUP3 PUSH1 0x20 SWAP5 SWAP4 PUSH32 0xFFFFFFFFFFFFFFFFFFFFFFFFFFFFFFFFFFFFFFFFFFFFFFFFFFFFFFFFFFFFFFE0 SWAP4 DUP2 DUP7 MSTORE DUP7 DUP7 ADD CALLDATACOPY PUSH1 0x0 DUP6 DUP3 DUP7 ADD ADD MSTORE ADD AND ADD ADD SWAP1 JUMP JUMPDEST SWAP1 SWAP2 SWAP4 SWAP3 DUP2 TIMESTAMP GT ISZERO PUSH1 0x0 EQ PUSH2 0x980 JUMPI POP POP POP POP SWAP1 JUMP JUMPDEST DUP3 SWAP4 SWAP5 SWAP2 SWAP3 TIMESTAMP LT ISZERO PUSH2 0xA23 JUMPI DUP5 SWAP3 SWAP2 SWAP3 JUMPDEST PUSH2 0x9A7 JUMPI POP PUSH2 0x928 SWAP4 POP DUP3 SUB SWAP2 TIMESTAMP SWAP1 SUB MUL PUSH2 0x765 JUMP JUMPDEST SWAP1 PUSH1 0x3 SWAP1 DUP6 DUP3 GT PUSH2 0x5FA JUMPI DUP3 CALLDATALOAD PUSH1 0xE8 SHR SWAP1 PUSH1 0x5 SWAP3 DUP8 DUP5 GT PUSH2 0x5FA JUMPI DUP5 ADD CALLDATALOAD PUSH1 0xF0 SHR DUP2 ADD SWAP5 DUP6 TIMESTAMP GT ISZERO PUSH2 0xA04 JUMPI POP POP SWAP1 PUSH32 0xFFFFFFFFFFFFFFFFFFFFFFFFFFFFFFFFFFFFFFFFFFFFFFFFFFFFFFFFFFFFFFFB SWAP2 SWAP4 SWAP3 ADD SWAP5 ADD SWAP4 DUP5 PUSH2 0x991 JUMP JUMPDEST SWAP3 POP SWAP4 PUSH2 0x928 SWAP7 POP DUP1 SWAP6 POP DUP5 SWAP2 SWAP4 POP SUB SWAP4 TIMESTAMP SWAP1 SUB MUL SWAP2 TIMESTAMP SUB MUL ADD PUSH2 0x765 JUMP JUMPDEST POP POP POP POP POP PUSH1 0x0 SWAP1 JUMP INVALID LOG2 PUSH5 0x6970667358 0x22 SLT KECCAK256 ADDRESS SMOD NOT ISZERO 0xF8 0xA7 0x1F 0xBE 0x49 0x2E 0xBE PUSH10 0x302600D0DF3CFCBB765D PUSH16 0x7DC15CDB1F65FCED3064736F6C634300 ADDMOD OR STOP CALLER "},"methodIdentifiers":{"getMakingAmount((uint256,uint256,uint256,uint256,uint256,uint256,uint256,uint256),bytes,bytes32,address,uint256,uint256,bytes)":"1d9671c3","getTakingAmount((uint256,uint256,uint256,uint256,uint256,uint256,uint256,uint256),bytes,bytes32,address,uint256,uint256,bytes)":"d7ff8a80","postInteraction((uint256,uint256,uint256,uint256,uint256,uint256,uint256,uint256),bytes,bytes32,address,uint256,uint256,uint256,bytes)":"462ebde2","preInteraction((uint256,uint256,uint256,uint256,uint256,uint256,uint256,uint256),bytes,bytes32,address,uint256,uint256,uint256,bytes)":"0986bdd5"}}}}}