{"contracts/escrow/EscrowFactory.sol":{"FeeBankCharger":{"abi":[{"inputs":[{"internalType":"contract IERC20","name":"feeToken","type":"address"},{"internalType":"address","name":"owner","type":"address"}],"stateMutability":"nonpayable","type":"constructor"},{"inputs":[],"name":"NotEnoughCredit","type":"error"},{"inputs":[],"name":"OnlyFeeBankAccess","type":"error"},{"inputs":[],"name":"FEE_BANK","outputs":[{"internalType":"contract IFeeBank","name":"","type":"address"}],"stateMutability":"view","type":"function"},{"inputs":[{"internalType":"address","name":"account","type":"address"}],"name":"availableCredit","outputs":[{"internalType":"uint256","name":"","type":"uint256"}],"stateMutability":"view","type":"function"},{"inputs":[{"internalType":"address","name":"account","type":"address"},{"internalType":"uint256","name":"amount","type":"uint256"}],"name":"decreaseAvailableCredit","outputs":[{"internalType":"uint256","name":"allowance","type":"uint256"}],"stateMutability":"nonpayable","type":"function"},{"inputs":[{"internalType":"address","name":"account","type":"address"},{"internalType":"uint256","name":"amount","type":"uint256"}],"name":"increaseAvailableCredit","outputs":[{"internalType":"uint256","name":"allowance","type":"uint256"}],"stateMutability":"nonpayable","type":"function"}],"evm":{"bytecode":{"linkReferences":{},"object":"60a0346100e4576116ae906001600160401b03601f38849003908101601f1916830190828211848310176100ce57808491604096879485528339810103126100e45781516001600160a01b0392838216918290036100e457602001518381168091036100e45784519261129391828501918211858310176100ce57606093859361041b85393083526020830152868201520301906000f080156100c357166080525161033190816100ea8239608051818181609e015281816101f901526102af0152f35b82513d6000823e3d90fd5b634e487b7160e01b600052604160045260246000fd5b600080fdfe6080604090808252600436101561001557600080fd5b600090813560e01c9081632ce26aeb14610265575080633ee5ef1f146101a85780635886216f14610143576385eda2de1461004f57600080fd5b3461014057817ffffffffffffffffffffffffffffffffffffffffffffffffffffffffffffffffc360112610140576100856102d3565b73ffffffffffffffffffffffffffffffffffffffff90817f000000000000000000000000000000000000000000000000000000000000000016330361011757168152806020528181209182549160243583039283116100ea5750816020935551908152f35b807f4e487b7100000000000000000000000000000000000000000000000000000000602492526011600452fd5b600484517fa4544199000000000000000000000000000000000000000000000000000000008152fd5b80fd5b5090346101a45760207ffffffffffffffffffffffffffffffffffffffffffffffffffffffffffffffffc3601126101a4578060209273ffffffffffffffffffffffffffffffffffffffff6101956102d3565b16815280845220549051908152f35b5080fd5b5090346101a457807ffffffffffffffffffffffffffffffffffffffffffffffffffffffffffffffffc3601126101a4576101e06102d3565b73ffffffffffffffffffffffffffffffffffffffff90817f000000000000000000000000000000000000000000000000000000000000000016330361023c57928291602094168152808452209060243582540180925551908152f35b600483517fa4544199000000000000000000000000000000000000000000000000000000008152fd5b9050346101a457817ffffffffffffffffffffffffffffffffffffffffffffffffffffffffffffffffc3601126101a45760209073ffffffffffffffffffffffffffffffffffffffff7f0000000000000000000000000000000000000000000000000000000000000000168152f35b6004359073ffffffffffffffffffffffffffffffffffffffff821682036102f657565b600080fdfea2646970667358221220f7115bdb71ec2d33dab4482785cceb141561d7c9fec85a137ee244560077f26264736f6c6343000817003360c03461013257601f61129338819003918201601f19168301916001600160401b03831184841017610137578084926060946040528339810103126101325780516001600160a01b0380821682036101325760208301519281841690818503610132576040015182811680910361013257801561011957600080546001600160a01b03198116831782556040519416907f8be0079c531659141344cd1fd0a4f28419497f9722a3daafe3b4186f6b6457e09080a31561010a575060a052608052604051611145908161014e82396080518181816102f90152818161091e01528181610dea0152610e75015260a0518181816102c60152818161071301528181610d8c0152610f4e0152f35b63d92e233d60e01b8152600490fd5b604051631e4fbdf760e01b815260006004820152602490fd5b600080fd5b634e487b7160e01b600052604160045260246000fdfe6040608081526004908136101561001557600080fd5b600091823560e01c8063205c2878146108785780632e1a7d4d146108395780632f4f21e2146107f257806332d323a5146107885780635886216f1461068c578063715018a6146105f057806378e3214f1461044e5780638da5cb5b146103f957806397a2cb6414610232578063b6b55f25146101f3578063bfe917341461018a5763f2fde38b146100a557600080fd5b346101865760207ffffffffffffffffffffffffffffffffffffffffffffffffffffffffffffffffc360112610186576100dc6108bf565b906100e5611024565b73ffffffffffffffffffffffffffffffffffffffff8092169283156101575750508254827fffffffffffffffffffffffff00000000000000000000000000000000000000008216178455167f8be0079c531659141344cd1fd0a4f28419497f9722a3daafe3b4186f6b6457e08380a380f35b908460249251917f1e4fbdf7000000000000000000000000000000000000000000000000000000008352820152fd5b8280fd5b5091346101f057817ffffffffffffffffffffffffffffffffffffffffffffffffffffffffffffffffc3601126101f0576024359067ffffffffffffffff82116101f057506020926101e16101e992369083016108e7565b913533610915565b9051908152f35b80fd5b5091346101f05760207ffffffffffffffffffffffffffffffffffffffffffffffffffffffffffffffffc3601126101f057506101e96020923533610e50565b50903461018657602092837ffffffffffffffffffffffffffffffffffffffffffffffffffffffffffffffffc3601126101f057823567ffffffffffffffff80821161018657366023830112156101865781850135908111610186576024943660248360051b850101116103f5579492916102aa611024565b8295839473ffffffffffffffffffffffffffffffffffffffff807f000000000000000000000000000000000000000000000000000000000000000016935b858810610323578a8a8a61031d82337f0000000000000000000000000000000000000000000000000000000000000000611075565b51908152f35b9091929394959698838a60051b830101358381168091036103f15790818c928a5260018084528b8b2054908c51947f5886216f000000000000000000000000000000000000000000000000000000008652838a8701528589818d5afa9283156103e7578f908d946103ab575b600196508d5252818c8c205503019901969594939291906102e8565b94958092939450813d83116103e0575b6103c58183610cda565b810103126103dc57908e600195949392519361038f565b8b80fd5b503d6103bb565b8d513d8e823e3d90fd5b8880fd5b8380fd5b50503461044a57817ffffffffffffffffffffffffffffffffffffffffffffffffffffffffffffffffc36011261044a5773ffffffffffffffffffffffffffffffffffffffff60209254169051908152f35b5080fd5b50903461018657807ffffffffffffffffffffffffffffffffffffffffffffffffffffffffffffffffc36011261018657813573ffffffffffffffffffffffffffffffffffffffff8116908181036105ec57602435916104ab611024565b826104b4578580f35b80159081156105ce575b50156105ba575080471061059357838080809333611388f13d1561058e573d67ffffffffffffffff81116105625782519061052160207fffffffffffffffffffffffffffffffffffffffffffffffffffffffffffffffe0601f8401160183610cda565b81528460203d92013e5b1561053c5750505b38808080808580f35b517fb12d13eb000000000000000000000000000000000000000000000000000000008152fd5b6024856041867f4e487b7100000000000000000000000000000000000000000000000000000000835252fd5b61052b565b50517ff4d678b8000000000000000000000000000000000000000000000000000000008152fd5b9091506105c992503390611075565b610533565b73eeeeeeeeeeeeeeeeeeeeeeeeeeeeeeeeeeeeeeee915014386104be565b8480fd5b83346101f057807ffffffffffffffffffffffffffffffffffffffffffffffffffffffffffffffffc3601126101f057610627611024565b8073ffffffffffffffffffffffffffffffffffffffff81547fffffffffffffffffffffffff000000000000000000000000000000000000000081168355167f8be0079c531659141344cd1fd0a4f28419497f9722a3daafe3b4186f6b6457e08280a380f35b5091903461044a57602092837ffffffffffffffffffffffffffffffffffffffffffffffffffffffffffffffffc36011261018657836106c96108bf565b602473ffffffffffffffffffffffffffffffffffffffff9182865195869485937f5886216f00000000000000000000000000000000000000000000000000000000855216908301527f0000000000000000000000000000000000000000000000000000000000000000165afa92831561077d57809361074b575b505051908152f35b909192508382813d8311610776575b6107648183610cda565b810103126101f0575051903880610743565b503d61075a565b8251903d90823e3d90fd5b50346101865760607ffffffffffffffffffffffffffffffffffffffffffffffffffffffffffffffffc360112610186576107c06108bf565b926044359067ffffffffffffffff82116101f05750926107e86101e9926020953691016108e7565b9160243590610915565b50503461044a57807ffffffffffffffffffffffffffffffffffffffffffffffffffffffffffffffffc36011261044a576020906101e96108306108bf565b60243590610e50565b5091346101f05760207ffffffffffffffffffffffffffffffffffffffffffffffffffffffffffffffffc3601126101f057506101e96020923533610d4a565b50503461044a57807ffffffffffffffffffffffffffffffffffffffffffffffffffffffffffffffffc36011261044a576020906101e96108b66108bf565b60243590610d4a565b6004359073ffffffffffffffffffffffffffffffffffffffff821682036108e257565b600080fd5b9181601f840112156108e25782359167ffffffffffffffff83116108e257602083818601950101116108e257565b604051909391927f0000000000000000000000000000000000000000000000000000000000000000919083600060648214610c22575093600094918286959493604814610b60578060e014610b27578061010014610aec5780606014610a1657610160146109cc578185926004927f9fd5a6cf0000000000000000000000000000000000000000000000000000000086528386013701925af15b156109c0576109bd91610e50565b90565b6040513d6000823e3d90fd5b610164935061016091507f2b67b5700000000000000000000000000000000000000000000000000000000083526004830137826e22d473030f116ddee9f6b43ac78ba35af16109af565b5060209150604090610164947f2b67b570000000000000000000000000000000000000000000000000000000008552336004860152602485015260148160508601377fffffffffffffffffffffffffffffffffffffffffffffffffffffffffffffffff65ffffffffffff9080601484013560e01c0182166064870152601883013560e01c60848701523060a4870152601c83013560e01c011660c485015261010060e4850152816101048501528280820161012486013701610144830137826e22d473030f116ddee9f6b43ac78ba35af16109af565b5084915092610100610104947f8fcbaf0c00000000000000000000000000000000000000000000000000000000855260048501375af16109af565b508491509260e060e4947fd505accf00000000000000000000000000000000000000000000000000000000855260048501375af16109af565b50849150927f7fffffffffffffffffffffffffffffffffffffffffffffffffffffffffffffff610104947f8fcbaf0c00000000000000000000000000000000000000000000000000000000855233600486015230602486015260206008602883013592803560e01c60448901527fffffffffffffffffffffffffffffffffffffffffffffffffffffffffffffffff600482013560e01c016064890152600160848901528360ff1c601b0160a48901520160c48701371660e48401525af16109af565b945050908380937f7fffffffffffffffffffffffffffffffffffffffffffffffffffffffffffffff60e4947fd505accf00000000000000000000000000000000000000000000000000000000855233600486015230602486015260206024604483013592828160448a01377fffffffffffffffffffffffffffffffffffffffffffffffffffffffffffffffff8382013560e01c0160648901528360ff1c601b0160848901520160a48701371660c48401525af16109af565b90601f7fffffffffffffffffffffffffffffffffffffffffffffffffffffffffffffffe0910116810190811067ffffffffffffffff821117610d1b57604052565b7f4e487b7100000000000000000000000000000000000000000000000000000000600052604160045260246000fd5b6040517f85eda2de00000000000000000000000000000000000000000000000000000000815233600482015260248101839052600093929091602083604481887f000000000000000000000000000000000000000000000000000000000000000073ffffffffffffffffffffffffffffffffffffffff165af1928315610e45578593610e10575b506040610e0e93953381526001602052208281540390557f0000000000000000000000000000000000000000000000000000000000000000611075565b565b92506020833d602011610e3d575b81610e2b60209383610cda565b810103126105ec579151916040610dd1565b3d9150610e1e565b6040513d87823e3d90fd5b73ffffffffffffffffffffffffffffffffffffffff91828216908115610ffa576064937f00000000000000000000000000000000000000000000000000000000000000006000604051907f23b872dd000000000000000000000000000000000000000000000000000000008252336004830152306024830152846044830152602097889282855af19081610fd7575b5015610fad576000928352600185526040808420805484019055517f3ee5ef1f00000000000000000000000000000000000000000000000000000000815273ffffffffffffffffffffffffffffffffffffffff94909416600485015260248401919091528391839160449183917f0000000000000000000000000000000000000000000000000000000000000000165af19182156109c057600092610f8357505090565b90809250813d8311610fa6575b610f9a8183610cda565b810103126108e2575190565b503d610f90565b60046040517ff4059071000000000000000000000000000000000000000000000000000000008152fd5b90503d15610ff25750600160005114601f3d11165b38610edf565b3b1515610fec565b60046040517fd92e233d000000000000000000000000000000000000000000000000000000008152fd5b73ffffffffffffffffffffffffffffffffffffffff60005416330361104557565b60246040517f118cdaa7000000000000000000000000000000000000000000000000000000008152336004820152fd5b916044602092600092604051917fa9059cbb0000000000000000000000000000000000000000000000000000000083526004830152602482015282855af190816110ec575b50156110c257565b60046040517ffb7f5079000000000000000000000000000000000000000000000000000000008152fd5b90503d156111075750600160005114601f3d11165b386110ba565b3b151561110156fea2646970667358221220552a3a83b37e5067be598c508f5e5724e322070b2fbdd787200276b277eaf18c64736f6c63430008170033","opcodes":"PUSH1 0xA0 CALLVALUE PUSH2 0xE4 JUMPI PUSH2 0x16AE SWAP1 PUSH1 0x1 PUSH1 0x1 PUSH1 0x40 SHL SUB PUSH1 0x1F CODESIZE DUP5 SWAP1 SUB SWAP1 DUP2 ADD PUSH1 0x1F NOT AND DUP4 ADD SWAP1 DUP3 DUP3 GT DUP5 DUP4 LT OR PUSH2 0xCE JUMPI DUP1 DUP5 SWAP2 PUSH1 0x40 SWAP7 DUP8 SWAP5 DUP6 MSTORE DUP4 CODECOPY DUP2 ADD SUB SLT PUSH2 0xE4 JUMPI DUP2 MLOAD PUSH1 0x1 PUSH1 0x1 PUSH1 0xA0 SHL SUB SWAP3 DUP4 DUP3 AND SWAP2 DUP3 SWAP1 SUB PUSH2 0xE4 JUMPI PUSH1 0x20 ADD MLOAD DUP4 DUP2 AND DUP1 SWAP2 SUB PUSH2 0xE4 JUMPI DUP5 MLOAD SWAP3 PUSH2 0x1293 SWAP2 DUP3 DUP6 ADD SWAP2 DUP3 GT DUP6 DUP4 LT OR PUSH2 0xCE JUMPI PUSH1 0x60 SWAP4 DUP6 SWAP4 PUSH2 0x41B DUP6 CODECOPY ADDRESS DUP4 MSTORE PUSH1 0x20 DUP4 ADD MSTORE DUP7 DUP3 ADD MSTORE SUB ADD SWAP1 PUSH1 0x0 CREATE DUP1 ISZERO PUSH2 0xC3 JUMPI AND PUSH1 0x80 MSTORE MLOAD PUSH2 0x331 SWAP1 DUP2 PUSH2 0xEA DUP3 CODECOPY PUSH1 0x80 MLOAD DUP2 DUP2 DUP2 PUSH1 0x9E ADD MSTORE DUP2 DUP2 PUSH2 0x1F9 ADD MSTORE PUSH2 0x2AF ADD MSTORE RETURN JUMPDEST DUP3 MLOAD RETURNDATASIZE PUSH1 0x0 DUP3 RETURNDATACOPY RETURNDATASIZE SWAP1 REVERT JUMPDEST PUSH4 0x4E487B71 PUSH1 0xE0 SHL PUSH1 0x0 MSTORE PUSH1 0x41 PUSH1 0x4 MSTORE PUSH1 0x24 PUSH1 0x0 REVERT JUMPDEST PUSH1 0x0 DUP1 REVERT INVALID PUSH1 0x80 PUSH1 0x40 SWAP1 DUP1 DUP3 MSTORE PUSH1 0x4 CALLDATASIZE LT ISZERO PUSH2 0x15 JUMPI PUSH1 0x0 DUP1 REVERT JUMPDEST PUSH1 0x0 SWAP1 DUP2 CALLDATALOAD PUSH1 0xE0 SHR SWAP1 DUP2 PUSH4 0x2CE26AEB EQ PUSH2 0x265 JUMPI POP DUP1 PUSH4 0x3EE5EF1F EQ PUSH2 0x1A8 JUMPI DUP1 PUSH4 0x5886216F EQ PUSH2 0x143 JUMPI PUSH4 0x85EDA2DE EQ PUSH2 0x4F JUMPI PUSH1 0x0 DUP1 REVERT JUMPDEST CALLVALUE PUSH2 0x140 JUMPI DUP2 PUSH32 0xFFFFFFFFFFFFFFFFFFFFFFFFFFFFFFFFFFFFFFFFFFFFFFFFFFFFFFFFFFFFFFFC CALLDATASIZE ADD SLT PUSH2 0x140 JUMPI PUSH2 0x85 PUSH2 0x2D3 JUMP JUMPDEST PUSH20 0xFFFFFFFFFFFFFFFFFFFFFFFFFFFFFFFFFFFFFFFF SWAP1 DUP2 PUSH32 0x0 AND CALLER SUB PUSH2 0x117 JUMPI AND DUP2 MSTORE DUP1 PUSH1 0x20 MSTORE DUP2 DUP2 KECCAK256 SWAP2 DUP3 SLOAD SWAP2 PUSH1 0x24 CALLDATALOAD DUP4 SUB SWAP3 DUP4 GT PUSH2 0xEA JUMPI POP DUP2 PUSH1 0x20 SWAP4 SSTORE MLOAD SWAP1 DUP2 MSTORE RETURN JUMPDEST DUP1 PUSH32 0x4E487B7100000000000000000000000000000000000000000000000000000000 PUSH1 0x24 SWAP3 MSTORE PUSH1 0x11 PUSH1 0x4 MSTORE REVERT JUMPDEST PUSH1 0x4 DUP5 MLOAD PUSH32 0xA454419900000000000000000000000000000000000000000000000000000000 DUP2 MSTORE REVERT JUMPDEST DUP1 REVERT JUMPDEST POP SWAP1 CALLVALUE PUSH2 0x1A4 JUMPI PUSH1 0x20 PUSH32 0xFFFFFFFFFFFFFFFFFFFFFFFFFFFFFFFFFFFFFFFFFFFFFFFFFFFFFFFFFFFFFFFC CALLDATASIZE ADD SLT PUSH2 0x1A4 JUMPI DUP1 PUSH1 0x20 SWAP3 PUSH20 0xFFFFFFFFFFFFFFFFFFFFFFFFFFFFFFFFFFFFFFFF PUSH2 0x195 PUSH2 0x2D3 JUMP JUMPDEST AND DUP2 MSTORE DUP1 DUP5 MSTORE KECCAK256 SLOAD SWAP1 MLOAD SWAP1 DUP2 MSTORE RETURN JUMPDEST POP DUP1 REVERT JUMPDEST POP SWAP1 CALLVALUE PUSH2 0x1A4 JUMPI DUP1 PUSH32 0xFFFFFFFFFFFFFFFFFFFFFFFFFFFFFFFFFFFFFFFFFFFFFFFFFFFFFFFFFFFFFFFC CALLDATASIZE ADD SLT PUSH2 0x1A4 JUMPI PUSH2 0x1E0 PUSH2 0x2D3 JUMP JUMPDEST PUSH20 0xFFFFFFFFFFFFFFFFFFFFFFFFFFFFFFFFFFFFFFFF SWAP1 DUP2 PUSH32 0x0 AND CALLER SUB PUSH2 0x23C JUMPI SWAP3 DUP3 SWAP2 PUSH1 0x20 SWAP5 AND DUP2 MSTORE DUP1 DUP5 MSTORE KECCAK256 SWAP1 PUSH1 0x24 CALLDATALOAD DUP3 SLOAD ADD DUP1 SWAP3 SSTORE MLOAD SWAP1 DUP2 MSTORE RETURN JUMPDEST PUSH1 0x4 DUP4 MLOAD PUSH32 0xA454419900000000000000000000000000000000000000000000000000000000 DUP2 MSTORE REVERT JUMPDEST SWAP1 POP CALLVALUE PUSH2 0x1A4 JUMPI DUP2 PUSH32 0xFFFFFFFFFFFFFFFFFFFFFFFFFFFFFFFFFFFFFFFFFFFFFFFFFFFFFFFFFFFFFFFC CALLDATASIZE ADD SLT PUSH2 0x1A4 JUMPI PUSH1 0x20 SWAP1 PUSH20 0xFFFFFFFFFFFFFFFFFFFFFFFFFFFFFFFFFFFFFFFF PUSH32 0x0 AND DUP2 MSTORE RETURN JUMPDEST PUSH1 0x4 CALLDATALOAD SWAP1 PUSH20 0xFFFFFFFFFFFFFFFFFFFFFFFFFFFFFFFFFFFFFFFF DUP3 AND DUP3 SUB PUSH2 0x2F6 JUMPI JUMP JUMPDEST PUSH1 0x0 DUP1 REVERT INVALID LOG2 PUSH5 0x6970667358 0x22 SLT KECCAK256 0xF7 GT JUMPDEST 0xDB PUSH18 0xEC2D33DAB4482785CCEB141561D7C9FEC85A SGT PUSH31 0xE244560077F26264736F6C6343000817003360C03461013257601F61129338 DUP2 SWAP1 SUB SWAP2 DUP3 ADD PUSH1 0x1F NOT AND DUP4 ADD SWAP2 PUSH1 0x1 PUSH1 0x1 PUSH1 0x40 SHL SUB DUP4 GT DUP5 DUP5 LT OR PUSH2 0x137 JUMPI DUP1 DUP5 SWAP3 PUSH1 0x60 SWAP5 PUSH1 0x40 MSTORE DUP4 CODECOPY DUP2 ADD SUB SLT PUSH2 0x132 JUMPI DUP1 MLOAD PUSH1 0x1 PUSH1 0x1 PUSH1 0xA0 SHL SUB DUP1 DUP3 AND DUP3 SUB PUSH2 0x132 JUMPI PUSH1 0x20 DUP4 ADD MLOAD SWAP3 DUP2 DUP5 AND SWAP1 DUP2 DUP6 SUB PUSH2 0x132 JUMPI PUSH1 0x40 ADD MLOAD DUP3 DUP2 AND DUP1 SWAP2 SUB PUSH2 0x132 JUMPI DUP1 ISZERO PUSH2 0x119 JUMPI PUSH1 0x0 DUP1 SLOAD PUSH1 0x1 PUSH1 0x1 PUSH1 0xA0 SHL SUB NOT DUP2 AND DUP4 OR DUP3 SSTORE PUSH1 0x40 MLOAD SWAP5 AND SWAP1 PUSH32 0x8BE0079C531659141344CD1FD0A4F28419497F9722A3DAAFE3B4186F6B6457E0 SWAP1 DUP1 LOG3 ISZERO PUSH2 0x10A JUMPI POP PUSH1 0xA0 MSTORE PUSH1 0x80 MSTORE PUSH1 0x40 MLOAD PUSH2 0x1145 SWAP1 DUP2 PUSH2 0x14E DUP3 CODECOPY PUSH1 0x80 MLOAD DUP2 DUP2 DUP2 PUSH2 0x2F9 ADD MSTORE DUP2 DUP2 PUSH2 0x91E ADD MSTORE DUP2 DUP2 PUSH2 0xDEA ADD MSTORE PUSH2 0xE75 ADD MSTORE PUSH1 0xA0 MLOAD DUP2 DUP2 DUP2 PUSH2 0x2C6 ADD MSTORE DUP2 DUP2 PUSH2 0x713 ADD MSTORE DUP2 DUP2 PUSH2 0xD8C ADD MSTORE PUSH2 0xF4E ADD MSTORE RETURN JUMPDEST PUSH4 0xD92E233D PUSH1 0xE0 SHL DUP2 MSTORE PUSH1 0x4 SWAP1 REVERT JUMPDEST PUSH1 0x40 MLOAD PUSH4 0x1E4FBDF7 PUSH1 0xE0 SHL DUP2 MSTORE PUSH1 0x0 PUSH1 0x4 DUP3 ADD MSTORE PUSH1 0x24 SWAP1 REVERT JUMPDEST PUSH1 0x0 DUP1 REVERT JUMPDEST PUSH4 0x4E487B71 PUSH1 0xE0 SHL PUSH1 0x0 MSTORE PUSH1 0x41 PUSH1 0x4 MSTORE PUSH1 0x24 PUSH1 0x0 REVERT INVALID PUSH1 0x40 PUSH1 0x80 DUP2 MSTORE PUSH1 0x4 SWAP1 DUP2 CALLDATASIZE LT ISZERO PUSH2 0x15 JUMPI PUSH1 0x0 DUP1 REVERT JUMPDEST PUSH1 0x0 SWAP2 DUP3 CALLDATALOAD PUSH1 0xE0 SHR DUP1 PUSH4 0x205C2878 EQ PUSH2 0x878 JUMPI DUP1 PUSH4 0x2E1A7D4D EQ PUSH2 0x839 JUMPI DUP1 PUSH4 0x2F4F21E2 EQ PUSH2 0x7F2 JUMPI DUP1 PUSH4 0x32D323A5 EQ PUSH2 0x788 JUMPI DUP1 PUSH4 0x5886216F EQ PUSH2 0x68C JUMPI DUP1 PUSH4 0x715018A6 EQ PUSH2 0x5F0 JUMPI DUP1 PUSH4 0x78E3214F EQ PUSH2 0x44E JUMPI DUP1 PUSH4 0x8DA5CB5B EQ PUSH2 0x3F9 JUMPI DUP1 PUSH4 0x97A2CB64 EQ PUSH2 0x232 JUMPI DUP1 PUSH4 0xB6B55F25 EQ PUSH2 0x1F3 JUMPI DUP1 PUSH4 0xBFE91734 EQ PUSH2 0x18A JUMPI PUSH4 0xF2FDE38B EQ PUSH2 0xA5 JUMPI PUSH1 0x0 DUP1 REVERT JUMPDEST CALLVALUE PUSH2 0x186 JUMPI PUSH1 0x20 PUSH32 0xFFFFFFFFFFFFFFFFFFFFFFFFFFFFFFFFFFFFFFFFFFFFFFFFFFFFFFFFFFFFFFFC CALLDATASIZE ADD SLT PUSH2 0x186 JUMPI PUSH2 0xDC PUSH2 0x8BF JUMP JUMPDEST SWAP1 PUSH2 0xE5 PUSH2 0x1024 JUMP JUMPDEST PUSH20 0xFFFFFFFFFFFFFFFFFFFFFFFFFFFFFFFFFFFFFFFF DUP1 SWAP3 AND SWAP3 DUP4 ISZERO PUSH2 0x157 JUMPI POP POP DUP3 SLOAD DUP3 PUSH32 0xFFFFFFFFFFFFFFFFFFFFFFFF0000000000000000000000000000000000000000 DUP3 AND OR DUP5 SSTORE AND PUSH32 0x8BE0079C531659141344CD1FD0A4F28419497F9722A3DAAFE3B4186F6B6457E0 DUP4 DUP1 LOG3 DUP1 RETURN JUMPDEST SWAP1 DUP5 PUSH1 0x24 SWAP3 MLOAD SWAP2 PUSH32 0x1E4FBDF700000000000000000000000000000000000000000000000000000000 DUP4 MSTORE DUP3 ADD MSTORE REVERT JUMPDEST DUP3 DUP1 REVERT JUMPDEST POP SWAP2 CALLVALUE PUSH2 0x1F0 JUMPI DUP2 PUSH32 0xFFFFFFFFFFFFFFFFFFFFFFFFFFFFFFFFFFFFFFFFFFFFFFFFFFFFFFFFFFFFFFFC CALLDATASIZE ADD SLT PUSH2 0x1F0 JUMPI PUSH1 0x24 CALLDATALOAD SWAP1 PUSH8 0xFFFFFFFFFFFFFFFF DUP3 GT PUSH2 0x1F0 JUMPI POP PUSH1 0x20 SWAP3 PUSH2 0x1E1 PUSH2 0x1E9 SWAP3 CALLDATASIZE SWAP1 DUP4 ADD PUSH2 0x8E7 JUMP JUMPDEST SWAP2 CALLDATALOAD CALLER PUSH2 0x915 JUMP JUMPDEST SWAP1 MLOAD SWAP1 DUP2 MSTORE RETURN JUMPDEST DUP1 REVERT JUMPDEST POP SWAP2 CALLVALUE PUSH2 0x1F0 JUMPI PUSH1 0x20 PUSH32 0xFFFFFFFFFFFFFFFFFFFFFFFFFFFFFFFFFFFFFFFFFFFFFFFFFFFFFFFFFFFFFFFC CALLDATASIZE ADD SLT PUSH2 0x1F0 JUMPI POP PUSH2 0x1E9 PUSH1 0x20 SWAP3 CALLDATALOAD CALLER PUSH2 0xE50 JUMP JUMPDEST POP SWAP1 CALLVALUE PUSH2 0x186 JUMPI PUSH1 0x20 SWAP3 DUP4 PUSH32 0xFFFFFFFFFFFFFFFFFFFFFFFFFFFFFFFFFFFFFFFFFFFFFFFFFFFFFFFFFFFFFFFC CALLDATASIZE ADD SLT PUSH2 0x1F0 JUMPI DUP3 CALLDATALOAD PUSH8 0xFFFFFFFFFFFFFFFF DUP1 DUP3 GT PUSH2 0x186 JUMPI CALLDATASIZE PUSH1 0x23 DUP4 ADD SLT ISZERO PUSH2 0x186 JUMPI DUP2 DUP6 ADD CALLDATALOAD SWAP1 DUP2 GT PUSH2 0x186 JUMPI PUSH1 0x24 SWAP5 CALLDATASIZE PUSH1 0x24 DUP4 PUSH1 0x5 SHL DUP6 ADD ADD GT PUSH2 0x3F5 JUMPI SWAP5 SWAP3 SWAP2 PUSH2 0x2AA PUSH2 0x1024 JUMP JUMPDEST DUP3 SWAP6 DUP4 SWAP5 PUSH20 0xFFFFFFFFFFFFFFFFFFFFFFFFFFFFFFFFFFFFFFFF DUP1 PUSH32 0x0 AND SWAP4 JUMPDEST DUP6 DUP9 LT PUSH2 0x323 JUMPI DUP11 DUP11 DUP11 PUSH2 0x31D DUP3 CALLER PUSH32 0x0 PUSH2 0x1075 JUMP JUMPDEST MLOAD SWAP1 DUP2 MSTORE RETURN JUMPDEST SWAP1 SWAP2 SWAP3 SWAP4 SWAP5 SWAP6 SWAP7 SWAP9 DUP4 DUP11 PUSH1 0x5 SHL DUP4 ADD ADD CALLDATALOAD DUP4 DUP2 AND DUP1 SWAP2 SUB PUSH2 0x3F1 JUMPI SWAP1 DUP2 DUP13 SWAP3 DUP11 MSTORE PUSH1 0x1 DUP1 DUP5 MSTORE DUP12 DUP12 KECCAK256 SLOAD SWAP1 DUP13 MLOAD SWAP5 PUSH32 0x5886216F00000000000000000000000000000000000000000000000000000000 DUP7 MSTORE DUP4 DUP11 DUP8 ADD MSTORE DUP6 DUP10 DUP2 DUP14 GAS STATICCALL SWAP3 DUP4 ISZERO PUSH2 0x3E7 JUMPI DUP16 SWAP1 DUP14 SWAP5 PUSH2 0x3AB JUMPI JUMPDEST PUSH1 0x1 SWAP7 POP DUP14 MSTORE MSTORE DUP2 DUP13 DUP13 KECCAK256 SSTORE SUB ADD SWAP10 ADD SWAP7 SWAP6 SWAP5 SWAP4 SWAP3 SWAP2 SWAP1 PUSH2 0x2E8 JUMP JUMPDEST SWAP5 SWAP6 DUP1 SWAP3 SWAP4 SWAP5 POP DUP2 RETURNDATASIZE DUP4 GT PUSH2 0x3E0 JUMPI JUMPDEST PUSH2 0x3C5 DUP2 DUP4 PUSH2 0xCDA JUMP JUMPDEST DUP2 ADD SUB SLT PUSH2 0x3DC JUMPI SWAP1 DUP15 PUSH1 0x1 SWAP6 SWAP5 SWAP4 SWAP3 MLOAD SWAP4 PUSH2 0x38F JUMP JUMPDEST DUP12 DUP1 REVERT JUMPDEST POP RETURNDATASIZE PUSH2 0x3BB JUMP JUMPDEST DUP14 MLOAD RETURNDATASIZE DUP15 DUP3 RETURNDATACOPY RETURNDATASIZE SWAP1 REVERT JUMPDEST DUP9 DUP1 REVERT JUMPDEST DUP4 DUP1 REVERT JUMPDEST POP POP CALLVALUE PUSH2 0x44A JUMPI DUP2 PUSH32 0xFFFFFFFFFFFFFFFFFFFFFFFFFFFFFFFFFFFFFFFFFFFFFFFFFFFFFFFFFFFFFFFC CALLDATASIZE ADD SLT PUSH2 0x44A JUMPI PUSH20 0xFFFFFFFFFFFFFFFFFFFFFFFFFFFFFFFFFFFFFFFF PUSH1 0x20 SWAP3 SLOAD AND SWAP1 MLOAD SWAP1 DUP2 MSTORE RETURN JUMPDEST POP DUP1 REVERT JUMPDEST POP SWAP1 CALLVALUE PUSH2 0x186 JUMPI DUP1 PUSH32 0xFFFFFFFFFFFFFFFFFFFFFFFFFFFFFFFFFFFFFFFFFFFFFFFFFFFFFFFFFFFFFFFC CALLDATASIZE ADD SLT PUSH2 0x186 JUMPI DUP2 CALLDATALOAD PUSH20 0xFFFFFFFFFFFFFFFFFFFFFFFFFFFFFFFFFFFFFFFF DUP2 AND SWAP1 DUP2 DUP2 SUB PUSH2 0x5EC JUMPI PUSH1 0x24 CALLDATALOAD SWAP2 PUSH2 0x4AB PUSH2 0x1024 JUMP JUMPDEST DUP3 PUSH2 0x4B4 JUMPI DUP6 DUP1 RETURN JUMPDEST DUP1 ISZERO SWAP1 DUP2 ISZERO PUSH2 0x5CE JUMPI JUMPDEST POP ISZERO PUSH2 0x5BA JUMPI POP DUP1 SELFBALANCE LT PUSH2 0x593 JUMPI DUP4 DUP1 DUP1 DUP1 SWAP4 CALLER PUSH2 0x1388 CALL RETURNDATASIZE ISZERO PUSH2 0x58E JUMPI RETURNDATASIZE PUSH8 0xFFFFFFFFFFFFFFFF DUP2 GT PUSH2 0x562 JUMPI DUP3 MLOAD SWAP1 PUSH2 0x521 PUSH1 0x20 PUSH32 0xFFFFFFFFFFFFFFFFFFFFFFFFFFFFFFFFFFFFFFFFFFFFFFFFFFFFFFFFFFFFFFE0 PUSH1 0x1F DUP5 ADD AND ADD DUP4 PUSH2 0xCDA JUMP JUMPDEST DUP2 MSTORE DUP5 PUSH1 0x20 RETURNDATASIZE SWAP3 ADD RETURNDATACOPY JUMPDEST ISZERO PUSH2 0x53C JUMPI POP POP JUMPDEST CODESIZE DUP1 DUP1 DUP1 DUP1 DUP6 DUP1 RETURN JUMPDEST MLOAD PUSH32 0xB12D13EB00000000000000000000000000000000000000000000000000000000 DUP2 MSTORE REVERT JUMPDEST PUSH1 0x24 DUP6 PUSH1 0x41 DUP7 PUSH32 0x4E487B7100000000000000000000000000000000000000000000000000000000 DUP4 MSTORE MSTORE REVERT JUMPDEST PUSH2 0x52B JUMP JUMPDEST POP MLOAD PUSH32 0xF4D678B800000000000000000000000000000000000000000000000000000000 DUP2 MSTORE REVERT JUMPDEST SWAP1 SWAP2 POP PUSH2 0x5C9 SWAP3 POP CALLER SWAP1 PUSH2 0x1075 JUMP JUMPDEST PUSH2 0x533 JUMP JUMPDEST PUSH20 0xEEEEEEEEEEEEEEEEEEEEEEEEEEEEEEEEEEEEEEEE SWAP2 POP EQ CODESIZE PUSH2 0x4BE JUMP JUMPDEST DUP5 DUP1 REVERT JUMPDEST DUP4 CALLVALUE PUSH2 0x1F0 JUMPI DUP1 PUSH32 0xFFFFFFFFFFFFFFFFFFFFFFFFFFFFFFFFFFFFFFFFFFFFFFFFFFFFFFFFFFFFFFFC CALLDATASIZE ADD SLT PUSH2 0x1F0 JUMPI PUSH2 0x627 PUSH2 0x1024 JUMP JUMPDEST DUP1 PUSH20 0xFFFFFFFFFFFFFFFFFFFFFFFFFFFFFFFFFFFFFFFF DUP2 SLOAD PUSH32 0xFFFFFFFFFFFFFFFFFFFFFFFF0000000000000000000000000000000000000000 DUP2 AND DUP4 SSTORE AND PUSH32 0x8BE0079C531659141344CD1FD0A4F28419497F9722A3DAAFE3B4186F6B6457E0 DUP3 DUP1 LOG3 DUP1 RETURN JUMPDEST POP SWAP2 SWAP1 CALLVALUE PUSH2 0x44A JUMPI PUSH1 0x20 SWAP3 DUP4 PUSH32 0xFFFFFFFFFFFFFFFFFFFFFFFFFFFFFFFFFFFFFFFFFFFFFFFFFFFFFFFFFFFFFFFC CALLDATASIZE ADD SLT PUSH2 0x186 JUMPI DUP4 PUSH2 0x6C9 PUSH2 0x8BF JUMP JUMPDEST PUSH1 0x24 PUSH20 0xFFFFFFFFFFFFFFFFFFFFFFFFFFFFFFFFFFFFFFFF SWAP2 DUP3 DUP7 MLOAD SWAP6 DUP7 SWAP5 DUP6 SWAP4 PUSH32 0x5886216F00000000000000000000000000000000000000000000000000000000 DUP6 MSTORE AND SWAP1 DUP4 ADD MSTORE PUSH32 0x0 AND GAS STATICCALL SWAP3 DUP4 ISZERO PUSH2 0x77D JUMPI DUP1 SWAP4 PUSH2 0x74B JUMPI JUMPDEST POP POP MLOAD SWAP1 DUP2 MSTORE RETURN JUMPDEST SWAP1 SWAP2 SWAP3 POP DUP4 DUP3 DUP2 RETURNDATASIZE DUP4 GT PUSH2 0x776 JUMPI JUMPDEST PUSH2 0x764 DUP2 DUP4 PUSH2 0xCDA JUMP JUMPDEST DUP2 ADD SUB SLT PUSH2 0x1F0 JUMPI POP MLOAD SWAP1 CODESIZE DUP1 PUSH2 0x743 JUMP JUMPDEST POP RETURNDATASIZE PUSH2 0x75A JUMP JUMPDEST DUP3 MLOAD SWAP1 RETURNDATASIZE SWAP1 DUP3 RETURNDATACOPY RETURNDATASIZE SWAP1 REVERT JUMPDEST POP CALLVALUE PUSH2 0x186 JUMPI PUSH1 0x60 PUSH32 0xFFFFFFFFFFFFFFFFFFFFFFFFFFFFFFFFFFFFFFFFFFFFFFFFFFFFFFFFFFFFFFFC CALLDATASIZE ADD SLT PUSH2 0x186 JUMPI PUSH2 0x7C0 PUSH2 0x8BF JUMP JUMPDEST SWAP3 PUSH1 0x44 CALLDATALOAD SWAP1 PUSH8 0xFFFFFFFFFFFFFFFF DUP3 GT PUSH2 0x1F0 JUMPI POP SWAP3 PUSH2 0x7E8 PUSH2 0x1E9 SWAP3 PUSH1 0x20 SWAP6 CALLDATASIZE SWAP2 ADD PUSH2 0x8E7 JUMP JUMPDEST SWAP2 PUSH1 0x24 CALLDATALOAD SWAP1 PUSH2 0x915 JUMP JUMPDEST POP POP CALLVALUE PUSH2 0x44A JUMPI DUP1 PUSH32 0xFFFFFFFFFFFFFFFFFFFFFFFFFFFFFFFFFFFFFFFFFFFFFFFFFFFFFFFFFFFFFFFC CALLDATASIZE ADD SLT PUSH2 0x44A JUMPI PUSH1 0x20 SWAP1 PUSH2 0x1E9 PUSH2 0x830 PUSH2 0x8BF JUMP JUMPDEST PUSH1 0x24 CALLDATALOAD SWAP1 PUSH2 0xE50 JUMP JUMPDEST POP SWAP2 CALLVALUE PUSH2 0x1F0 JUMPI PUSH1 0x20 PUSH32 0xFFFFFFFFFFFFFFFFFFFFFFFFFFFFFFFFFFFFFFFFFFFFFFFFFFFFFFFFFFFFFFFC CALLDATASIZE ADD SLT PUSH2 0x1F0 JUMPI POP PUSH2 0x1E9 PUSH1 0x20 SWAP3 CALLDATALOAD CALLER PUSH2 0xD4A JUMP JUMPDEST POP POP CALLVALUE PUSH2 0x44A JUMPI DUP1 PUSH32 0xFFFFFFFFFFFFFFFFFFFFFFFFFFFFFFFFFFFFFFFFFFFFFFFFFFFFFFFFFFFFFFFC CALLDATASIZE ADD SLT PUSH2 0x44A JUMPI PUSH1 0x20 SWAP1 PUSH2 0x1E9 PUSH2 0x8B6 PUSH2 0x8BF JUMP JUMPDEST PUSH1 0x24 CALLDATALOAD SWAP1 PUSH2 0xD4A JUMP JUMPDEST PUSH1 0x4 CALLDATALOAD SWAP1 PUSH20 0xFFFFFFFFFFFFFFFFFFFFFFFFFFFFFFFFFFFFFFFF DUP3 AND DUP3 SUB PUSH2 0x8E2 JUMPI JUMP JUMPDEST PUSH1 0x0 DUP1 REVERT JUMPDEST SWAP2 DUP2 PUSH1 0x1F DUP5 ADD SLT ISZERO PUSH2 0x8E2 JUMPI DUP3 CALLDATALOAD SWAP2 PUSH8 0xFFFFFFFFFFFFFFFF DUP4 GT PUSH2 0x8E2 JUMPI PUSH1 0x20 DUP4 DUP2 DUP7 ADD SWAP6 ADD ADD GT PUSH2 0x8E2 JUMPI JUMP JUMPDEST PUSH1 0x40 MLOAD SWAP1 SWAP4 SWAP2 SWAP3 PUSH32 0x0 SWAP2 SWAP1 DUP4 PUSH1 0x0 PUSH1 0x64 DUP3 EQ PUSH2 0xC22 JUMPI POP SWAP4 PUSH1 0x0 SWAP5 SWAP2 DUP3 DUP7 SWAP6 SWAP5 SWAP4 PUSH1 0x48 EQ PUSH2 0xB60 JUMPI DUP1 PUSH1 0xE0 EQ PUSH2 0xB27 JUMPI DUP1 PUSH2 0x100 EQ PUSH2 0xAEC JUMPI DUP1 PUSH1 0x60 EQ PUSH2 0xA16 JUMPI PUSH2 0x160 EQ PUSH2 0x9CC JUMPI DUP2 DUP6 SWAP3 PUSH1 0x4 SWAP3 PUSH32 0x9FD5A6CF00000000000000000000000000000000000000000000000000000000 DUP7 MSTORE DUP4 DUP7 ADD CALLDATACOPY ADD SWAP3 GAS CALL JUMPDEST ISZERO PUSH2 0x9C0 JUMPI PUSH2 0x9BD SWAP2 PUSH2 0xE50 JUMP JUMPDEST SWAP1 JUMP JUMPDEST PUSH1 0x40 MLOAD RETURNDATASIZE PUSH1 0x0 DUP3 RETURNDATACOPY RETURNDATASIZE SWAP1 REVERT JUMPDEST PUSH2 0x164 SWAP4 POP PUSH2 0x160 SWAP2 POP PUSH32 0x2B67B57000000000000000000000000000000000000000000000000000000000 DUP4 MSTORE PUSH1 0x4 DUP4 ADD CALLDATACOPY DUP3 PUSH15 0x22D473030F116DDEE9F6B43AC78BA3 GAS CALL PUSH2 0x9AF JUMP JUMPDEST POP PUSH1 0x20 SWAP2 POP PUSH1 0x40 SWAP1 PUSH2 0x164 SWAP5 PUSH32 0x2B67B57000000000000000000000000000000000000000000000000000000000 DUP6 MSTORE CALLER PUSH1 0x4 DUP7 ADD MSTORE PUSH1 0x24 DUP6 ADD MSTORE PUSH1 0x14 DUP2 PUSH1 0x50 DUP7 ADD CALLDATACOPY PUSH32 0xFFFFFFFFFFFFFFFFFFFFFFFFFFFFFFFFFFFFFFFFFFFFFFFFFFFFFFFFFFFFFFFF PUSH6 0xFFFFFFFFFFFF SWAP1 DUP1 PUSH1 0x14 DUP5 ADD CALLDATALOAD PUSH1 0xE0 SHR ADD DUP3 AND PUSH1 0x64 DUP8 ADD MSTORE PUSH1 0x18 DUP4 ADD CALLDATALOAD PUSH1 0xE0 SHR PUSH1 0x84 DUP8 ADD MSTORE ADDRESS PUSH1 0xA4 DUP8 ADD MSTORE PUSH1 0x1C DUP4 ADD CALLDATALOAD PUSH1 0xE0 SHR ADD AND PUSH1 0xC4 DUP6 ADD MSTORE PUSH2 0x100 PUSH1 0xE4 DUP6 ADD MSTORE DUP2 PUSH2 0x104 DUP6 ADD MSTORE DUP3 DUP1 DUP3 ADD PUSH2 0x124 DUP7 ADD CALLDATACOPY ADD PUSH2 0x144 DUP4 ADD CALLDATACOPY DUP3 PUSH15 0x22D473030F116DDEE9F6B43AC78BA3 GAS CALL PUSH2 0x9AF JUMP JUMPDEST POP DUP5 SWAP2 POP SWAP3 PUSH2 0x100 PUSH2 0x104 SWAP5 PUSH32 0x8FCBAF0C00000000000000000000000000000000000000000000000000000000 DUP6 MSTORE PUSH1 0x4 DUP6 ADD CALLDATACOPY GAS CALL PUSH2 0x9AF JUMP JUMPDEST POP DUP5 SWAP2 POP SWAP3 PUSH1 0xE0 PUSH1 0xE4 SWAP5 PUSH32 0xD505ACCF00000000000000000000000000000000000000000000000000000000 DUP6 MSTORE PUSH1 0x4 DUP6 ADD CALLDATACOPY GAS CALL PUSH2 0x9AF JUMP JUMPDEST POP DUP5 SWAP2 POP SWAP3 PUSH32 0x7FFFFFFFFFFFFFFFFFFFFFFFFFFFFFFFFFFFFFFFFFFFFFFFFFFFFFFFFFFFFFFF PUSH2 0x104 SWAP5 PUSH32 0x8FCBAF0C00000000000000000000000000000000000000000000000000000000 DUP6 MSTORE CALLER PUSH1 0x4 DUP7 ADD MSTORE ADDRESS PUSH1 0x24 DUP7 ADD MSTORE PUSH1 0x20 PUSH1 0x8 PUSH1 0x28 DUP4 ADD CALLDATALOAD SWAP3 DUP1 CALLDATALOAD PUSH1 0xE0 SHR PUSH1 0x44 DUP10 ADD MSTORE PUSH32 0xFFFFFFFFFFFFFFFFFFFFFFFFFFFFFFFFFFFFFFFFFFFFFFFFFFFFFFFFFFFFFFFF PUSH1 0x4 DUP3 ADD CALLDATALOAD PUSH1 0xE0 SHR ADD PUSH1 0x64 DUP10 ADD MSTORE PUSH1 0x1 PUSH1 0x84 DUP10 ADD MSTORE DUP4 PUSH1 0xFF SHR PUSH1 0x1B ADD PUSH1 0xA4 DUP10 ADD MSTORE ADD PUSH1 0xC4 DUP8 ADD CALLDATACOPY AND PUSH1 0xE4 DUP5 ADD MSTORE GAS CALL PUSH2 0x9AF JUMP JUMPDEST SWAP5 POP POP SWAP1 DUP4 DUP1 SWAP4 PUSH32 0x7FFFFFFFFFFFFFFFFFFFFFFFFFFFFFFFFFFFFFFFFFFFFFFFFFFFFFFFFFFFFFFF PUSH1 0xE4 SWAP5 PUSH32 0xD505ACCF00000000000000000000000000000000000000000000000000000000 DUP6 MSTORE CALLER PUSH1 0x4 DUP7 ADD MSTORE ADDRESS PUSH1 0x24 DUP7 ADD MSTORE PUSH1 0x20 PUSH1 0x24 PUSH1 0x44 DUP4 ADD CALLDATALOAD SWAP3 DUP3 DUP2 PUSH1 0x44 DUP11 ADD CALLDATACOPY PUSH32 0xFFFFFFFFFFFFFFFFFFFFFFFFFFFFFFFFFFFFFFFFFFFFFFFFFFFFFFFFFFFFFFFF DUP4 DUP3 ADD CALLDATALOAD PUSH1 0xE0 SHR ADD PUSH1 0x64 DUP10 ADD MSTORE DUP4 PUSH1 0xFF SHR PUSH1 0x1B ADD PUSH1 0x84 DUP10 ADD MSTORE ADD PUSH1 0xA4 DUP8 ADD CALLDATACOPY AND PUSH1 0xC4 DUP5 ADD MSTORE GAS CALL PUSH2 0x9AF JUMP JUMPDEST SWAP1 PUSH1 0x1F PUSH32 0xFFFFFFFFFFFFFFFFFFFFFFFFFFFFFFFFFFFFFFFFFFFFFFFFFFFFFFFFFFFFFFE0 SWAP2 ADD AND DUP2 ADD SWAP1 DUP2 LT PUSH8 0xFFFFFFFFFFFFFFFF DUP3 GT OR PUSH2 0xD1B JUMPI PUSH1 0x40 MSTORE JUMP JUMPDEST PUSH32 0x4E487B7100000000000000000000000000000000000000000000000000000000 PUSH1 0x0 MSTORE PUSH1 0x41 PUSH1 0x4 MSTORE PUSH1 0x24 PUSH1 0x0 REVERT JUMPDEST PUSH1 0x40 MLOAD PUSH32 0x85EDA2DE00000000000000000000000000000000000000000000000000000000 DUP2 MSTORE CALLER PUSH1 0x4 DUP3 ADD MSTORE PUSH1 0x24 DUP2 ADD DUP4 SWAP1 MSTORE PUSH1 0x0 SWAP4 SWAP3 SWAP1 SWAP2 PUSH1 0x20 DUP4 PUSH1 0x44 DUP2 DUP9 PUSH32 0x0 PUSH20 0xFFFFFFFFFFFFFFFFFFFFFFFFFFFFFFFFFFFFFFFF AND GAS CALL SWAP3 DUP4 ISZERO PUSH2 0xE45 JUMPI DUP6 SWAP4 PUSH2 0xE10 JUMPI JUMPDEST POP PUSH1 0x40 PUSH2 0xE0E SWAP4 SWAP6 CALLER DUP2 MSTORE PUSH1 0x1 PUSH1 0x20 MSTORE KECCAK256 DUP3 DUP2 SLOAD SUB SWAP1 SSTORE PUSH32 0x0 PUSH2 0x1075 JUMP JUMPDEST JUMP JUMPDEST SWAP3 POP PUSH1 0x20 DUP4 RETURNDATASIZE PUSH1 0x20 GT PUSH2 0xE3D JUMPI JUMPDEST DUP2 PUSH2 0xE2B PUSH1 0x20 SWAP4 DUP4 PUSH2 0xCDA JUMP JUMPDEST DUP2 ADD SUB SLT PUSH2 0x5EC JUMPI SWAP2 MLOAD SWAP2 PUSH1 0x40 PUSH2 0xDD1 JUMP JUMPDEST RETURNDATASIZE SWAP2 POP PUSH2 0xE1E JUMP JUMPDEST PUSH1 0x40 MLOAD RETURNDATASIZE DUP8 DUP3 RETURNDATACOPY RETURNDATASIZE SWAP1 REVERT JUMPDEST PUSH20 0xFFFFFFFFFFFFFFFFFFFFFFFFFFFFFFFFFFFFFFFF SWAP2 DUP3 DUP3 AND SWAP1 DUP2 ISZERO PUSH2 0xFFA JUMPI PUSH1 0x64 SWAP4 PUSH32 0x0 PUSH1 0x0 PUSH1 0x40 MLOAD SWAP1 PUSH32 0x23B872DD00000000000000000000000000000000000000000000000000000000 DUP3 MSTORE CALLER PUSH1 0x4 DUP4 ADD MSTORE ADDRESS PUSH1 0x24 DUP4 ADD MSTORE DUP5 PUSH1 0x44 DUP4 ADD MSTORE PUSH1 0x20 SWAP8 DUP9 SWAP3 DUP3 DUP6 GAS CALL SWAP1 DUP2 PUSH2 0xFD7 JUMPI JUMPDEST POP ISZERO PUSH2 0xFAD JUMPI PUSH1 0x0 SWAP3 DUP4 MSTORE PUSH1 0x1 DUP6 MSTORE PUSH1 0x40 DUP1 DUP5 KECCAK256 DUP1 SLOAD DUP5 ADD SWAP1 SSTORE MLOAD PUSH32 0x3EE5EF1F00000000000000000000000000000000000000000000000000000000 DUP2 MSTORE PUSH20 0xFFFFFFFFFFFFFFFFFFFFFFFFFFFFFFFFFFFFFFFF SWAP5 SWAP1 SWAP5 AND PUSH1 0x4 DUP6 ADD MSTORE PUSH1 0x24 DUP5 ADD SWAP2 SWAP1 SWAP2 MSTORE DUP4 SWAP2 DUP4 SWAP2 PUSH1 0x44 SWAP2 DUP4 SWAP2 PUSH32 0x0 AND GAS CALL SWAP2 DUP3 ISZERO PUSH2 0x9C0 JUMPI PUSH1 0x0 SWAP3 PUSH2 0xF83 JUMPI POP POP SWAP1 JUMP JUMPDEST SWAP1 DUP1 SWAP3 POP DUP2 RETURNDATASIZE DUP4 GT PUSH2 0xFA6 JUMPI JUMPDEST PUSH2 0xF9A DUP2 DUP4 PUSH2 0xCDA JUMP JUMPDEST DUP2 ADD SUB SLT PUSH2 0x8E2 JUMPI MLOAD SWAP1 JUMP JUMPDEST POP RETURNDATASIZE PUSH2 0xF90 JUMP JUMPDEST PUSH1 0x4 PUSH1 0x40 MLOAD PUSH32 0xF405907100000000000000000000000000000000000000000000000000000000 DUP2 MSTORE REVERT JUMPDEST SWAP1 POP RETURNDATASIZE ISZERO PUSH2 0xFF2 JUMPI POP PUSH1 0x1 PUSH1 0x0 MLOAD EQ PUSH1 0x1F RETURNDATASIZE GT AND JUMPDEST CODESIZE PUSH2 0xEDF JUMP JUMPDEST EXTCODESIZE ISZERO ISZERO PUSH2 0xFEC JUMP JUMPDEST PUSH1 0x4 PUSH1 0x40 MLOAD PUSH32 0xD92E233D00000000000000000000000000000000000000000000000000000000 DUP2 MSTORE REVERT JUMPDEST PUSH20 0xFFFFFFFFFFFFFFFFFFFFFFFFFFFFFFFFFFFFFFFF PUSH1 0x0 SLOAD AND CALLER SUB PUSH2 0x1045 JUMPI JUMP JUMPDEST PUSH1 0x24 PUSH1 0x40 MLOAD PUSH32 0x118CDAA700000000000000000000000000000000000000000000000000000000 DUP2 MSTORE CALLER PUSH1 0x4 DUP3 ADD MSTORE REVERT JUMPDEST SWAP2 PUSH1 0x44 PUSH1 0x20 SWAP3 PUSH1 0x0 SWAP3 PUSH1 0x40 MLOAD SWAP2 PUSH32 0xA9059CBB00000000000000000000000000000000000000000000000000000000 DUP4 MSTORE PUSH1 0x4 DUP4 ADD MSTORE PUSH1 0x24 DUP3 ADD MSTORE DUP3 DUP6 GAS CALL SWAP1 DUP2 PUSH2 0x10EC JUMPI JUMPDEST POP ISZERO PUSH2 0x10C2 JUMPI JUMP JUMPDEST PUSH1 0x4 PUSH1 0x40 MLOAD PUSH32 0xFB7F507900000000000000000000000000000000000000000000000000000000 DUP2 MSTORE REVERT JUMPDEST SWAP1 POP RETURNDATASIZE ISZERO PUSH2 0x1107 JUMPI POP PUSH1 0x1 PUSH1 0x0 MLOAD EQ PUSH1 0x1F RETURNDATASIZE GT AND JUMPDEST CODESIZE PUSH2 0x10BA JUMP JUMPDEST EXTCODESIZE ISZERO ISZERO PUSH2 0x1101 JUMP INVALID LOG2 PUSH5 0x6970667358 0x22 SLT KECCAK256 SSTORE 0x2A GASPRICE DUP4 0xB3 PUSH31 0x5067BE598C508F5E5724E322070B2FBDD787200276B277EAF18C64736F6C63 NUMBER STOP ADDMOD OR STOP CALLER "},"methodIdentifiers":{"FEE_BANK()":"2ce26aeb","availableCredit(address)":"5886216f","decreaseAvailableCredit(address,uint256)":"85eda2de","increaseAvailableCredit(address,uint256)":"3ee5ef1f"}}}}}