{
  "_format": "hh-sol-artifact-1",
  "contractName": "GuardManager",
  "sourceName": "@gnosis.pm/safe-contracts/contracts/base/GuardManager.sol",
  "abi": [
    {
      "anonymous": false,
      "inputs": [
        {
          "indexed": false,
          "internalType": "address",
          "name": "guard",
          "type": "address"
        }
      ],
      "name": "ChangedGuard",
      "type": "event"
    },
    {
      "inputs": [
        {
          "internalType": "address",
          "name": "guard",
          "type": "address"
        }
      ],
      "name": "setGuard",
      "outputs": [],
      "stateMutability": "nonpayable",
      "type": "function"
    }
  ],
  "bytecode": "0x608080604052346100165761016e908161001c8239f35b600080fdfe608080604052600436101561001357600080fd5b600090813560e01c63e19a9dd91461002a57600080fd5b346101345760207ffffffffffffffffffffffffffffffffffffffffffffffffffffffffffffffffc3601126101345760043573ffffffffffffffffffffffffffffffffffffffff811691828203610130573033036100d457507f1151116914515bc0891ff9047a6cb32cf902546f83066499bcf8ba33d2353fa2916020917f4a204f620c8c5ccdca3fd54d003badd85ba500436a431f0cbda4f558c93c34c855604051908152a180f35b807f08c379a0000000000000000000000000000000000000000000000000000000006064925260206004820152600560248201527f47533033310000000000000000000000000000000000000000000000000000006044820152fd5b8380fd5b5080fdfea26469706673582212209b696701370710e4fd6acf71c20f90521e556b060a9d88f5d99dbfb110b142fd64736f6c63430008170033",
  "linkReferences": {},
  "deployedLinkReferences": {}
}