{
  "_format": "hh-sol-artifact-1",
  "contractName": "StorageAccessible",
  "sourceName": "@gnosis.pm/safe-contracts/contracts/common/StorageAccessible.sol",
  "abi": [
    {
      "inputs": [
        {
          "internalType": "uint256",
          "name": "offset",
          "type": "uint256"
        },
        {
          "internalType": "uint256",
          "name": "length",
          "type": "uint256"
        }
      ],
      "name": "getStorageAt",
      "outputs": [
        {
          "internalType": "bytes",
          "name": "",
          "type": "bytes"
        }
      ],
      "stateMutability": "view",
      "type": "function"
    },
    {
      "inputs": [
        {
          "internalType": "address",
          "name": "targetContract",
          "type": "address"
        },
        {
          "internalType": "bytes",
          "name": "calldataPayload",
          "type": "bytes"
        }
      ],
      "name": "simulateAndRevert",
      "outputs": [],
      "stateMutability": "nonpayable",
      "type": "function"
    }
  ],
  "bytecode": "0x6080806040523461001657610344908161001c8239f35b600080fdfe6080604052600436101561001257600080fd5b6000803560e01c9081635624b25b1461003a575063b4faba091461003557600080fd5b610241565b346101265760407ffffffffffffffffffffffffffffffffffffffffffffffffffffffffffffffffc36011261012657602435600581811b92602090600435908415858704841417156100f9577fffffffffffffffffffffffffffffffffffffffffffffffffffffffffffffffe06100c46100bb6100b689610207565b6101be565b97808952610207565b013660208801375b8481106100e557604051806100e18882610129565b0390f35b8181015481851b87018401526001016100cc565b807f4e487b7100000000000000000000000000000000000000000000000000000000602492526011600452fd5b80fd5b60208082528251818301819052939260005b85811061017b575050507fffffffffffffffffffffffffffffffffffffffffffffffffffffffffffffffe0601f8460006040809697860101520116010190565b81810183015184820160400152820161013b565b7f4e487b7100000000000000000000000000000000000000000000000000000000600052604160045260246000fd5b907fffffffffffffffffffffffffffffffffffffffffffffffffffffffffffffffe0601f604051930116820182811067ffffffffffffffff82111761020257604052565b61018f565b67ffffffffffffffff811161020257601f017fffffffffffffffffffffffffffffffffffffffffffffffffffffffffffffffe01660200190565b346102e65760407ffffffffffffffffffffffffffffffffffffffffffffffffffffffffffffffffc3601126102e65760043573ffffffffffffffffffffffffffffffffffffffff811681036102e6576024359067ffffffffffffffff82116102e657366023830112156102e65781600401356102bf6100b682610207565b9281845236602483830101116102e6578160009260246020930183870137840101526102eb565b600080fd5b6000918291602082519201905af46000523d6020523d600060403e60403d016000fdfea264697066735822122015357c8d9d2d7bf87df35c104e123ed386ab41d4f297ad0a884792af0fbdca0d64736f6c63430008170033",
  "linkReferences": {},
  "deployedLinkReferences": {}
}