{
  "_format": "hh-sol-artifact-1",
  "contractName": "AmountGetterWithFee",
  "sourceName": "contracts/lop/extensions/AmountGetterWithFee.sol",
  "abi": [
    {
      "inputs": [],
      "name": "InvalidIntegratorShare",
      "type": "error"
    },
    {
      "inputs": [],
      "name": "InvalidWhitelistDiscountNumerator",
      "type": "error"
    },
    {
      "inputs": [
        {
          "components": [
            {
              "internalType": "uint256",
              "name": "salt",
              "type": "uint256"
            },
            {
              "internalType": "Address",
              "name": "maker",
              "type": "uint256"
            },
            {
              "internalType": "Address",
              "name": "receiver",
              "type": "uint256"
            },
            {
              "internalType": "Address",
              "name": "makerAsset",
              "type": "uint256"
            },
            {
              "internalType": "Address",
              "name": "takerAsset",
              "type": "uint256"
            },
            {
              "internalType": "uint256",
              "name": "makingAmount",
              "type": "uint256"
            },
            {
              "internalType": "uint256",
              "name": "takingAmount",
              "type": "uint256"
            },
            {
              "internalType": "MakerTraits",
              "name": "makerTraits",
              "type": "uint256"
            }
          ],
          "internalType": "struct IOrderMixin.Order",
          "name": "order",
          "type": "tuple"
        },
        {
          "internalType": "bytes",
          "name": "extension",
          "type": "bytes"
        },
        {
          "internalType": "bytes32",
          "name": "orderHash",
          "type": "bytes32"
        },
        {
          "internalType": "address",
          "name": "taker",
          "type": "address"
        },
        {
          "internalType": "uint256",
          "name": "takingAmount",
          "type": "uint256"
        },
        {
          "internalType": "uint256",
          "name": "remainingMakingAmount",
          "type": "uint256"
        },
        {
          "internalType": "bytes",
          "name": "extraData",
          "type": "bytes"
        }
      ],
      "name": "getMakingAmount",
      "outputs": [
        {
          "internalType": "uint256",
          "name": "",
          "type": "uint256"
        }
      ],
      "stateMutability": "view",
      "type": "function"
    },
    {
      "inputs": [
        {
          "components": [
            {
              "internalType": "uint256",
              "name": "salt",
              "type": "uint256"
            },
            {
              "internalType": "Address",
              "name": "maker",
              "type": "uint256"
            },
            {
              "internalType": "Address",
              "name": "receiver",
              "type": "uint256"
            },
            {
              "internalType": "Address",
              "name": "makerAsset",
              "type": "uint256"
            },
            {
              "internalType": "Address",
              "name": "takerAsset",
              "type": "uint256"
            },
            {
              "internalType": "uint256",
              "name": "makingAmount",
              "type": "uint256"
            },
            {
              "internalType": "uint256",
              "name": "takingAmount",
              "type": "uint256"
            },
            {
              "internalType": "MakerTraits",
              "name": "makerTraits",
              "type": "uint256"
            }
          ],
          "internalType": "struct IOrderMixin.Order",
          "name": "order",
          "type": "tuple"
        },
        {
          "internalType": "bytes",
          "name": "extension",
          "type": "bytes"
        },
        {
          "internalType": "bytes32",
          "name": "orderHash",
          "type": "bytes32"
        },
        {
          "internalType": "address",
          "name": "taker",
          "type": "address"
        },
        {
          "internalType": "uint256",
          "name": "makingAmount",
          "type": "uint256"
        },
        {
          "internalType": "uint256",
          "name": "remainingMakingAmount",
          "type": "uint256"
        },
        {
          "internalType": "bytes",
          "name": "extraData",
          "type": "bytes"
        }
      ],
      "name": "getTakingAmount",
      "outputs": [
        {
          "internalType": "uint256",
          "name": "",
          "type": "uint256"
        }
      ],
      "stateMutability": "view",
      "type": "function"
    }
  ],
  "bytecode": "0x6080806040523461001657610a5a908161001c8239f35b600080fdfe6080604052600436101561001257600080fd5b6000803560e01c80631d9671c3146100c15763d7ff8a801461003357600080fd5b346100be576100669061005861004836610131565b849394919b98999295979b61035e565b99945097929c915099610933565b92620186a0910181016100798185610803565b93091515820180921161009157602082604051908152f35b807f4e487b7100000000000000000000000000000000000000000000000000000000602492526011600452fd5b80fd5b50346100be5760206100f66100ed620186a06100df61004836610131565b99945097929c91509961064a565b92010190610745565b604051908152f35b9181601f8401121561012c5782359167ffffffffffffffff831161012c576020838186019501011161012c57565b600080fd5b907ffffffffffffffffffffffffffffffffffffffffffffffffffffffffffffffffc82016101c0811261012c576101001361012c5760049167ffffffffffffffff906101043582811161012c578161018b916004016100fe565b9390939261012435926101443573ffffffffffffffffffffffffffffffffffffffff8116810361012c5792610164359261018435926101a43591821161012c576101d7916004016100fe565b9091565b9291909160009369ffffffffffffffffffff600093169084156102b457803560f81c90600a82600a026001948186018087116102b05789106102ac578184018601988290037fffffffffffffffffffffffffffffffffffffffffffffffffffffffffffffffff019793849087015b86861061025a575050505050505050565b8385116102a857803560b01c831461029c577ffffffffffffffffffffffffffffffffffffffffffffffffffffffffffffffff685899201940195019492610249565b50959950505050505050565b5080fd5b8780fd5b8880fd5b6024847f4e487b710000000000000000000000000000000000000000000000000000000081526032600452fd5b7fffff000000000000000000000000000000000000000000000000000000000000903581811693926002811061031657505050565b60020360031b82901b16169150565b811561032f570490565b7f4e487b7100000000000000000000000000000000000000000000000000000000600052601260045260246000fd5b9161036982846102e1565b60f01c92826002101561045257600281013560f81c9260648411610481578060031161012c576103be7ffffffffffffffffffffffffffffffffffffffffffffffffffffffffffffffffd8201600384016102e1565b60f01c92816005101561045257600583013560f81c9260648411610428578260061161012c5760067ffffffffffffffffffffffffffffffffffffffffffffffffffffffffffffffffa610413940191016101db565b919690928761041f5750565b60649194020492565b60046040517f3066a1f1000000000000000000000000000000000000000000000000000000008152fd5b7f4e487b7100000000000000000000000000000000000000000000000000000000600052603260045260246000fd5b60046040517fc5374e2d000000000000000000000000000000000000000000000000000000008152fd5b7fffffffffffffffffffffffffffffffffffffffff00000000000000000000000090358181169392601481106104e057505050565b60140360031b82901b16169150565b90601f7fffffffffffffffffffffffffffffffffffffffffffffffffffffffffffffffe0910116810190811067ffffffffffffffff82111761053057604052565b7f4e487b7100000000000000000000000000000000000000000000000000000000600052604160045260246000fd5b601f82602094937fffffffffffffffffffffffffffffffffffffffffffffffffffffffffffffffe0938186528686013760008582860101520116010190565b949073ffffffffffffffffffffffffffffffffffffffff926106479a989599979461061f9260e06101c09180358b52602081013560208c0152604081013560408c0152606081013560608c0152608081013560808c015260a081013560a08c015260c081013560c08c0152013560e08a0152806101008a015288019161055f565b97610120860152166101408401526101608301526101808201526101a081850391015261055f565b90565b90979496939594929390601484106107295761066684836104ab565b60601c958460141161012c576020986014987fffffffffffffffffffffffffffffffffffffffffffffffffffffffffffffffec976106d8966040519d8e9c8d9b8c9b7f1d9671c3000000000000000000000000000000000000000000000000000000008d520198019660048b0161059e565b03915afa90811561071d576000916106ee575090565b90506020813d602011610715575b81610709602093836104ef565b8101031261012c575190565b3d91506106fc565b6040513d6000823e3d90fd5b9695505050505050610647925060a060c083013592013561089e565b620186a0917fffffffffffffffffffffffffffffffffffffffffffffffffffffffffffffffff83830992808302928380861095039480860395146107f657848311156107dd579082910981600003821680920460028082600302188083028203028083028203028083028203028083028203028083028203028092029003029360018380600003040190848311900302920304170290565b82634e487b71600052156003026011186020526024601cfd5b5050906106479250610325565b907fffffffffffffffffffffffffffffffffffffffffffffffffffffffffffffffff8183098183029182808310920391808303921461089257620186a0908282111561087f577f58cd20afa2f05a708ede54b48d3ae685db76b3bb83cf2cf95d4e8fb00bcbe61d940990828211900360fb1b910360051c170290565b634e487b7160005260116020526024601cfd5b5050620186a091500490565b90917fffffffffffffffffffffffffffffffffffffffffffffffffffffffffffffffff83830992808302928380861095039480860395146107f657848311156107dd579082910981600003821680920460028082600302188083028203028083028203028083028203028083028203028083028203028092029003029360018380600003040190848311900302920304170290565b90979496939594929390601484106109c15761094f84836104ab565b60601c958460141161012c576020986014987fffffffffffffffffffffffffffffffffffffffffffffffffffffffffffffffec976106d8966040519d8e9c8d9b8c9b7fd7ff8a80000000000000000000000000000000000000000000000000000000008d520198019660048b0161059e565b975050505050505060a060c0830135920135906109df82828561089e565b92821561032f5709151581018091116109f55790565b7f4e487b7100000000000000000000000000000000000000000000000000000000600052601160045260246000fdfea2646970667358221220930b2c49f862b21997be6b2c0daaddd6f60f378458afdf59352c98d21272a65964736f6c63430008170033",
  "linkReferences": {},
  "deployedLinkReferences": {}
}