{
  "_format": "hh-sol-artifact-1",
  "contractName": "CompatibilityFallbackHandler",
  "sourceName": "contracts/lop/mocks/CompatibilityFallbackHandler.sol",
  "abi": [
    {
      "inputs": [],
      "name": "NAME",
      "outputs": [
        {
          "internalType": "string",
          "name": "",
          "type": "string"
        }
      ],
      "stateMutability": "view",
      "type": "function"
    },
    {
      "inputs": [],
      "name": "VERSION",
      "outputs": [
        {
          "internalType": "string",
          "name": "",
          "type": "string"
        }
      ],
      "stateMutability": "view",
      "type": "function"
    },
    {
      "inputs": [
        {
          "internalType": "bytes",
          "name": "message",
          "type": "bytes"
        }
      ],
      "name": "getMessageHash",
      "outputs": [
        {
          "internalType": "bytes32",
          "name": "",
          "type": "bytes32"
        }
      ],
      "stateMutability": "view",
      "type": "function"
    },
    {
      "inputs": [
        {
          "internalType": "contract GnosisSafe",
          "name": "safe",
          "type": "address"
        },
        {
          "internalType": "bytes",
          "name": "message",
          "type": "bytes"
        }
      ],
      "name": "getMessageHashForSafe",
      "outputs": [
        {
          "internalType": "bytes32",
          "name": "",
          "type": "bytes32"
        }
      ],
      "stateMutability": "view",
      "type": "function"
    },
    {
      "inputs": [],
      "name": "getModules",
      "outputs": [
        {
          "internalType": "address[]",
          "name": "",
          "type": "address[]"
        }
      ],
      "stateMutability": "view",
      "type": "function"
    },
    {
      "inputs": [
        {
          "internalType": "bytes32",
          "name": "_dataHash",
          "type": "bytes32"
        },
        {
          "internalType": "bytes",
          "name": "_signature",
          "type": "bytes"
        }
      ],
      "name": "isValidSignature",
      "outputs": [
        {
          "internalType": "bytes4",
          "name": "",
          "type": "bytes4"
        }
      ],
      "stateMutability": "view",
      "type": "function"
    },
    {
      "inputs": [
        {
          "internalType": "bytes",
          "name": "_data",
          "type": "bytes"
        },
        {
          "internalType": "bytes",
          "name": "_signature",
          "type": "bytes"
        }
      ],
      "name": "isValidSignature",
      "outputs": [
        {
          "internalType": "bytes4",
          "name": "",
          "type": "bytes4"
        }
      ],
      "stateMutability": "view",
      "type": "function"
    },
    {
      "inputs": [
        {
          "internalType": "address",
          "name": "",
          "type": "address"
        },
        {
          "internalType": "address",
          "name": "",
          "type": "address"
        },
        {
          "internalType": "uint256[]",
          "name": "",
          "type": "uint256[]"
        },
        {
          "internalType": "uint256[]",
          "name": "",
          "type": "uint256[]"
        },
        {
          "internalType": "bytes",
          "name": "",
          "type": "bytes"
        }
      ],
      "name": "onERC1155BatchReceived",
      "outputs": [
        {
          "internalType": "bytes4",
          "name": "",
          "type": "bytes4"
        }
      ],
      "stateMutability": "pure",
      "type": "function"
    },
    {
      "inputs": [
        {
          "internalType": "address",
          "name": "",
          "type": "address"
        },
        {
          "internalType": "address",
          "name": "",
          "type": "address"
        },
        {
          "internalType": "uint256",
          "name": "",
          "type": "uint256"
        },
        {
          "internalType": "uint256",
          "name": "",
          "type": "uint256"
        },
        {
          "internalType": "bytes",
          "name": "",
          "type": "bytes"
        }
      ],
      "name": "onERC1155Received",
      "outputs": [
        {
          "internalType": "bytes4",
          "name": "",
          "type": "bytes4"
        }
      ],
      "stateMutability": "pure",
      "type": "function"
    },
    {
      "inputs": [
        {
          "internalType": "address",
          "name": "",
          "type": "address"
        },
        {
          "internalType": "address",
          "name": "",
          "type": "address"
        },
        {
          "internalType": "uint256",
          "name": "",
          "type": "uint256"
        },
        {
          "internalType": "bytes",
          "name": "",
          "type": "bytes"
        }
      ],
      "name": "onERC721Received",
      "outputs": [
        {
          "internalType": "bytes4",
          "name": "",
          "type": "bytes4"
        }
      ],
      "stateMutability": "pure",
      "type": "function"
    },
    {
      "inputs": [
        {
          "internalType": "address",
          "name": "targetContract",
          "type": "address"
        },
        {
          "internalType": "bytes",
          "name": "calldataPayload",
          "type": "bytes"
        }
      ],
      "name": "simulate",
      "outputs": [
        {
          "internalType": "bytes",
          "name": "response",
          "type": "bytes"
        }
      ],
      "stateMutability": "nonpayable",
      "type": "function"
    },
    {
      "inputs": [
        {
          "internalType": "bytes4",
          "name": "interfaceId",
          "type": "bytes4"
        }
      ],
      "name": "supportsInterface",
      "outputs": [
        {
          "internalType": "bool",
          "name": "",
          "type": "bool"
        }
      ],
      "stateMutability": "view",
      "type": "function"
    },
    {
      "inputs": [
        {
          "internalType": "address",
          "name": "",
          "type": "address"
        },
        {
          "internalType": "address",
          "name": "",
          "type": "address"
        },
        {
          "internalType": "address",
          "name": "",
          "type": "address"
        },
        {
          "internalType": "uint256",
          "name": "",
          "type": "uint256"
        },
        {
          "internalType": "bytes",
          "name": "",
          "type": "bytes"
        },
        {
          "internalType": "bytes",
          "name": "",
          "type": "bytes"
        }
      ],
      "name": "tokensReceived",
      "outputs": [],
      "stateMutability": "pure",
      "type": "function"
    }
  ],
  "bytecode": "0x60808060405234610016576110ed908161001c8239f35b600080fdfe6080604052600436101561001257600080fd5b60003560e01c806223de29146100e657806301ffc9a7146100e15780630a1028c4146100dc578063150b7a02146100d75780631626ba7e146100d257806320c13b0b146100cd5780636ac24784146100c8578063a3f4df7e146100c3578063b2494df3146100be578063bc197c81146100b9578063bd61951d146100b4578063f23a6e61146100af5763ffa1ad74146100aa57600080fd5b610d9e565b610d0d565b610c24565b610b5d565b6109e9565b61091b565b610837565b61069a565b6104f0565b61045f565b6103fd565b6101f3565b61013c565b73ffffffffffffffffffffffffffffffffffffffff81160361010957565b600080fd5b9181601f840112156101095782359167ffffffffffffffff8311610109576020838186019501011161010957565b346101095760c07ffffffffffffffffffffffffffffffffffffffffffffffffffffffffffffffffc360112610109576101766004356100eb565b6101816024356100eb565b61018c6044356100eb565b67ffffffffffffffff608435818111610109576101ad90369060040161010e565b505060a435908111610109576101c790369060040161010e565b005b7fffffffff0000000000000000000000000000000000000000000000000000000081160361010957565b346101095760207ffffffffffffffffffffffffffffffffffffffffffffffffffffffffffffffffc3601126101095760207fffffffff00000000000000000000000000000000000000000000000000000000600435610251816101c9565b167f4e2312e00000000000000000000000000000000000000000000000000000000081149081156102b9575b811561028f575b506040519015158152f35b7f01ffc9a70000000000000000000000000000000000000000000000000000000091501438610284565b7f150b7a02000000000000000000000000000000000000000000000000000000008114915061027d565b7f4e487b7100000000000000000000000000000000000000000000000000000000600052604160045260246000fd5b67ffffffffffffffff811161032657604052565b6102e3565b6040810190811067ffffffffffffffff82111761032657604052565b90601f7fffffffffffffffffffffffffffffffffffffffffffffffffffffffffffffffe0910116810190811067ffffffffffffffff82111761032657604052565b81601f820112156101095780359067ffffffffffffffff821161032657604051926103db60207fffffffffffffffffffffffffffffffffffffffffffffffffffffffffffffffe0601f8601160185610347565b8284526020838301011161010957816000926020809301838601378301015290565b346101095760207ffffffffffffffffffffffffffffffffffffffffffffffffffffffffffffffffc3601126101095760043567ffffffffffffffff8111610109576104576104516020923690600401610388565b33610f33565b604051908152f35b346101095760807ffffffffffffffffffffffffffffffffffffffffffffffffffffffffffffffffc360112610109576104996004356100eb565b6104a46024356100eb565b60643567ffffffffffffffff8111610109576104c490369060040161010e565b505060206040517f150b7a02000000000000000000000000000000000000000000000000000000008152f35b346101095760407ffffffffffffffffffffffffffffffffffffffffffffffffffffffffffffffffc3601126101095760243567ffffffffffffffff8111610109576105c4610544602092369060040161010e565b6040939193519361058e856105626004358683019190602083019252565b037fffffffffffffffffffffffffffffffffffffffffffffffffffffffffffffffe08101875286610347565b60405193849283927f20c13b0b000000000000000000000000000000000000000000000000000000009788855260048501610e2f565b0381335afa8015610695577fffffffff0000000000000000000000000000000000000000000000000000000091600091610666575b50160361065c576106587f1626ba7e000000000000000000000000000000000000000000000000000000005b6040517fffffffff0000000000000000000000000000000000000000000000000000000090911681529081906020820190565b0390f35b6106586000610625565b610688915060203d60201161068e575b6106808183610347565b810190610e1a565b386105f9565b503d610676565b610e88565b346101095760407ffffffffffffffffffffffffffffffffffffffffffffffffffffffffffffffffc3601126101095767ffffffffffffffff600435818111610109576106ea903690600401610388565b9060243590811161010957610703903690600401610388565b9061070e8133610f33565b908251156000146107c757506040517f5ae6bd3700000000000000000000000000000000000000000000000000000000815260048101919091529050602081602481335afa80156106955761076d91600091610798575b501515610ece565b6040517f20c13b0b000000000000000000000000000000000000000000000000000000008152602090f35b6107ba915060203d6020116107c0575b6107b28183610347565b810190610ebf565b38610765565b503d6107a8565b333b156101095760009161080860405194859384937f934f3a1100000000000000000000000000000000000000000000000000000000855260048501610e94565b0381335afa80156106955761081e575b5061076d565b8061082b61083192610312565b8061089e565b38610818565b346101095760407ffffffffffffffffffffffffffffffffffffffffffffffffffffffffffffffffc36011261010957600435610872816100eb565b60243567ffffffffffffffff811161010957602091610898610457923690600401610388565b90610f33565b600091031261010957565b919082519283825260005b8481106108f35750507fffffffffffffffffffffffffffffffffffffffffffffffffffffffffffffffe0601f8460006020809697860101520116010190565b6020818301810151848301820152016108b4565b9060206109189281815201906108a9565b90565b346101095760007ffffffffffffffffffffffffffffffffffffffffffffffffffffffffffffffffc360112610109576106586040516109598161032b565b601881527f44656661756c742043616c6c6261636b2048616e646c6572000000000000000060208201526040519182916020835260208301906108a9565b602090602060408183019282815285518094520193019160005b8281106109bf575050505090565b835173ffffffffffffffffffffffffffffffffffffffff16855293810193928101926001016109b1565b34610109576000807ffffffffffffffffffffffffffffffffffffffffffffffffffffffffffffffffc360112610b2157604051907fcc2f845200000000000000000000000000000000000000000000000000000000825260016004830152600a60248301528082604481335afa908115610695578091610a72575b604051806106588482610997565b90503d8082843e610a838184610347565b820191604081840312610b285780519267ffffffffffffffff93848111610b245782019281601f85011215610b21578351936020958511610326578460051b9160405195610ad388850188610347565b86528680870193830101938411610b2157508501905b828210610b085750505061065892610b0191016110aa565b5038610a64565b8580918351610b16816100eb565b815201910190610ae9565b80fd5b8380fd5b5080fd5b9181601f840112156101095782359167ffffffffffffffff8311610109576020808501948460051b01011161010957565b346101095760a07ffffffffffffffffffffffffffffffffffffffffffffffffffffffffffffffffc36011261010957610b976004356100eb565b610ba26024356100eb565b67ffffffffffffffff60443581811161010957610bc3903690600401610b2c565b505060643581811161010957610bdd903690600401610b2c565b505060843590811161010957610bf790369060040161010e565b50506040517fbc197c81000000000000000000000000000000000000000000000000000000008152602090f35b34610109577ffffffffffffffffffffffffffffffffffffffffffffffffffffffffffffffffc36016040811261010957610c5f6004356100eb565b60243567ffffffffffffffff811161010957602091610c84600092369060040161010e565b5050604051907fb4faba09000000000000000000000000000000000000000000000000000000008252600480830137369082335af1503d7fffffffffffffffffffffffffffffffffffffffffffffffffffffffffffffffe0604051918181840101604052016020823e60005115610d05576106589060405191829182610907565b602081519101fd5b346101095760a07ffffffffffffffffffffffffffffffffffffffffffffffffffffffffffffffffc36011261010957610d476004356100eb565b610d526024356100eb565b60843567ffffffffffffffff811161010957610d7290369060040161010e565b505060206040517ff23a6e61000000000000000000000000000000000000000000000000000000008152f35b346101095760007ffffffffffffffffffffffffffffffffffffffffffffffffffffffffffffffffc36011261010957610658604051610ddc8161032b565b600581527f312e302e3000000000000000000000000000000000000000000000000000000060208201526040519182916020835260208301906108a9565b908160209103126101095751610918816101c9565b9183602094601f92610e6a7fffffffffffffffffffffffffffffffffffffffffffffffffffffffffffffffe0956040885260408801906108a9565b95878188039101528186528686013760008582860101520116010190565b6040513d6000823e3d90fd5b91610eb190610918949284526060602085015260608401906108a9565b9160408184039101526108a9565b90816020910312610109575190565b15610ed557565b60646040517f08c379a000000000000000000000000000000000000000000000000000000000815260206004820152601160248201527f48617368206e6f7420617070726f7665640000000000000000000000000000006044820152fd5b73ffffffffffffffffffffffffffffffffffffffff91805160208092012090806040519283610f9083820192839190602060408401937f60b3cbf8b4a223d68d641b3b6ddf9a298e7f33710cf3d3a9d1146b5a6150fbca81520152565b0393610fc27fffffffffffffffffffffffffffffffffffffffffffffffffffffffffffffffe095868101835282610347565b519020936004604051809781937ff698da25000000000000000000000000000000000000000000000000000000008352165afa93841561069557600094611085575b509061107f916110736040519485928301968790916042927f190000000000000000000000000000000000000000000000000000000000000083527f01000000000000000000000000000000000000000000000000000000000000006001840152600283015260228201520190565b03908101835282610347565b51902090565b8194506110a29061107f93923d87116107c0576107b28183610347565b939091611004565b51906110b5826100eb565b56fea2646970667358221220e1ed8756c93398bb6cf3901f5834748ff8b47da850636edf6c6f8aa64261248064736f6c63430008170033",
  "linkReferences": {},
  "deployedLinkReferences": {}
}