{
  "_format": "hh-sol-artifact-1",
  "contractName": "SeriesNonceManager",
  "sourceName": "contracts/lop/helpers/SeriesNonceManager.sol",
  "abi": [
    {
      "inputs": [],
      "name": "AdvanceNonceFailed",
      "type": "error"
    },
    {
      "anonymous": false,
      "inputs": [
        {
          "indexed": true,
          "internalType": "address",
          "name": "maker",
          "type": "address"
        },
        {
          "indexed": false,
          "internalType": "uint256",
          "name": "series",
          "type": "uint256"
        },
        {
          "indexed": false,
          "internalType": "uint256",
          "name": "newNonce",
          "type": "uint256"
        }
      ],
      "name": "NonceIncreased",
      "type": "event"
    },
    {
      "inputs": [
        {
          "internalType": "uint256",
          "name": "series",
          "type": "uint256"
        },
        {
          "internalType": "uint256",
          "name": "amount",
          "type": "uint256"
        }
      ],
      "name": "advanceNonce",
      "outputs": [],
      "stateMutability": "nonpayable",
      "type": "function"
    },
    {
      "inputs": [
        {
          "internalType": "uint8",
          "name": "series",
          "type": "uint8"
        }
      ],
      "name": "increaseNonce",
      "outputs": [],
      "stateMutability": "nonpayable",
      "type": "function"
    },
    {
      "inputs": [
        {
          "internalType": "uint256",
          "name": "series",
          "type": "uint256"
        },
        {
          "internalType": "address",
          "name": "maker",
          "type": "address"
        }
      ],
      "name": "nonce",
      "outputs": [
        {
          "internalType": "uint256",
          "name": "nonce",
          "type": "uint256"
        }
      ],
      "stateMutability": "view",
      "type": "function"
    },
    {
      "inputs": [
        {
          "internalType": "uint256",
          "name": "series",
          "type": "uint256"
        },
        {
          "internalType": "address",
          "name": "makerAddress",
          "type": "address"
        },
        {
          "internalType": "uint256",
          "name": "makerNonce",
          "type": "uint256"
        }
      ],
      "name": "nonceEquals",
      "outputs": [
        {
          "internalType": "bool",
          "name": "",
          "type": "bool"
        }
      ],
      "stateMutability": "view",
      "type": "function"
    },
    {
      "inputs": [
        {
          "internalType": "uint256",
          "name": "time",
          "type": "uint256"
        }
      ],
      "name": "timestampBelow",
      "outputs": [
        {
          "internalType": "bool",
          "name": "",
          "type": "bool"
        }
      ],
      "stateMutability": "view",
      "type": "function"
    },
    {
      "inputs": [
        {
          "internalType": "uint256",
          "name": "timeNonceSeriesAccount",
          "type": "uint256"
        }
      ],
      "name": "timestampBelowAndNonceEquals",
      "outputs": [
        {
          "internalType": "bool",
          "name": "",
          "type": "bool"
        }
      ],
      "stateMutability": "view",
      "type": "function"
    }
  ],
  "bytecode": "0x60808060405234610016576103fb908161001c8239f35b600080fdfe6040608081526004908136101561001557600080fd5b6000803560e01c80632cc2878d146103045780634a7f2a4b146102995780635d3a09dc146101c557806363592c2b146101865780637a37dc2c146100e55763976222211461006257600080fd5b346100e25760607ffffffffffffffffffffffffffffffffffffffffffffffffffffffffffffffffc3601126100e257506100d96020926100a061039d565b6044359135600052600060205273ffffffffffffffffffffffffffffffffffffffff604060002091166000526020526040600020541490565b90519015158152f35b80fd5b50913461018257602090817ffffffffffffffffffffffffffffffffffffffffffffffffffffffffffffffffc36011261017e57359160ff831680930361017e577fdc0537f71d06d3708f52baf4ddf6918b25f1a145ba08873de27485682b35cac191838552848152818520338652815260018286205401908486528581528286203387528152818387205582519485528401523392a280f35b8380fd5b8280fd5b509190346101825760207ffffffffffffffffffffffffffffffffffffffffffffffffffffffffffffffffc360112610182576020925051903542108152f35b5091903461018257807ffffffffffffffffffffffffffffffffffffffffffffffffffffffffffffffffc36011261018257813591602435908115801561028f575b6102685750907fdc0537f71d06d3708f52baf4ddf6918b25f1a145ba08873de27485682b35cac191838552846020528185203386526020528185205401838552846020528185203386526020528082862055815193845260208401523392a280f35b82517fbd71636d000000000000000000000000000000000000000000000000000000008152fd5b5060ff8211610206565b50913461018257817ffffffffffffffffffffffffffffffffffffffffffffffffffffffffffffffffc3601126101825760209282916102d661039d565b9035825281855273ffffffffffffffffffffffffffffffffffffffff83832091168252845220549051908152f35b5091346101825760207ffffffffffffffffffffffffffffffffffffffffffffffffffffffffffffffffc360112610182576020925035908160d81c42109182610351575b50519015158152f35b60a081901c61ffff1660009081526020818152604080832073ffffffffffffffffffffffffffffffffffffffff8516845290915290205491925060b01c64ffffffffff16149038610348565b6024359073ffffffffffffffffffffffffffffffffffffffff821682036103c057565b600080fdfea2646970667358221220258c9a8e5404f0c8abfb00cccdf2beb2bc92dcad9c465585819a93374a421a4a64736f6c63430008170033",
  "linkReferences": {},
  "deployedLinkReferences": {}
}