{
  "_format": "hh-sol-artifact-1",
  "contractName": "AmountGetterBase",
  "sourceName": "contracts/lop/extensions/AmountGetterBase.sol",
  "abi": [
    {
      "inputs": [
        {
          "components": [
            {
              "internalType": "uint256",
              "name": "salt",
              "type": "uint256"
            },
            {
              "internalType": "Address",
              "name": "maker",
              "type": "uint256"
            },
            {
              "internalType": "Address",
              "name": "receiver",
              "type": "uint256"
            },
            {
              "internalType": "Address",
              "name": "makerAsset",
              "type": "uint256"
            },
            {
              "internalType": "Address",
              "name": "takerAsset",
              "type": "uint256"
            },
            {
              "internalType": "uint256",
              "name": "makingAmount",
              "type": "uint256"
            },
            {
              "internalType": "uint256",
              "name": "takingAmount",
              "type": "uint256"
            },
            {
              "internalType": "MakerTraits",
              "name": "makerTraits",
              "type": "uint256"
            }
          ],
          "internalType": "struct IOrderMixin.Order",
          "name": "order",
          "type": "tuple"
        },
        {
          "internalType": "bytes",
          "name": "extension",
          "type": "bytes"
        },
        {
          "internalType": "bytes32",
          "name": "orderHash",
          "type": "bytes32"
        },
        {
          "internalType": "address",
          "name": "taker",
          "type": "address"
        },
        {
          "internalType": "uint256",
          "name": "takingAmount",
          "type": "uint256"
        },
        {
          "internalType": "uint256",
          "name": "remainingMakingAmount",
          "type": "uint256"
        },
        {
          "internalType": "bytes",
          "name": "extraData",
          "type": "bytes"
        }
      ],
      "name": "getMakingAmount",
      "outputs": [
        {
          "internalType": "uint256",
          "name": "",
          "type": "uint256"
        }
      ],
      "stateMutability": "view",
      "type": "function"
    },
    {
      "inputs": [
        {
          "components": [
            {
              "internalType": "uint256",
              "name": "salt",
              "type": "uint256"
            },
            {
              "internalType": "Address",
              "name": "maker",
              "type": "uint256"
            },
            {
              "internalType": "Address",
              "name": "receiver",
              "type": "uint256"
            },
            {
              "internalType": "Address",
              "name": "makerAsset",
              "type": "uint256"
            },
            {
              "internalType": "Address",
              "name": "takerAsset",
              "type": "uint256"
            },
            {
              "internalType": "uint256",
              "name": "makingAmount",
              "type": "uint256"
            },
            {
              "internalType": "uint256",
              "name": "takingAmount",
              "type": "uint256"
            },
            {
              "internalType": "MakerTraits",
              "name": "makerTraits",
              "type": "uint256"
            }
          ],
          "internalType": "struct IOrderMixin.Order",
          "name": "order",
          "type": "tuple"
        },
        {
          "internalType": "bytes",
          "name": "extension",
          "type": "bytes"
        },
        {
          "internalType": "bytes32",
          "name": "orderHash",
          "type": "bytes32"
        },
        {
          "internalType": "address",
          "name": "taker",
          "type": "address"
        },
        {
          "internalType": "uint256",
          "name": "makingAmount",
          "type": "uint256"
        },
        {
          "internalType": "uint256",
          "name": "remainingMakingAmount",
          "type": "uint256"
        },
        {
          "internalType": "bytes",
          "name": "extraData",
          "type": "bytes"
        }
      ],
      "name": "getTakingAmount",
      "outputs": [
        {
          "internalType": "uint256",
          "name": "",
          "type": "uint256"
        }
      ],
      "stateMutability": "view",
      "type": "function"
    }
  ],
  "bytecode": "0x6080806040523461001657610607908161001c8239f35b600080fdfe6080604052600436101561001257600080fd5b60003560e01c80631d9671c3146100615763d7ff8a801461003257600080fd5b3461005c576020610054610045366100b1565b979690969591959492946103f5565b604051908152f35b600080fd5b3461005c576020610054610074366100b1565b979690969591959492946102fa565b9181601f8401121561005c5782359167ffffffffffffffff831161005c576020838186019501011161005c57565b907ffffffffffffffffffffffffffffffffffffffffffffffffffffffffffffffffc82016101c0811261005c576101001361005c5760049167ffffffffffffffff906101043582811161005c578161010b91600401610083565b9390939261012435926101443573ffffffffffffffffffffffffffffffffffffffff8116810361005c5792610164359261018435926101a43591821161005c5761015791600401610083565b9091565b7fffffffffffffffffffffffffffffffffffffffff000000000000000000000000903581811693926014811061019057505050565b60140360031b82901b16169150565b90601f7fffffffffffffffffffffffffffffffffffffffffffffffffffffffffffffffe0910116810190811067ffffffffffffffff8211176101e057604052565b7f4e487b7100000000000000000000000000000000000000000000000000000000600052604160045260246000fd5b601f82602094937fffffffffffffffffffffffffffffffffffffffffffffffffffffffffffffffe0938186528686013760008582860101520116010190565b949073ffffffffffffffffffffffffffffffffffffffff926102f79a98959997946102cf9260e06101c09180358b52602081013560208c0152604081013560408c0152606081013560608c0152608081013560808c015260a081013560a08c015260c081013560c08c0152013560e08a0152806101008a015288019161020f565b97610120860152166101408401526101608301526101808201526101a081850391015261020f565b90565b90979496939594929390601484106103d957610316848361015b565b60601c958460141161005c576020986014987fffffffffffffffffffffffffffffffffffffffffffffffffffffffffffffffec97610388966040519d8e9c8d9b8c9b7f1d9671c3000000000000000000000000000000000000000000000000000000008d520198019660048b0161024e565b03915afa9081156103cd5760009161039e575090565b90506020813d6020116103c5575b816103b96020938361019f565b8101031261005c575190565b3d91506103ac565b6040513d6000823e3d90fd5b96955050505050506102f7925060a060c0830135920135610515565b909794969395949293906014841061048357610411848361015b565b60601c958460141161005c576020986014987fffffffffffffffffffffffffffffffffffffffffffffffffffffffffffffffec97610388966040519d8e9c8d9b8c9b7fd7ff8a80000000000000000000000000000000000000000000000000000000008d520198019660048b0161024e565b975050505050505060a060c0830135920135906104a1828285610515565b9282156104e65709151581018091116104b75790565b7f4e487b7100000000000000000000000000000000000000000000000000000000600052601160045260246000fd5b7f4e487b7100000000000000000000000000000000000000000000000000000000600052601260045260246000fd5b90917fffffffffffffffffffffffffffffffffffffffffffffffffffffffffffffffff83830992808302928380861095039480860395146105c357848311156105aa579082910981600003821680920460028082600302188083028203028083028203028083028203028083028203028083028203028092029003029360018380600003040190848311900302920304170290565b82634e487b71600052156003026011186020526024601cfd5b5050809250156104e657049056fea2646970667358221220e2f63c29ef93d08ffad678c054474dfc934d1f0e8b4b959aba9c6960bb0a22e364736f6c63430008170033",
  "linkReferences": {},
  "deployedLinkReferences": {}
}