{
  "_format": "hh-sol-artifact-1",
  "contractName": "ERC1155Proxy",
  "sourceName": "contracts/lop/extensions/ERC1155Proxy.sol",
  "abi": [
    {
      "inputs": [
        {
          "internalType": "address",
          "name": "_immutableOwner",
          "type": "address"
        }
      ],
      "stateMutability": "nonpayable",
      "type": "constructor"
    },
    {
      "inputs": [],
      "name": "ERC1155ProxyBadSelector",
      "type": "error"
    },
    {
      "inputs": [],
      "name": "IOAccessDenied",
      "type": "error"
    },
    {
      "inputs": [],
      "name": "IMMUTABLE_OWNER",
      "outputs": [
        {
          "internalType": "address",
          "name": "",
          "type": "address"
        }
      ],
      "stateMutability": "view",
      "type": "function"
    },
    {
      "inputs": [
        {
          "internalType": "address",
          "name": "from",
          "type": "address"
        },
        {
          "internalType": "address",
          "name": "to",
          "type": "address"
        },
        {
          "internalType": "uint256",
          "name": "amount",
          "type": "uint256"
        },
        {
          "internalType": "contract IERC1155",
          "name": "token",
          "type": "address"
        },
        {
          "internalType": "uint256",
          "name": "tokenId",
          "type": "uint256"
        },
        {
          "internalType": "bytes",
          "name": "data",
          "type": "bytes"
        }
      ],
      "name": "func_301JL5R",
      "outputs": [],
      "stateMutability": "nonpayable",
      "type": "function"
    }
  ],
  "bytecode": "0x60a03461007057601f61037038819003918201601f19168301916001600160401b038311848410176100755780849260209460405283398101031261007057516001600160a01b0381168103610070576080526040516102e4908161008c8239608051818181608301526101550152f35b600080fd5b634e487b7160e01b600052604160045260246000fdfe60808060405260048036101561001457600080fd5b600091823560e01c91826323b872dd146100aa57505063f3d1372f1461003957600080fd5b346100a757807ffffffffffffffffffffffffffffffffffffffffffffffffffffffffffffffffc3601126100a757602060405173ffffffffffffffffffffffffffffffffffffffff7f0000000000000000000000000000000000000000000000000000000000000000168152f35b80fd5b909150346102aa5760c07ffffffffffffffffffffffffffffffffffffffffffffffffffffffffffffffffc3601126102aa5780359173ffffffffffffffffffffffffffffffffffffffff9283811680910361026f57602435908482168092036102a657606435908582168092036102a25760a4359567ffffffffffffffff9485881161029e573660238901121561029e57878701359186831161029a57366024848b01011161029a577f000000000000000000000000000000000000000000000000000000000000000016330361027357509082918894933b1561026f5760c4877fffffffffffffffffffffffffffffffffffffffffffffffffffffffffffffffe0601f84899560246040519e8f9b8c9a8b987ff242432a000000000000000000000000000000000000000000000000000000008a52890152828801526084356044880152604435606488015260a060848801528260a4880152018686013785858286010152011681010301925af1801561026457610227578380f35b821161023857506040523880808380f35b8260416024927f4e487b7100000000000000000000000000000000000000000000000000000000835252fd5b6040513d86823e3d90fd5b8480fd5b807f497131ed00000000000000000000000000000000000000000000000000000000889252fd5b8980fd5b8880fd5b8680fd5b8580fd5b8280fdfea264697066735822122018efffe4f4812a9f0b6163805d10c2f409c6cdeb6e4f2b9cb23447640cb0692364736f6c63430008170033",
  "linkReferences": {},
  "deployedLinkReferences": {}
}