{
  "_format": "hh-sol-artifact-1",
  "contractName": "RecursiveMatcher",
  "sourceName": "contracts/lop/mocks/RecursiveMatcher.sol",
  "abi": [
    {
      "inputs": [
        {
          "internalType": "bytes",
          "name": "reason",
          "type": "bytes"
        }
      ],
      "name": "FailedExternalCall",
      "type": "error"
    },
    {
      "inputs": [],
      "name": "IncorrectCalldataParams",
      "type": "error"
    },
    {
      "inputs": [
        {
          "internalType": "contract IOrderMixin",
          "name": "orderMixin",
          "type": "address"
        },
        {
          "components": [
            {
              "internalType": "uint256",
              "name": "salt",
              "type": "uint256"
            },
            {
              "internalType": "Address",
              "name": "maker",
              "type": "uint256"
            },
            {
              "internalType": "Address",
              "name": "receiver",
              "type": "uint256"
            },
            {
              "internalType": "Address",
              "name": "makerAsset",
              "type": "uint256"
            },
            {
              "internalType": "Address",
              "name": "takerAsset",
              "type": "uint256"
            },
            {
              "internalType": "uint256",
              "name": "makingAmount",
              "type": "uint256"
            },
            {
              "internalType": "uint256",
              "name": "takingAmount",
              "type": "uint256"
            },
            {
              "internalType": "MakerTraits",
              "name": "makerTraits",
              "type": "uint256"
            }
          ],
          "internalType": "struct IOrderMixin.Order",
          "name": "order",
          "type": "tuple"
        },
        {
          "internalType": "bytes32",
          "name": "r",
          "type": "bytes32"
        },
        {
          "internalType": "bytes32",
          "name": "vs",
          "type": "bytes32"
        },
        {
          "internalType": "uint256",
          "name": "amount",
          "type": "uint256"
        },
        {
          "internalType": "TakerTraits",
          "name": "takerTraits",
          "type": "uint256"
        },
        {
          "internalType": "bytes",
          "name": "args",
          "type": "bytes"
        }
      ],
      "name": "matchOrders",
      "outputs": [],
      "stateMutability": "nonpayable",
      "type": "function"
    },
    {
      "inputs": [
        {
          "components": [
            {
              "internalType": "uint256",
              "name": "salt",
              "type": "uint256"
            },
            {
              "internalType": "Address",
              "name": "maker",
              "type": "uint256"
            },
            {
              "internalType": "Address",
              "name": "receiver",
              "type": "uint256"
            },
            {
              "internalType": "Address",
              "name": "makerAsset",
              "type": "uint256"
            },
            {
              "internalType": "Address",
              "name": "takerAsset",
              "type": "uint256"
            },
            {
              "internalType": "uint256",
              "name": "makingAmount",
              "type": "uint256"
            },
            {
              "internalType": "uint256",
              "name": "takingAmount",
              "type": "uint256"
            },
            {
              "internalType": "MakerTraits",
              "name": "makerTraits",
              "type": "uint256"
            }
          ],
          "internalType": "struct IOrderMixin.Order",
          "name": "",
          "type": "tuple"
        },
        {
          "internalType": "bytes",
          "name": "",
          "type": "bytes"
        },
        {
          "internalType": "bytes32",
          "name": "",
          "type": "bytes32"
        },
        {
          "internalType": "address",
          "name": "",
          "type": "address"
        },
        {
          "internalType": "uint256",
          "name": "",
          "type": "uint256"
        },
        {
          "internalType": "uint256",
          "name": "",
          "type": "uint256"
        },
        {
          "internalType": "uint256",
          "name": "",
          "type": "uint256"
        },
        {
          "internalType": "bytes",
          "name": "extraData",
          "type": "bytes"
        }
      ],
      "name": "takerInteraction",
      "outputs": [],
      "stateMutability": "nonpayable",
      "type": "function"
    }
  ],
  "bytecode": "0x60808060405234610016576107ff908161001c8239f35b600080fdfe608080604052600436101561001357600080fd5b60003560e01c908163adf38ba1146101fb575063eade14cc1461003557600080fd5b346101e3576101c07ffffffffffffffffffffffffffffffffffffffffffffffffffffffffffffffffc3601126101e35760043573ffffffffffffffffffffffffffffffffffffffff81168091036101e3576101007fffffffffffffffffffffffffffffffffffffffffffffffffffffffffffffffdc3601126101e3576101246101449161016490610184936101a480359067ffffffffffffffff82116101e3576060957fffffffffffffffffffffffffffffffffffffffffffffffffffffffffffffffe0601f61010b600095369060040161062f565b8091956101a06040519d8e9c8d9b8c997ff497df75000000000000000000000000000000000000000000000000000000008b5260243560048c015260443560248c015260643560448c015260843560648c015260a43560848c015260c43560a48c015260e43560c48c0152610104803560e48d01528135908c01528135908b01528135908a0152813590890152870152850152806101c4958686013785858286010152011681010301925af180156101ef576101c357005b606090813d83116101e8575b6101d9818361065d565b810103126101e357005b600080fd5b503d6101cf565b6040513d6000823e3d90fd5b346101e3577ffffffffffffffffffffffffffffffffffffffffffffffffffffffffffffffffc36016101e081126101e357610100136101e3576101043567ffffffffffffffff81116101e35761025590369060040161062f565b50506101443573ffffffffffffffffffffffffffffffffffffffff8116036101e3576101c43567ffffffffffffffff81116101e35761029890369060040161062f565b909181156106005782357f0100000000000000000000000000000000000000000000000000000000000000161561056c5750806001116101e35760407fffffffffffffffffffffffffffffffffffffffffffffffffffffffffffffffff838381010301126101e357600182013567ffffffffffffffff81116101e3578201918181016020840112156101e35760219060018401356103358161079d565b94610343604051968761065d565b81865283602087019260051b8201019085840182116101e3578401915b81831061053f57505050818101359067ffffffffffffffff82116101e35783810160208383010112156101e357600182820101359161039e8361079d565b946103ac604051968761065d565b8386526020860191818401868660051b8387010101116101e3578581850101925b868660051b838701010184106104b0575050505050505081518151036104865760005b82518110156104845760008073ffffffffffffffffffffffffffffffffffffffff61041b84876107b5565b511661042784866107b5565b519082602083519301915af161043b610707565b901561044a57506001016103f0565b610480906040519182917f20508f4500000000000000000000000000000000000000000000000000000000835260048301610737565b0390fd5b005b60046040517f969d9818000000000000000000000000000000000000000000000000000000008152fd5b833567ffffffffffffffff81116101e357838601604082858901010112156101e3576104e288828589010101356106cd565b906104f0604051928361065d565b8684018101808a01358084528689019101604101116101e3578892602092839260009084908790898d018101808301359060410186850137898d010101358301015281520194019390506103cd565b823573ffffffffffffffffffffffffffffffffffffffff811681036101e357815260209283019201610360565b91816001116101e357826105ea602382600096956020889701957ff497df7500000000000000000000000000000000000000000000000000000000875260017fffffffffffffffffffffffffffffffffffffffffffffffffffffffffffffffff8301910160248401378101868382015203600381018452018261065d565b519082335af16105f8610707565b901561044a57005b7f4e487b7100000000000000000000000000000000000000000000000000000000600052603260045260246000fd5b9181601f840112156101e35782359167ffffffffffffffff83116101e357602083818601950101116101e357565b90601f7fffffffffffffffffffffffffffffffffffffffffffffffffffffffffffffffe0910116810190811067ffffffffffffffff82111761069e57604052565b7f4e487b7100000000000000000000000000000000000000000000000000000000600052604160045260246000fd5b67ffffffffffffffff811161069e57601f017fffffffffffffffffffffffffffffffffffffffffffffffffffffffffffffffe01660200190565b3d15610732573d90610718826106cd565b91610726604051938461065d565b82523d6000602084013e565b606090565b60208082528251818301819052939260005b858110610789575050507fffffffffffffffffffffffffffffffffffffffffffffffffffffffffffffffe0601f8460006040809697860101520116010190565b818101830151848201604001528201610749565b67ffffffffffffffff811161069e5760051b60200190565b80518210156106005760209160051b01019056fea2646970667358221220f22c3a4da8d24bb2a982839aa7990e9e69f702f4ba2b7cc39fd14ae7e10ae25364736f6c63430008170033",
  "linkReferences": {},
  "deployedLinkReferences": {}
}